:100000000C94E1070C9428080C9428080C942808F8
:100010000C9428080C9428080C9428080C942808A0
:100020000C9428080C9428080C94572B0C94292C19
:100030000C94991D0C9428080C9428080C942808FA
:100040000C9428080C9428080C9428080C94280870
:100050000C9428080C940D1E0C9428080C94280865
:100060000C9428080C9428080C9428080C94280850
:100070000C9428080C9428080C9428080C94280840
:100080000C9428080C9428080C9428080C94280830
:100090000C9428080C9428080C9428080C94280820
:1000A0000C9428080C9428080C942808EB0AED0AF4
:1000B000F80AEF0AF10AF30AF50AF70AFA0AFC0A43
:1000C000FE0A090B000B020B040B060B080B0B0BB3
:1000D0006612661298129812D612F4125A145A1412
:1000E00036135A14D913D9134A145A145A145314E0
:1000F000E613E613E613E613E613E613E613E61338
:10010000E613E613E613E613E613E613E613E61327
:10011000F71305140C1413141D14EB14EB14FD1435
:10012000FD14F414FD14FD14FD14EB14EB14F91478
:10013000FD14FD14F914AD239B23BF2361229824E1
:100140009824982398249824EC2398240024782435
:1001500098249824982498243424982498241D249E
:100160009824D82398249824922492249224922488
:100170009224922492249224922494249824AD23AD
:100180009023982498249824982498249824982498
:100190009824982498249424982498249823982484
:1001A00090249024902490249024902490249024AF
:1001B00090249424962CBD2CB52DBD2CB52D092D45
:1001C0002C2DB52D832D922D0A002530313662005D
:1001D0003A200025303258000A722F632030313225
:1001E000333435363738394142434445460A0014E2
:1001F000001A000800150017001C0018000C00125F
:1002000000130004001600070009000A000B000D8F
:10021000000E000F0033001D001B00060019000532
:1002200000110010003600370038000000350028AB
:10023000422B432C722A624C4329422F00000000BB
:10024000000000E300E200E0003471317430780017
:100250000000000100010001000100010001000197
:100260000001000100010001000100010001000186
:100270000001000100010001000100010001000176
:100280000001000100010001000100010001000067
:100290000001000100010001000100010001000156
:1002A000000000000000000100326464610100E60B
:1002B000000100000000003A003B003C003D003E11
:1002C000003F0040004100420043001E021F022088
:1002D0000221022202230224022502260227021EF4
:1002E000001F0020002100220023002400250026FA
:1002F00000270000002D02010001000100010001A3
:10030000000100440000000000000001002E6457BE
:10031000612D71010045780000000054005F00600D
:100320000061005600A9004A0046004B00470055F6
:10033000005C005D005E005700A800500052004FB6
:10034000004900620059005A005B008500AA004D78
:100350000051004E00480000005300010001000160
:100360000001000100010039000000000000000150
:1003700000010067616571010001000000000017C5
:100380005C00000000000000000000000000000011
:1003900000175C1A5C00000000F05CF15CF15CF09E
:1003A0005C000000001A5C185C00000000015305AE
:1003B000530553015300000000185C0000015C016C
:1003C0000001000100010001000100015C000000CB
:1003D000000000005C0000195C195C0000005C007B
:1003E0000000000100010001000100010001000106
:1003F00000010001000100010001000100010001F5
:1004000000010001000100010001000100010001E4
:1004100000010001000100010001000100010000D5
:1004200000010029424C432A622C722B43284201CE
:1004300000000000000000010001000100010001B7
:100440000001000000000044454255473A20656E17
:1004500061626C65642E0A00556E69636F64652085
:10046000696E707574206D6F646520736574207497
:100470006F3A2025750A00556E69636F64652069BF
:100480006E707574206D6F646520696E6974207478
:100490006F3A2025750A000A002530325820006B7B
:1004A0006579626F6172645F7265706F72743A2011
:1004B000000A0025303258006B6579626F61726402
:1004C0005F7365745F6C65643A20004F6E65736896
:1004D0006F743A2074696D656F75740A0064656C99
:1004E0005F6B65795F6269743A2063616E2774207F
:1004F00064656C3A20253032580A006164645F6B91
:1005000065795F6269743A2063616E277420616463
:10051000643A20253032580A00290A002575002F38
:10052000002575005D28002564002000256400205A
:100530000025640020002564007C0025303258002E
:100540006D6F7573656B6579205B62746E7C782066
:1005500079207620685D287265702F61636C293A76
:10056000205B006D6B5F776865656C5F74696D65B6
:100570005F746F5F6D6178203D2025640A006D6BAC
:100580005F776865656C5F6D61785F7370656564E2
:10059000203D2025640A006D6B5F74696D655F7492
:1005A0006F5F6D6178203D2025640A006D6B5F6D83
:1005B00061785F7370656564203D2025640A006D75
:1005C0006B5F696E74657276616C203D2025640AEC
:1005D000006D6B5F64656C6179203D2025640A00C5
:1005E0006D6B5F776865656C5F74696D655F746F6F
:1005F0005F6D6178203D2025640A006D6B5F776830
:1006000065656C5F6D61785F7370656564203D2022
:1006100025640A006D6B5F74696D655F746F5F6D53
:100620006178203D2025640A006D6B5F6D61785F05
:100630007370656564203D2025640A006D6B5F69F9
:100640006E74657276616C203D2025640A006D6BC6
:100650005F64656C6179203D2025640A000A0025ED
:100660007500363A20776865656C5F74696D655F03
:10067000746F5F6D61783A20000A00257500353A85
:1006800020776865656C5F6D61785F737065656420
:100690003A20000A00257500343A2074696D655FC0
:1006A000746F5F6D61783A20000A00257500333A57
:1006B000206D61785F73706565643A20000A0025DB
:1006C0007500323A20696E74657276616C286D73BC
:1006D000293A20000A00257500313A2064656C61D2
:1006E00079282A31306D73293A20000A092D2056C5
:1006F000616C756573202D0A004D3E004D25643EEA
:1007000020003F007365742064656661756C740A2F
:1007100000433E200077686572652064656C7461F3
:100720003A20637572736F723D25642C207768657B
:10073000656C3D25640A53656520687474703A2FB2
:100740002F656E2E77696B6970656469612E6F72B3
:10075000672F77696B692F4D6F7573655F6B65796F
:10076000730A000A092D204D6F7573656B6579203A
:100770002D0A4553432F713A09717569740A313A4C
:100780000964656C6179282A31306D73290A323A1F
:1007900009696E74657276616C286D73290A333A43
:1007A000096D61785F73706565640A343A0974692C
:1007B0006D655F746F5F6D61780A353A09776865BA
:1007C000656C5F6D61785F73706565640A363A09C0
:1007D000776865656C5F74696D655F746F5F6D6187
:1007E000780A0A703A097072696E742076616C75C5
:1007F00065730A643A097365742064656661756C93
:1008000074730A75703A092B310A646F776E3A096E
:100810002D310A706775703A092B31300A706764A0
:100820006F776E3A092D31300A0A7370656564205E
:100830003D2064656C7461202A206D61785F73705F
:10084000656564202A2028726570656174202F20F8
:1008500074696D655F746F5F6D6178290A003F0090
:100860004D3E2000433E20004C25640A0074696D13
:1008700065725F72656164333228293A202530340D
:100880006C580A006B65796D61705F636F6E6669A5
:10089000672E6E6B726F3A2025580A006B6579627D
:1008A0006F6172645F69646C653A2025580A006B59
:1008B0006579626F6172645F70726F746F636F6C81
:1008C0003A2025580A00686F73745F6B6579626F10
:1008D0006172645F6C65647328293A2025580A00A8
:1008E0000A092D20537461747573202D0A00474343
:1008F000433A20352E342E30204156522D4C494259
:10090000433A20322E302E30204156525F4152431E
:10091000483A20617672350A004F5054494F4E5381
:100920003A204C554641204D4F5553454B45592093
:1009300045585452414B455920434F4E534F4C4517
:1009400020434F4D4D414E44204E4B524F203430AA
:1009500039360A004255494C443A2022302E362E70
:100960003330392D32322D673032653165392D649F
:100970006972747922202832323A30373A3434207E
:100980005365702020322032303139290A0056490F
:10099000443A2030784645454428556E6B6E6F7753
:1009A0006E29205049443A20307836303630284D70
:1009B00069746F73697329205645523A2030783034
:1009C0003030310A00444553433A20712E6D2E6B6E
:1009D0002E206B6579626F617264206669726D7733
:1009E00061726520666F72204D69746F7369730A56
:1009F000000A092D2056657273696F6E202D0A005A
:100A00000A092D20436F6E736F6C65202D0A4553C4
:100A1000432F713A09717569740A6D3A096D6F75E2
:100A200073656B65790A000A092D204D616769635A
:100A3000202D0A443A094465627567204D65737339
:100A400061676520546F67676C650A583A094D61A4
:100A500074726978204465627567204D6F64652003
:100A6000546F67676C65202D2053686F77206B6526
:100A7000797072657373657320696E206D6174722D
:100A8000697820677269640A4B3A094B6579626F2D
:100A900061726420446562756720546F67676C6596
:100AA000202D2053686F77206B65797072657373A2
:100AB000207265706F72740A4D3A094465627567F9
:100AC000204D6F75736520546F67676C650A563AE1
:100AD0000956657273696F6E0A533A0953746174EB
:100AE00075730A433A0941637469766174652043FA
:100AF0006F6E736F6C65204D6F64650A46312D46CD
:100B000031303A0953776974636820746F204C61FF
:100B100079657220302D392028463130203D204C17
:100B200030290A302D393A09537769746368207483
:100B30006F204C6179657220302D390A4752415639
:100B4000453A0953776974636820746F204C617962
:100B5000657220302028616C7465726E617465293D
:100B60000A423A094A756D7020746F20426F6F74A3
:100B70006C6F616465720A4553433A094A756D703A
:100B800020746F20426F6F746C6F616465722028EF
:100B9000616C7465726E617465290A453A09507218
:100BA000696E7420454550524F4D205365747469E9
:100BB0006E67730A4253504143453A09436C65617D
:100BC0007220454550524F4D0A4E3A094E4B524FF6
:100BD00020546F67676C650A000A002575002E6E49
:100BE0006B726F3A20000A002575002E73776170D2
:100BF0005F6261636B736C6173685F6261636B7387
:100C0000706163653A20000A002575002E737761D4
:100C1000705F67726176655F6573633A20000A00F2
:100C20002575002E6E6F5F6775693A20000A0025F2
:100C300075002E737761705F72616C745F72677597
:100C4000693A20000A002575002E737761705F6C89
:100C5000616C745F6C6775693A20000A0025750045
:100C60002E636170736C6F636B5F746F5F636F6E25
:100C700074726F6C3A20000A002575002E7377613C
:100C8000705F636F6E74726F6C5F636170736C6FB3
:100C9000636B3A20000A0025303258006B65796D8D
:100CA00061705F636F6E6669672E7261773A2000CC
:100CB0000A002575002E6D6F7573653A20000A00D5
:100CC0002575002E6B6579626F6172643A20000AA7
:100CD000002575002E6D61747269783A20000A0053
:100CE0002575002E656E61626C653A20000A00254C
:100CF0003032580064656275675F636F6E6669675E
:100D00002E7261773A20000A0025750064656661DD
:100D1000756C745F6C617965723A20003F004E4BD0
:100D2000524F3A206F66660A004E4B524F3A206F80
:100D30006E0A000A6D6F7573653A206F66660A0069
:100D40000A6D6F7573653A206F6E0A000A6B6579DC
:100D5000626F6172643A206F66660A000A6B657999
:100D6000626F6172643A206F6E0A000A6D6174727C
:100D700069783A206F66660A000A6D617472697854
:100D80003A206F6E0A000A64656275673A206F66E2
:100D9000660A000A64656275673A206F6E0A000A87
:100DA0000A4A756D70696E6720746F20626F6F7488
:100DB0006C6F616465722E2E2E2000433E2000432E
:100DC0006C656172696E6720454550524F4D0A004F
:100DD0006565636F6E6669673A0A005B735D004B19
:100DE0006579626F6172642073746172742E0A0097
:100DF0005B575D005B535D005B525D005B445D00D3
:100E00005B435D0004033000000010034D006900E7
:100E100074006F0073006900730000001003550038
:100E20006E006B006E006F0077006E000000040320
:100E3000090409025B00030100A0FA090400000193
:100E40000301010009211101000122400007058171
:100E50000308000A09040100010300000009211130
:100E600001000122C0000705820320000A090402D4
:100E700000020300000009211101000122220007E5
:100E80000583032000010705030320000112011060
:100E90000100000008EDFE60600100010203010690
:100EA00031FF0974A1010975150026FF0095207511
:100EB0000881020976150026FF0095207508910229
:100EC000C005010902A10185020901A10005091956
:100ED000012905150025019505750181029501750A
:100EE0000381010501093009311581257F950275BE
:100EF00008810609381581257F9501750881060549
:100F00000C0A38021581257F950175088106C0C03D
:100F100005010980A10185031601002603001A813D
:100F2000002A8300751095018100C0050C0901A1FC
:100F3000018504160100269C021A01002A9C0275F4
:100F40001095018100C005010906A101850505076D
:100F500019E029E7150025019508750181020508AA
:100F600019012905950575019102950175039101F6
:100F70000507190029EF1500250195F0750181027B
:100F8000C005010906A101050719E029E71500259B
:100F900001950875018102950175088101050819FF
:100FA00001290595057501910295017503910105CA
:100FB00007190029FF150026FF0095067508810016
:100FC000C00011241FBECFEFDAE0DEBFCDBF04B6F4
:100FD00003FE27C080912B0290912C02A0912D023C
:100FE000B0912E028730904BA740B04BD1F41092B5
:100FF0002B0210922C0210922D0210922E0214BE7F
:1010000084B7877F84BF0FB6F894A895809160005D
:10101000886180936000109260000FBEE0E0F8E30A
:10102000099511E0A0E0B1E0ECECFCE502C0059010
:101030000D92AC32B107D9F722E0ACE2B1E001C0C9
:101040001D92AB32B207E1F70E9478280C94642E0F
:101050000C940000FF93EF93E0912C01F0912D018F
:10106000309709F00995EF91FF910895FC01859162
:10107000803011F0EFDFFBCF0895FF27E0E230E290
:1010800047FF0CC0419597FF09C0EDE26095709550
:1010900080959095611D711D811D911D27FF02C0D6
:1010A000219530E350E2AA27660F771F881F991F0A
:1010B000AA1FA41710F0A41B63955A95A9F7AA308C
:1010C00008F0A95FA05DAF93F395611571058105E7
:1010D000910541F7ED3211F4EF93F395F21718F4FF
:1010E0003F93F395FBCF8F91B5DFFA95E1F7089524
:1010F000E991F9918591803021F0853219F0AADFCC
:10110000F9CF089520E0E89455915532C1F350335A
:1011100011F4689455915A3348F4505390F3220FC8
:10112000022E220F220F200D250FF4CF0EF4219551
:1011300089919991533619F3533729F1533559F160
:10114000BC0188279927E8945C3621F4899199910C
:1011500068945591543639F446EF7EF077FF0DC010
:101160008FEF9FEF0AC055374AE039F0583540E11C
:1011700021F0523642E009F00895FF93EF937DDFAE
:10118000EF91FF91B7CFFF93EF93FC0181918030F6
:10119000B9F360DFFBCFFF93EF9368DFF1CFDF930D
:1011A000CF93CDB7DEB72596A3DFCF91DF9108951A
:1011B00008950C94D8080C94D8080C94060ACF9380
:1011C000DF93CDB7DEB72B970FB6F894DEBF0FBE17
:1011D000CDBF83E08093CC001092CD0088E1809356
:1011E000C90086E08093CA0083E78093CE00FE01A9
:1011F00031968BE0DF011D928A95E9F7CE010C96BE
:10120000DF0140E050E0BA012091C80027FD0AC08C
:101210004F5F5F4F6F4F7F4F413127E252076105AC
:10122000710590F32091CE002D93A817B90761F7AF
:101230008B85803E91F4AEE2B1E09E01255F3F4F89
:10124000818140E2849FC00111244081842B8D93D1
:101250009D933296E217F30799F70E94100A81E0F6
:101260002B960FB6F894DEBF0FBECDBFDF91CF91A6
:101270000895E82FF0E0EE0FFF1FE25DFE4F808142
:1012800091810895CF92DF92EF92FF920F931F9377
:10129000CF93DF9388ED91E00E9436088EE2E82E2E
:1012A00081E0F82EC0E0D0E093EDC92E91E0D92E78
:1012B0000AEC11E0DF93CF93DF92CF920E94CF0828
:1012C00080ED91E00E943608F701819191917F01B4
:1012D0000E94021C9F938F931F930F930E94CF082D
:1012E00088EC91E00E94360821968DB79EB708964B
:1012F0000FB6F8949EBF0FBE8DBFC530D105D1F695
:10130000DF91CF911F910F91FF90EF90DF90CF90E1
:10131000089583E08093CC001092CD0088E1809303
:10132000C90086E08093CA000895519A599A80B303
:10133000806380BB81B3806381BB08950E94D9081C
:101340000E9489090C9495090F9304E023E042E080
:101350000E94B2090F91089581E0089581E00895F7
:101360000C94AE098F929F92AF92BF92CF92DF9270
:10137000EF92FF920F931F936B017C0181E090E04D
:10138000A0E0B0E04C015D0104C0880C991CAA1CCF
:10139000BB1C4A95D2F7AC01BD0104C0440F551FD8
:1013A000661F771F2A95D2F7482959296A297B2970
:1013B00004C0880F991FAA1FBB1F0A95D2F78A0184
:1013C0009B010C211D212E213F214017510762074F
:1013D000730739F4BC01CD016C297D298E299F2921
:1013E0000AC080959095A095B095BC01CD016C2167
:1013F0007D218E219F211F910F91FF90EF90DF9013
:10140000CF90BF90AF909F908F9008950E94151C31
:10141000811102C00E948F1C0E94560E0C949E09DE
:101420000C94DB08282F2F7041F0822F90E02A3097
:1014300010F44D9608950697089587E290E0089578
:1014400008950C94200A0C94210A08950E94D9143E
:101450000E94250A2FEF84E39CE0215080409040B9
:10146000E1F700C0000087E797E7909301088093B9
:1014700000080C94331EFF920F931F93CF93DF93BA
:101480008C01FC01C081D18180915101811113C077
:101490008281882349F0CE010E943B1AF82E682FE2
:1014A000CE010E94E41904C0CE010E940F1AF82E4A
:1014B000BE018F2D04C0CE010E943B1ABE010E94C6
:1014C000C90BEC01B8010E94B009882309F456C188
:1014D000B801CE010E94FA0E882309F44FC1C73D1E
:1014E000FCE5DF0719F5F8018281882351F010929D
:1014F0003D010E94CB1D90933A018093390182E017
:1015000032C080913D0181110FC0809139019091CD
:101510003A010E94E31D883C910530F486E20E9466
:10152000111186E20E94E71182E026C0C83D8CE5D9
:10153000D80728F1CC3D8CE5D80709F4D1C008F0D4
:10154000D6C0C83DFCE5DF0709F0EFC0F801828195
:10155000882361F010923E010E94CB1D90933C01C4
:1015600080933B0180E20E94231208C180913E01DA
:10157000882309F4C9C080E20E942A12FFC0C53145
:10158000ECE5DE0708F082C0C230FCE5DF0708F4B6
:1015900052C0F8018281882309F459C00E94151CA9
:1015A000811102C00E948F1C0E94281C90E0909321
:1015B0001D0280931C02FE01E350FC45E231F1055F
:1015C00030F4EA5AFF4F80911C020C94082E80914F
:1015D0001C02816027C0826025C0846023C08061B6
:1015E00021C080621FC080641DC080681BC08460F1
:1015F000886018C08E7F16C08D7F14C08B7F12C08C
:101600008F7E10C08F7D0EC08F7B0CC08F770AC07D
:101610008B7F877F07C087FB222720F991E09227E5
:1016200090FB87F980931C0280911C020E942C1C65
:101630000E94D914A3C0C1158CE5D80781F0C13030
:10164000DC45A9F081E080933D0180933E01C80113
:10165000DF91CF911F910F91FF900C94AC09F8018D
:101660008281882309F48AC00E94260A87C0F80173
:101670008281882309F482C08091DE018160809399
:10168000DE0187E494E00E94360878C0C631DC456C
:10169000C9F60E940A1B982FF8018281209100014F
:1016A00030910101882379F09A7A81E009F480E091
:1016B00080933801911102C069E201C065E3C9015C
:1016C0000E94191D0AC080913801811102C069E28F
:1016D00001C065E3C9010E94241D0E946A1B4EC01F
:1016E000F8018281882309F449C080E00AC0CD3D19
:1016F000ECE5DE07D1F5F8018281882309F43EC0CC
:1017000082E00E941E293AC080913B0190913C01E9
:101710000E94E31D883C910508F02DCF87E20E94CE
:10172000111187E20E94E71126CFC93DDC4509F07F
:1017300089CFF801828181110DCF80913E01811105
:101740001ACF80913B0190913C010E94E31D883C9F
:10175000910508F010CF80E20E942A1288E20E94D0
:10176000111188E20E94E71109C0CE3DDC4509F065
:1017700069CFF801828181110E948F1C80E0DF9186
:10178000CF911F910F91FF90089580E090E0089510
:10179000089522E3829FC0011124FC012AE0729F78
:1017A000E00DF11D1124E60FF11DEE0FFF1FE151B9
:1017B000FE4F859194910895880F991FFC01E85A76
:1017C000FB4F859194910895CF93DF930E94C90BAD
:1017D0000E94A00DEC018115904508F041C0C11593
:1017E00080E4D80708F028C1C83ED10510F5C03EF6
:1017F000D10508F0A1C1C83AD10578F4C53AD105A0
:1018000008F0A2C0C130D10509F496C108F447C15F
:10181000C430D10508F090C142C1CF3BD10508F4D6
:101820009EC0C03CD10508F43AC1CE01805C91094C
:10183000F5C0C11590E2D90758F4C11521E0D207CF
:1018400008F07AC1C03FD10508F429C1D06574C140
:10185000C11580E3D80708F0E5C0CE019F70DEC057
:10186000C11595E5D90708F043C0C11524E5D20795
:1018700008F0F9C0C11582E5D80708F5C11591E552
:10188000D90708F0DCC0CE0174E0969587957A956B
:10189000E1F783709C2F937021E030E002C0220FAB
:1018A000331F9A95E2F73C68382BCF70C695C695E2
:1018B00080E2C89FE0011124C22BD32B3DC19E01C1
:1018C000237033278C2F86958695C115D34508F054
:1018D000BBC0C1E0D0E002C0CC0FDD1F2A95E2F70B
:1018E00020E2829FC0011124C82BD92BDC6824C1BF
:1018F000C11529E5D207A0F4C11588E5D80708F07D
:10190000B7C0C11596E5D90708F0C9C08C2F0E9451
:101910001C0E8F71C82FD0E0DC2FCC27D0620CC1F9
:10192000C1152AE5D20708F4A8C0CE01905681154A
:10193000904208F0B4C08D2F8F710E941C0EDD27DD
:10194000D0628F71D82BF8C0C53AD10509F4AAC06E
:10195000C63AD10509F0A9C0C2E8D0E4EDC0C83A42
:10196000D10509F4A5C0C93AD10509F4A4C0CA3A01
:10197000D10509F4A3C0CB3AD10509F4A2C0CC3AF1
:10198000D10509F4A1C0CB3BD10509F4A0C0CC3BE3
:10199000D10509F49FC0CD3AD10509F49EC0C03BE2
:1019A000D10509F49DC0CE3AD10509F49CC0CF3AC7
:1019B000D10509F49BC0C13BD10509F49AC0C23BD3
:1019C000D10509F499C0C33BD10509F498C0C43BC3
:1019D000D10509F497C0C53BD10509F496C0C63BB3
:1019E000D10509F495C0C73BD10509F494C0C83BA3
:1019F000D10509F493C0C93BD10509F492C0CD3B90
:101A0000D10509F491C0CE3BD10509F490C0CA3B81
:101A1000D10509F48FC0C0E0D4E48EC00E94DC0B75
:101A2000EC018AC0CE019927D3FF03C0EC01D86C2A
:101A300083C0EC01D06C80C0DF70D06A7DC0DC2F29
:101A4000CC27C16FD06A78C0C1E0D0E002C0CC0F13
:101A5000DD1F2A95E2F720E2829FC0011124C82BE6
:101A6000D92BDA6869C0DC2FCC27C46FD06A64C078
:101A7000DC2FCC27C06FD06A5FC08C2F8F700E9484
:101A80001C0E94E0D695C7959A95E1F7CF70D0E0FB
:101A9000DC2FCC27D06A8F70806EC82B4DC0C0E081
:101AA000D0E04AC0C1E8D0E447C0C3E8D0E444C0B5
:101AB000C2EED4E441C0C9EED4E43EC0CAEED4E4E0
:101AC0003BC0C5EBD4E438C0C6EBD4E435C0C3EBAF
:101AD000D4E432C0C4EBD4E42FC0C7EBD4E42CC0B0
:101AE000CCECD4E429C0CDECD4E426C0C3E8D5E4E2
:101AF00023C0CAE8D5E420C0C2E9D5E41DC0C4E9CA
:101B0000D5E41AC0C1E2D6E417C0C3E2D6E414C0DB
:101B1000C4E2D6E411C0C5E2D6E40EC0C6E2D6E403
:101B20000BC0C7E2D6E408C0CFE6D4E405C0C0E7E6
:101B3000D4E402C0CAE2D6E4CE01DF91CF91089589
:101B40008238910549F1B0F48133910509F459C007
:101B500048F48932910509F44FC08A32910509F49D
:101B600055C008958533910509F441C08933910525
:101B700099F00895833E910531F138F4803E910546
:101B800091F0823E9105A9F00895863E910501F1FC
:101B9000873E910539F1089520911C0220FD3BC03C
:101BA00021FD39C0089580911C0280FF34C089E373
:101BB00041C080911C0282FF30C080911C0284FDD4
:101BC0002EC083EE37C080911C0282FD26C0F5CF67
:101BD00080911C0283FF25C080911C0284FD1FC0E0
:101BE00087EE28C080911C0283FD1BC0F5CF809139
:101BF0001C0285FD18C019C080911C0285FD15C00E
:101C000012C080911C0286FD12C013C080911C027C
:101C100086FD0FC00CC080EE0DC082EE0BC080E0D0
:101C200009C086EE07C089E205C085E303C08AE2E9
:101C300001C081E390E0089590911C0292FF0DC0D5
:101C4000282F2871283019F4877F846006C0282F38
:101C50002471243011F48B7F886093FF0DC0282FEE
:101C60002871283119F4877E846106C0282F2471D9
:101C7000243111F48B7E886194FD877E0895CF9383
:101C8000DF93813020E8920768F0FB012281222354
:101C900049F0EC010E94950ECE019F770E94DD0E67
:101CA0000E94CA0E81E0DF91CF9108958CE090E010
:101CB0000E94222E90E0A0E0B0E080931202909368
:101CC0001302A0931402B09315028091DE0180FFED
:101CD0000EC0809112021F928F9387E794E09F932A
:101CE0008F930E94CF080F900F900F900F90089540
:101CF000609112028CE090E00C94302E80931202DE
:101D00000E94780E8091DE0180FF0EC08091120249
:101D10001F928F9388E594E09F938F930E94CF0842
:101D20000F900F900F900F9008950E940A1B8093C0
:101D30003F010E941D1B80911202813071F048F01A
:101D40008230D9F08430F9F486EE0E941B1288E1CB
:101D500018C082EE0E94111116C080EE0E9411116F
:101D600081EE0E94111188E10E941B1281EE0E94F7
:101D7000E71180EE0E94E71106C082EE0E94111169
:101D800087E50E941B128FE39CE90197F1F700C0E1
:101D90000000089580911202813021F038F08230E5
:101DA00029F007C08CE20E941B1203C082EE0E9441
:101DB000E71180913F010C941A1B0F931F93CF934F
:101DC000DF938C01CCE0D0E0C8010C2E02C09695C8
:101DD00087950A94E2F78F700E94120A0E941B12E4
:101DE0002497CC3F8FEFD80779F7DF91CF911F91E0
:101DF0000F9108950F931F93CF93DF93EC018B0105
:101E0000FB018281882301F1C33EFCE5DF07B9F0C5
:101E100050F4C13EECE5DE0781F0C23EFCE5DF0791
:101E200099F481E00FC0C43E8CE5D80751F0C53E5F
:101E3000ECE5DE0749F484E005C080E003C082E001
:101E400001C083E00E947E0EB801CE01DF91CF91E8
:101E50001F910F910C943F0E909345018093440184
:101E60000895E0914401F0914501309721F00190EF
:101E7000F081E02D099480E00895EF92FF921F9386
:101E8000CF93DF93FC01A0914401B09145011097DD
:101E900009F442C080911201882341F080911C0214
:101EA00087FF04C08081818385E08083EF011296E3
:101EB000ED91FC911397CE0109958091DE0182FF8F
:101EC0002BC080FF04C08FE994E00E94360818E020
:101ED00089E9E82E84E0F82E8091DE0180FF0BC0B6
:101EE00088811F928F93FF92EF920E94CF080F90EC
:101EF0000F900F900F90115021961111EDCF8091FE
:101F0000DE0180FF09C087E994E0DF91CF911F9146
:101F1000FF90EF900C943608DF91CF911F91FF90C6
:101F2000EF900895E0914401F0914501309739F028
:101F300022E0DC012C930480F581E02D09940895C2
:101F400020914201309143012817390771F0909395
:101F5000430180934201E0914401F09145013097A3
:101F600021F00680F781E02D099408952091400129
:101F7000309141012817390771F090934101809306
:101F80004001E0914401F0914501309721F0008437
:101F9000F185E02D0994089585B7806885BF85B7E0
:101FA000806885BF089508950C94D30F0C94D40FC6
:101FB0000C94D30F0C94D30F0E94CC0F0E94D80F17
:101FC0000C94D60F81E008950E94C21D0E94DD0886
:101FD0000E94441E0C94DA0FCF93C82F8091DE012B
:101FE00082FF1EC080FF04C088EB94E00E94360888
:101FF0008091DE0180FF0CC01F92CF9383EB94E0B1
:102000009F938F930E94CF080F900F900F900F9087
:102010008091DE0180FF04C081EB94E00E943608CD
:102020008C2FCF910C94230A5F926F927F928F92A4
:102030009F92AF92BF92CF92DF92EF92FF920F9357
:102040001F93CF93DF93CDB7DEB72A970FB6F894DF
:10205000DEBF0FBECDBF0E94DF080E94E20F8111DC
:1020600011C08FEF89838A831B820E94CB1D816000
:10207000782F9D838C8349815A816B818D810E9449
:10208000D11056C097E4692E91E0792E00E010E05F
:1020900088248394912C502E802F0E9439096C0142
:1020A000F301A190B1903F01A826B926A114B10473
:1020B00031F40F5F1F4F0530110569F7D2CF8091C2
:1020C000DE0181FD0E94420980E090E07401082E4B
:1020D00002C0EE0CFF1C0A94E2F795012E213F216D
:1020E000232B09F18E835F82CE20DF2081E0CD2873
:1020F00009F480E088870E94CB1D8160782F9A8741
:1021000089874E815F8168858A850E94D110000F82
:10211000111FF801E95BFE4F80819181E826F926C5
:10212000F182E08205C001968A30910579F6C1CF2F
:102130000E9459200E94310F909146018917D9F0D1
:102140000E94310F809346012A960FB6F894DEBFA5
:102150000FBECDBFDF91CF911F910F91FF90EF90F8
:10216000DF90CF90BF90AF909F908F907F906F90B7
:102170005F900C94EC0F2A960FB6F894DEBF0FBE5A
:10218000CDBFDF91CF911F910F91FF90EF90DF9026
:10219000CF90BF90AF909F908F907F906F905F9007
:1021A0000895CF93DF93CDB7DEB72B970FB6F89492
:1021B000DEBF0FBECDBF4F83588769877A878B8775
:1021C000DE01119686E0FD0111928A95E9F785E01E
:1021D000FE01379601900D928A95E1F70E94D81A78
:1021E000882319F082E00E94D21B0E94AB1A811151
:1021F0000E945C1B49815A816B817C818D819E810B
:102200000E94A9172B960FB6F894DEBF0FBECDBF64
:10221000DF91CF910895FC01808191810E947D1A08
:102220000895CF93882309F4D0C0C82F8CEF8C0F6A
:10223000813A68F48C2F0E94AF248111C6C06C2FA4
:1022400080910001909101010E94191D0CC080E253
:102250008C0F883058F4C77081E001C0880FCA9590
:10226000EAF70E940D1BCF910C946A1B8BE58C0F33
:10227000833078F4C53A29F0C63A31F083E890E02B
:1022800005C081E890E002C082E890E0CF910C9414
:10229000A00F88E58C0F873108F08FC0C83A09F489
:1022A00045C0C93A09F445C0CA3A09F445C0CB3A19
:1022B00009F445C0CC3A09F445C0CB3B09F445C00C
:1022C000CC3B09F445C0CD3A09F445C0C03B09F404
:1022D00045C0CE3A09F445C0CF3A09F445C0C13BE8
:1022E00009F445C0C23B09F445C0C33B09F445C0ED
:1022F000C43B09F445C0C53B09F445C0C63B09F4DD
:1023000045C0C73B09F445C0C83B09F445C0C93BBB
:1023100009F445C0CD3B09F445C0CE3B09F445C0A6
:10232000CA3B09F445C080E090E044C082EE90E0F2
:1023300041C089EE90E03EC08AEE90E03BC085EB64
:1023400090E038C086EB90E035C083EB90E032C07F
:1023500084EB90E02FC087EB90E02CC08CEC90E0F9
:1023600029C08DEC90E026C083E891E023C08AE884
:1023700091E020C082E991E01DC084E991E01AC09B
:1023800081E292E017C083E292E014C084E292E01E
:1023900011C085E292E00EC086E292E00BC087E2B7
:1023A00092E008C08FE690E005C080E790E002C0B0
:1023B0008AE292E0CF910C94B60FC03F30F08C2FA0
:1023C0000E94DF1ECF910C94CC1FCF9108958823DB
:1023D00089F19CEF980F913A40F4682F80910001A9
:1023E000909101010E94241D0DC090E2980F983039
:1023F00058F4877091E001C0990F8A95EAF7892F08
:102400000E94131B0C946A1B9BE5980F933020F4D9
:1024100080E090E00C94A00F98E5980F973120F49D
:1024200080E090E00C94B60F803F20F00E94471FA0
:102430000C94CC1F0895CF93C82F0E9411118C2F9C
:10244000CF910C94E711882321F00E940D1B0C946E
:102450006A1B0895882321F00E94131B0C946A1BA9
:1024600008958F929F92AF92BF92DF92EF92FF9268
:102470000F931F93CF93DF937C01D62FC72FFC01BF
:10248000058102950F70128111110E942D1B0E946F
:10249000031B882379F0112369F080E28D0F8830C7
:1024A00048F082E00E94D21B0E94031B91E0D82ECC
:1024B000D92601C0D12CBC2EB2948FE0B8228B2D2E
:1024C00090E0FC01E859FF4F0C94082E8C2F807F80
:1024D000CF70882311F0C295C07F112399F0CC23CF
:1024E00009F4C3C180E28D0F883010F0D11104C00F
:1024F0008C2F0E940D1B03C08C2F0E94201B0E945A
:102500006A1BB3C18D2F0E94E711CC2309F4D2C1FD
:1025100080E28D0F883010F0D11104C08C2F0E9402
:10252000131B03C08C2F0E94261B0E946A1BC2C172
:102530008C2F807FCF70803211F0C295C07FDD2359
:1025400019F0D130C9F022C0112371F0002341F0FD
:10255000013031F40E94401B8C2B0E94481BAAC101
:102560000E94401B8C2B3AC1002319F0013009F462
:10257000A1C10E945C1B18C0112321F0063008F095
:1025800099C10EC0053008F095C10EC0112351F05D
:10259000002331F0F701858180FF67C18F7085834B
:1025A0008C2F1CC1011172C18C2F1EC18C2F8695DE
:1025B0008695837019F0813061F07CC1112321F080
:1025C0008D2F9C2F937002C080E090E00E94A00F9E
:1025D0007EC1112321F08D2F9C2F937002C080E0CB
:1025E00090E00E94B60F73C11123F9F0D53F51F06E
:1025F000D63F71F0D43FA9F4809116029091170252
:1026000081600BC08091160290911702826005C014
:102610008091160290911702846090931702809324
:1026200016028D2F0E94DF1E1EC0D53F51F0D63FEF
:1026300071F0D43FA9F480911602909117028E7F19
:102640000BC080911602909117028D7F05C080917A
:102650001602909117028B7F9093170280931602B7
:102660008D2F0E94471F0E94CC1F31C18C2F837079
:1026700009F04CC0111127C12D2F229526952770E6
:10268000220F220F6D2F6F70862F90E0A0E0B0E038
:102690004C015D01022E04C0880C991CAA1CBB1CB5
:1026A0000A94D2F7D4FF12C08FE090E0A0E0B0E02F
:1026B00004C0880F991FAA1FBB1F2A95D2F7BC011F
:1026C000CD01609570958095909503C060E070E0B5
:1026D000CB01C695C695C370C23051F080F468290D
:1026E00079298A299B29C13071F00E94FA18EBC020
:1026F000682979298A299B290E940C19E4C00E9423
:10270000FA18C501B4010E94E818DDC0112319F0C0
:102710008C2F817001C08695882309F4D4C02D2F99
:10272000229526952770220F220F6D2F6F70862F0E
:1027300090E0A0E0B0E04C015D01022E04C0880CE6
:10274000991CAA1CBB1C0A94D2F7D4FF12C08FE0BC
:1027500090E0A0E0B0E004C0880F991FAA1FBB1F43
:102760002A95D2F7BC01CD01609570958095909522
:1027700003C060E070E0CB01C695C695C370C2305F
:1027800051F080F4682979298A299B29C13071F098
:102790000E94BF1998C0682979298A299B290E941B
:1027A000D11991C00E94BF19C501B4010E94AD1991
:1027B0008AC08D2F90E0FC01E05EF109E531F10562
:1027C00008F04FC0E858FF4F0C94082EDF708C2F94
:1027D0008F71112331F00E9446198D2F0E94231210
:1027E00069C00E9467198D2F0E942A1263C01123AD
:1027F00041F0053008F05EC08C2F8F710E948C195B
:1028000059C0063008F056C0F7CF112339F08C2F8D
:102810008F710E9446194EC01123C9F38C2F8F71FE
:102820000E94671947C0112329F08C2F8F710E94D5
:10283000311940C00E942C193DC0112349F0CF71BD
:102840008C2F0E94461963E08C2F0E94B31B32C06C
:1028500081E00E94D21B023068F182E00E94D21B0C
:1028600029C0112331F0002391F28D2F0E94111104
:1028700021C0002399F2D93349F4FFEF27EE83E01A
:10288000F15020408040E1F700C000008D2F0E94F1
:10289000E71110C04C2F4F706D2FC7010E94C50B60
:1028A0000E94571814C04C2F4F706D2FC7010E9403
:1028B000C80B0DC098E0B91631F0B91640F086EF9C
:1028C0008B0D823020F40E94310F0E94230ADD20FC
:1028D000E1F00E94D41A80FD18C0F70112820E9414
:1028E000CE1A0E944619C7010E9491140E94CE1A66
:1028F000DF91CF911F910F91FF90EF90DF90BF90EC
:10290000AF909F908F900C946719DF91CF911F919A
:102910000F91FF90EF90DF90BF90AF909F908F90BE
:1029200008950F931F93CF93DF93EC0198818981D2
:102930002B813C81232B31F08F3F31F481E09F3F8D
:1029400019F403C081E001C080E080FD13C0CE0116
:102950000E943B0A882371F0688179818A810E94F4
:10296000881A8C010E94E3190E94D418B801CE0184
:102970000E943112DF91CF911F910F9108950E9413
:102980002D1B0E943D1B0E946A1B0E94F0200E948A
:10299000CC1F80E090E00E94A00F80E090E00C94BB
:1029A000B60F80910001909101010E942F1D0C949F
:1029B000BF140E941D1B0C94D114E92FE295EF70F7
:1029C0004E2F50E0FA013297EE30F105B0F4E357A4
:1029D000FF4F0C94082E803F91F018F4803E68F46D
:1029E0000EC0843F51F40BC0803E48F0813F29F473
:1029F00006C093FB882780F9089580E0089581E060
:102A000008950E947D1A0E94DD140895CF93DF93EC
:102A100000D000D01F92CDB7DEB70F900F900F906F
:102A20000F900F90DF91CF910895CF93DF9300D057
:102A300000D000D0CDB7DEB726960FB6F894DEBF33
:102A40000FBECDBFDF91CF9108951F93CF93DF933A
:102A5000C091520116E080915301C81799F0D0E05F
:102A60001C9FF0011D9FF00D1124EC5AFE4F408178
:102A7000518162817381848195810E94151521960F
:102A8000C770E9CFDF91CF911F91089540918401E4
:102A90005091850160918601709187018091880134
:102AA000909189010C941515CF938091890182959D
:102AB0008F7009F05FC080918601882309F45AC0A5
:102AC00080915201B091530170918401A0918501D0
:102AD000409187015091880191E07F3F09F090E09B
:102AE000692FC6E08B1709F445C04115510521F047
:102AF000AF3F21F020E003C021E001C0262F90E08D
:102B000020FD35C0C89FF001C99FF00D1124EC5A7B
:102B1000FE4F21812A132BC02081271328C0228138
:102B2000211125C0238134812417350710F4215049
:102B30003109241B350B283C3105C8F4209189014B
:102B40002F7020612093890126E0289FF001299FA2
:102B5000F00D1124E75AFE4F80818F7080618083D1
:102B600084E891E00E949114CF910C942515019670
:102B70008770B8CFCF910895AF92BF92CF92DF9276
:102B8000EF92FF920F931F93CF93DF93CDB7DEB7F2
:102B900061970FB6F894DEBF0FBECDBF8C0185E004
:102BA000F801DE011D9601900D928A95E1F7D8019A
:102BB0004C9111965C9111971296EC903091840192
:102BC000609185018091870190918801009731F093
:102BD0006F3F31F421E03F3F19F403C021E001C011
:102BE00020E0B22FB170BB2E20FD60C1F801C38080
:102BF000D480A0908601AA2009F4EEC0209189011A
:102C0000C816D90628F0D601A81BB90BCD0104C0FF
:102C1000809590958C0D9D1DFF24F394883C910523
:102C200080F0F12C207F09F09CC07C2DD98AC88AC5
:102C30006E2D89890E94061584E891E00E94911406
:102C40002DC1822F807F09F054C0561314C0431346
:102C500012C0FE2CE1100FC02F702061209389015B
:102C60000E94461584E891E00E94911480918901A8
:102C7000F80185835CC1CD2831F05F3F31F481E0FC
:102C80004F3F19F403C081E001C080E080FD03C024
:102C900081E08E2502C080E090E0F82FF170FF2ED9
:102CA00080FF1CC0809152012091530136E08217B1
:102CB00009F41AC190E0389FF001399FF00D1124FA
:102CC000EC5AFE4F6181561306C06081461303C063
:102CD0006281E61203C001968770E9CFFE2CEE20D8
:102CE00009F425C180918901816080938901F12CCB
:102CF0001EC1561309C0431307C0E11005C08091DF
:102D00008901F8018583A4C04D875E878D859E85E6
:102D10000E940115882379F1EE2069F12091890143
:102D2000822F82958F7090E0029774F080918401D9
:102D30009091850198878F831986DB86CA862C87B8
:102D4000CE0107960E94911486E0F801A4E8B1E054
:102D500001900D928A95E1F70E9454150E94461544
:102D60000DC0561771F04D875E878D859E850E9438
:102D7000011581111AC0C8010E949114FF24F39417
:102D8000D6C04313F0CFE110EECF80918901F80156
:102D90008583C8010E94911486E0E4E8F1E0DF0138
:102DA0001D928A95E9F7FA2CC2C0EE2021F32091FA
:102DB0008901822F82958F7090E002972CF280918A
:102DC0008401909185019A8389831B82DD82CC8264
:102DD0002E83CE010196B6CFC816D90628F0F6018B
:102DE000E81BF90BCF0104C0809590958C0D9D1DBB
:102DF000883C910548F0F12C7C2DD98AC88A6E2D2B
:102E000089890E9406154AC0FE2CEE2009F4B3CF32
:102E1000561333C0431331C02091890120FD24C0D3
:102E2000822F82958F70482F50E041155105E1F0B7
:102E3000D80115962C9315974F30510549F08F5FA7
:102E4000982F9295907F822F8F70892B15968C9357
:102E5000C8010E94911486E0F801A4E8B1E0019055
:102E60000D928A95E1F73DC086E0F801A4E8B1E053
:102E700001900D928A95E1F75AC04D875E878D8546
:102E80009E850E94011581115FCF8091890181602B
:102E900080938901C8010E94911449C0E4E8F1E0DF
:102EA00086E0DF011D928A95E9F71BC0EE2009F448
:102EB00062CF4D875E878D859E850E940115F82E15
:102EC000882309F458CF86E0F801A4E8B1E0019026
:102ED0000D928A95E1F784E891E00E940B110E941F
:102EE00054150E94461523C04D875E878D859E85AB
:102EF0000E947D1A292F22952F70223028F49F706E
:102F000039F0811105C00BC0243028F49F7049F4BA
:102F1000805E883020F0C8010E949114BF2CFB2CE9
:102F200006C0D80115969C91907F91F7F8CF8F2D10
:102F300061960FB6F894DEBF0FBECDBFDF91CF9183
:102F40001F910F91FF90EF90DF90CF90BF90AF90C7
:102F500008951F93CF93DF93CDB7DEB72C970FB6AD
:102F6000F894DEBF0FBECDBF4F83588769877A873D
:102F70008B879C87CE0107960E94BC158823D1F0D1
:102F80009F8188852A853B85232B31F08F3F31F443
:102F900081E09F3F19F403C081E001C080E080FD23
:102FA00047C04F81588569857A858B859C850E94AD
:102FB00015153EC086E0FE013796DE0111960190A0
:102FC0000D928A95E1F7FF81E8856A857B85611519
:102FD000710531F0EF3F31F481E0FF3F19F403C098
:102FE00081E001C080E080FD23C02091530130E0EA
:102FF000C9010196877099274091520150E08417CA
:103000009507F1F1F983EA837D836C8396E0929FC3
:10301000D001939FB00D1124AC5ABE4FFE013196E2
:1030200001900D929A95E1F7809353010E94251526
:1030300016E08091520190915301891771F1189F08
:10304000C00111248C5A9E4F0E94BC15882329F17F
:10305000E09152011E9FF0011124EC5AFE4F408175
:10306000518162817381848195810E9415158091BF
:10307000520190E001968770992780935201D9CF31
:103080000E94D9141092530110925201E4E8F1E029
:1030900086E0DF011D928A95E9F72C960FB6F89429
:1030A000DEBF0FBECDBFDF91CF911F910895EF928C
:1030B000FF920F931F93CF93DF938C01892B09F419
:1030C0006CC0F12CEE24E394E8012196F801849180
:1030D000843740F4843008F051C0813081F0823070
:1030E00019F15BC0853709F444C0A8F19CE7980F3B
:1030F000903708F052C08F770E94E71141C00E5FF1
:103100001F4FFE01849190E2980F983050F4877021
:10311000FE2D01C0FF0F8A95EAF78F2F0E94301B0A
:1031200014C00E9411112DC00E5F1F4FFE0184912B
:1031300090E2980F983060F48770FE2D01C0FF0F69
:103140008A95EAF78F2F0E94361B0E946A1B19C0CE
:103150000E94E71116C00E5F1F4FFE01C491CC23E1
:1031600081F08FE99FE00197F1F700C00000C150A6
:10317000F6CF0E5F1F4FFE01F49003C00E941111A5
:103180008E018F2D882309F49FCFEFE9FFE031975F
:10319000F1F700C000008150F5CFDF91CF911F9172
:1031A0000F91FF90EF900895089508950C94D5180D
:1031B0000C94D6180E94D8186093B1017093B20194
:1031C0008093B3019093B4010C94BF140C94DA185B
:1031D0000F931F930091B1011091B2012091B3019F
:1031E0003091B401602B712B822B932B1F910F9187
:1031F0000C94DA180F931F930091B1011091B20152
:103200002091B3013091B401602371238223932371
:103210001F910F910C94DA180F931F930091B10135
:103220001091B2012091B3013091B4016027712750
:10323000822793271F910F910C94DA180C94A409FC
:103240000E941E196093AD017093AE018093AF018F
:103250009093B0010C94BF1460E070E0CB010C942B
:1032600020190F931F9341E050E060E070E08A0165
:103270009B0104C0000F111F221F331F8A95D2F734
:10328000C901B8011F910F910C9420190F931F933E
:1032900041E050E060E070E004C0440F551F661F3D
:1032A000771F8A95D2F78091AD019091AE01A091E0
:1032B000AF01B091B0018A019B01082B192B2A2B79
:1032C0003B2BC901B8011F910F910C9420190F934A
:1032D0001F9341E050E060E070E004C0440F551FD0
:1032E000661F771F8A95D2F7409550956095709527
:1032F0008091AD019091AE01A091AF01B091B0016C
:103300008A019B01082319232A233B23C901B80101
:103310001F910F910C9420190F931F9341E050E0DF
:1033200060E070E004C0440F551F661F771F8A9548
:10333000D2F78091AD019091AE01A091AF01B09113
:10334000B0018A019B01082719272A273B27C901B9
:10335000B8011F910F910C9420190F931F930091A6
:10336000AD011091AE012091AF013091B001602B01
:10337000712B822B932B1F910F910C9420190F937B
:103380001F930091AD011091AE012091AF013091DA
:10339000B00160237123822393231F910F910C941A
:1033A00020190F931F930091AD011091AE01209150
:1033B000AF013091B00160277127822793271F91B9
:1033C0000F910C94201908952AE0929F800D1124EA
:1033D000E82FE695E695E695877051E001C0550F18
:1033E0008A95EAF785E0E89FF0011124E657FE4F41
:1033F00020E030E070E04081CB01022E02C09695C3
:1034000087950A94E2F78170819584278523842724
:1034100081932F5F3F4F2530310569F708952AE0EA
:10342000929F800D1124682F669566956695982F5A
:10343000977085E0689FB001112440E050E080E083
:10344000FB01E40FF51FE657FE4F208130E0092E07
:1034500002C0369527950A94E2F721703327042E8F
:1034600001C0220F0A94EAF7822B4F5F5F4F45306D
:10347000510531F70895BF92CF92DF92EF92FF92FC
:103480000F931F93CF93DF938C01C090AD01D09029
:10349000AE01E090AF01F090B0018091B101909148
:1034A000B201A091B301B091B401C82AD92AEA2A85
:1034B000FB2ACFE1D0E0D701C6010C2E04C0B6959F
:1034C000A795979587950A94D2F780FD04C0219718
:1034D00090F7B12C07C0BC2EB8018C2F0E94E40BD2
:1034E0000197A9F38B2DDF91CF911F910F91FF9041
:1034F000EF90DF90CF90BF900895CF93DF93EC01D2
:103500000E943B1ABE010E94E40BDF91CF91089507
:103510001F93CF93DF93EB0190915101992321F0F9
:10352000CB010E947D1A13C0882349F0CB010E9471
:103530003B1A182F682FCE010E94E41904C0CB015A
:103540000E940F1A182FBE01812F0E94E40BDF91F9
:10355000CF911F9108950E94CB1D2091B801309109
:10356000B9018217930750F00E94CB1D2091B8013A
:103570003091B901821B930B9C010AC00E94CB1DA4
:103580002091B8013091B90120953095280F391F4D
:1035900081E0243F314008F480E008958091B70134
:1035A00085958595859508958091B70187700895D3
:1035B0000E94CB1D2091B5013091B601821793076F
:1035C000A8F00E94CB1D2091B5013091B601821B5D
:1035D000930B843F914010F480E013C08091B701B9
:1035E00082FB882780F991E089270BC00E94CB1DC0
:1035F0002091B5013091B60120953095820F931F2F
:10360000E8CF817008959091B701977081E009F437
:1036100080E008958091DD0108959091DD01892B6E
:103620008093DD01089580959091DD018923809339
:10363000DD0108958093DD0108951092DD01089564
:103640009091DC01892B8093DC0108958095909105
:10365000DC0189238093DC0108951092DC01089538
:103660009091DB01892B8093DB01089580959091E7
:10367000DB0189238093DB0108951092DB0108951B
:103680008091BA01089508950C94431B0C94441B37
:10369000CF939091BA01981769F0C82F0E94CB1D63
:1036A0009093B9018093B801C093BA018C2FCF9148
:1036B0000C94461BCF9108958091BA01882349F05C
:1036C0001092BA011092B9011092B80180E00C94E6
:1036D000461B0895E0910001F09101018091DD0108
:1036E0008083E0910001F091010190818091DC01E3
:1036F000892B8083E0910001F091010190818091FC
:10370000DB01892B80838091BA01882321F10E94FB
:10371000AB1A882371F08091DE0180FF08C08BEC2A
:1037200094E09F938F930E94CF080F900F900E9478
:103730005C1BE0910001F091010190818091BA0140
:10374000892B808380910001909101010E94911C3E
:1037500081110E945C1B80910001909101010C94E9
:103760003D0F0C94431B98E0899F90011124262B58
:103770002093B7010E9446190E94CB1D9093B60179
:103780008093B5018091B7018595859585950C94B9
:10379000B11B1092B7011092B6011092B50180E0F2
:1037A0000C94B11B2091B701809582238093B701BF
:1037B000982F977079F430E0482F082E000C550BA5
:1037C0002417350739F08595859585950E946719E9
:1037D0000C94C91B089590932D0180932C0108959A
:1037E0008295982F937344E0949F900111248C7CD0
:1037F00086958695282B822F8575880F2A7A26959F
:10380000822B0895CF93DF93D92F0E94F01BC82FEE
:103810008D2F0E94F01B2C2F30E0322F2227A90180
:10382000482BCA01DF91CF91089580E090E00E947B
:103830002A2E21E08D3E9E4F09F020E0822F089530
:1038400082E090E00C94222E83E090E00C94222EF3
:1038500084E090E00C94222E682F84E090E00C9499
:10386000302EAB01BC018FE090E00C94422EAB01F6
:10387000BC0183E190E00C94422E60E070E0CB014B
:103880000C94371C60E070E0CB010E94311C0C945A
:103890003D1C6DEE7EEF80E090E00E944E2E60E0D9
:1038A00082E090E00E94302E60E083E090E00E9491
:1038B000302E1092B1011092B2011092B301109209
:1038C000B40160E084E090E00E94302E60E085E08A
:1038D00090E00E94302E60E086E090E00E94302E62
:1038E0006FEF87E090E00E94302E40E050E0BA0198
:1038F00088E090E00E94422E60E08DE090E00E941F
:10390000302E40E050E0BA0188E190E00E94422E63
:1039100060E087E190E00E94302E0C94421C0C94F1
:10392000491CFC01329680911201882331F080916C
:103930001C0287FF02C09EE101C096E080E091502A
:1039400028F021912223D9F38F5FF9CF08959C01AC
:10395000FC0132969FEF80E04191461789F09F3F2E
:1039600019F4411101C0982F8F5F8630A9F79F3F4E
:1039700039F0F901E90FF11D97FDFA956283089579
:1039800008959C012A5F3F4FFC014281461301C00C
:103990001282019682179307B9F70895262F26956C
:1039A000269526952E3170F4FC01E20FF11D67700B
:1039B00021E030E001C0220F6A95EAF78281282BCE
:1039C000228308958091DE0180FF0CC01F926F93C7
:1039D0008BEF94E09F938F930E94CF080F900F90EE
:1039E0000F900F900895262F2695269526952E3117
:1039F00078F4FC01E20FF11D677021E030E001C0B6
:103A0000220F6A95EAF72095828128232283089560
:103A10008091DE0180FF0CC01F926F938DED94E0CA
:103A20009F938F930E94CF080F900F900F900F904D
:103A3000089520911201222329F020911C0227FDD4
:103A40000C94CE1C0C94A71C20911201222329F067
:103A500020911C0227FD0C94F31C0C94C11C209196
:103A60001201FC013296222331F080911C0287FF63
:103A700002C08EE101C086E0DF011D928A95E9F760
:103A8000089508950C94411D0C94411DCF930E94FC
:103A9000441D0E94DF080E94421DC0E08C2F0E943E
:103AA0003909892B29F4CF5FC530C1F780E001C007
:103AB00081E0CF9108950C94411D0C945B1D0E94F0
:103AC0005D1D80912202843049F11092DF0120E4D3
:103AD00088E190E00FB6F894A895809360000FBE3F
:103AE0002093600080E00E94230A0E945D1D83B73E
:103AF000817F846083BF83B7816083BF789488951A
:103B000083B78E7F83BF0FB6F894A895809160002D
:103B1000886180936000109260000FBE08950C943D
:103B2000411D0E94D9140E94310F0E94230A0C9457
:103B30008F1D1F920F920FB60F9211248F939F9398
:103B4000AF93BF938091DF01811113C08091180260
:103B500090911902A0911A02B0911B024196A11DE9
:103B6000B11D8093180290931902A0931A02B0938A
:103B70001B02BF91AF919F918F910F900FBE0F903D
:103B80001F90189582E084BD93E095BD9AEF97BD94
:103B900080936E0008952FB7F89480911802909149
:103BA0001902A0911A02B0911B022FBF08952FB7DE
:103BB000F894609118027091190280911A02909104
:103BC0001B022FBF0895CF92DF92EF92FF920F93C7
:103BD0001F932FB7F89440911802509119026091E9
:103BE0001A0270911B022FBF6A017B01EE24FF2491
:103BF0008C0120E030E0C016D106E206F30610F496
:103C0000415051099A01281B390BC9011F910F918D
:103C1000FF90EF90DF90CF90089578941F920F92CD
:103C20000FB60F9211248F939F93AF93BF93809100
:103C3000180290911902A0911A02B0911B020196EC
:103C4000A11DB11D8093180290931902A0931A022E
:103C5000B0931B02BF91AF919F918F910F900FBEB8
:103C60000F901F90189587E797E79093010880932E
:103C700000089AE088E10FB6F894A8958093600058
:103C80000FBE90936000FFCF0E94151C811102C0EF
:103C90000E948F1C0E94201C8093DE010E94281C21
:103CA00090E090931D0280931C020E94241C682FB8
:103CB00070E080E090E00C94E6188091E20180FFD3
:103CC0000BC06091050185E0689FB00111247595D6
:103CD0006795759567952BC081FF09C060910501B7
:103CE00085E0689FB00111247595679520C082FF1B
:103CF00007C06091050185E0689FB001112417C0DD
:103D00009091E3019923D1F060910401961788F70F
:103D10002091050185E0289F90011124929FA00128
:103D2000939F500D112470E0CA010E94F42D603859
:103D3000710540F46115710519F406C065E070E085
:103D4000862F08958FE7089581E008958091E2011C
:103D500080FF08C06091030170E0759567957595C7
:103D6000679521C081FF06C06091030170E07595E1
:103D7000679519C082FF04C06091030170E010C014
:103D80009091E301992399F0609102019617A0F7B1
:103D900080910301899FC001112470E00E94F42DDD
:103DA0006038710540F46115710519F406C061E0D1
:103DB00070E0862F08958FE7089581E00895803F91
:103DC00021F40E945D1E819504C0813F29F40E9468
:103DD0005D1E8093E7010895823F21F40E945D1EDD
:103DE000819504C0833F29F40E945D1E8093E60103
:103DF0000895893F19F40E94A61E05C08A3F31F438
:103E00000E94A61E81958093E80108958B3F21F4BE
:103E10000E94A61E819504C08C3F29F40E94A61E14
:103E20008093E9010895843F21F48091E501816048
:103E300017C0853F21F48091E501826011C0863F63
:103E400021F48091E50184600BC0873F21F48091CB
:103E5000E501886005C0883F31F48091E50180610B
:103E60008093E50108958D3F21F48091E201816006
:103E70000BC08E3F21F48091E201826005C08F3F2C
:103E800029F48091E20184608093E2010895803FEB
:103E900039F48091E70187FF6CC01092E70169C097
:103EA000813F29F48091E7011816BCF362C090911C
:103EB000E601823F29F497FF5CC01092E60159C0E9
:103EC000833F19F41916CCF354C0893F41F4809113
:103ED000E80118160CF04DC01092E8014AC08A3F64
:103EE00029F48091E80187FF44C0F6CF8B3F39F475
:103EF0008091E90187FF3DC01092E9013AC08C3FF3
:103F000029F48091E9011816BCF333C0843F21F4F1
:103F10008091E5018E7F17C0853F21F48091E501F6
:103F20008D7F11C0863F21F48091E5018B7F0BC00E
:103F3000873F21F48091E501877F05C0883F31F4F8
:103F40008091E5018F7E8093E50113C08D3F21F4C0
:103F50008091E2018E7F0BC08E3F21F48091E201BF
:103F60008D7F05C08F3F29F48091E2018B7F809384
:103F7000E2018091E60181110EC08091E70181117B
:103F80000AC08091E801811106C08091E901811188
:103F900002C01092E30108958091DE0183FF7EC08C
:103FA00080E495E00E9436088091E5011F928F938E
:103FB0008BE395E09F938F930E94CF0889E395E070
:103FC0000E9436088091E601282F082E000C330B42
:103FD0003F938F9386E395E09F938F930E94CF0842
:103FE00084E395E00E9436088091E701282F082E8F
:103FF000000C330B3F938F9381E395E09F938F9356
:104000000E94CF088FE295E00E9436088091E80177
:10401000282F082E000C330B3F938F938CE295E0F2
:104020009F938F930E94CF088AE295E00E94360802
:104030008091E901282F082E000C330B3F938F93BA
:1040400087E295E09F938F930E94CF0884E295E0EA
:104050000E9436088091E3011F928F9381E295E0E0
:104060009F938F930E94CF088FE195E00E943608BE
:104070008091E2011F928F938CE195E09F938F9343
:104080000E94CF0889E195E00E9436088DB79EB75F
:104090004C960FB6F8949EBF0FBE8DBF84EE91E094
:1040A0000E94920F0E94CB1D9093E1018093E0014A
:1040B00008951F93CF93DF938091E0019091E101E8
:1040C0000E94E31DAC019091E301992321F020911E
:1040D000060130E006C0209107018AE0289F900188
:1040E00011244217530708F477C08091E601C0916C
:1040F000E701D091E8011091E901811107C0C111D8
:1041000067C0D11165C0111163C066C09F3F19F02F
:104110009F5F9093E301181624F40E945D1E809324
:10412000E6018091E60187FF05C00E945D1E819532
:104130008093E6011C1624F40E945D1E8093E70123
:104140008091E70187FF05C00E945D1E81958093E5
:10415000E7013091E6013323C1F02091E7012223EA
:10416000A1F045EB3403C0011124892F911101C046
:1041700081E08093E60135EB2303C0011124892FF0
:10418000911101C081E08093E7011D1624F40E9483
:10419000A61E8093E8018091E80187FF05C00E9478
:1041A000A61E81958093E801111624F40E94A61E94
:1041B0008093E9018091E90187FF05C00E94A61E56
:1041C00081958093E901DF91CF911F910C94CC1FD1
:1041D0009F3F09F09DCFAECFDF91CF911F91089502
:1041E000E4EEF1E086E0DF011D928A95E9F7109296
:1041F000E3011092E201089583E697E00E943608F9
:104200001F9281E08F931F9285E08F9385E197E065
:104210009F938F930E94CF080F900F900F900F9055
:104220000F900F9008958330E9F128F4813061F008
:10423000823009F10895853009F462C008F449C05C
:10424000863009F474C0089580910701262F30E06C
:10425000280F311D2F3F310524F4680F60930701AB
:1042600003C08FEF80930701809107011F928F9306
:104270008EE496E072C080910601262F30E0280F70
:10428000311D2F3F310524F4680F6093060103C0F0
:104290008FEF80930601809106011F928F938CE32C
:1042A00096E05BC080910501262F30E0280F311D7C
:1042B0002F3F310524F4680F6093050103C08FEF91
:1042C00080930501809105011F928F9389E296E00A
:1042D00044C080910401262F30E0280F311D2F3F6C
:1042E000310524F4680F6093040103C08FEF8093BD
:1042F0000401809104011F928F9384E196E02DC008
:1043000080910301262F30E0280F311D2F3F31050A
:1043100024F4680F6093030103C08FEF80930301BF
:10432000809103011F928F938BEF95E016C08091CF
:104330000201262F30E0280F311D2F3F310524F4D4
:10434000680F6093020103C08FEF80930201809198
:1043500002011F928F9380EE95E09F938F930E94AE
:10436000CF080F900F900F900F900895833081F138
:1043700028F4813059F08230D1F00895853009F465
:1043800049C0B8F1863009F456C0089580910701FC
:10439000681720F4861B8093070102C01092070162
:1043A000809107011F928F9381ED95E054C0809119
:1043B0000601681720F4861B8093060102C0109244
:1043C0000601809106011F928F938FEB95E043C009
:1043D00080910501681720F4861B8093050102C0B7
:1043E00010920501809105011F928F938CEA95E050
:1043F00032C080910401681720F4861B8093040169
:1044000002C010920401809104011F928F9387E9EA
:1044100095E021C080910301681720F4861B8093EA
:10442000030102C010920301809103011F928F9338
:104430008EE795E010C080910201681720F4861B7A
:104440008093020102C010920201809102011F922A
:104450008F9383E695E09F938F930E94CF080F90F0
:104460000F900F900F900895CF93C82F1F928F93A6
:1044700088E698E09F938F930E94CF0881E090E0B8
:10448000A0E0B0E0BC01CD0104C0660F771F881F1B
:10449000991FCA95D2F70E94E6180F900F900F90BF
:1044A0000F90CF910C94D914CF93482F50E0FA017C
:1044B0003597EF33F10508F03BC2E556FF4F0C94FA
:1044C000082E80ED9DE00E9436088CE09DE00E9461
:1044D00036080E94241C1F928F9389E09DE09F93D1
:1044E0008F930E94CF0887E09DE00E9436080E94CB
:1044F000201CC82F84EF9CE00E9436081F92CF93A7
:104500008FEE9CE09F938F930E94CF088DEE9CE0EE
:104510000E94360883EE9CE00E9436088C2F817042
:104520001F928F9380EE9CE09F938F930E94CF0801
:104530008EED9CE00E94360884ED9CE00E943608D7
:10454000C1FB882780F91F928F9381ED9CE09F9398
:104550008F930E94CF088FEC9CE00E94360883EC7A
:104560009CE00E943608C2FB882780F91F928F9337
:1045700080EC9CE09F938F930E94CF088EEB9CE091
:104580000E94360885EB9CE00E943608C3FBCC27CE
:10459000C0F91F92CF9382EB9CE09F938F930E9470
:1045A000CF0880EB9CE00E9436080E94281CC82F90
:1045B0008CE99CE00E9436081F92CF9387E99CE02B
:1045C0009F938F930E94CF0885E99CE00E94360854
:1045D0008CE79CE00E9436088C2F81701F928F938D
:1045E00089E79CE09F938F930E94CF088DB79EB779
:1045F00080960FB6F8949EBF0FBE8DBF87E79CE0F4
:104600000E94360880E69CE00E943608C1FB88279D
:1046100080F91F928F938DE59CE09F938F930E946A
:10462000CF088BE59CE00E94360889E49CE00E945C
:104630003608C2FB882780F91F928F9386E49CE09E
:104640009F938F930E94CF0884E49CE00E943608D9
:1046500082E39CE00E943608C3FB882780F91F9202
:104660008F938FE29CE09F938F930E94CF088DE2FF
:104670009CE00E94360883E29CE00E943608C4FB5E
:10468000882780F91F928F9380E29CE09F938F93FD
:104690000E94CF088EE19CE00E9436088CE09CE0EE
:1046A0000E943608C5FB882780F91F928F9389E006
:1046B0009CE09F938F930E94CF0887E09CE00E942C
:1046C00036088BEE9BE00E943608C6FB882780F9EF
:1046D0001F928F9388EE9BE09F938F930E94CF0849
:1046E00086EE9BE00E9436088EED9BE00E94360825
:1046F000C7FBCC27C0F91F92CF938BED9BE09F9314
:104700008F930E94CF0889ED9BE00E9436088DB7F9
:104710009EB74C960FB6F8949EBF0FBE8DBF06C0D5
:104720008FEB9DE00E9436080E948F1CC1E005C1FE
:1047300087E29AE07FC08091DE01817F8E7F809347
:10474000DE0180E09AE00E9436088BEB9DE00E943B
:10475000360881E08093EB01E9CF0E94D9148FE9FC
:104760009DE00E9436089FEF23ED80E391502040AA
:104770008040E1F700C000000E94331ED7CF809137
:10478000DE01C82FC095C170C0FB80F98093DE01A7
:10479000CC2319F083E99DE0BDC086E89DE00E942E
:1047A00036088091DE01897F877F8093DE01BECF4E
:1047B0009091DE0191FBCC27C0F981E0C827892FB9
:1047C000C0FB81F98093DE01CC2319F089E79DE0DD
:1047D00027C08BE69DE02EC09091DE0192FBCC2796
:1047E000C0F981E0C827892FC0FB82F98093DE01E0
:1047F000CC2319F08CE59DE013C08CE49DE01AC039
:104800009091DE0193FBCC27C0F981E0C827892F66
:10481000C0FB83F98093DE01CC2351F080E49DE05E
:104820000E9436088091DE0181608093DE0185C0A0
:1048300083E39DE00E94360879CF81EF99E00E94E2
:10484000360885EC99E00E9436088EE899E00E94CF
:10485000360884E599E00E94360889E199E00E94D3
:1048600036088EEE98E0E6CF80EE98E00E9436089B
:104870000E94310F1F928F9386EC98E09F938F9345
:104880000E94CF08809112011F928F938FEA98E0C7
:104890009F938F930E94CF08809110021F928F9355
:1048A0008CE998E09F938F930E94CF0880911C021F
:1048B00087FB882780F91F928F9384E898E09F9365
:1048C0008F930E94CF080E94D71D9F938F937F9351
:1048D0006F938DE698E09F938F930E94CF088DB7DA
:1048E0009EB746960FB6F8949EBF0FBE8DBF1ECFE3
:1048F0000E94D91490911C0297FBCC27C0F981E04B
:10490000C827892FC0FB87F980931C02CC2329F08C
:1049100089E29DE00E94360810C08EE19DE08ACFBA
:10492000895303C08D5101C080E00E943422FECE25
:104930008CE19DE00E943608C0E08C2FCF91089555
:1049400080E008950C94A0248E518A3030F4E82F32
:10495000F0E0ED5EFE4F8081089580E00895CF93F2
:10496000C82F8091EB01813059F020F0823009F49A
:1049700045C039C10E940A1B823209F036C104C009
:104980000E940A1B823261F48C2F0E94A2248111A2
:1049900004C08C2F0E9454222FC081E090E02CC0D4
:1049A0008C2F0E94A024811126C0C431E1F070F444
:1049B000CB3081F0C031D1F40E94FC2080E698E039
:1049C0000E94360882E08093EB0115C0C93259F08D
:1049D000C83361F480E09AE00E94360884E698E0EB
:1049E0000E94360808C01092EB0101C18EE598E0E4
:1049F0000E943608FCC081E08170FBC0C43228F5FB
:104A0000CE3108F0C1C0CB30A1F1D0F4C73009F0ED
:104A1000D0C08EE18093070182E3809306018AE093
:104A20008093050184E18093040188E08093030171
:104A300088E28093020184E097E00E943608BCC0BF
:104A4000C33149F1C431C1F0B4C0CB3409F4A6C0BC
:104A500028F4C93289F0C83361F0ABC0C13509F41C
:104A60009BC0C23509F496C0CE3409F0A2C06AE0FA
:104A70009BC00E94FC20A0C08091EA01882319F00D
:104A80001092EA0199C081E197E00E94360881E026
:104A90008093EB01AEC08BEE96E00E94360889ED64
:104AA00096E00E943608809107011F928F9386ED51
:104AB00096E09F938F930E94CF0884ED96E00E942A
:104AC000360882EC96E00E943608809106011F921B
:104AD0008F938FEB96E09F938F930E94CF088DEB7F
:104AE00096E00E9436088EEA96E00E943608809191
:104AF00005011F928F938BEA96E09F938F930E94FC
:104B0000CF0889EA96E00E94360888E996E00E947C
:104B10003608809104011F928F9385E996E09F9358
:104B20008F930E94CF0883E996E00E9436088EE7B3
:104B300096E00E943608809103011F928F938BE7C5
:104B400096E09F938F930E94CF0889E796E00E949A
:104B5000360882E696E00E943608809102011F9294
:104B60008F938FE596E09F938F930E94CF088DE5FA
:104B700096E00E9436088DB79EB748960FB6F89417
:104B80009EBF0FBE8DBF18C08C2F0E94A42480939F
:104B9000EA0112C061E003C061E006C06AE08091F2
:104BA000EA010E94132108C08091EA010E94B62107
:104BB00003C082E097E013C08091EA01882369F086
:104BC0001F928F938CEF96E09F938F930E94CF0854
:104BD0000F900F900F900F9004C089EF96E00E9405
:104BE000360881E006C01092EB0180E002C080E050
:104BF00003CFCF91089580910F0208959FB7F89445
:104C00001092EE019FBF90912202943009F057C09C
:104C10009091E9009F703091EC00232F217030FDBE
:104C200020E8922B23E02093E9002091EB0020FF65
:104C300043C02091EE0027FF3FC02091EC012223CA
:104C400021F02091E80025FF37C01092EC0126E00A
:104C50003091E80035FD15C030912202343061F505
:104C60003091EB0035FD28C0215021F481E0809384
:104C7000EC0122C0EFE9FFE03197F1F700C000003E
:104C8000E7CF8093F1008091E80085FD0AC0809114
:104C9000E80080FFFCCF8091E8008E778093E800E9
:104CA00006C08FB7F89421E02093EE018FBF9F706C
:104CB0009093E90080E008959F709093E9008FEF52
:104CC00008950F931F93CF93DF9300D01F92CDB71A
:104CD000DEB78C010E942E29823011F0843021F53C
:104CE00084E089831B830A8382E08093E9008FEF4D
:104CF0009091E800815095FD06C095ED9A95F1F7E9
:104D000000008111F5CF8091E80085FF0DC040E0E3
:104D100050E063E070E0CE0101960E944B29809143
:104D2000E8008E778093E8000F900F900F90DF914E
:104D3000CF911F910F910895CF93DF9300D01F92D1
:104D4000CDB7DEB720912202243031F523E029834C
:104D5000805891099B838A8382E08093E9008FEFDA
:104D60009091E800815095FD06C095ED9A95F1F778
:104D700000008111F5CF8091E80085FF0DC040E073
:104D800050E063E070E0CE0101960E944B298091D3
:104D9000E8008E778093E8000F900F900F90DF91DE
:104DA000CF910895CF93DF93EC010E942E2982309A
:104DB00011F08430F9F482E08093E9008FEF909154
:104DC000E800815095FD06C095ED9A95F1F7000039
:104DD0008111F5CF8091E80085FF0CC040E050E0E4
:104DE00066E070E0CE010E944B298091E8008E774A
:104DF0008093E800DF91CF910895CF93DF93EC018A
:104E00000E942E29823011F08430D9F58091120150
:104E1000882339F080911C0287FF03C060E282E0A2
:104E200002C068E081E08093E9008FEF9091E80094
:104E3000815095FD06C095ED9A95F1F7000081111E
:104E4000F5CF8091E80085FF1CC08091120181118F
:104E500005C040E050E068E070E003C070E040E072
:104E600050E0CE010E944B298091E8008E7780931C
:104E7000E80080E2FE01AFEEB1E001900D928A956C
:104E8000E1F7DF91CF91089580E09EE00E9436081F
:104E900080912102811109C00E94DC2A0E94392BD5
:104EA0008091E20084608093E20008958CEF9DE0A1
:104EB0000E94360810922102089588EF9DE00C941C
:104EC000360884EF9DE00C94360880EF9DE00E9448
:104ED00036080C94911D2091ED012F5F822F62E323
:104EE0000E94E82D992319F02093ED010895109266
:104EF000ED018091EE01882371F1809122028430CE
:104F000041F58091E9008F702091EC00922F917013
:104F100020FD90E8892B93E09093E9009091EB00BD
:104F200090FF14C09091EE0097FF10C09091E800A0
:104F300095FF03C01092F100F9CF9091E80090FF27
:104F400005C09091E8009E779093E8008F70809361
:104F5000E9001092EE01089542E061EC81E00E94C8
:104F6000552A42E261EC82E00E94552A42E261EC5D
:104F700083E00C94552A80912402833009F460C0A8
:104F800030F4813071F0823009F499C008958A308C
:104F900009F485C08B3009F46BC0893009F0A7C0D3
:104FA00020C080912302813A09F0A1C08091E800DD
:104FB000877F8093E8008091270290912802892BB7
:104FC00021F460E28FEE91E003C060E080E090E0C9
:104FD00070E00E9496298091E8008B778093E8002A
:104FE000089580912302813209F081C080912702C7
:104FF00090912802029708F07AC08091E800877F9C
:105000008093E8008091E80082FD05C08091220233
:105010008111F8CF6CC02091F3008091F20090E0F4
:10502000922B029729F48091F1008B7F813021F43B
:105030008091F10080930F028091E8008B7753C03C
:1050400080912302813A09F052C080912702909109
:105050002802892B09F04BC08091E800877F80935C
:10506000E8008091E80080FFFCCF8091120136C0FB
:10507000809123028132D9F58091270290912802F4
:10508000892BA9F58091E800877F8093E8000E9432
:105090008A2A80912502809312010C94D914809160
:1050A0002302813221F58091E800877F8093E80018
:1050B0000E948A2A8091260280931002089580918E
:1050C0002302813AA1F48091E800877F8093E80071
:1050D0008091E80080FFFCCF809110028093F10066
:1050E0008091E8008E778093E8000C948A2A0895D6
:1050F00084B7877F84BF0FB6F894A895809160002D
:10510000886180936000109260000FBE80E88093F9
:105110006100109261000E94DC0F0E94DC2A0E9454
:10512000392B8091E20084608093E2008EEF95E25B
:105130000E94EB1B78940E94CD2D0E94E40F88E022
:1051400091E00E942C0F8FED9DE00E943608809127
:105150002202853089F48BED9DE00E9436080E9482
:105160005F1D80912002882391F30E94461D8823B1
:1051700071F30E943529EBCF0E941410E8CF0C94F4
:10518000C128292F332723303105C9F060F421309D
:10519000310581F02230310509F047C08BE590E000
:1051A00022E33EE046C02132310511F122323105C1
:1051B00061F13BC082E190E02DE83EE03AC09927E2
:1051C0008130910561F040F08230910559F00397EC
:1051D00061F5E4E0FEE008C0EEE2FEE005C0ECE1CF
:1051E000FEE002C0EAE0FEE0849190E09F0121C071
:1051F00063307105D0F4660F771FFB01EA5DFE4F47
:105200002081318189E090E014C06330710568F439
:10521000FB01EE0FFF1FE05EFE4F20813181FB019D
:10522000E35EFE4F808190E004C080E090E020E0EB
:1052300030E0FA013183208308950895CF93C82F79
:105240000E941D29C0931102CF91089580912202DE
:10525000843011F081E0089582E008958091110278
:10526000811102C00C942629089580E189BD82E154
:1052700089BD09B400FEFDCF8091D8008F7D809359
:10528000D8008091E00082608093E0008091E0008F
:1052900081FDFCCF0895CF92DF92EF92FF920F93A2
:1052A0001F93CF93DF93EC018B017A010E94A92A0F
:1052B000811133C0E114F10439F0F701808191814B
:1052C000081B190BC80FD91FC12CD12C01151105B2
:1052D00019F18091E80085FD16C08091E8008E7775
:1052E0008093E800E114F10449F0F7018081918195
:1052F000C80ED91ED182C08285E00FC00E94A92AA3
:10530000882321F30AC089918093F100015011098B
:10531000FFEFCF1ADF0ADACF80E0DF91CF911F9144
:105320000F91FF90EF90DF90CF9008952091290288
:1053300030912A022617370748F06115710539F4B4
:105340002091E8002E772093E80001C0B901FC010C
:1053500020E06115710579F1809122028823F1F135
:105360008530F1F18091E80083FD3CC08091E80038
:1053700082FD2EC08091E80080FFEBCF2091F300EA
:105380008091F20090E0922B6115710551F0883008
:10539000910538F421912093F10061507109019633
:1053A000F3CF21E0089709F020E08091E8008E77A4
:1053B0008093E800CECF2111CFCF0AC08091220286
:1053C000882361F0853061F08091E80083FD0AC098
:1053D0008091E80082FFF2CF80E0089582E0089596
:1053E00083E0089581E008952091290230912A02F6
:1053F0002617370748F06115710539F42091E80048
:105400002E772093E80001C0B901FC0120E061156E
:10541000710591F180912202882309F440C0853002
:1054200009F43FC08091E80083FD3DC08091E80011
:1054300082FD2FC08091E80080FFE9CF2091F3002A
:105440008091F20090E0922B6115710559F088303F
:10545000910540F424912093F10031966150710937
:105460000196F2CF21E0089709F020E08091E80052
:105470008E778093E800CBCF2111CCCF0AC08091EA
:105480002202882361F0853061F08091E80083FD7D
:105490000AC08091E80082FFF2CF80E0089582E0A8
:1054A000089583E0089581E00895982F973068F576
:1054B0009093E900981739F07091EC002091ED007D
:1054C0005091F00003C0242F762F50E021FD02C040
:1054D0009F5FECCF3091EB003E7F3093EB0030913B
:1054E000ED003D7F3093ED003091EB003160309363
:1054F000EB007093EC002093ED005093F0002091AE
:10550000EE0027FDE5CF80E008958F708093E900DD
:1055100081E008958091230287FF11C08091E80007
:1055200082FD05C0809122028111F8CF11C08091C7
:10553000E8008B770BC080912202882349F080918C
:10554000E80080FFF8CF8091E8008E778093E80034
:1055500008952091E4003091E50095E64091EC003B
:10556000842F817040FF23C08091E80080FD1DC022
:1055700080912202882399F0853099F08091EB0088
:1055800085FD11C04091E4005091E50024173507D6
:1055900029F3915011F09A01E1CF84E0089582E05F
:1055A000089583E0089581E0089580E00895409192
:1055B000E80042FFDDCF08950E944A2B0E94522B43
:1055C000E0EEF0E0808181608083E8EDF0E08081B2
:1055D0008F77808319BCA7EDB0E08C918E7F8C9380
:1055E00080818F7E80831092210208950F931F93F4
:1055F000CF93DF930E944A2B0E94522BC8EDD0E03C
:1056000088818F77888388818068888388818F7D6F
:10561000888319BC1092220210921E02109220025E
:1056200010921F0200EE10E0F80180818B7F8083D2
:1056300088818160888342E060E080E00E94552A92
:10564000E1EEF0E080818E7F8083E2EEF0E0808109
:1056500081608083808188608083F80180818E7F73
:105660008083888180618883DF91CF911F910F9122
:105670000895E8EDF0E080818F7E8083E7EDF0E033
:1056800080818160808384E082BF81E080932102F9
:105690000C94F62AE8EDF0E080818E7F80831092F2
:1056A000E20008951092DA001092E10008951F922E
:1056B0000F920FB60F9211242F933F934F935F9346
:1056C0006F937F938F939F93AF93BF93EF93FF93CA
:1056D0008091E10082FF0BC08091E20082FF07C051
:1056E0008091E1008B7F8093E1000E946B27809185
:1056F000DA0080FF1FC08091D80080FF1BC080911E
:10570000DA008E7F8093DA008091D90080FF0DC08F
:1057100080E189BD82E189BD09B400FEFDCF81E051
:10572000809322020E94442705C019BC10922202D5
:105730000E9456278091E10080FF19C08091E2000D
:1057400080FF15C08091E2008E7F8093E2008091FF
:10575000E20080618093E2008091D80080628093B3
:10576000D80019BC85E0809322020E9461278091B5
:10577000E10084FF30C08091E20084FF2CC080E112
:1057800089BD82E189BD09B400FEFDCF8091D800BA
:105790008F7D8093D8008091E1008F7E8093E1001F
:1057A0008091E2008F7E8093E2008091E200816030
:1057B0008093E20080911E02882311F084E007C0EC
:1057C0008091E30087FD02C081E001C083E0809307
:1057D00022020E9465278091E10083FF29C0809109
:1057E000E20083FF25C08091E100877F8093E10084
:1057F00082E08093220210921E028091E1008E7F4F
:105800008093E1008091E2008E7F8093E20080919E
:10581000E20080618093E20042E060E080E00E946C
:10582000552A8091F00088608093F0000E945D27E7
:10583000FF91EF91BF91AF919F918F917F916F9168
:105840005F914F913F912F910F900FBE0F901F903E
:1058500018951F920F920FB60F9211242F933F931A
:105860004F935F936F937F938F939F93AF93BF9368
:10587000CF93DF93EF93FF93C091E900CF708091B6
:10588000EC00D82FD17080FDD0E81092E900809113
:10589000F000877F8093F00078940E946D2C109226
:1058A000E9008091F00088608093F000CD2BCF70EC
:1058B000C093E900FF91EF91DF91CF91BF91AF913C
:1058C0009F918F917F916F915F914F913F912F9118
:1058D0000F900FBE0F901F9018951F93CF93DF93DB
:1058E000CDB7DEB7AA970FB6F894DEBF0FBECDBF17
:1058F000E3E2F2E08091F100819322E0EB32F207E3
:10590000C9F70E94BB278091E80083FF2EC18091D8
:10591000230290912402492F50E04A30510508F0AB
:1059200024C1FA01E652FF4F0C94082E803821F072
:10593000823809F01AC108C080911F02909120029C
:10594000992389F082600FC0809127028F70873081
:1059500008F00BC18093E9008091EB0085FB88275C
:1059600080F91092E9009091E800977F9093E80009
:105970008093F1001092F100D1C0282F2D7F09F003
:10598000F4C0882319F0823061F0EFC080912502C5
:10599000813009F0EAC0933009F080E08093200262
:1059A0002EC08091250281112AC0809127028F701C
:1059B0002FEF280F263008F0D8C08093E9002091FF
:1059C000EB0020FF1CC0933021F48091EB0080623B
:1059D00014C09091EB0090619093EB0021E030E0D7
:1059E000A90102C0440F551F8A95E2F74093EA00CF
:1059F0001092EA008091EB0088608093EB00109297
:105A0000E9008091E800877F8093E8000E948A2A5D
:105A1000ACC08111AAC0109125021F778091E300CC
:105A20008078812B8093E3008091E800877F8093CA
:105A3000E8000E948A2A8091E80080FFFCCF8091D4
:105A4000E30080688093E300111102C082E001C08E
:105A500083E08093220289C08058823008F085C09C
:105A600080912502909126028C3D53E0950779F5AF
:105A700083E08A838AE289834FB7F894DE01139624
:105A800020E03EE051E2E32FF0E050935700E49134
:105A900020FF03C0E295EF703F5FEF708E2F90E024
:105AA000EA3010F0C79601C0C0968D939D932F5F8A
:105AB000243149F74FBF8091E800877F8093E80049
:105AC0006AE270E0CE0101960E94962916C06091AC
:105AD000270270912802AE014F5F5F4F0E94BF28DE
