:100000000C941A060C9461060C9461060C9461061B
:100010000C9461060C9461060C9461060C946106C4
:100020000C9461060C9461060C9443270C941528DB
:100030000C9469210C9461060C9461060C94610681
:100040000C9461060C9461060C9461060C94610694
:100050000C9461060C94D1210C9461060C946106F9
:100060000C9461060C9461060C9461060C94610674
:100070000C9461060C9461060C9461060C94610664
:100080000C9461060C9461060C9461060C94610654
:100090000C948B130C9461060C9461060C9461060D
:1000A0000C9461060C9461060C9461069206940609
:1000B00096069806AA069A069C069E06A006AA061A
:1000C000A206A406A606A806AA06BD0604070407FB
:1000D0000407C606D006DA06E406F406F8066A093E
:1000E0006C0977096E097009720974097609790932
:1000F0007B097D0988097F098109830985098709A9
:100100008A09381738176A176A17A2176E19101953
:100110006E19C2176E196F186F18E118EA186E1968
:1001200068197C187C187C187C187C187C187C1842
:100130007C187C187C187C187C187C187C187C181F
:100140007C188D189B18A218A918B318F519F51961
:10015000071A071AFE19071A071A071AF519F519C7
:10016000031A071A071A031A8228A9289B29A92803
:100170009B29F52818299B296E297D29E300350044
:1001800014001A000800150017000100E000040028
:100190001600070009000A000100E2001D001B0014
:1001A00006001900050001000100010001002B4FAD
:1001B0002C62284E30782F00130012000C0018001B
:1001C0001C000100347133000F000E000D000B0005
:1001D00001003174380037003600100011000100B2
:1001E0000100010001004C4F2A72294EE300350046
:1001F00034003600370013001C000100E00004004A
:100200001200080018000C000100E2003300140086
:100210000D000E001B0001000100010001002B4F2A
:100220002C62284E30782F000F00150006000A00BF
:100230000900010034711600110017000B000700BF
:10024000010031741D0019001A00100005000100A2
:100250000100010001004C4F2A72294EE3003500D5
:1002600014001A00090013000A000100E000040055
:1002700015001600170007000100E2001D001B001A
:1002800006001900050001000100010001002B4FCC
:100290002C62284E30782F0033001C0018000F000D
:1002A0000D000100347112000C00080011000B0059
:1002B0000100317438003700360010000E000100D4
:1002C0000100010001004C4F2A72294EE300350065
:1002D0001400070015001A0005000100E0000400EA
:1002E00016000B0017000A000100E2001D001B00B1
:1002F00010000600190001000100010001002B4F51
:100300002C62284E30782F003300130018000900AB
:100310000D00010034710C001200080011001C00D7
:10032000010031743800370036000F000E00010064
:100330000100010001004C4F2A72294EE3003500F4
:100340001B003600070012000E000100E000040050
:1003500033000B001C0018000100E200380005000B
:100360000C003700110001000100010001002B4FBB
:100370002C62284E30782D00150016000A00090066
:100380001700010034711D001300190006000D0054
:10039000010031742F0008001A0010000F00010046
:1003A0000100010001004C4F2A72294EE300350084
:1003B0001B0036001C00150018000100E0000400BE
:1003C000120033000E000B000100E20038000500AF
:1003D0000C003700110001000100010001002B4F4B
:1003E0002C62284E30782D001D00170009001300E4
:1003F00006000100347116000A0007000F000D000E
:10040000010031742F0008001A00100019000100CB
:100410000100010001004C4F2A72294EE300350013
:100420001B000B001200360011000100E000040068
:1004300033000D000E0018000100E2003800050036
:1004400010000C00370001000100010001002B4FDB
:100450002C62284E30782D001D00150009001C006C
:100460000600010034710A00160007000F00170093
:10047000010031742F0008001A0013001900010058
:100480000100010001004C4F2A72294EE3003500A3
:1004900014001A000E00160009000100E00004001C
:1004A00007000A00080017000100E2001D001B0001
:1004B00006001900050001000100010001002B4F9A
:1004C0002C62284E30782F00150033000F000C00EE
:1004D0001200010034711300180011001C000B0001
:1004E0000100317438003700360010000D000100A3
:1004F0000100010001004C4F2A72294EE300350033
:10050000340036003700150012000100E00004003E
:1005100033000E000C000F000100E2001300140075
:100520001C0011001B0001000100010001002B4F05
:100530002C62284E30782F00180016000600170095
:1005400008000100347107000D0009000B000A00CB
:10055000010031741D0019001A001000050001008F
:100560000100010001004C4F2A72294EE3003500C2
:1005700014000A0016001A0005000100E000040043
:1005800007000B00090017000100E2001D001B001E
:1005900010000600190001000100010001002B4FAE
:1005A0002C62284E30782F00130015000C00080034
:1005B0001C00010034710F0033000E000D0012000A
:1005C00001003174380037003600180011000100B6
:1005D0000100010001004C4F2A72294EE300350052
:1005E000140015000E00080009000100E0000400DE
:1005F00016001A0018000A000100E2001D001B008E
:1006000019000500170001000100010001002B4F37
:100610002C62284E30782F0012000F0033000C009F
:100620000B00010034711300100011001C000700C2
:100630000100317438003700360006000D0001005B
:100640000100010001004C4F2A72294EE3003500E1
:1006500034003600370012000B000100E0000400F7
:100660000F000E000C0033000100E2001300140024
:100670001C0011001B0001000100010001002B4FB4
:100680002C62284E30782F001000080019000A0054
:1006900018000100347116000D00090007001A004F
:1006A000010031741D00050015000600170001004F
:1006B0000100010001004C4F2A72294EE300350071
:1006C00014001500180012000A000100E0000400E8
:1006D0000800160009001A000100E2001D001B00BE
:1006E00019000500170001000100010001002B4F57
:1006F0002C62284E30782F0013000B000C001000E5
:100700001C00010034710F0033000E000D000700C3
:100710000100317438003700360006001100010076
:100720000100010001004C4F2A72294E0100010016
:1007300001000100010001000100010064610100ED
:10074000010001000100010001003264010001000C
:100750000100010001000100010001000100010091
:100760000100010001000100010001000100010081
:100770000100010001000100010001000100010071
:100780000100E6000100010001000100010001007C
:1007900001000100010001000100010001002D0223
:1007A0003A003B003C003D003E0001002E611E026D
:1007B0001F02200221022202010057641E001F00B6
:1007C00020002100220001000100010001000100C1
:1007D0000100010045784400430042004100400010
:1007E0003F0001002D712702260225022402230268
:1007F000010001002700260025002400230001003D
:10080000010001000100010001000100010053008E
:1008100054005F0060006100560001002E61550029
:100820005C005D005E00570001000100620059009D
:100830005A005B0085000100010001000100010079
:10084000010001000100390047004B0046004A004A
:10085000A9000100657149004F0052005000A80036
:100860000100010048004E0051004D00AA000100A7
:10087000010001000100010001000100005C015CB9
:10088000175C00000000000000000100195C1A5C09
:1008900000000000F05CF15C01001153185C0000E6
:1008A00000000D531253010001000100010001007E
:1008B000F05B0100005C015C175C000000000000C0
:1008C00000000100195C1A5C00000000F05CF15CA3
:1008D00001001153185C000000000D531253010079
:1008E0000100010001000100F05B010000000000B8
:1008F0000000BE5CC95CC65CC55C01000000000075
:10090000BD5CCA5CC85CC75C0100115300000000FC
:10091000C25CC45CC35C0100010001000100010075
:1009200001000100000000000000BE5CC95CC65C64
:10093000C55C010000000000BD5CCA5CC85CC75C0F
:100940000100115300000000C25CC45CC35C0100E4
:10095000010001000100010001000100010001008F
:10096000010001000100010001000100010001007F
:10097000010001000100010001000100010001006F
:1009800001000100010001000100010001004C4FC5
:100990002A62294E0100010001000100010001004E
:1009A000010001000100010001000100010001003F
:1009B000010001000100010001000100010001002F
:1009C0000100010001002B4F2C72284E0100010094
:1009D00001000100010001000100F45C01000100C0
:1009E0000100010001000100F55C010001000100AF
:1009F000010001000100F65CF75CF85CF95C0100A5
:100A000001000100010001000100010001000100DE
:100A10000100F95C0100010001000100010001007A
:100A2000F85C010001000100010001000100F75C19
:100A3000F65CF55CF45C01000100010000000000C0
:100A40000001010101010101010102020202020291
:100A50000202020303030303030303040404040464
:100A60000405050505050606060606070707070827
:100A70000808080909090A0A0A0A0B0B0B0C0C0CD6
:100A80000D0D0D0E0E0F0F0F10101111111212136C
:100A9000131414151516161717181819191A1A1BE6
:100AA0001C1C1D1D1E1F1F20202122222324252542
:100AB00026272728292A2B2B2C2D2E2F2F30313279
:100AC00033343536363738393A3B3C3D3E3F40418A
:100AD000424344464748494A4B4C4D4F505152536C
:100AE000555657585A5B5C5E5F606263646667691F
:100AF0006A6C6D6E707173747678797B7C7E8081A0
:100B0000838486888A8B8D8F91929496989A9B9DE8
:100B10009FA1A3A5A7A9ABADAFB1B3B5B7B9BBBDF5
:100B2000BFC1C4C6C8CACCCFD1D3D6D8DADCDFE1C6
:100B3000E4E6E8EBEDF0F2F5F7FAFCFF0403300031
:100B400000000A034A00690061006E0000001C03F7
:100B50004B0067004F0066004800650064006700B6
:100B6000650068006F00670073000000040309045B
:100B700009023B00020100A0FA0904000001030180
:100B8000010009211101000122400007058103082D
:100B9000000A0904010001030000000921110100FD
:100BA000012236000705820320000A12011001000D
:100BB000000008DEC037130100010203010501092E
:100BC00080A10185031601002603001A81002A83F3
:100BD00000751095018100C0050C0901A101850473
:100BE000160100269C021A01002A9C02751095012C
:100BF0008100C005010906A101050719E029E715D3
:100C0000002501950875018102950175088101058E
:100C10000819012905950575019102950175039142
:100C2000010507190029FF150026FF009506750824
:100C30008100C00011241FBECFEFDAE0DEBFCDBFC0
:100C400004B603FE27C08091950290919602A09170
:100C50009702B09198028730904BA740B04BD1F4E7
:100C6000109295021092960210929702109298029A
:100C700014BE84B7877F84BF0FB6F894A89580917F
:100C80006000886180936000109260000FBEE0E019
:100C9000F8E3099511E0A0E0B1E0E6E2F5E502C075
:100CA00005900D92AE38B107D9F722E0AEE8B1E079
:100CB00001C01D92A539B207E1F70E9467240C9488
:100CC000912A0C9400003E9A4698579A5F98259A6C
:100CD0002D9808950E9463060C94AD0680FF02C013
:100CE000469A01C0469881FF02C05F9A01C05F9892
:100CF00082FF02C02D9A01C02D980C9424080F93F6
:100D000000E12FE04EE00E9458070F9108958F7088
:100D100090E0FC013197EF30F105E0F4EA5AFF4F23
:100D20000C94292A81E017C082E015C083E013C02B
:100D300084E011C085E00FC086E00DC087E00BC0E5
:100D400088E009C089E007C08AE005C08BE003C0E5
:100D50008CE001C080E00C94440783E10C94201ED9
:100D6000CF93FC01E05FFC45EA30F10508F04CC090
:100D7000DB01EB59FF4F0C94292A1296CC91CC231E
:100D800009F443C080E00E94440739C012969C9148
:100D900080918E01992311F081601FC08E7F1DC04C
:100DA00012969C9180918E01992311F0826015C05A
:100DB0008D7F13C012969C9180918E01992311F022
:100DC00084600BC08B7F09C012969C9180918E012C
:100DD000992311F0886001C0877F80938E018091F4
:100DE0008E010E9487060BC01296CC918DE003C045
:100DF0001296CC9182E1CC2321F00E94201EC0E00B
:100E000004C00E94411E01C0C1E08C2FCF91089503
:100E100081E008950C94B0061F93CF93DF9300D028
:100E200000D01F92CDB7DEB749835A832091C70106
:100E300089819A81211112C0662349F00E94191FED
:100E4000182F682F89819A810E94BE1E03C00E94BC
:100E5000ED1E182F69817A81812F04C00E94191F0D
:100E600069817A810F900F900F900F900F90DF9112
:100E7000CF911F910C943C0AFC0140815181628109
:100E8000738184810C940C07CF93DF9361E070E051
:100E9000EB0102C0CC0FDD1F8A95E2F78C2F0E9478
:100EA0005C20BE0180E090E0DF91CF910C94C01DEA
:100EB0008F929F92AF92BF92CF92DF92EF92FF926A
:100EC0000F931F936B017C0181E090E0A0E0B0E004
:100ED0004C015D0104C0880C991CAA1CBB1C4A95DE
:100EE000D2F7AC01BD0104C0440F551F661F771F28
:100EF0002A95D2F7482959296A297B2904C0880FE5
:100F0000991FAA1FBB1F0A95D2F78A019B010C21CA
:100F10001D212E213F21041715072607370739F415
:100F2000BC01CD016C297D298E299F290AC080959D
:100F30009095A095B095BC01CD016C217D218E21AD
:100F40009F211F910F91FF90EF90DF90CF90BF9066
:100F5000AF909F908F9008950C94E80CCF92DF9201
:100F6000EF92FF92863030F4811105C0909180009D
:100F70009F7D04C085E090918000906290938000F6
:100F8000282F30E0AFEFBFEF0E942F2A25E030E09E
:100F900040E050E00E94072A2C3784E138074105E1
:100FA000510530F4C90169E070E00E94DF2929C0D1
:100FB000DA01C9018A50974DAF4FBF4F6627782F8E
:100FC000892F9A2F25EF38E241E050E00E94072A4E
:100FD00069017A01CA01B9010E94CF299B01AC01C4
:100FE000C701B6010E94CF29BB27A92F982F872FB1
:100FF000009721E0A207B10511F0BC0102C06FEF1C
:101000007FEF70938B0060938A00FF90EF90DF90EA
:10101000CF900895269A2E9882E28093800089E1ED
:10102000809381008FEF9FEF9093870080938600DD
:101030000C9421220E944920811102C00E94D120DB
:101040000E940A080C946A0608950C946E0608958E
:101050000E94E5190E9427082FEF84E39CE02150AD
:1010600080409040E1F700C0000087E797E7909349
:101070000108809300080C94F7210F931F93CF93DE
:10108000DF938C010E943C07EC01B8010E940A0723
:10109000882309F4E7C1C93C8CE5D80709F4C1C02D
:1010A000C0F5C23CECE5DE0709F486C0C0F4C531EA
:1010B0008CE5D80778F4C2309CE5D90708F0E8C081
:1010C000C115ECE5DE0709F45CC0C130DC4509F46C
:1010D00060C0BCC1C631DC4509F491C1B7C1C53C93
:1010E0009CE5D90709F487C050F4C33CFCE5DF0751
:1010F00009F469C0C43CDC4509F471C0A7C1F8011A
:101100008281C73CFCE5DF0709F481C008F47AC09E
:1011100083C0C63DECE5DE07B0F4CE3CFCE5DF075E
:1011200008F0A0C1CB3C8CE5D80709F488C008F4CE
:101130007FC0CC3CECE5DE0709F489C0CD3CDC4542
:1011400009F48DC083C1C93D8CE5D80709F43CC1C1
:1011500050F4C73DECE5DE0709F4ECC0C83DDC45C2
:1011600009F40BC173C1CD3D8CE5D80709F487C0E4
:10117000CE3D9CE5D907C1F0CC3DDC4509F066C108
:1011800077C0F8018281882309F46CC10E94280885
:1011900069C1F8018281882309F464C180913A020F
:1011A000816080933A025EC1F8018281882309F44C
:1011B00059C10E94D12056C1F8018281811152C1CA
:1011C0000E94AE114FC1F8018281882309F44AC1FF
:1011D0000E94991F827261F00E949F1143C1F80121
:1011E0008281882309F43EC10E94991F8272A1F373
:1011F0000E94911137C1F8018281811133C10E948F
:10120000BB1030C181112EC10E94DF102BC1811192
:1012100029C10E94FF1026C1811124C10E941F1103
:1012200021C1F801828181111DC10E943F111AC1A3
:10123000F8018281811116C10E945F1113C1F8016A
:101240008281882309F40EC10E94E00F0BC1F801CE
:101250008281882309F406C10E94F50F03C1F801B9
:101260008281882309F4FEC081E00E94A211FAC0A5
:10127000F8018281882309F4F5C080E006C0F801F6
:101280008281882309F4EEC082E00E940625EAC02C
:10129000F8018281882309F4DEC00E94492081116F
:1012A00002C00E94D1200E94612090E090938602AB
:1012B00080938502FE01E350FC45E231F10530F4F4
:1012C000E159FF4F809185020C94292A8091850273
:1012D000816027C0826025C0846023C0806121C0F6
:1012E00080621FC080641DC080681BC084608860ED
:1012F00018C08E7F16C08D7F14C08B7F12C08F7E6A
:1013000010C08F7D0EC08F7B0CC08F770AC08B7F83
:10131000877F07C087FB222720F991E0922790FB67
:1013200087F980938502809185020E9465200E9442
:10133000E51998C0F8018281882351F01092940138
:101340000E949B21909391018093900182E022C0A2
:101350008091940181110FC0809190019091910131
:101360000E94A721883C910530F486E20E948015F6
:1013700086E20E94971682E024C0F80182818823C9
:1013800061F0109295010E949B21909393018093AC
:10139000920180E20E94F61665C08091950181114C
:1013A0000FC080919201909193010E94A721883CE7
:1013B000910530F487E20E94801587E20E9497161B
:1013C00080E20E94FD164EC0F80182818111D9CFC2
:1013D000809195018111F4CF8091920190919301B8
:1013E0000E94A721883C910558F780E20E94FD16D3
:1013F00088E20E94801588E20E94971633C00E94FE
:10140000991F282FF8018281409102015091030118
:10141000882379F02A7A91E009F490E090938F0183
:10142000911102C069E201C065E3CA010E94052171
:101430000AC080918F01811102C069E201C065E399
:10144000CA010E9407210E94E51F0CC081E0809321
:10145000940180939501C801DF91CF911F910F9165
:101460000C94080780E0DF91CF911F910F910895B0
:1014700080E090E00895089597E0799FF0011124AD
:1014800098E3899FE00DF11D1124E60FF11DEE0F89
:10149000FF1FE458FE4F859194910895880F991F7E
:1014A000FC01E45CF54F859194910895CF93DF930F
:1014B0000E943C0A0E94470CEC01811522E592072C
:1014C00008F046C0811531E5930708F04BC18F3F06
:1014D000910509F020F5803F910508F018C18F3B78
:1014E000910580F4883A910508F0B2C0853A9105DB
:1014F00008F0A3C08430910508F0C5C1019709F434
:10150000C2C174C1803C910508F470C1803E910550
:1015100008F490C0883E910508F4B5C167C18115F3
:1015200040E4940768F4C11580E3D80708F0F5C0DB
:10153000C11520E2D20708F4A6C1CE019F70E9C010
:10154000811530E5930708F0F2C0DF70D06A9BC1C7
:1015500081154AE59407B8F5C11589E5D80708F063
:1015600024C1C11525E5D207F8F4C11534E5D30728
:1015700008F00CC12C2F26952695CE018370992753
:10158000C115D34508F0F3C040E2249F9001112417
:10159000C1E0D0E002C0CC0FDD1F8A95E2F72C2B12
:1015A0003D2BE901DC686FC1C11586E5D80708F459
:1015B000F2C0C11528E5D20708F418C1DC2FCC27EA
:1015C000C06FD06A60C18D3B3CE5930709F405C14B
:1015D00088F4CB3B8CE5D80709F4F9C008F0FAC0D1
:1015E000CE019B558F3F910511F008F0FFC0DD271C
:1015F000D06649C1803C3CE5930709F4F4C060F42F
:10160000CE3B8CE5D80709F4EBC0CF3BDC4509F0B5
:10161000EDC0C0E0D2ED37C190568115904208F080
:10162000E5C08D2F8F710E94C40CDD27D0628F71B1
:10163000D82B29C1805C91096CC0853A910509F4C9
:10164000D8C0863A910509F0D7C0C2E8D0E41BC1E2
:10165000883A910509F4D3C0893A910509F4D2C0BA
:101660008A3A910509F4D1C08B3A910509F4D0C0AA
:101670008C3A910509F4CFC08B3B910509F4CEC09B
:101680008C3B910509F4CDC08D3A910509F4CCC08D
:10169000803B910509F4CBC08E3A910509F4CAC08C
:1016A0008F3A910509F4C9C0813B910509F4C8C07E
:1016B000823B910509F4C7C0833B910509F4C6C07C
:1016C000843B910509F4C5C0853B910509F4C4C06C
:1016D000863B910509F4C3C0873B910509F4C2C05C
:1016E000883B910509F4C1C0893B910509F4C0C04C
:1016F0008D3B910509F4BFC08E3B910509F4BEC036
:101700008A3B910509F4BDC0C0E0D4E4BCC0D065FB
:10171000BAC00E944E0AEC01B6C0CE019927D3FF91
:1017200003C0EC01D86CAFC0EC01D06CACC08370CE
:1017300021E030E002C0220F331F8A95E2F73C68B7
:10174000CE0174E0969587957A95E1F78370382BF2
:10175000CF70C695C69540E2C49FE0011124C22B0C
:10176000D32B91C0D82FCC27C16FD06A8CC040E258
:10177000249F90011124C1E0D0E002C0CC0FDD1FF6
:101780008A95E2F7C22BD32BDA687DC0DC2FCC27F9
:10179000C46FD06A78C08C2F0E94C40C8F71C82F80
:1017A000D0E0DC2FCC27D0626EC08C2F8F700E94CF
:1017B000C40C94E0D695C7959A95E1F7CF70D0E028
:1017C000DC2FCC27D06A8F70806EC82B5CC0C0E045
:1017D000D4ED59C0C0E0D5ED56C0C0E0D1ED53C046
:1017E000C0E0D0ED50C0C0E0D3ED4DC0C0E0D0E0CF
:1017F0004AC0C1E8D0E447C0C3E8D0E444C0C2EE68
:10180000D4E441C0C9EED4E43EC0CAEED4E43BC047
:10181000C5EBD4E438C0C6EBD4E435C0C3EBD4E4A4
:1018200032C0C4EBD4E42FC0C7EBD4E42CC0CCEC62
:10183000D4E429C0CDECD4E426C0C3E8D5E423C069
:10184000CAE8D5E420C0C2E9D5E41DC0C4E9D5E4A6
:101850001AC0C1E2D6E417C0C3E2D6E414C0C4E2A1
:10186000D6E411C0C5E2D6E40EC0C6E2D6E40BC091
:10187000C7E2D6E408C0CFE6D4E405C0C0E7D4E4AC
:1018800002C0CAE2D6E4CE01DF91CF91089582383A
:10189000910549F1B0F48133910509F458C048F439
:1018A0008932910509F44EC08A32910509F454C079
:1018B00008958533910509F440C08933910599F065
:1018C0000895833E910529F138F4803E910591F009
:1018D000823E9105A1F00895863E9105F9F0873E7C
:1018E000910531F108952091850220FD3AC021FD36
:1018F00038C008958091850280FD35C032C0809146
:10190000850282FF32C08091850284FD30C083EE63
:1019100039C08091850282FD28C0F5CF8091850273
:1019200083FF27C08091850284FD21C087EE2AC0F5
:101930008091850283FD1DC0F5CF8091850285FDD4
:101940001AC01BC08091850285FD17C014C080910C
:10195000850286FD14C015C08091850286FD11C0E8
:101960000EC080EE0FC089E30DC082EE0BC080E098
:1019700009C086EE07C089E205C085E303C08AE29C
:1019800001C081E390E008959091850292FF0DC01F
:10199000282F2871283019F4877F846006C0282FEB
:1019A0002471243011F48B7F886093FF0DC0282FA1
:1019B0002871283119F4877E846106C0282F24718C
:1019C000243111F48B7E886194FD877E08950895FB
:1019D0000C94E70C0895E82FF0E0E556FE4F808167
:1019E0000895089580913A028360886080933A0256
:1019F0008091000180910001811102C094E001C03A
:101A000090E09093480284E0891B80934702A6E807
:101A1000B1E041E050E024E02A0F8D91E82FE295FB
:101A2000EF70F0E031A18F70BA0102C0660F771F2E
:101A30008A95E2F7CB01962F9095932391A392A1DB
:101A4000892B82A32A13E9CFAFE7B1E041E050E050
:101A500027E02A0F8D91E82FE295EF70F0E031A199
:101A60008F70BA0102C0660F771F8A95E2F7CB012B
:101A7000962F9095932391A392A1892B82A32A1349
:101A8000E9CFEBE9F1E088E08E0F11928E13FDCFE4
:101A900084E00E940B0E0C941A086F927F929F9222
:101AA000AF92BF92CF92DF92EF92FF920F931F936C
:101AB000CF93DF9326E8622E21E0722EA7E9B1E0F2
:101AC00020E001E010E034E0B32EBA0E7D01AC90CE
:101AD0001C92E30189913E01E82FE295EF70F0E05E
:101AE00031A18F70A80102C0440F551F8A95E2F7FB
:101AF000CA01342B31A342A1382F3095432342A38E
:101B000050EA5A95F1F79FE7C92E91E0D92E40E0AF
:101B100050E0E60199906E01692D62956F7070E05A
:101B2000EB0168A170E0D92DDF7002C07595679553
:101B3000DA95E2F760FD07C0B801042E01C0660F18
:101B40000A94EAF702C060E070E07C91672B6C9326
:101B50004F5F5F4F47305105E1F691A1392331A323
:101B600092A1892B82A3119681E0F7019081A9129D
:101B700001C080E0282BBA12A9CF6091480270E022
:101B800065567E4F44E087E991E00E940C0E81E0AB
:101B9000DF91CF911F910F91FF90EF90DF90CF9049
:101BA000BF90AF909F907F906F900895CF930E94C9
:101BB0004D0DC82F0E944C0E882301F12091470241
:101BC000822F90E085569E4F0E94740E811111C0A5
:101BD000909196019F5F90939601963060F0E0910E
:101BE0004702F0E0E556FE4F108211821282138206
:101BF00002C0109296010E94AC070AC020914802D0
:101C0000822F90E085569E4F0E94D20E0E94EA0CD1
:101C10008C2FCF9108950895FF920F931F93CF9328
:101C2000DF938C01F62ED72FC42F222349F081E0B9
:101C30008093A5010E949B219093A4018093A3010E
:101C40008091A5018823C1F08091A3019091A40106
:101C50000E94A721069780F0EF2DFD2FD8014C2F71
:101C600050E0CD01801B910B841795071CF48D91DA
:101C70008193F7CF1092A501DF91CF911F910F9122
:101C8000FF9008958EE090E00E94492A91E0811132
:101C900001C090E0892F08958091A601811112C0A2
:101CA0008091D80080618093D8008AE18A95F1F70D
:101CB00000C08091D90080FD02C082E001C081E0B7
:101CC0008093A60181E09091A601913009F080E017
:101CD00008950E94420E809300010E944C0E8111D3
:101CE0000C94EE0E0C94F00E0F931F93CF93DF9392
:101CF00000D000D01F92CDB7DEB704E610E024E09C
:101D000030E0AC0165E082E30E9439130E94DF22DB
:101D10008D839091A701891771F021E030E0AE0129
:101D20004B5F5F4F60E082E30E940C1397FD03C09E
:101D30008D818093A7010E94D70F69837A838B835B
:101D40009C830091A8011091A9012091AA013091D2
:101D5000AB016017710782079307C9F004E610E032
:101D600024E030E0AE014F5F5F4F61E082E30E940C
:101D70000C1397FD0CC089819A81AB81BC81809343
:101D8000A8019093A901A093AA01B093AB0181E0AF
:101D90000F900F900F900F900F90DF91CF911F91A8
:101DA0000F910895CF93DF93FC0180819181A281EF
:101DB000B3818093680290936902A0936A02B09302
:101DC0006B02C3E6D2E088810E94AE0769817A8106
:101DD0008B819C81DF91CF910C94EF110C94351283
:101DE00082E30C948513CF92DF92EF92FF920F93D0
:101DF0001F93CF93DF93E901453608F044E666234D
:101E000009F44EC0242F30E0EFEFF0E0E61BF109BB
:101E1000B901E69F8001E79F100DF69F100D112478
:101E2000012F110F110B202F7B01E01AF10A3CE367
:101E3000C32ED12CB6010E94DF29FB01BC01E69E16
:101E4000C001E79E900DF69E900D1124B6010E94F0
:101E5000DF29E230F105B1F040F4309779F03197A5
:101E600011F5802F242F461B21C0E430F105A1F08D
:101E700068F03597C1F4842F861B18C0802F262F59
:101E8000200F14C0862F800FE42F03C0E42FE61B21
:101E9000842F402F2E2F0AC0842F462F400F06C0BC
:101EA000842F242F03C080E020E040E0E42FF0E006
:101EB000E45CF54F4491E22FF0E0E45CF54F94913F
:101EC000E82FF0E0E45CF54FE49149839883EA83DE
:101ED000DF91CF911F910F91FF90EF90DF90CF9006
:101EE000089580914902982F96959F73913021F023
:101EF000817882608093490230914902432F441FC8
:101F00004427441F20914A02522F550F852F842BBE
:101F100027FB992790F9893641E094077CF068E621
:101F200071E00E94F32980FB37F9309349028695CE
:101F30002078822B90FB87F980934A0280914C0293
:101F4000853618F084E680934C02089588E090E08E
:101F50000C94512ACF93DF9300D000D0CDB7DEB7D9
:101F6000AB01BC0149835A836B837C830E94710F50
:101F700049815A816B817C8188E090E00F900F90BD
:101F80000F900F90DF91CF910C946F2AE9E4F2E06B
:101F900083E0808310924A028FEF828384E68383FA
:101FA000148260817181828193810C94AA0F609167
:101FB000490270914A0280914B0290914C0208951F
:101FC00080914D0290E001968430910514F083E0F9
:101FD00090E080934D026091490270914A02809195
:101FE0004B0290914C020C94AA0F80914D0290E00C
:101FF000019797FF02C080E090E08430910514F0D3
:1020000083E090E080934D026091490270914A0212
:1020100080914B0290914C020C94AA0F8091AC01DC
:1020200023E0829FC0011124825B9D4F60910101DA
:1020300070E02091490220FD0DC020E030E0F90160
:10204000E25BFD4F1182108212822D5F3F4F2531DE
:102050003105A9F70C943212E9E4F2E080818E7F19
:10206000808360817181828193810E94AA0F2FEF0A
:1020700080E792E0215080409040E1F700C00000EE
:102080000C940E109091490290FF0FC020E030E0B8
:10209000F901E25BFD4F8183608342832D5F3F4FF7
:1020A00025313105A9F70C940E100895DF92EF92B7
:1020B000FF920F931F93CF93DF9300D01F92CDB762
:1020C000DEB73091490230FF31C0D22E042FF62EF8
:1020D000E92E182F3E77323051F49E012F5F3F4F8B
:1020E0000E94F30E4B8169818A810E944210809187
:1020F000490210FB87F980934902169580914A02A4
:102100008078182BE0FA17F910934A02F0924B02EC
:1021100000934C02DD2051F06091490270914A0217
:1021200080914B0290914C020E94AA0F0F900F9049
:102130000F90DF91CF911F910F91FF90EF90DF9063
:102140000895282FE9E4F2E09081991F9927991FBB
:1021500030914A02832F880F482F492B37FB552790
:1021600050F9CA01089668E671E00E94F32943819C
:1021700062810C94561081E00C94A110282F90914C
:102180004902991F9927991F30914A02832F880F7E
:10219000482F492B37FB552750F9CA0148305105C4
:1021A0001CF4805A9E4F01C0089768E671E00E94B7
:1021B000F32940914C0260914B020C94561081E03F
:1021C0000C94BE1060914B02262F30E0283F310561
:1021D00014F4685F01C06FEF30914902331F332759
:1021E000331F90914A02592F550F97FB992790F969
:1021F000282F40914C02852F832B0C94561081E0A0
:102200000C94E21060914B02262F30E0283031050B
:1022100014F0685001C060E030914902331F332749
:10222000331F90914A02592F550F97FB992790F928
:10223000282F40914C02852F832B0C94561081E05F
:102240000C94021140914C02242F30E02D353105C1
:1022500014F4485F01C044E630914902331F33272C
:10226000331F90914A02592F550F97FB992790F9E8
:10227000282F60914B02852F832B0C94561081E000
:102280000C94221140914C02242F30E0283031056B
:1022900014F0485001C040E030914902331F332709
:1022A000331F90914A02592F550F97FB992790F9A8
:1022B000282F60914B02852F832B0C94561081E0C0
:1022C0000C94421120E00C9456108091490280FF3A
:1022D00023C08178826080934902662351F0609127
:1022E000490270914A0280914B0290914C020E94E7
:1022F000AA0F80914902881F8827881F90914A025F
:10230000292F220F97FB992790F940914C02609159
:102310004B02822B0C9462110895682F81E00C947B
:10232000651181E00C948D11682F9091490296956A
:102330009F738FEF890F09F481E00C94651181E0A0
:102340000C94941161E00C946511E9E4F2E0808151
:102350008160808386958F730C94A21180914902CD
:1023600080FD0C942C100C94A51160E00C94651168
:102370008091AD01811132C080913A0281608093D9
:102380003A020E944920811104C00E94D1200E947B
:10239000C60F0E94A60F6093490270934A02809371
:1023A0004B0290934C026E7761F40E94C60F0E941C
:1023B000A60F6093490270934A0280934B02909358
:1023C0004C020E94710F8091490280FF04C08695E3
:1023D0008F730E94B51181E08093AD0108956093E1
:1023E000490270934A0280934B0290934C0260FF23
:1023F00005C0862F86958F730C94B5110C940E1022
:102400002BB1342F309523233BB1432B3FB7F894A6
:10241000FC01680F791FE617F70789F0819198E0B2
:102420004BB9000000C087FF2BB9880F000000C027
:1024300000C000C02BB900C09A9591F7ECCF3FBF08
:1024400008952AB1242B2AB99B01220F331F620F52
:10245000731F0E94001287EC90E00197F1F700C013
:102460000000089540E10C9421121092B9008CE014
:102470008093B8000895EF92FF920F931F93CF932C
:10248000DF93182FEB011092BC0084EA8093BC000C
:102490000E949B217C019091BC0097FD0EC0CF3F14
:1024A0008FEFD807C1F30E949B218E199F098C17CB
:1024B0009D0788F38EEF9FEF2EC09091B900987F13
:1024C000983041F09091B900987F903119F08FEFDA
:1024D0009FEF21C01093BB0084E88093BC000E9452
:1024E0009B218C019091BC0097FD0CC0CF3F8FEFDA
:1024F000D807C1F30E949B21801B910B8C179D076D
:1025000088F3D8CF8091B900887F883111F080346A
:10251000F1F680E090E0DF91CF911F910F91FF9055
:10252000EF9008950F931F93CF93DF93EB01809368
:10253000BB0084E88093BC000E949B218C01909199
:10254000BC0097FD0EC0CF3F8FEFD807C1F30E94AC
:102550009B21801B910B8C179D0788F38EEF9FEFBB
:102560000CC02091B900287F81E090E0283211F45E
:1025700080E090E0919581959109DF91CF911F9135
:102580000F9108950F931F93CF93DF93EC0184EC89
:102590008093BC000E949B218C019091BC0097FD10
:1025A0000EC0CF3F8FEFD807C1F30E949B21801B45
:1025B000910B8C179D0788F38EEF9FEF03C08091DE
:1025C000BB0090E0DF91CF911F910F9108950F9381
:1025D0001F93CF93DF93EC0184E88093BC000E94AB
:1025E0009B218C019091BC0097FD0EC0CF3F8FEFD7
:1025F000D807C1F30E949B21801B910B8C179D076C
:1026000088F38EEF9FEF03C08091BB0090E0DF91D5
:10261000CF911F910F910895CF92DF92EF92FF9289
:102620000F931F93CF93DF93C62F6A017901B801EF
:102630000E943B1297FD11C0B8018C2F0E9492128C
:10264000E601EC0CFD1CCE15DF0539F097FD05C049
:10265000B80189910E949212F6CF24E92093BC0020
:10266000DF91CF911F910F91FF90EF90DF90CF906E
:102670000895CF92DF92EF92FF920F931F93CF9323
:10268000DF93D82EC62E7A01E901B8010E943B12D1
:1026900097FD2AC0B8018C2D0E94921297FD24C08C
:1026A000B8018D2D81600E943B12C12CD12C219745
:1026B000CC16DD0678F497FD17C0C8010E94C2123F
:1026C00097FD04C0F701EC0DFD1D80832FEFC21AAA
:1026D000D20AEECF97FD08C0C8010E94E71297FD0D
:1026E00003C0CE0DDF1D888324E92093BC0018169B
:1026F000190614F480E090E0DF91CF911F910F91C3
:10270000FF90EF90DF90CF9008958093BA0085EC12
:102710008093BC0008951F920F920FB60F92112460
:102720008F939F93EF93FF938091B900887F8038B8
:1027300069F038F48823B1F18036B1F51092AE011A
:1027400033C0883A09F1883BF9F02EC08091AE0180
:10275000811111C08091BB008093AF018091AF01C6
:102760008E3120F01092AF0180E001C081E091E055
:102770009093AE011AC0E091AF01F0E08091BB00F0
:10278000ED59FD4F808308C0E091AF01F0E0ED59B5
:10279000FD4F80818093BB008091AF018F5F80935C
:1027A000AF0102C01092BC0081E09091BC0095681E
:1027B0008295880F880F807C892B8093BC00FF91C5
:1027C000EF919F918F910F900FBE0F901F901895D2
:1027D0009093B5018093B4010895E091B401F09114
:1027E000B501309721F00190F081E02D099480E04F
:1027F0000895E091B401F091B501309721F0028085
:10280000F381E02D099408952091B2013091B30134
:102810008217930771F09093B3018093B201E09116
:10282000B401F091B501309721F00680F781E02DD9
:10283000099408952091B0013091B1018217930756
:1028400071F09093B1018093B001E091B401F091E7
:10285000B501309721F00084F185E02D09940895A9
:1028600085B7806885BF85B7806885BF089508955E
:102870000C94371408950C943A140E9430140E945A
:10288000690E0C9438140E9492210E94F20C0E944E
:1028900008220E9421220E94B8110C943B14CF926E
:1028A000DF92EF92FF920F931F93CF93DF93CDB7F9
:1028B000DEB72B970FB6F894DEBF0FBECDBF0E94D8
:1028C000D60D0E944C0E811111C08FEF89838A832F
:1028D0001B820E949B218160782F9D838C8349817C
:1028E0005A816B818D810E94311556C087EBC82EAD
:1028F00081E0D82E00E010E0E02E802F0E94EB0C4B
:10290000F60141916F01F42EF82631F40F5F1F4F4D
:102910000830110589F7D9CF90913A0291FF04C090
:102920008B870E94F10C8B8520E030E04F2D50E02A
:10293000922FBA01022E02C0759567950A94E2F7AC
:1029400060FF24C02E83EF8221E030E0690102C0E5
:10295000CC0CDD1C9A95E2F790E08C219D21892B0F
:1029600009F420E028870E949B218160782F9A87B4
:1029700089874E815F8168858A850E943115F801BB
:10298000E954FE4F8081C826C08206C02F5F3F4FAA
:102990002730310569F6BACF1091B6010E94ED13C8
:1029A0001817A1F00E94ED138093B6012B960FB675
:1029B000F894DEBF0FBECDBFDF91CF911F910F9175
:1029C000FF90EF90DF90CF900C9425082B960FB6D8
:1029D000F894DEBF0FBECDBFDF91CF911F910F9155
:1029E000FF90EF90DF90CF900895DC0111962C912D
:1029F00011978C91682F70E041E050E001C0440FC6
:102A00008A95EAF712968C91129730E0882329F084
:102A10008091C9018823E9F006C0F901E154FE4F15
:102A200090819423B1F087E0829FF001839FF00DA5
:102A30001124E60FF71FEE0FFF1FE15FFE4F8081AD
:102A400091818D939C93F901E154FE4F8081482B35
:102A500006C0F901E154FE4F409580814823408330
:102A60000895CF93DF93CDB7DEB72B970FB6F894C9
:102A7000DEBF0FBECDBF942F4F83252F58876987A8
:102A80007A878B874A855B85452B21F02F3F09F597
:102A90009F3FF9F4DE01119686E0FD0111928A95BF
:102AA000E9F785E0FE01379601900D928A95E1F7EE
:102AB00049815A816B817C818D819E810E948F1C0E
:102AC0002B960FB6F894DEBF0FBECDBFDF91CF912E
:102AD0000895CE0107960E94F514DCCFFC01808199
:102AE00091810E945A1F92959F70963041F4809177
:102AF000C90191E089278093C9019093C801089585
:102B0000882309F413C1682F8238C1F40E94ED13A1
:102B100081FD0CC169E380910201909103010E9443
:102B200005210E94E51F2FEF81EE94E021508040A7
:102B30009040E1F700C0000069E319C08338F9F460
:102B40000E94ED1380FDF2C063E580910201909137
:102B500003010E9405210E94E51F2FEF81EE94E002
:102B6000215080409040E1F700C0000063E5809173
:102B70000201909103010E9407210C94E51F843803
:102B8000C1F40E94ED1382FDD1C067E4809102017F
:102B9000909103010E9405210E94E51F2FEF81EE15
:102BA00094E0215080409040E1F700C0000067E4CD
:102BB000DECF8CEF860F813A38F48091020190913C
:102BC00003010E940521D9CF80E2860F883048F4A6
:102BD000677081E001C0880F6A95EAF70E949C1F28
:102BE000CCCF8BE5860F833070F4653A29F0663AD6
:102BF00031F083E890E005C081E890E002C082E80F
:102C000090E00C94041488E5860F873108F08EC09C
:102C1000683A09F445C0693A09F445C06A3A09F4CA
:102C200045C06B3A09F445C06C3A09F445C06B3BAA
:102C300009F445C06C3B09F445C06D3A09F445C040
:102C4000603B09F445C06E3A09F445C06F3A09F497
:102C500045C0613B09F445C0623B09F445C0633B94
:102C600009F445C0643B09F445C0653B09F445C01F
:102C7000663B09F445C0673B09F445C0683B09F46D
:102C800045C0693B09F445C06D3B09F445C06E3B46
:102C900009F445C06A3B09F445C080E090E044C0B7
:102CA00082EE90E041C089EE90E03EC08AEE90E076
:102CB0003BC085EB90E038C086EB90E035C083EBFD
:102CC00090E032C084EB90E02FC087EB90E02CC006
:102CD0008CEC90E029C08DEC90E026C083E891E078
:102CE00023C08AE891E020C082E991E01DC084E918
:102CF00091E01AC081E292E017C083E292E014C032
:102D000084E292E011C085E292E00EC086E292E099
:102D10000BC087E292E008C08FE690E005C080E734
:102D200090E002C08AE292E00C941A14089588237D
:102D300009F45BC0682F823879F40E94ED1381FF9B
:102D400054C069E380910201909103010E94052122
:102D50000E94E51F69E310C08338B1F40E94ED13AF
:102D600080FF43C063E580910201909103010E94BE
:102D700005210E94E51F63E5809102019091030106
:102D80000E9407210C94E51F843879F40E94ED130A
:102D900082FF2BC067E480910201909103010E94A1
:102DA00005210E94E51F67E4E7CF8CEF860F813A8B
:102DB00018F380E2860F883048F4677081E001C024
:102DC000880F6A95EAF70E94A21FDCCF8BE5860F79
:102DD000833020F480E090E00C940414685A67314A
:102DE00020F480E090E00C941A140895882321F0D8
:102DF0000E949C1F0C94E51F0895882321F00E94D7
:102E0000A21F0C94E51F08958F929F92AF92BF92DC
:102E1000DF92EF92FF920F931F93CF93DF937C018A
:102E2000D62FC72FFC01058102950F701281111159
:102E30000E94B91F0E94921F882379F0112369F024
:102E400080E28D0F883048F082E00E9430200E949E
:102E5000921F91E0D82ED92601C0D12CAC2EA2947D
:102E60008FE0A822B12CF501EF57FF4F0C94292ACF
:102E70008C2F807FCF70882311F0C295C07F1123E3
:102E800099F0CC2309F488C180E28D0F883010F0CE
:102E9000D11104C08C2F0E949C1F03C08C2F0E9454
:102EA000AC1F0E94E51F78C18D2F0E949716CC237E
:102EB00009F414C280E28D0F883010F0D11104C0E3
:102EC0008C2F0E94A21F03C08C2F0E94B21F0E9451
:102ED000E51F04C28C2F807FCF70803211F0C29525
:102EE000C07FDD2319F0D130C9F022C0112371F069
:102EF000002341F0013031F40E94CC1F8C2B0E9442
:102F0000D21FECC10E94CC1F8C2BFEC0002319F0F5
:102F1000013009F4E3C10E94DB1F12C0112321F02C
:102F2000063008F0DBC108C0053008F0D7C108C082
:102F3000112321F0011130C18C2FE6C001113DC1D8
:102F40008C2FE8C08C2F86958695837090E0009733
:102F500019F0019761F0C2C1112321F08D2F9C2F30
:102F6000937002C080E090E00E940414C7C1112356
:102F700021F08D2F9C2F937002C080E090E00E9482
:102F80001A14BCC18C2F837009F050C01111B2C14A
:102F90008D2F829586958770880F880F9D2F9F7043
:102FA000892E912CA12CB12C082E04C0880C991CC0
:102FB000AA1CBB1C0A94D2F7D4FF14C00FE010E087
:102FC00020E030E0B901A80104C0440F551F661F7E
:102FD000771F8A95D2F7CB01BA01609570958095DD
:102FE000909503C060E070E0CB01C695C695C370B4
:102FF000D0E0C230D10561F0C330D10581F068293D
:1030000079298A299B29219771F00E94D41D72C1C8
:10301000682979298A299B290E94E61D6BC10E9493
:10302000D41DC501B4010E94C21D64C1112319F051
:103030008C2F817001C08695882309F45BC18D2F88
:10304000829586958770880F880F9D2F9F70892E97
:10305000912CA12CB12C082E04C0880C991CAA1C00
:10306000BB1C0A94D2F7D4FF14C00FE010E020E09C
:1030700030E0B901A80104C0440F551F661F771F37
:103080008A95D2F7CB01BA0160957095809590959D
:1030900003C060E070E0CB01C695C695C3704C2FAD
:1030A00050E04230510569F04330510589F06829FC
:1030B00079298A299B294130510571F00E94991E76
:1030C00019C1682979298A299B290E94AB1E12C13E
:1030D0000E94991EC501B4010E94871E0BC18D2F4D
:1030E00090E0FC01E05EF109E531F10508F050C027
:1030F000EF56FF4F0C94292ADF708C2F8F7111230C
:1031000031F00E94201E8D2F0E94F616E7C00E940B
:10311000411E8D2F0E94FD16E1C0112341F00530A4
:1031200008F0DCC08C2F8F710E94661ED7C006305D
:1031300008F0D4C0F7CF112339F08C2F8F710E9483
:10314000201ECCC01123C9F38C2F8F710E94411E09
:10315000C5C0112329F08C2F8F710E940B1EBEC099
:103160000E94061EBBC0112349F0CF718C2F0E9414
:10317000201E63E08C2F0E941B20B0C081E00E94C3
:103180003020023008F4AAC082E00E943020A6C09D
:10319000112331F0002389F28D2F0E9480159EC0EB
:1031A000002391F2D93349F45FEF67EE73E0515099
:1031B00060407040E1F700C000008D2F0E9497161C
:1031C0008DC04C2F4F706D2FC7010E94380A0E948E
:1031D000331D94C0111192C0CF70D0E0C230D10520
:1031E000A9F044F4209779F0219709F077C00E9464
:1031F0005B2284C0C430D10579F05CF0259709F0DA
:103200006DC080E00AC00E943E2278C00E949A22CF
:1032100075C00E94A12272C085E00E94C4226EC0C7
:10322000D23FB1F028F4D03F49F0D13FF9F028C0A7
:10323000D43FB9F058F0D53F71F022C0112309F402
:1032400047C09091C90181E0892708C081E0182713
:103250001093C9013DC011113BC081E08093C901A9
:1032600037C0111135C01092C90132C0112329F0A5
:103270008091C801882329F329C0053010F328C0A4
:103280008091C8010023C1F0882341F09091C901C9
:1032900081E089278093C9011092C8018D2F1123E5
:1032A00019F00E94801514C00E94971686E0F7015D
:1032B00011928A95E9F70CC0882351F0111108C0CA
:1032C0009091C90181E089278093C9011092C801BA
:1032D0004C2F4F706D2FC7010E943B0AF8E0AF16CC
:1032E000B10441F05CF04AE0A41AB10852E0A5161E
:1032F000B10420F40E94ED130E942508DD20E1F0C6
:103300000E948E1F80FD18C0F70112820E94881F44
:103310000E94201EC7010E94A8190E94881FDF91E9
:10332000CF911F910F91FF90EF90DF90BF90AF90E2
:103330009F908F900C94411EDF91CF911F910F9120
:10334000FF90EF90DF90BF90AF909F908F90089587
:103350000F931F93CF93DF93EC01888199812B8189
:103360003C81232BB9F09F3F11F48F3F99F0CE01A0
:103370000E943D08882371F0688179818A810E94CA
:10338000651F8C010E94BD1E0E94BF1DB801CE01A9
:103390000E940417DF91CF911F910F9108950E9411
:1033A000B91F0E94C91F0E94E51F80E090E00E94A3
:1033B000041480E090E00C941A1480910201909122
:1033C00003010E9409210C94CF190E94A91F0C949B
:1033D000DD19E92FE295EF70F0E03297EE30F1055C
:1033E000B0F4EA55FF4F0C94292A803F91F018F46D
:1033F000803E68F40EC0843F51F40BC0803E48F01C
:10340000813F29F406C093FB882780F9089580E066
:10341000089581E008950E945A1F0E94E9190895B5
:10342000CF93DF9300D000D01F92CDB7DEB70F90BF
:103430000F900F900F900F90DF91CF910895CF9341
:10344000DF9300D000D000D0CDB7DEB726960FB600
:10345000F894DEBF0FBECDBFDF91CF9108951F93CB
:10346000CF93DF93C091CA0116E08091CB01C817BA
:1034700099F0D0E01C9FF0011D9FF00D1124E45342
:10348000FE4F4081518162817381848195810E94C8
:103490001F1A2196C770E9CFDF91CF911F91089530
:1034A0004091FC015091FD016091FE017091FF017E
:1034B00080910002909101020C941F1A80910102E8
:1034C00082958F7009F054C08091FE01882309F421
:1034D0004FC08091CA01A091CB016091FC01709115
:1034E000FD014091FF0150910002B6E08A1709F4F6
:1034F0003FC090E041155105C1F17F3F11F46F3F8E
:10350000A1F1B89FF001B99FF00D1124E453FE4FD3
:10351000218172132AC02081621327C022812111C8
:1035200024C0238134812417350710F42150310938
:10353000241B350B283C3105C0F4209101022F706B
:1035400020612093010226E0289FF001299FF00DC1
:103550001124EF52FE4F80818F70806180838CEF49
:1035600091E00E94A8190C942F1A01968770BECF83
:103570000895CF92DF92EF92FF920F931F93CF9314
:10358000DF93CDB7DEB762970FB6F894DEBF0FBEFC
:10359000CDBF8C0185E0F801DE011D9601900D92F2
:1035A0008A95E1F7D8014C9111965C91119712968A
:1035B0006C9112971396CD90DC9014973091FC018A
:1035C0007091FD018091FF0190910002009709F434
:1035D0006BC17F3F19F43F3F09F466C1E090FE01E3
:1035E000EE2009F4C0C020910102C816D90628F0C7
:1035F000F601E81BF90BCF0104C0809590958C0D66
:103600009D1DFF24F394883C910578F0F12C207FD8
:1036100009F0C6C07C2DD98AC88A89890E94101AEF
:103620008CEF91E00E94A819B1C0822F807F09F031
:1036300046C0751314C0341312C0611110C02F702E
:103640002061209301020E94501A8CEF91E00E94A9
:10365000A81980910102D80115968C932EC0CD280F
:1036600019F15F3F11F44F3FF9F0F62E61111CC0C4
:103670008091CA012091CB0136E0821709F45AC02B
:1036800090E0389FF001399FF00D1124E453FE4F74
:103690007181571306C07081471303C07281711185
:1036A00003C001968770E9CFF62E662309F427C17F
:1036B00080910102816080930102F12C20C1751379
:1036C00008C0341306C0611104C080910102D80102
:1036D000C3C04D875E878D859E856A8B0E940B1ABD
:1036E0006A898823E1F16623D1F120910102822FBA
:1036F00082958F7090E0029774F08091FC01909118
:10370000FD0198878F831986DB86CA862C87CE01B8
:1037100007960E94A81986E0F801ACEFB1E001908D
:103720000D928A95E1F70E945E1A0E94501AFF24BA
:10373000F394E5C04D875E878D859E850E945A1F54
:10374000292F22952F7030E0223031050CF0CBC0AC
:103750009F7009F0C5C0805E883008F4D0C0C801F1
:103760000E94A819E4CFC816D90608F453C0F60180
:10377000E81BF90BCF01883C910508F450C0F12CEF
:103780007C2DD98AC88A89890E94101AECEFF1E051
:1037900086E0DF011D928A95E9F70E94501AAFC0BA
:1037A000751314C0341312C0611110C0809101024E
:1037B000F8018583C8010E94A81986E0ECEFF1E0CA
:1037C000DF011D928A95E9F7FE2C99C04D875E872F
:1037D0008D859E856A8B0E940B1A6A89882309F45D
:1037E000BECF662309F4BBCF20910102822F8295C0
:1037F0008F7090E002970CF48ECF8091FC01909135
:10380000FD019A8389831B82DD82CC822E83CE01C7
:1038100001967FCF809590958C0D9D1DACCFF62E97
:10382000662309F49CCF75132EC034132CC020914D
:10383000010220FD1FC0822F82958F70D9F0D80120
:1038400015962C9315978F3049F08F5F982F92958E
:10385000907F822F8F70892B15968C93C8010E94C0
:10386000A81986E0F801ACEFB1E001900D928A95BD
:10387000E1F793CF86E0F801ACEFB1E001900D9253
:103880008A95E1F73CC04D875E878D859E850E94B5
:103890000B1A811140CF8091010281608093010257
:1038A000C8010E94A8192BC0662309F458CF4D8780
:1038B0005E878D859E850E940B1AF82E882309F459
:1038C0004ECF86E0F801ACEFB1E001900D928A9501
:1038D000E1F78CEF91E00E946E150E945E1A5DCFB9
:1038E000811139CF0CC0243031050CF038CF9F70D6
:1038F00009F431CFF8019581907F09F02CCF8F2DFD
:1039000062960FB6F894DEBF0FBECDBFDF91CF91A8
:103910001F910F91FF90EF90DF90CF9008951F932C
:10392000CF93DF93CDB7DEB72C970FB6F894DEBFF9
:103930000FBECDBF4F83588769877A878B879C8757
:10394000CE0107960E94B91A882369F08F81988565
:103950002A853B85232BF1F19F3F09F063C08F3F00
:1039600009F060C037C086E0FE013796DE0111968F
:1039700001900D928A95E1F76F817885EA85FB8544
:10398000309741F17F3F11F46F3F21F12091CB013E
:1039900030E0C9010196877099274091CA0150E033
:1039A0008417950709F447C069837A83FD83EC8304
:1039B00096E0929FD001939FB00D1124A453BE4F67
:1039C000FE01319601900D929A95E1F78093CB011B
:1039D0000E942F1A16E08091CA019091CB0189179D
:1039E000C1F1189FC001112484539E4F0E94B91A3F
:1039F000882379F1E091CA011E9FF0011124E4535C
:103A0000FE4F4081518162817381848195810E9442
:103A10001F1A8091CA0190E00196877099278093C0
:103A2000CA01D9CF4F81588569857A858B859C8558
:103A30000E941F1ACFCF0E94E5191092CB0110925D
:103A4000CA01ECEFF1E086E0DF011D928A95E9F70B
:103A5000C1CF2C960FB6F894DEBF0FBECDBFDF915D
:103A6000CF911F910895EF92FF920F931F93CF93E1
:103A7000DF938C01892B09F46CC0F12CEE24E394C4
:103A8000E8012196F8018491843740F4843008F0ED
:103A900051C0813081F0823019F15BC0853709F463
:103AA00044C0A8F19CE7980F903708F052C08F7778
:103AB0000E94971641C00E5F1F4FFE01C49180E225
:103AC0008C0F883048F4C7708E2D01C0880FCA95BE
:103AD000EAF70E94BC1F14C08C2F0E9480152DC0D5
:103AE0000E5F1F4FFE01C49180E28C0F883058F4A6
:103AF000C7708E2D01C0880FCA95EAF70E94C21FB9
:103B00000E94E51F1AC08C2F0E94971616C00E5FE8
:103B10001F4FFE01C491CC2381F08FE99FE00197F4
:103B2000F1F700C00000C150F6CF0E5F1F4FFE013D
:103B3000F49003C00E9480158E018F2D882309F414
:103B40009FCFEFE9FFE03197F1F700C0000081500F
:103B5000F5CFDF91CF911F910F91FF90EF900895D6
:103B600008950C94B01D0E94B11D609329027093BA
:103B70002A0280932B0290932C020C94CF19089563
:103B80000C94B31D0F931F930091290210912A02E8
:103B900020912B0230912C02602B712B822B932BC6
:103BA0001F910F910C94B31D0F931F930091290245
:103BB00010912A0220912B0230912C026023712354
:103BC000822393231F910F910C94B31D0F931F9386
:103BD0000091290210912A0220912B0230912C028F
:103BE00060277127822793271F910F910C94B31D93
:103BF0000C947F060E94F81D6093250270932602A4
:103C000080932702909328020C94CF1960E070E013
:103C1000CB010C94FA1D0F931F9341E050E060E03C
:103C200070E08A019B0104C0000F111F221F331F87
:103C30008A95D2F7C901B8011F910F910C94FA1D12
:103C40000F931F9341E050E060E070E004C0440F28
:103C5000551F661F771F8A95D2F780912502909194
:103C60002602A0912702B09128028A019B01082B0D
:103C7000192B2A2B3B2BC901B8011F910F910C94D2
:103C8000FA1D0F931F9341E050E060E070E004C024
:103C9000440F551F661F771F8A95D2F740955095A0
:103CA000609570958091250290912602A09127023F
:103CB000B09128028A019B01082319232A233B2360
:103CC000C901B8011F910F910C94FA1D0F931F9316
:103CD00041E050E060E070E004C0440F551F661FF3
:103CE000771F8A95D2F78091250290912602A091A4
:103CF0002702B09128028A019B01082719272A2749
:103D00003B27C901B8011F910F910C94FA1D0F9325
:103D10001F930091250210912602209127023091D5
:103D20002802602B712B822B932B1F910F910C94E7
:103D3000FA1D0F931F9300912502109126022091E6
:103D400027023091280260237123822393231F913D
:103D50000F910C94FA1D0F931F930091250210915F
:103D6000260220912702309128026027712782279E
:103D700093271F910F910C94FA1D089527E0929FAD
:103D8000800D1124A82FA695A695A695877051E0C1
:103D900001C0550F8A95EAF785E0A89FD00111244C
:103DA00020E030E070E0F901EA0FFB1FEE5FFD4F0D
:103DB0004081CB01022E02C0969587950A94E2F7C6
:103DC00081709927819584278523842780832F5F9D
:103DD0003F4F2530310539F7089527E0929F800D38
:103DE0001124682F669566956695982F977085E0E3
:103DF000689FB001112440E050E080E0FA01E60F36
:103E0000F71FEE5FFD4F208130E0092E02C036958E
:103E100027950A94E2F721703327042E01C0220F60
:103E20000A94EAF7822B4F5F5F4F4530510531F717
:103E30000895BF92CF92DF92EF92FF920F931F935C
:103E4000CF93DF938C01C0902902D0902A02E0909A
:103E50002B02F0902C028091250290912602A091D5
:103E60002702B0912802C82AD92AEA2AFB2ACFE1E0
:103E7000D0E0D701C6010C2E04C0B695A795979542
:103E800087950A94D2F780FF07C0BC2EB8018C2F0B
:103E90000E94560A019719F4219758F7B12C8B2DDF
:103EA000DF91CF911F910F91FF90EF90DF90CF9016
:103EB000BF900895CF93DF93EC010E94191FBE01BC
:103EC0000E94560ADF91CF9108951F93CF93DF93FD
:103ED000EB019091C701992321F0CB010E945A1F59
:103EE00013C0882349F0CB010E94191F182F682F97
:103EF000CE010E94BE1E04C0CB010E94ED1E182FF1
:103F0000BE01812F0E94560ADF91CF911F91089523
:103F100080912D02859585958595089580912D0236
:103F20008770089590912D02977081E009F480E0E8
:103F3000089580913902089590913902892B8093D8
:103F4000390208958095909139028923809339022E
:103F5000089510923902089590913802892B809328
:103F60003802089580959091380289238093380211
:103F7000089510923802089590913702892B80930A
:103F800037020895809590913702892380933702F4
:103F9000089510923702089580912E020895089591
:103FA0000C94CF1F90912E02981721F080932E022F
:103FB0000C94D01F089580912E02882329F010922E
:103FC0002E0280E00C94D01F0895E0910201F09140
:103FD0000301809139028083E0910201F091030195
:103FE000908180913802892B8083E0910201F091C9
:103FF0000301908180913702892B808380912E026A
:10400000882381F0E0910201F09103019081892BD6
:10401000808380910201909103010E94D32081113D
:104020000E94DB1F80910201909103010C94F9130F
:1040300008950C94182098E0899F90011124262B54
:1040400020932D020E94201E80912D02859585953A
:1040500085950C94192010922D0280E00C94192063
:1040600020912D028095822380932D02982F9770A6
:1040700079F430E0482F082E000C550B2417350733
:1040800039F08595859585950E94411E0C942B20CD
:10409000089580E090E00E94572A21E08D3E9E4FD7
:1040A00009F020E0822F089582E090E00C94492AE4
:1040B00083E090E00C94492A682F83E090E00C9410
:1040C0005D2A84E090E00C94492A682F84E090E017
:1040D0000C945D2A86E090E00C94492A682F86E0D3
:1040E00090E00C945D2AAB01BC018FE090E00C9451
:1040F0006F2AAB01BC0183E190E00C946F2A60E071
:1041000070E0CB010C94792060E070E0CB010E945C
:1041100073200C947F206DEE7EEF80E090E00E9493
:104120007B2A60E082E090E00E945D2A60E083E00C
:1041300090E00E945D2A1092290210922A021092A9
:104140002B0210922C0260E084E090E00E945D2A35
:1041500060E085E090E00E945D2A60E086E090E00B
:104160000E945D2A6FEF87E090E00E945D2A40E0A8
:1041700050E0BA0188E090E00E946F2A60E08DE094
:1041800090E00E945D2A40E050E0BA0188E190E0B2
:104190000E946F2A60E087E190E00E945D2A0C9403
:1041A00084200C948B20FC01329697E080E09150A3
:1041B00029F021912223D9F38F5FF9CF08959C0133
:1041C000FC0132969FEF80E04191461789F09F3FB6
:1041D00019F4411101C0982F8F5F8630A9F79F3FD6
:1041E00039F0F901E90FF11D97FDFA956283089501
:1041F0000895FC01329608962081261301C0108292
:104200003196E817F907C1F708950C94DF200C9454
:10421000F920029626E0FC0111922A95E9F708950B
:1042200008950C9410210E94112180918C028430F9
:1042300061F110923B0220E488E190E00FB6F8941F
:10424000A895809360000FBE2093600080E00E94DC
:10425000AE0780E00E9425080E94112183B7817F6C
:10426000846083BF83B7816083BF7894889583B768
:104270008E7F83BF0FB6F894A89580916000886107
:1042800080936000109260000FBE08950895089515
:10429000CF930E9446210E94D60D0E944721C0E084
:1042A0008C2F0E94EB0C811104C0CF5FC830C1F786
:1042B00001C081E0CF91089508950C945C210E9483
:1042C000E5190E9421220E94ED130E9425080C94FA
:1042D0005D211F920F920FB60F9211248F939F931F
:1042E000AF93BF9380913B02811113C080918102F3
:1042F00090918202A0918302B09184024196A11D07
:10430000B11D8093810290938202A0938302B093A7
:104310008402BF91AF919F918F910F900FBE0F902C
:104320001F90189582E084BD93E095BD9AEF97BDEC
:1043300080936E0008952FB7F89480918102909138
:104340008202A0918302B09184022FBF0895CF9280
:10435000DF92EF92FF920F931F932FB7F894409143
:1043600081025091820260918302709184022FBF7A
:104370006A017B01EE24FF248C0120E030E0C016AE
:10438000D106E206F30610F4415051099A01281BA8
:10439000390BC9011F910F91FF90EF90DF90CF90E3
:1043A000089578941F920F920FB60F9211248F9355
:1043B0009F93AF93BF938091810290918202A091CD
:1043C0008302B09184020196A11DB11D80938102E8
:1043D00090938202A0938302B0938402BF91AF9125
:1043E0009F918F910F900FBE0F901F90189587E7A8
:1043F00097E790930108809300089AE088E10FB650
:10440000F894A895809360000FBE90936000FFCF52
:104410000E944920811102C00E94D1200E94542094
:1044200080933A020E94612090E0909386028093EC
:1044300085020E945820682F70E080E090E00C9484
:10444000C01D0E944920811102C00E94D1200E94FB
:104450006A2080938702282F269530E02630310588
:1044600024F081708A60809387028091870280FFA8
:1044700002C0869501C080E00C94AE0720918702AF
:10448000822F8695482F50E04530510544F48F5FC8
:10449000982F990F822F8170892B809387028091AA
:1044A00087028160809387020E946E20809187023C
:1044B00086950C94AE0780918702982F969591F07F
:1044C0009158990F8170892B809387028E7F91E09C
:1044D00009F490E08091870290FB80F98093870235
:1044E0000E946E208091870286950C94AE07809181
:1044F000870280FD11C0816080938702813019F4AA
:1045000083E080938702809187020E946E208091D1
:10451000870286950C94AE0708958091870280FFEC
:1045200008C08E7F809387020E946E2080E00C94EA
:10453000AE0708958091870280FD0C948D220C9423
:10454000772290918702892F86958F5F8F77917060
:10455000863028F4880F892B8093870202C09093BD
:104560008702809187028E7F91E009F490E080912C
:10457000870290FB80F9809387020E946E208091D1
:10458000870286950C94AE07863008F085E0880F88
:10459000909187029170892B809387028E7F91E0A2
:1045A00009F490E08091870290FB80F98093870264
:1045B0000E946E208091870286950C94AE078091B0
:1045C00087028695089580914402089508950F9377
:1045D0001F93CF93DF9300D01F92CDB7DEB78C012E
:1045E0000E941625823011F0843021F584E0898301
:1045F0001B830A8382E08093E9008FEF9091E800AB
:10460000815095FD06C095ED9A95F1F70000811156
:10461000F5CF8091E80085FF0DC040E050E063E0F9
:1046200070E0CE0101960E9433258091E8008E77DC
:104630008093E8000F900F900F90DF91CF911F9122
:104640000F910895CF93DF9300D01F92CDB7DEB7BF
:1046500020918C02243031F523E029838058910980
:104660009B838A8382E08093E9008FEF9091E8003A
:10467000815095FD06C095ED9A95F1F700008111E6
:10468000F5CF8091E80085FF0DC040E050E063E089
:1046900070E0CE0101960E9433258091E8008E776C
:1046A0008093E8000F900F900F90DF91CF910895C5
:1046B000CF93DF93EC010E941625823011F08430F5
:1046C00039F581E08093E9008FEF9091E800815007
:1046D00095FD06C095ED9A95F1F700008111F5CF93
:1046E0008091E80085FF14C040E050E068E070E091
:1046F000CE010E9433258091E8008E778093E800F8
:1047000088E0FE01ACE3B2E001900D928A95E1F7FA
:10471000DF91CF91089580918B02811109C00E9491
:10472000C8260E9425278091E20084608093E200E1
:10473000089510928B020895089508950C945F21B6
:1047400042E061EC81E00E94422642E261EC82E0BC
:104750000C94422680918E02833009F460C030F4BC
:10476000813071F0823009F499C008958A3009F4DB
:1047700085C08B3009F46BC0893009F0A7C020C018
:1047800080918D02813A09F0A1C08091E800877F75
:104790008093E8008091910290919202892B21F4FC
:1047A00068E08CE392E003C060E080E090E070E0BD
:1047B0000E947E258091E8008B778093E800089521
:1047C00080918D02813209F081C080919102909197
:1047D0009202029708F07AC08091E800877F809368
:1047E000E8008091E80082FD05C080918C02811173
:1047F000F8CF6CC02091F3008091F20090E0922BF2
:10480000029729F48091F1008B7F813021F480910F
:10481000F100809344028091E8008B7753C080912F
:104820008D02813A09F052C08091910290919202DA
:10483000892B09F04BC08091E800877F8093E800C6
:104840008091E80080FFFCCF80910E0136C08091FE
:104850008D028132D9F58091910290919202892B3B
:10486000A9F58091E800877F8093E8000E94772671
:1048700080918F0280930E010C94E51980918D0236
:10488000813221F58091E800877F8093E8000E94C3
:1048900077268091900280934502089580918D0241
:1048A000813AA1F48091E800877F8093E8008091AD
:1048B000E80080FFFCCF809145028093F100809159
:1048C000E8008E778093E8000C947726089584B7EB
:1048D000877F84BF0FB6F894A895809160008861A7
:1048E00080936000109260000FBE80E880936100AA
:1048F000109261000E943D140E94C8260E94252744
:104900008091E20084608093E20078940E94B42950
:104910000E94431484E091E00E94E81380918C028D
:10492000853069F40E94132180918A028823B1F3B3
:104930000E944821882391F30E941D25EFCF0E94F9
:104940004F14ECCF0C94A424292F332723303105A6
:10495000C9F064F42130310581F02230310509F0CD
:104960004CC08BE390E020E73BE04BC021323105A7
:1049700021F12232310589F140C082E190E02BEA39
:104980003BE03FC099278130910571F02CF4892BD1
:10499000A1F5ECE6FBE00DC08230910541F00397F4
:1049A00061F5ECE3FBE005C0EEE4FBE002C0E2E40D
:1049B000FBE0849190E09F0124C06115710541F0F6
:1049C00061307105D1F489E090E02BE93BE019C03A
:1049D00089E090E022E83BE014C06115710541F0E8
:1049E0006130710551F486E390E02DEB3BE009C0A6
:1049F00080E490E023EF3BE004C080E090E020E022
:104A000030E0FA013183208308950895CF93C82FB1
:104A10000E940525C0934602CF91089580918C0293
:104A2000843011F081E0089582E00895809146027B
:104A3000811102C00C940E25089580E189BD82E1A8
:104A400089BD09B400FEFDCF8091D8008F7D809391
:104A5000D8008091E00082608093E0008091E000C7
:104A600081FDFCCF0895CF92DF92EF92FF920F93DA
:104A70001F93CF93DF93EC018B016A010E9496266E
:104A8000811133C0C114D10439F0F60180819181C4
:104A9000081B190BC80FD91FE12CF12C01151105AA
:104AA00019F18091E80085FD16C08091E8008E77AD
:104AB0008093E800C114D10449F0F601808191810E
:104AC000E80EF91EF182E08285E00FC00E94962672
:104AD000882321F30AC089918093F10001501109C4
:104AE000FFEFEF1AFF0ADACF80E0DF91CF911F913D
:104AF0000F91FF90EF90DF90CF9008952091930257
:104B0000309194022617370748F06115710539F482
:104B10002091E8002E772093E80001C0B90140E021
:104B200061157105A9F120918C02222309F443C07B
:104B3000253009F442C02091E80023FD40C02091B7
:104B4000E80022FD32C02091E80020FFE9CF40912B
:104B5000F3002091F20030E0342BFC01CF0161150D
:104B6000710559F02830310540F481918093F100AE
:104B7000615071092F5F3F4FF1CF41E0283031057F
:104B800009F040E02091E8002E772093E800C8CF9C
:104B90004111C9CF0AC080918C02882361F0853011
:104BA00061F08091E80083FD0AC08091E80082FFF7
:104BB000F2CF80E0089582E0089583E0089581E0D7
:104BC000089520919302309194022617370748F0F8
:104BD0006115710539F42091E8002E772093E800E3
:104BE00001C0B901FC0120E06115710591F18091CE
:104BF0008C02882309F440C0853009F43FC08091BD
:104C0000E80083FD3DC08091E80082FD2FC08091C7
:104C1000E80080FFE9CF2091F3008091F20090E05E
:104C2000922B6115710559F08830910540F424915B
:104C30002093F1003196615071090196F2CF21E085
:104C4000089709F020E08091E8008E778093E800D3
:104C5000CBCF2111CCCF0AC080918C02882361F088
:104C6000853061F08091E80083FD0AC08091E80002
:104C700082FFF2CF80E0089582E0089583E00895F6
:104C800081E00895982F973058F59093E900981790
:104C900039F07091EC002091ED005091F00003C0CC
:104CA000242F762F50E021FF19C03091EB003E7F7A
:104CB0003093EB003091ED003D7F3093ED0030916B
:104CC000EB0031603093EB007093EC002093ED002B
:104CD0005093F0002091EE0027FF07C09F5FD3CFD5
:104CE0008F708093E90081E0089580E008958091BD
:104CF0008D0287FF11C08091E80082FD05C0809180
:104D00008C028111F8CF11C08091E8008B770BC025
:104D100080918C02882349F08091E80080FFF8CFD1
:104D20008091E8008E778093E80008952091E40058
:104D30003091E50095E64091EC00842F817040FFB2
:104D400022C08091E80080FD1CC080918C028823E5
:104D500091F0853091F08091EB0085FD10C040917D
:104D6000E4005091E5004217530729F39A0191504E
:104D700011F784E0089582E0089583E0089581E0CA
:104D8000089580E008954091E80042FFDECF089545
:104D90000E9436270E943E27E0EEF0E0808181608D
:104DA0008083E8EDF0E080818F77808319BCA7EDE8
:104DB000B0E08C918E7F8C9380818F7E8083109267
:104DC0008B0208950F931F93CF93DF930E94362792
:104DD0000E943E27C8EDD0E088818F778883888144
:104DE0008068888388818F7D888319BC10928C02AB
:104DF0001092880210928A021092890200EE10E04E
:104E0000F80180818B7F808388818160888342E084
:104E100060E080E00E944226E1EEF0E080818E7F3B
:104E20008083E2EEF0E08081816080838081886011
:104E30008083F80180818E7F808388818061888370
:104E4000DF91CF911F910F910895E8EDF0E08081FF
:104E50008F7E8083E7EDF0E080818160808384E055
:104E600082BF81E080938B020C94E226E8EDF0E0B3
:104E700080818E7F80831092E20008951092DA0084
:104E80001092E10008951F920F920FB60F92112415
:104E90002F933F934F935F936F937F938F939F9342
:104EA000AF93BF93EF93FF938091E10082FF0BC01C
:104EB0008091E20082FF07C08091E1008B7F8093A8
:104EC000E1000E94B3298091DA0080FF1FC0809129
:104ED000D80080FF1BC08091DA008E7F8093DA00BB
:104EE0008091D90080FF0DC080E189BD82E189BD3C
:104EF00009B400FEFDCF81E080938C020E948B23D9
:104F000005C019BC10928C020E9499238091E10087
:104F100080FF19C08091E20080FF15C08091E200FF
:104F20008E7F8093E2008091E20080618093E200B6
:104F30008091D80080628093D80019BC85E080936E
:104F40008C020E949D238091E10084FF30C08091FB
:104F5000E20084FF2CC080E189BD82E189BD09B4F3
:104F600000FEFDCF8091D8008F7D8093D800809186
:104F7000E1008F7E8093E1008091E2008F7E80933C
:104F8000E2008091E20081608093E20080918802DB
:104F9000882311F084E007C08091E30087FD02C000
:104FA00081E001C083E080938C020E949E23809167
:104FB000E10083FF29C08091E20083FF25C080913A
:104FC000E100877F8093E10082E080938C02109261
:104FD00088028091E1008E7F8093E1008091E20061
:104FE0008E7F8093E2008091E20080618093E200F6
:104FF00042E060E080E00E9442268091F0008860FC
:105000008093F0000E949C23FF91EF91BF91AF919C
:105010009F918F917F916F915F914F913F912F91D0
:105020000F900FBE0F901F9018951F920F920FB602
:105030000F9211242F933F934F935F936F937F931E
:105040008F939F93AF93BF93CF93DF93EF93FF9390
:10505000C091E900CF708091EC00D82FD17080FD15
:10506000D0E81092E9008091F000877F8093F000F3
:1050700078940E9459281092E9008091F00088608D
:105080008093F000CD2BCF70C093E900FF91EF919A
:10509000DF91CF91BF91AF919F918F917F916F9150
:1050A0005F914F913F912F910F900FBE0F901F90E6
:1050B00018951F93CF93DF93CDB7DEB7AA970FB69E
:1050C000F894DEBF0FBECDBFEDE8F2E088E08E0FB2
:1050D0009091F10091938E13FBCF0E94AA238091AF
:1050E000E80083FF28C180918D0290918E02492FA4
:1050F00050E04A30510508F01EC1FA01EC54FF4F50
:105100000C94292A803821F0823809F014C108C093
:105110008091890290918A02992389F082600FC060
:10512000809191028F70873008F005C18093E9006B
:105130008091EB0085FB882780F91092E90090911F
:10514000E800977F9093E8008093F1001092F100BF
:10515000D0C0282F2D7F09F0EEC0882319F08230AF
:1051600061F0E9C080918F02813009F0E4C0933092
:1051700009F080E080938A022EC080918F02811115
:105180002AC0809191028F702FEF280F263008F0EF
:10519000D2C08093E9002091EB0020FF1CC0933027
:1051A00021F48091EB00806214C09091EB0090613B
:1051B0009093EB0021E030E0A90102C0440F551F9D
:1051C0008A95E2F74093EA001092EA008091EB00A2
:1051D00088608093EB001092E9008091E800877F5F
:1051E0008093E8000E947726A6C08111A4C0109188
:1051F0008F021F778091E3008078812B8093E300FA
:105200008091E800877F8093E8000E947726809154
:10521000E80080FFFCCF8091E30080688093E3008A
:10522000111102C082E001C083E080938C0283C030
:105230008058823008F07FC080918F029091900258
:105240008C3D53E0950779F583E08A838AE2898370
:105250004FB7F894DE01139620E03EE051E2E32FD1
:10526000F0E050935700E49120FF03C0E295EF7007
:105270003F5FEF708E2F90E0EA3010F0C79601C0CC
:10528000C0968D939D932F5F243149F74FBF809136
:10529000E800877F8093E8006AE270E0CE01019623
:1052A0000E947E2515C06091910270919202AE011C
:1052B0004F5F5F4F0E94A224BC01892BE1F19091C6
:1052C000E800977F9093E80089819A810E94E12508
:1052D0008091E8008B778093E8002DC0803859F5E5
:1052E0008091E800877F8093E80080918802809316
:1052F000F1008091E8008E7773CF81111CC09091EE
:105300008F029230C0F48091E800877F8093E8009C
:10531000909388020E94772680918802811106C0AE
:105320008091E30087FD02C081E001C084E08093AA
:105330008C020E94A0238091E80083FF0AC0809124
:10534000E800877F8093E8008091EB008062809383
:10535000EB00AA960FB6F894DEBF0FBECDBFDF916B
:10536000CF911F9108950895CF9380918C02882347
:10537000A1F0C091E900CF709091EC00892F81706D
:1053800090FD80E8C82B1092E9008091E80083FD31
:105390000E945928CF70C093E900CF910895DB0196
:1053A0008F939F930E943E2ABF91AF91A29F800D41
:1053B000911DA39F900DB29F900D11240895AA1BDB
:1053C000BB1B51E107C0AA1FBB1FA617B70710F0F0
:1053D000A61BB70B881F991F5A95A9F78095909522
:1053E000BC01CD01089597FB072E16F4009407D059
:1053F00077FD09D00E94DF2907FC05D03EF4909587
:1054000081959F4F0895709561957F4F0895A1E212
:105410001A2EAA1BBB1BFD010DC0AA1FBB1FEE1F2E
:10542000FF1FA217B307E407F50720F0A21BB30B79
:10543000E40BF50B661F771F881F991F1A9469F7F5
:1054400060957095809590959B01AC01BD01CF0151
:105450000895EE0FFF1F0590F491E02D0994A29F8F
:10546000B001B39FC001A39F700D811D1124911D38
:10547000B29F700D811D1124911D08950E942F2A45
:10548000A59F900DB49F900DA49F800D911D112498
:105490000895F999FECF92BD81BDF89A992780B5FC
:1054A0000895A6E1B0E044E050E00C94832AA8E11E
:1054B000B0E042E050E00C94832A262FF999FECF09
:1054C00092BD81BDF89A019700B4021639F01FBA57
:1054D00020BD0FB6F894FA9AF99A0FBE0895039674
:1054E000272F0E945E2A0E945D2A252F0E945E2A95
:1054F000242F0C945E2A0196272F0E945E2A0C947A
:105500005D2ADC01CB01FC01F999FECF06C0F2BD9A
:10551000E1BDF89A319600B40D9241505040B8F771
:065520000895F894FFCF8E
:1055260001072F02E3225823E6222223E722010065
:10553600040104020403040404050406040005012E
:105546000502050305040505050605000601060214
:1055560006030604060506060600070107020703FA
:105566000704070507060700000100020003000400
:105576000005000600000101010201030104010506
:1055860001060100020102020203020402050206EC
:10559600020003010302030303040305030603F4E5
:0E55A600F5F6F73133329392C6340000000060
:00000001FF
