:100000000C9488060C94CF060C94CF060C94CF0663
:100010000C94CF060C94CF060C94CF060C94CF060C
:100020000C94CF060C94CF060C941A280C94EC2850
:100030000C94451B0C94CF060C94CF060C94CF0661
:100040000C94CF060C94CF060C94CF060C94CF06DC
:100050000C94CF060C94B91B0C94CF060C94CF06CD
:100060000C94CF060C94CF060C94CF060C94CF06BC
:100070000C94CF060C94CF060C94CF060C94CF06AC
:100080000C94CF060C94CF060C94CF060C94CF069C
:100090000C94CF060C94CF060C94CF060C94CF068C
:1000A0000C94CF060C94CF060C94CF06D009D2093D
:1000B000DD09D409D609D809DA09DC09DF09E10923
:1000C000E309EE09E509E709E909EB09ED09F0099A
:1000D0006A106A10A410A410E310031176127612AD
:1000E00045117612F511F51168127612761270121A
:1000F0000212021202120212021202120212021260
:10010000021202120212021202120212021202124F
:1001100014122212291230123A12091309131B1356
:100120001B1312131B131B131B1309130913171390
:100130001B131B13171359298029722A8029722A2D
:10014000CC29EF29722A452A542A0A002530313653
:1001500062003A200025303258000A722F632030A6
:100160003132333435363738394142434445460A13
:10017000000129022900016502650001AA02AA0006
:1001800001AB02AB0001A902A90001AE02AE00144E
:10019000001A000800150017001C0018000C0012BF
:1001A00000130004001600070009000A000B000DF0
:1001B000000E000F0033001D001B00060019000593
:1001C00000110010003600370038000000E000E2A7
:1001D00000CF5CE3002800CF5C2F0030000000005F
:1001E0000029002B00CE5C2A002C00CE5C31002EB2
:1001F00000000001000100010001000100010001F8
:1002000000010001000100010001000100010001E6
:1002100000010001000100010001000100010001D6
:1002200000010001000100010001000100010000C7
:1002300000010001000100010001000100010001B6
:1002400000000000000100010001000100010001A8
:10025000000100010000001E001F002000210022FC
:100260000023002400250026002700E4003A003B7C
:10027000003C003D004A000100520001002A00E15C
:10028000003E003F00400041004D00500051004F33
:100290000028000000010001000100760046000176
:1002A0000042004300000000003500390001004C0E
:1002B00000480001004400450000003A003B003CBB
:1002C000003D003E003F004000410042004300016D
:1002D00000010001000100010027023D003E003F37
:1002E0000044000100010001000100010030023A59
:1002F000003B003C0045000000010001000100013E
:1003000000010001000100010000000000350201B1
:100310000001000100010001000100010000000ACD
:1003200044454255473A20656E61626C65642E0A09
:10033000000A002530325820006B6579626F6172C7
:10034000645F7265706F72743A20000A0025303263
:1003500058006B6579626F6172645F7365745F6C7E
:1003600065643A20004F6E6573686F743A20746953
:100370006D656F75740A0064656C5F6B65795F62AB
:1003800069743A2063616E27742064656C3A202595
:100390003032580A006164645F6B65795F6269742A
:1003A0003A2063616E2774206164643A20253032FC
:1003B000580A00290A002575002F002575005D28C0
:1003C0000025640020002564002000256400200032
:1003D0002564007C0025303258006D6F7573656BA5
:1003E0006579205B62746E7C782079207620685D68
:1003F000287265702F61636C293A205B006D6B5F1A
:10040000776865656C5F74696D655F746F5F6D615A
:1004100078203D2025640A006D6B5F776865656C08
:100420005F6D61785F7370656564203D2025640AA7
:10043000006D6B5F74696D655F746F5F6D617820CF
:100440003D2025640A006D6B5F6D61785F73706598
:100450006564203D2025640A006D6B5F696E7465DC
:100460007276616C203D2025640A006D6B5F6465C7
:100470006C6179203D2025640A006D6B5F776865AB
:10048000656C5F74696D655F746F5F6D6178203D49
:100490002025640A006D6B5F776865656C5F6D6130
:1004A000785F7370656564203D2025640A006D6B7C
:1004B0005F74696D655F746F5F6D6178203D2025A5
:1004C000640A006D6B5F6D61785F737065656420B1
:1004D0003D2025640A006D6B5F696E7465727661FC
:1004E0006C203D2025640A006D6B5F64656C61794A
:1004F000203D2025640A000A00257500363A207741
:100500006865656C5F74696D655F746F5F6D617858
:100510003A20000A00257500353A20776865656C39
:100520005F6D61785F73706565643A20000A00252D
:100530007500343A2074696D655F746F5F6D617822
:100540003A20000A00257500333A206D61785F7308
:10055000706565643A20000A00257500323A20690A
:100560006E74657276616C286D73293A20000A00FA
:10057000257500313A2064656C6179282A31306D27
:1005800073293A20000A092D2056616C7565732085
:100590002D0A004D3E004D25643E20003F0073654E
:1005A000742064656661756C740A00433E200077B0
:1005B000686572652064656C74613A206375727356
:1005C0006F723D25642C20776865656C3D25640A53
:1005D00053656520687474703A2F2F656E2E7769A5
:1005E0006B6970656469612E6F72672F77696B69DB
:1005F0002F4D6F7573655F6B6579730A000A092D5E
:10060000204D6F7573656B6579202D0A4553432F17
:10061000713A09717569740A313A0964656C6179D6
:10062000282A31306D73290A323A09696E7465726D
:1006300076616C286D73290A333A096D61785F73AE
:10064000706565640A343A0974696D655F746F5F3B
:100650006D61780A353A09776865656C5F6D617818
:100660005F73706565640A363A09776865656C5F23
:1006700074696D655F746F5F6D61780A0A703A091D
:100680007072696E742076616C7565730A643A09DC
:100690007365742064656661756C74730A75703A6D
:1006A000092B310A646F776E3A092D310A7067752C
:1006B000703A092B31300A7067646F776E3A092DF2
:1006C00031300A0A7370656564203D2064656C747E
:1006D00061202A206D61785F7370656564202A202F
:1006E00028726570656174202F2074696D655F7470
:1006F0006F5F6D6178290A003F004D3E2000433E48
:1007000020004C25640A0074696D65725F72656132
:1007100064333228293A202530346C580A006B653E
:10072000796D61705F636F6E6669672E6E6B726F55
:100730003A2025580A006B6579626F6172645F69BF
:10074000646C653A2025580A006B6579626F6172A6
:10075000645F70726F746F636F6C3A2025580A0083
:10076000686F73745F6B6579626F6172645F6C65EB
:10077000647328293A2025580A000A092D20537449
:1007800061747573202D0A004743433A20342E3993
:100790002E32204156522D4C4942433A20312E38B8
:1007A0002E3073766E204156525F415243483A20B4
:1007B000617672350A004F5054494F4E533A204CDF
:1007C000554641204D4F5553454B455920455854AA
:1007D00052414B455920434F4E534F4C4520434FB8
:1007E0004D4D414E44204E4B524F20343039360A45
:1007F000004255494C443A2022302E352E39302DB6
:1008000039342D673863656137642D646972747992
:1008100022202832333A34333A303620417567206B
:1008200020332032303137290A005649443A2030EB
:10083000784645454428756E6B6E6F776E2920505B
:1008400049443A20307836303630284D69746F7319
:10085000697329205645523A203078303030310AB9
:1008600000444553433A20712E6D2E6B2E206B654C
:1008700079626F617264206669726D77617265205A
:10088000666F72204D69746F7369730A000A092DCF
:100890002056657273696F6E202D0A000A092D209B
:1008A000436F6E736F6C65202D0A4553432F713A69
:1008B00009717569740A6D3A096D6F7573656B65B9
:1008C000790A000A092D204D61676963202D0A44C9
:1008D0003A094465627567204D65737361676520E9
:1008E000546F67676C650A583A094D61747269788C
:1008F000204465627567204D6F646520546F67679B
:100900006C65202D2053686F77206B657970726558
:100910007373657320696E206D61747269782067E6
:100920007269640A4B3A094B6579626F617264209F
:10093000446562756720546F67676C65202D20538E
:10094000686F77206B65797072657373207265705C
:100950006F72740A4D3A094465627567204D6F7570
:10096000736520546F67676C650A563A095665725D
:1009700073696F6E0A533A095374617475730A434D
:100980003A09416374697661746520436F6E736FD1
:100990006C65204D6F64650A46312D4631303A0949
:1009A00053776974636820746F204C617965722095
:1009B000302D392028463130203D204C30290A3056
:1009C0002D393A0953776974636820746F204C613C
:1009D00079657220302D390A4553433A09537769B6
:1009E00074636820746F204C617965722030202810
:1009F000616C7465726E617465206B657920312954
:100A00000A47524156453A0953776974636820741E
:100A10006F204C6179657220302028616C7465729A
:100A20006E617465206B65792032290A50415553F7
:100A3000453A094A756D7020746F20426F6F746C6F
:100A40006F6164657220285265736574290A4E3A95
:100A5000094E4B524F20546F67676C650A003F0088
:100A60004E4B524F3A206F66660A004E4B524F3A39
:100A7000206F6E0A000A6D6F7573653A206F6666A7
:100A80000A000A6D6F7573653A206F6E0A000A6B73
:100A90006579626F6172643A206F66660A000A6B5C
:100AA0006579626F6172643A206F6E0A000A6D6147
:100AB000747269783A206F66660A000A6D61747212
:100AC00069783A206F6E0A000A64656275673A2099
:100AD0006F66660A000A64656275673A206F6E0A7F
:100AE000000A0A4A756D70696E6720746F20626F24
:100AF0006F746C6F616465722E2E2E2000433E2051
:100B0000005B735D004B6579626F61726420737482
:100B10006172742E0A005B575D005B535D005B528F
:100B20005D005B445D005B435D0010034D006900A8
:100B300074006F00730069007300000010037500FB
:100B40006E006B006E006F0077006E000000040303
:100B5000090409028D00050100A0FA090400000142
:100B60000301010009211101000122400007058154
:100B70000308000A09040100010301020009211110
:100B8000010001224D000705820308000A09040242
:100B900000010300000009211101000122360007B5
:100BA00005830308000A090403000203000000098A
:100BB0002111010001222200070584032000010702
:100BC00005040320000109040400010300000009DA
:100BD00021110100012239000705850320000112BF
:100BE00001100100000008EDFE606001000102003C
:100BF0000105010906A101050719E029E7150025EE
:100C000001950875018102050819012905950575E9
:100C10000191029501750391010507190029F71546
:100C200000250195F875018102C00631FF0974A104
:100C3000010975150026FF009520750881020976C7
:100C4000150026FF00952075089102C00501098056
:100C5000A10185021601002603001A81002A8300E3
:100C6000751095018100C0050C0901A101850316CD
:100C70000100269C021A01002A9C02751095018130
:100C800000C005010902A1010901A100050919011E
:100C9000290515002501950575018102950175034A
:100CA00081010501093009311581257F95027508FB
:100CB000810609381581257F950175088106050C87
:100CC0000A38021581257F950175088106C0C00587
:100CD000010906A101050719E029E715002501957D
:100CE000087501810295017508810105081901291E
:100CF0000595057501910295017503910105071987
:100D00000029FF150026FF00950675088100C00028
:100D100011241FBECFEFDAE0DEBFCDBF04B603FE65
:100D200027C080913F0290914002A0914102B09172
:100D300042028730904BA740B04BD1F410923F0253
:100D400010924002109241021092420214BE84B7E7
:100D5000877F84BF0FB6F894A89580916000886162
:100D600080936000109260000FBEE0E0F8E3099508
:100D700011E0A0E0B1E0E0E9F8E502C005900D92D5
:100D8000A633B107D9F722E0A6E3B1E001C01D9276
:100D9000AF33B207E1F70E943D250C94462C0C942A
:100DA0000000FF93EF93E0913601F0913701309707
:100DB00009F00995EF91FF910895FC01859180302C
:100DC00011F0EFDFFBCF0895FF27E0E230E247FFAD
:100DD0000CC0419597FF09C0EDE260957095809534
:100DE0009095611D711D811D911D27FF02C02195E8
:100DF00030E350E2AA27660F771F881F991FAA1FAA
:100E0000A41710F0A41B63955A95A9F7AA3008F00F
:100E1000A95FA05DAF93F3956115710581059105FB
:100E200041F7ED3211F4EF93F395F21718F43F9375
:100E3000F395FBCF8F91B5DFFA95E1F70895E9912E
:100E4000F9918591803021F0853219F0AADFF9CF30
:100E5000089520E0E89455915532C1F3503311F4D0
:100E6000689455915A3348F4505390F3220F022E50
:100E7000220F220F200D250FF4CF0EF4219589911A
:100E80009991533619F3533729F1533559F1BC0170
:100E900088279927E8945C3621F489919991689480
:100EA0005591543639F446EF7EF077FF0DC08FEF41
:100EB0009FEF0AC055374AE039F0583540E121F03C
:100EC000523642E009F00895FF93EF937DDFEF91F2
:100ED000FF91B7CFFF93EF93FC0181918030B9F37D
:100EE00060DFFBCFFF93EF9368DFF1CFDF93CF930A
:100EF000CDB7DEB72596A3DFCF91DF910895089592
:100F00000C94BE0ACF93DF93CDB7DEB72B970FB605
:100F1000F894DEBF0FBECDBF1092CC001092CD0072
:100F200088E18093C90086E08093CA0083E78093BC
:100F3000CE00FE0131968BE0DF011D928A95E9F724
:100F4000DF0140E050E0BA018BE08E0F9091C800C5
:100F500097FD0AC04F5F5F4F6F4F7F4F413197E260
:100F600059076105710590F39091CE009D938A1306
:100F7000EDCF8B85803E91F4A8E3B1E09E01255F23
:100F80003F4F818140E2849FC00111244081842B26
:100F90008D939D933296E217F30799F70E94C00A4A
:100FA00081E02B960FB6F894DEBF0FBECDBFDF9168
:100FB000CF910895E82FF0E0EE0FFF1FE85CFE4FA1
:100FC000808191810895CF92DF92EF92FF920F93EB
:100FD0001F93CF93DF938AE591E00E94DD0688E3BB
:100FE000E82E81E0F82EC0E0D0E095E5C92E91E032
:100FF000D92E0CE411E0DF93CF93DF92CF920E94C1
:10100000760782E591E00E94DD06F70181919191DA
:101010007F010E94101A9F938F931F930F930E943A
:1010200076078AE491E00E94DD0621968DB79EB78F
:1010300008960FB6F8949EBF0FBE8DBFC530D10580
:10104000D1F6DF91CF911F910F91FF90EF90DF903C
:10105000CF9008951092CC001092CD0088E180933B
:10106000C90086E08093CA000895519A599A80B3C6
:10107000806380BB81B3806381BB08950E947F073A
:101080000E942A080C9435080C9403090895FC0169
:101090006130D1F018F0623031F134C082818823A0
:1010A00039F00E94771B90934401809343012AC03A
:1010B00080914301909144010E948F1B87399105D3
:1010C00020F585E891E0089582818111EACF809131
:1010D0004301909144010E948F1B87399105C0F410
:1010E0008BE791E0089582818111DBCF80914301EC
:1010F000909144010E948F1B8739910560F481E72C
:1011000091E0089580E090E008958AE891E00895E4
:1011100080E891E0089586E791E008950F931F938A
:10112000CF93DF93EC018B016091C6017091C701F1
:101130008091C8019091C9010E94AA19CE3C9CE5FA
:10114000D90729F0CF3CECE5DE0711F141C0F801E9
:101150008281882369F00E94771B909344018093D9
:10116000430181E08093420182E00E941D1709C083
:1011700080914301909144010E948F1B82E00E9464
:101180003E1743E061E082E00E947E0AC0E035C085
:10119000F8018281882379F00E94771B90934401A3
:1011A0008093430181E0809342010E941D1781EEEC
:1011B0000E94360FE6CF80914301909144010E9436
:1011C0008F1B81E00E943E1781EE0E94F10FD9CF64
:1011D00010924201833081F4CE01CA970C9710F02F
:1011E000E09751F4F801C28182E0CC2319F00E940B
:1011F000241003C00E941D10C1E08C2FDF91CF91FD
:101200001F910F9108956091C6017091C70180915F
:10121000C8019091C9010E94AA19813061F028F09B
:10122000823029F0833051F008958D9A05C08D9A4F
:10123000599A8C9808958D98599A02C08D9A599808
:101240008C9A089581E008950C948E080E94F712FC
:101250002FEF84E39CE0215080409040E1F700C0F4
:10126000000087E797E790930108809300080C94AB
:10127000DF1BFF920F931F93CF93DF938C01FC0131
:10128000C081D18180916A01811113C0828188233C
:1012900049F0CE010E941618F82E682FCE010E9448
:1012A000BB1704C0CE010E94EA17F82EBE018F2D95
:1012B00004C0CE010E941618BE010E94C50AEC01AE
:1012C000B8010E942409882309F411C1B801CE0194
:1012D0000E94320D882309F40AC1C531FCE5DF07FD
:1012E00009F5F8018281811103C0CAE8D8E102C082
:1012F000C3E8D8E10E941B198A7A11F489E201C07F
:1013000085E3FE0109950E945E1981E08093490101
:1013100080934A01C801DF91CF911F910F91FF90F7
:101320000C942209C6318CE5D80708F075C0C1308D
:10133000ECE5DE0779F4F8018281882309F4D7C04F
:101340008FE193E00E94DD068091F7018160809338
:10135000F701CDC0C230FCE5DF0708F451C0F80149
:1013600082818823B9F20E94441A811102C00E942E
:101370002A1A0E94571A90E090933102809330020B
:10138000FE01E350FC45E231F10530F4EA5AFF4F2B
:10139000809130020C94F62B80913002816027C03E
:1013A000826025C0846023C0806121C080621FC02C
:1013B00080641DC080681BC08460886018C08E7FF8
:1013C00016C08D7F14C08B7F12C08F7E10C08F7DA2
:1013D0000EC08F7B0CC08F770AC08B7F877F07C0C2
:1013E00087FB222720F991E0922790FB87F98093D1
:1013F0003002809130020E945B1A0E94F71277C07F
:10140000C115DC4509F081CFF8018281882309F4F8
:101410006EC00E9426096BC0C93CECE5DE0739F5B9
:10142000F8018281882361F010924A010E94771BA3
:10143000909348018093470180E20E941D1057C09D
:1014400080914A0181110FC080914701909148011C
:101450000E948F1B883C910530F487E20E94360F72
:1014600087E20E94F10F80E20E94241040C0CA3C33
:10147000FCE5DF0738F5C83CDC4509F046CFF8014C
:101480008281882351F0109249010E94771B90932A
:1014900046018093450182E0D0CF809149018111BE
:1014A0000FC080914501909146010E948F1B883C9E
:1014B000910530F486E20E94360F86E20E94F10F19
:1014C00082E0D2CFCC3CECE5DE0731F4F80182813A
:1014D000882369F080E009C0CD3CDC4509F015CFD8
:1014E000F8018281882319F082E00E94DD2580E0E6
:1014F000DF91CF911F910F91FF900895CF92DF92CE
:10150000EF92FF920F931F9301E010E020E030E094
:101510006801790104C0CC0CDD1CEE1CFF1C8A950F
:10152000D2F704C0000F111F221F331F6A95D2F794
:101530000C291D292E293F29C090C601D090C70132
:10154000E090C801F090C901C022D122E222F3222A
:10155000842FC016D106E206F30641F41F910F91C5
:10156000FF90EF90DF90CF900C941D171F910F917B
:10157000FF90EF90DF90CF900C943E170C943E08B4
:101580000C9444080C94460808959AE0799FF00161
:10159000112492E3899FE00DF11D1124E60FF11D46
:1015A000EE0FFF1FE157FE4F859194910895880F2C
:1015B000991FFC01E157FE4F859194910895CF93B7
:1015C000DF932AE0729FF001112442E3849FE00D33
:1015D000F11D1124E60FF11DEE0FFF1FE157FE4F25
:1015E000859194910E94880CEC01811550E4950737
:1015F000B8F5811560E3960708F0E3C0803E9105D9
:10160000D0F4803C910508F071C0883A910570F4DF
:10161000853A910508F06DC08130910509F474C1D7
:1016200008F42BC1049708F06FC127C18D3B9105C9
:1016300008F46AC022C18F3F910509F048F4803F49
:10164000910508F0B8C0883E910508F45DC115C148
:10165000C11580E2D80708F457C1CE019F70ADC014
:10166000C11594E5D907D8F4C11523E5D20708F0D0
:10167000E3C0C11541E5D40740F4C11550E5D507D5
:1016800008F0A8C0DF70D06A3FC1C11562E5D60777
:1016900008F0BCC0DC2FCC27C16FD06A35C1C115A2
:1016A00086E5D80750F4C11595E5D90708F0DAC0EA
:1016B000DC2FCC27C46FD06A27C1C11528E5D2071B
:1016C00008F4DBC0C11549E5D40708F4D1C0CE0148
:1016D00090568115904208F0D0C08D2F8F710E94D6
:1016E000050DDD27D0628F71D82B0EC1805C91096A
:1016F00064C0853A910509F4C3C0863A910509F0A2
:10170000C2C0C2E8D0E400C1883A910509F4BEC065
:10171000893A910509F4BDC08A3A910509F4BCC023
:101720008B3A910509F4BBC08C3A910509F4BAC013
:101730008B3B910509F4B9C08C3B910509F4B8C005
:101740008D3A910509F4B7C0803B910509F4B6C004
:101750008E3A910509F4B5C08F3A910509F4B4C0E9
:10176000813B910509F4B3C0823B910509F4B2C0F5
:10177000833B910509F4B1C0843B910509F4B0C0E5
:10178000853B910509F4AFC0863B910509F4AEC0D5
:10179000873B910509F4ADC0883B910509F4ACC0C5
:1017A000893B910509F4ABC08A3B910509F4AAC0B5
:1017B000C0E0D4E4A9C0D065A7C00E94D70AEC015C
:1017C000A3C09927D3FF03C0EC01D86C9DC0EC01E6
:1017D000D06C9AC02C2F237081E090E002C0880F5B
:1017E000991F2A95E2F79C689E0144E0369527955B
:1017F0004A95E1F72370922BCF70C695C69560E2AB
:10180000C69FE0011124C82BD92B7EC02C2F269512
:10181000269580E2289F90011124C370DD2781E086
:1018200090E0AC0102C0440F551FCA95E2F7EA01EF
:10183000C22BD32BDC6868C02C2F2695269580E21E
:10184000289F90011124C370DD2781E090E0AC0156
:1018500002C0440F551FCA95E2F7EA01C22BD32BF1
:10186000DA6852C0CF71DD27DC2FCC27D0624CC0A4
:10187000DC2FCC27C06FD06A47C0C0E0D0E044C0A6
:10188000C1E8D0E441C0C3E8D0E43EC0C2EED4E435
:101890003BC0C9EED4E438C0CAEED4E435C0C5EBD1
:1018A000D4E432C0C6EBD4E42FC0C3EBD4E42CC0E4
:1018B000C4EBD4E429C0C7EBD4E426C0CCECD4E418
:1018C00023C0CDECD4E420C0C3E8D5E41DC0CAE8F1
:1018D000D5E41AC0C2E9D5E417C0C4E9D5E414C000
:1018E000C1E2D6E411C0C3E2D6E40EC0C4E2D6E43D
:1018F0000BC0C5E2D6E408C0C6E2D6E405C0C7E224
:10190000D6E402C0CAE2D6E4CE01DF91CF910895B9
:101910008238910549F1B0F48133910509F458C03A
:1019200048F48932910509F44EC08A32910509F4D0
:1019300054C008958533910509F440C08933910559
:1019400099F00895833E910529F138F4803E910580
:1019500091F0823E9105A1F00895863E9105F9F03F
:10196000873E910531F108952091300220FD3AC063
:1019700021FD38C008958091300280FD35C032C00D
:101980008091300282FF32C08091300284FD30C0ED
:1019900083EE39C08091300282FD28C0F5CF80915E
:1019A000300283FF27C08091300284FD21C087EE82
:1019B0002AC08091300283FD1DC0F5CF8091300296
:1019C00085FD1AC01BC08091300285FD17C014C070
:1019D0008091300286FD14C015C08091300286FDD2
:1019E00011C00EC080EE0FC089E30DC082EE0BC0A7
:1019F00080E009C086EE07C089E205C085E303C028
:101A00008AE201C081E390E00895CF93C82F0E943D
:101A1000571A90E0909331028093300282FF0DC0FC
:101A20009C2F9871983019F4C77FC46006C09C2F12
:101A30009471943011F4CB7FC86083FF0DC09C2F4C
:101A40009871983119F4C77EC46106C09C2F9471B7
:101A5000943111F4CB7EC86184FDC77E8C2FCF9169
:101A6000089508950F931F93CF93FB0122812111B5
:101A700002C0C1E041C08C01C0915801C11125C014
:101A800086319C45B1F70E94310D81E08093580169
:101A90000E94771B909357018093560110924B013F
:101AA00010924D0110924C0110924F0110924E0174
:101AB0001092510110925001109253011092520154
:101AC000109255011092540117C0809156019091C7
:101AD00057010E948F1B883C910558F690914B014D
:101AE000E92FF0E0EE0FFF1FE45BFE4F1183008350
:101AF0009F5F90934B01C0E08C2FCF911F910F916E
:101B0000089590935E0180935D010895E0915D01D9
:101B1000F0915E01309721F00190F081E02D099461
:101B200080E00895EF92FF920F931F93CF93DF937E
:101B3000E0915D01F0915E013097B1F18C0102807E
:101B4000F381E02D09958091F70182FF2DC080FF80
:101B500004C089E393E00E94DD06E80110E283E31C
:101B6000E82E83E0F82E8091F70180FF0BC088817A
:101B70001F928F93FF92EF920E9476070F900F9023
:101B80000F900F90115021961111EDCF8091F70118
:101B900080FF0AC081E393E0DF91CF911F910F9105
:101BA000FF90EF900C94DD06DF91CF911F910F9184
:101BB000FF90EF900895E0915D01F0915E01309704
:101BC00021F00480F581E02D0994089520915B01B6
:101BD00030915C018217930771F090935C018093C0
:101BE0005B01E0915D01F0915E01309721F006808C
:101BF000F781E02D099408952091590130915A01FF
:101C00008217930771F090935A0180935901E091E4
:101C10005D01F0915E01309721F00084F185E02DA7
:101C20000994089508950C94120E0E946E1B0E9450
:101C300080070C94F01BCF93C82F8091F70182FF8F
:101C40001EC080FF04C082E593E00E94DD06809103
:101C5000F70180FF0CC01F92CF938DE493E09F9318
:101C60008F930E9476070F900F900F900F908091A6
:101C7000F70180FF04C08BE493E00E94DD068C2F07
:101C8000CF910C94C20A4F925F927F928F929F9253
:101C9000AF92BF92CF92DF92EF92FF920F931F937A
:101CA000CF93DF93CDB7DEB72A970FB6F894DEBF98
:101CB0000FBECDBF0E94820790E6C92E91E0D92EBB
:101CC00000E010E0AA24A394B12C702E802F0E9473
:101CD000DA074C01F601419051906F0148265926D0
:101CE00041145104B1F40F5F1F4F0530110569F71E
:101CF0008FEF89838A831B820E94771B8160782FF4
:101D00009D838C8349815A816B818D810E94FC0E59
:101D10003AC08091F70181FD0E94E30720E030E0A6
:101D20007501022E02C0EE0CFF1C0A94E2F7C701F7
:101D300084219521892B09F12E837F828E209F207B
:101D400091E0892809F490E098870E94771B8160D0
:101D5000782F9A8789874E815F8168858A850E945E
:101D6000FC0E000F111FF801E05AFE4F8081918197
:101D7000E826F926F182E08206C02F5F3F4F2A3025
:101D8000310571F6B0CF0E94051E10915F010E94CF
:101D9000860D1817D9F00E94860D80935F012A9650
:101DA0000FB6F894DEBF0FBECDBFDF91CF911F916C
:101DB0000F91FF90EF90DF90CF90BF90AF909F90EA
:101DC0008F907F905F904F900C941B0E2A960FB6C9
:101DD000F894DEBF0FBECDBFDF91CF911F910F9161
:101DE000FF90EF90DF90CF90BF90AF909F908F903B
:101DF0007F905F904F900895CF93DF93CDB7DEB77C
:101E00002B970FB6F894DEBF0FBECDBF4F83588718
:101E100069877A878B87DE01119686E0FD01119232
:101E20008A95E9F785E0FE01379601900D928A9533
:101E3000E1F70E94BE18882319F082E00E94F91889
:101E40000E94911881110E94571949815A816B8112
:101E50007C818D819E810E948F152B960FB6F89400
:101E6000DEBF0FBECDBFDF91CF910895CF93DF933B
:101E70001F92CDB7DEB7882309F4AFC0682F8CEF6F
:101E8000860F813A70F4862F69830E9463216981ED
:101E90008111A3C080910001909101010E94DE1A7E
:101EA0000CC080E2860F883068F4677081E001C062
:101EB000880F6A95EAF70E941E190F90DF91CF9163
:101EC0000C945E198BE5860F833088F4653A29F00F
:101ED000663A31F083E890E005C081E890E002C006
:101EE00082E890E00F90DF91CF910C94E60D88E5A9
:101EF000860F853108F071C0683A61F1693A69F17D
:101F00006A3A71F16B3A79F16C3A81F16B3B89F184
:101F10006C3B91F16D3A99F1603BA1F16E3AA9F1F8
:101F20006F3AB1F1613BB9F1623BC1F1633BC9F179
:101F3000643BD1F1653BD9F1663BE1F1673BE9F1E7
:101F4000683BF1F1693BF9F16A3B09F43FC080E07D
:101F500090E03EC082EE90E03BC089EE90E038C059
:101F60008AEE90E035C085EB90E032C086EB90E0E1
:101F70002FC083EB90E02CC084EB90E029C087EB6E
:101F800090E026C08CEC90E023C08DEC90E020C067
:101F900083E891E01DC08AE891E01AC082E991E0EF
:101FA00017C084E991E014C081E292E011C083E29D
:101FB00092E00EC084E292E00BC085E292E008C09D
:101FC00086E292E005C087E292E002C08AE292E0F7
:101FD0000F90DF91CF910C94FC0D0F90DF91CF917A
:101FE0000895882349F1682F8CEF860F813A38F4E1
:101FF00080910001909101010E94E91A0CC080E2D9
:10200000860F883050F4677081E001C0880F6A95B0
:10201000EAF70E9424190C945E198BE5860F833031
:1020200020F480E090E00C94E60D685A653120F4CD
:1020300080E090E00C94FC0D0895882321F00E942C
:102040001E190C945E190895882321F00E9424190A
:102050000C945E1908954F925F926F927F92AF92A7
:10206000BF92CF92DF92EF92FF920F931F93CF9385
:10207000DF931F92CDB7DEB77C01A72EFC0105814F
:1020800002950F701281112321F069830E943B1980
:10209000698169830E9414196981882381F0112361
:1020A00071F080E2860F883050F082E00E94F918CB
:1020B0000E94141991E0B82EB926698101C0B12C93
:1020C000CA2CC2948FE0C822D12CF601E859FF4FE8
:1020D0000C94F62B8A2D807F0A2D0F70882311F027
:1020E0000295007F1123C1F0002309F4DCC180E2D6
:1020F000860F883010F0611105C0802F69830E941F
:102100001E1904C0802F69830E942E19698169837A
:102110000E945E196981C7C1862F69830E94F10FF1
:102120006981002309F4E2C180E2860F883010F053
:10213000611104C0802F0E94241903C0802F0E94C7
:1021400034190E945E19D2C18A2D807F9A2D9F700A
:10215000803211F4892F03C0892F8295807F6623F6
:1021600019F06130B1F01FC0112349F0002309F4C8
:1021700052C1013009F04FC10E944E19B7C100236E
:1021800019F0013009F4B2C189830E94571989817D
:1021900048C1112321F0063008F0A8C13CC1053028
:1021A00008F0A4C13EC1112351F0002309F433C14A
:1021B000F701958190FF77C19F7095832CC1002313
:1021C00009F42FC181C18A2D86958695837090E090
:1021D000009719F0019761F089C1112321F0862F32
:1021E0009A2D937002C080E090E00E94E60D8EC1AF
:1021F000112321F0862F9A2D937002C080E090E089
:102200000E94FC0D83C11123F9F0653F51F0663F38
:1022100071F0643FA9F480912A0290912B028160B1
:102220000BC080912A0290912B02826005C08091A0
:102230002A0290912B02846090932B0280932A02B1
:10224000862F0E948B1C1EC0653F51F0663F71F0C7
:10225000643FA9F480912A0290912B028E7F0BC0DB
:1022600080912A0290912B028D7F05C080912A02D5
:1022700090912B028B7F90932B0280932A02862FC2
:102280000E94F31C0E94781D41C18A2D837009F0C1
:1022900052C0111137C1862F829586958770880F9D
:1022A000880F962F9F70492E512C612C712C082E6F
:1022B00004C0440C551C661C771C0A94D2F764FFBA
:1022C00014C00FE010E020E030E0B901A80104C024
:1022D000440F551F661F771F8A95D2F7CB01BA01AD
:1022E000609570958095909503C060E070E0CB019B
:1022F0002A2D26952695237030E02230310569F08D
:102300002330310589F064297529862997292130E0
:10231000310571F00E94D216F5C06429752986290D
:1023200097290E94E416EEC00E94D216C301B201A2
:102330000E94C016E7C0112319F08A2D817001C0D8
:102340008695882309F4DEC0862F8295869587704E
:10235000880F880F962F9F70492E512C612C712C5D
:10236000082E04C0440C551C661C771C0A94D2F736
:1023700064FF14C00FE010E020E030E0B901A801D4
:1023800004C0440F551F661F771F8A95D2F7CB01F3
:10239000BA01609570958095909503C060E070E0FB
:1023A000CB012A2D269526952370422F50E04230EE
:1023B000510569F04330510589F064297529862952
:1023C00097294130510571F00E9496179BC06429EE
:1023D0007529862997290E94A81794C00E949617EC
:1023E000C301B2010E9484178DC0862F90E0FC01CA
:1023F000E05EF109E531F10508F051C0E858FF4F02
:102400000C94F62B062F0F708A2D8F71112331F04B
:102410000E941D17802F0E941D1068C00E943E1749
:10242000802F0E94241062C0112341F0053008F073
:102430005DC08A2D8F710E94631758C0063008F066
:1024400055C0F7CF112339F08A2D8F710E941D17C7
:102450004DC01123C9F38A2D8F710E943E1746C0CB
:10246000112329F08A2D8F710E9408173FC00E9406
:1024700003173CC0112351F01A2D1F71812F0E94A8
:102480001D1763E0812F0E94E91830C081E00E948F
:10249000F918023058F182E00E94F91827C0112380
:1024A00031F0002389F2862F0E94360F1FC00023CF
:1024B00091F2693349F45FEF77EE83E05150704059
:1024C0008040E1F700C00000862F0E94F10F0EC08F
:1024D0004A2D4F70C7010E9447080E94331616C04C
:1024E0004A2D4F70C7010E94C40A10C098E0C91657
:1024F000D10441F05CF0FAE0CF1AD10822E0C21614
:10250000D10420F40E94860D0E94C20ABB2001F172
:102510000E94BA1880FD1CC0F70112820E94B418F4
:102520000E941D17C7010E94B8120E94B4180F9094
:10253000DF91CF911F910F91FF90EF90DF90CF909F
:10254000BF90AF907F906F905F904F900C943E172C
:102550000F90DF91CF911F910F91FF90EF90DF903F
:10256000CF90BF90AF907F906F905F904F90089505
:102570000F931F93CF93DF93EC01888199812B8177
:102580003C81232BB9F09F3F11F48F3F99F0CE018E
:102590000E943909882371F0688179818A810E94BB
:1025A00060188C010E94BA170E94BD16B801CE01B6
:1025B0000E942B10DF91CF911F910F9108950E94DF
:1025C0003B190E944B1980910001909101010E94DA
:1025D000F41A0E945E190E94AA1E0E94781D80E0D3
:1025E00090E00E94E60D80E090E00C94FC0D0E94CB
:1025F0002B190C94DF120E945518E92FE295EF7009
:10260000F0E03297EE30F105B0F4E357FF4F0C9451
:10261000F62B803F91F018F4803E68F40EC0843FA2
:1026200051F40BC0803E48F0813F29F406C093FB73
:10263000882780F9089580E0089581E00895CF9378
:10264000DF9300D000D01F92CDB7DEB70F900F9070
:102650000F900F900F90DF91CF910895CF93DF935C
:1026600000D000D000D0CDB7DEB726960FB6F894D4
:10267000DEBF0FBECDBFDF91CF9108951F93CF93E3
:10268000DF93C0916B0116E080916C01C81799F03F
:10269000D0E01C9FF0011D9FF00D1124E359FE4F67
:1026A0004081518162817381848195810E942E13C2
:1026B0002196C770E9CFDF91CF911F910895409186
:1026C0009D0150919E0160919F017091A0018091A8
:1026D000A1019091A2010C942E138091A2018295E8
:1026E0008F7009F054C080919F01882309F44FC076
:1026F00080916B01A0916C0160919D0170919E0190
:102700004091A0015091A101B6E08A1709F43FC0A1
:1027100090E041155105C1F17F3F11F46F3FA1F1E8
:10272000B89FF001B99FF00D1124E359FE4F2181AC
:1027300072132AC02081621327C02281211124C074
:10274000238134812417350710F421503109241BCB
:10275000350B283C3105C0F42091A2012F70206177
:102760002093A20126E0289FF001299FF00D11245B
:10277000EE58FE4F80818F70806180838DE991E0FB
:102780000E94B8120C943E1301968770BECF089534
:10279000CF92DF92EF92FF920F931F93CF93DF932D
:1027A000CDB7DEB762970FB6F894DEBF0FBECDBFD0
:1027B0008C0185E0F801DE011D9601900D928A954D
:1027C000E1F7D8014C9111965C91119712966C919A
:1027D00012971396CD90DC90149730919D017091D3
:1027E0009E018091A0019091A101009709F46BC115
:1027F0007F3F19F43F3F09F466C1E0909F01EE204E
:1028000009F4C0C02091A201C816D90628F0F6012B
:10281000E81BF90BCF0104C0809590958C0D9D1D90
:10282000FF24F394883C910578F0F12C207F09F087
:10283000C6C07C2DD98AC88A89890E941F138DE958
:1028400091E00E94B812B1C0822F807F09F046C08B
:10285000751314C0341312C0611110C02F702061A1
:102860002093A2010E945F138DE991E00E94B812AB
:102870008091A201D80115968C932EC0CD2819F114
:102880005F3F11F44F3FF9F0F62E61111CC08091AB
:102890006B0120916C0136E0821709F45AC090E078
:1028A000389FF001399FF00D1124E359FE4F7181DB
:1028B000571306C07081471303C07281711103C0A2
:1028C00001968770E9CFF62E662309F418C180912E
:1028D000A20181608093A201F12C11C1751308C07F
:1028E000341306C0611104C08091A201D801C3C095
:1028F0004D875E878D859E856A8B0E94FB126A8953
:102900008823E1F16623D1F12091A201822F8295E3
:102910008F7090E0029774F080919D0190919E01DC
:1029200098878F831986DB86CA862C87CE01079607
:102930000E94B81286E0F801ADE9B1E001900D9275
:102940008A95E1F70E946D130E945F13FF24F394B0
:10295000D6C04D875E878D859E850E945518292F8C
:1029600022952F7030E0223031050CF0BCC09F70F2
:1029700009F0B6C0805E883008F4C1C0C8010E946A
:10298000B812E4CFC816D90608F453C0F601E81B04
:10299000F90BCF01883C910508F450C0F12C7C2D37
:1029A000D98AC88A89890E941F13EDE9F1E086E07F
:1029B000DF011D928A95E9F70E945F13A0C075138D
:1029C00014C0341312C0611110C08091A201F8012B
:1029D0008583C8010E94B81286E0EDE9F1E0DF01CD
:1029E0001D928A95E9F7FE2C8AC04D875E878D85FA
:1029F0009E856A8B0E94FB126A89882309F4BECFE8
:102A0000662309F4BBCF2091A201822F82958F709B
:102A100090E002970CF48ECF80919D0190919E01E1
:102A20009A8389831B82DD82CC822E83CE0101961C
:102A30007FCF809590958C0D9D1DACCFF62E662393
:102A400009F49CCF75132EC034132CC02091A20121
:102A500020FD1FC0822F82958F70D9F0D801159666
:102A60002C9315978F3049F08F5F982F9295907F18
:102A7000822F8F70892B15968C93C8010E94B812F3
:102A800086E0F801ADE9B1E001900D928A95E1F799
:102A900093CF86E0F801ADE9B1E001900D928A95FF
:102AA000E1F72DC04D875E878D859E850E94FB12C4
:102AB000811140CF8091A20181608093A201C80161
:102AC0000E94B8121CC0662309F458CF4D875E8758
:102AD0008D859E850E94FB12882309F44FCF2ACF53
:102AE000811148CF0CC0243031050CF047CF9F70C6
:102AF00009F440CFF8019581907F09F03BCF8F2DED
:102B000062960FB6F894DEBF0FBECDBFDF91CF91B6
:102B10001F910F91FF90EF90DF90CF9008951F933A
:102B2000CF93DF93CDB7DEB72C970FB6F894DEBF07
:102B30000FBECDBF4F83588769877A878B879C8765
:102B4000CE0107960E94C813882369F08F8198856B
:102B50002A853B85232BF1F19F3F09F063C08F3F0E
:102B600009F060C037C086E0FE013796DE0111969D
:102B700001900D928A95E1F76F817885EA85FB8552
:102B8000309741F17F3F11F46F3F21F120916C01AB
:102B900030E0C90101968770992740916B0150E0A0
:102BA0008417950709F447C069837A83FD83EC8312
:102BB00096E0929FD001939FB00D1124A359BE4F70
:102BC000FE01319601900D929A95E1F780936C0188
:102BD0000E943E1316E080916B0190916C01891761
:102BE000C1F1189FC001112483599E4F0E94C81340
:102BF000882379F1E0916B011E9FF0011124E359C4
:102C0000FE4F4081518162817381848195810E9450
:102C10002E1380916B0190E0019687709927809325
:102C20006B01D9CF4F81588569857A858B859C85C5
:102C30000E942E13CFCF0E94F71210926C011092B7
:102C40006B01EDE9F1E086E0DF011D928A95E9F77D
:102C5000C1CF2C960FB6F894DEBF0FBECDBFDF916B
:102C6000CF911F910895EF92FF920F931F93CF93EF
:102C7000DF938C01892B09F46CC0F12CEE24E394D2
:102C8000E8012196F8018491843740F4843008F0FB
:102C900051C0813081F0823019F15BC0853709F471
:102CA00044C0A8F19CE7980F903708F052C08F7786
:102CB0000E94F10F41C00E5F1F4FFE01C49180E2E0
:102CC0008C0F883048F4C7708E2D01C0880FCA95CC
:102CD000EAF70E943E1914C08C2F0E94360F2DC0B7
:102CE0000E5F1F4FFE01C49180E28C0F883058F4B4
:102CF000C7708E2D01C0880FCA95EAF70E9444194B
:102D00000E945E191AC08C2F0E94F10F16C00E5F30
:102D10001F4FFE01C491CC2381F08FE99FE0019702
:102D2000F1F700C00000C150F6CF0E5F1F4FFE014B
:102D3000F49003C00E94360F8E018F2D882309F472
:102D40009FCFEFE9FFE03197F1F700C0000081501D
:102D5000F5CFDF91CF911F910F91FF90EF900895E4
:102D600008950E94B0166093CA017093CB018093BE
:102D7000CC019093CD010C94DF1208950C94B11600
:102D80000F931F930091CA011091CB012091CC01A8
:102D90003091CD01602B712B822B932B1F910F91C2
:102DA0000C94B1160F931F930091CA011091CB019F
:102DB0002091CC013091CD01602371238223932394
:102DC0001F910F910C94B1160F931F930091CA019C
:102DD0001091CB012091CC013091CD01602771275A
:102DE000822793271F910F910C94B11608950E948A
:102DF000F6166093C6017093C7018093C801909343
:102E0000C9010C94DF1260E070E0CB010C94F7165E
:102E10000F931F9341E050E060E070E08A019B0156
:102E200004C0000F111F221F331F8A95D2F7C9015A
:102E3000B8011F910F910C94F7160F931F9341E067
:102E400050E060E070E004C0440F551F661F771F1C
:102E50008A95D2F78091C6019091C701A091C801CF
:102E6000B091C9018A019B01082B192B2A2B3B2BFE
:102E7000C901B8011F910F910C94F7160F931F937E
:102E800041E050E060E070E004C0440F551F661F51
:102E9000771F8A95D2F740955095609570958091EF
:102EA000C6019091C701A091C801B091C9018A01E2
:102EB0009B01082319232A233B23C901B8011F9131
:102EC0000F910C94F7160F931F9341E050E060E0D0
:102ED00070E004C0440F551F661F771F8A95D2F714
:102EE0008091C6019091C701A091C801B091C9011C
:102EF0008A019B01082719272A273B27C901B80106
:102F00001F910F910C94F7160F931F930091C60118
:102F10001091C7012091C8013091C901602B712B1C
:102F2000822B932B1F910F910C94F7160F931F93E5
:102F30000091C6011091C7012091C8013091C901CB
:102F400060237123822393231F910F910C94F71612
:102F50000F931F930091C6011091C7012091C801E2
:102F60003091C90160277127822793271F910F9104
:102F70000C94F71608952AE0929F800D1124A82F33
:102F8000A695A695A695877051E001C0550F8A9524
:102F9000EAF785E0A89FD001112420E030E070E03E
:102FA000F901EA0FFB1FED55FE4F4081CB01022EC8
:102FB00002C0969587950A94E2F7817099278195CA
:102FC00084278523842780832F5F3F4F2530310559
:102FD00039F708952AE0929F800D1124682F669595
:102FE00066956695982F977085E0689FB0011124CB
:102FF00040E050E080E0FA01E60FF71FED55FE4F8C
:10300000208130E0092E02C0369527950A94E2F718
:1030100021703327042E01C0220F0A94EAF7822B75
:103020004F5F5F4F4530510531F70895CF92DF92E2
:10303000EF92FF920F931F93CF93DF938C01C09079
:10304000CA01D090CB01E090CC01F090CD018091ED
:10305000C6019091C701A091C801B091C901C82AC9
:10306000D92AEA2AFB2ACFE1D0E0D701C6010C2EEB
:1030700004C0B695A795979587950A94D2F780FFD7
:1030800006C0B8018C2F0E94DF0A019721F4219716
:1030900060F780E001C08C2FDF91CF911F910F91DD
:1030A000FF90EF90DF90CF900895CF93DF93EC01E6
:1030B0000E941618BE010E94DF0ADF91CF91089589
:1030C0001F93CF93DF93EB0190916A01992321F035
:1030D000CB010E94551813C0882349F0CB010E94F0
:1030E0001618182F682FCE010E94BB1704C0CB0101
:1030F0000E94EA17182FBE01812F0E94DF0ADF917C
:10310000CF911F910895682F809100019091010146
:103110000C94DE1A682F80910001909101010C94AB
:10312000E91A0E94771B2091D1013091D2018217B8
:10313000930750F00E94771B2091D1013091D2016A
:10314000821B930B9C010AC00E94771B2091D10126
:103150003091D20120953095280F391F81E0243F0E
:10316000314008F480E008958091D00185958595DF
:10317000859508958091D001877008950E94771BEE
:103180002091CE013091CF0182179307A8F00E94C1
:10319000771B2091CE013091CF01821B930B843F8E
:1031A000914010F480E013C08091D00182FB882709
:1031B00080F991E089270BC00E94771B2091CE01F6
:1031C0003091CF0120953095820F931FE8CF817009
:1031D000089598E0899F90011124262B2093D00117
:1031E0000E941D170E94771B9093CF018093CE0100
:1031F00008952091D001809582238093D001982F4B
:10320000977089F430E0482F082E000C550B2417D6
:10321000350749F08595859585950E943E17109252
:10322000CF011092CE0108959091D001977081E066
:1032300009F480E008958091F60108959091F601D7
:10324000892B8093F601089580959091F60189234A
:103250008093F60108951092F60108959091F5017A
:10326000892B8093F501089580959091F50189232C
:103270008093F50108951092F50108959091F4015D
:10328000892B8093F401089580959091F40189230E
:103290008093F40108951092F40108958093D3016E
:1032A0000E94771B9093D2018093D10108951092D0
:1032B000D3011092D2011092D1010895E091000142
:1032C000F09101018091F6018083E0910001F0917D
:1032D000010190818091F501892B8083E0910001AB
:1032E000F091010190818091F401892B808380917C
:1032F000D301882321F10E949118882371F08091D5
:10330000F70180FF08C085E693E09F938F930E94AA
:1033100076070F900F900E945719E0910001F091ED
:10332000010190818091D301892B808380910001DC
:10333000909101010E94601A81110E945719809199
:103340000001909101010C94920D909337018093AC
:1033500036010895CF92DF92EF92FF926C01EE2436
:10336000FF24C114D104E104F10421F0C701B60126
:1033700020E101C020E0C72ED82EE92EFF24C11481
:10338000D104E104F10419F0285FC701B6016B0113
:103390007C0154E0F694E794D794C7945A95D1F7FA
:1033A000C114D104E104F10419F02C5FC701B60186
:1033B0006B017C0142E0F694E794D794C7944A9558
:1033C000D1F7C114D104E104F10419F02E5FC70153
:1033D000B601DC01CB01B695A79597958795892B0A
:1033E0008A2B8B2B09F02F5F822FFF90EF90DF90BD
:1033F000CF9008958295982F9C7C392F36953695DD
:10340000282F237344E0249FC0011124932F982B6D
:10341000292F2A7A2695892F8575880F822B089562
:103420001F93CF93DF931F92CDB7DEB799830E948E
:10343000FA19182F9981892F0E94FA19212F30E04B
:10344000322F2227A901482BCA010F90DF91CF917B
:103450001F9108956DEE7EEF80E090E00E94302C89
:1034600060E082E090E00E941E2C60E083E090E04B
:103470000E941E2C60E084E090E00E941E2C60E020
:1034800085E090E00C941E2C80E090E00E94182CC7
:1034900021E08D3E9E4F09F020E0822F089582E0CA
:1034A00090E00C94102C83E090E00C94102C84E0BD
:1034B00090E00C94102C682F84E090E00C941E2C6B
:1034C000FC0131969C01205E3F4F80E0919191116B
:1034D0008F5FE217F307D1F708959C01FC01329644
:1034E0009FEF80E04191461789F09F3F19F4411109
:1034F00001C0982F8F5F8E31A9F79F3F39F0F901F6
:10350000E90FF11D97FDFA95628308950895FC0176
:10351000329680962081261301C010823196E817DA
:10352000F907C1F70895262F2695269526952F3160
:1035300070F4FC01E20FF11D677021E030E001C082
:10354000220F6A95EAF78181282B218308958091C3
:10355000F70180FF0CC01F926F9385E993E09F9362
:103560008F930E9476070F900F900F900F90089501
:10357000262F2695269526952F3178F4FC01E20F0B
:10358000F11D677021E030E001C0220F6A95EAF773
:10359000209581812823218308958091F70180FF60
:1035A0000CC01F926F9387E793E09F938F930E94C5
:1035B00076070F900F900F900F90089520911201B1
:1035C000222329F02091300227FD0C94931A0C94A9
:1035D0006D1A20911201222329F02091300227FD3B
:1035E0000C94B81A0C94871AFC01319680961192AB
:1035F000E817F907E1F7089580913602843039F130
:103600001092F80120E488E190E00FB6F894A895B4
:10361000809360000FBE2093600080E00E94C20A89
:1036200083B7817F846083BF83B7816083BF7894D1
:10363000889583B78E7F83BF0FB6F894A895809145
:103640006000886180936000109260000FBE089552
:1036500008950895CF930E94281B0E9482070E941C
:10366000291BC0E08C2F0E94DA07892B29F4CF5F39
:10367000C530C1F780E001C081E0CF9108950E947C
:10368000F7120E94860D0C94C20A1F920F920FB679
:103690000F9211248F939F93AF93BF938091F80162
:1036A000811113C080912C0290912D02A0912E02C5
:1036B000B0912F024196A11DB11D80932C029093D1
:1036C0002D02A0932E02B0932F02BF91AF919F9134
:1036D0008F910F900FBE0F901F90189582E084BDC0
:1036E00093E095BD9AEF97BD80936E0008952FB734
:1036F000F89480912C0290912D02A0912E02B0910D
:103700002F022FBF08952FB7F89460912C0270916B
:103710002D0280912E0290912F022FBF0895CF92FB
:10372000DF92EF92FF920F931F932FB7F89440917F
:103730002C0250912D0260912E0270912F022FBF0A
:103740006A017B01EE24FF248C0120E030E0C016EA
:10375000D106E206F30610F4415051099A01281BE4
:10376000390BC9011F910F91FF90EF90DF90CF901F
:10377000089578941F920F920FB60F9211248F9391
:103780009F93AF93BF9380912C0290912D02A091B3
:103790002E02B0912F020196A11DB11D80932C0223
:1037A00090932D02A0932E02B0932F02BF91AF9160
:1037B0009F918F910F900FBE0F901F90189587E7E4
:1037C00097E790930108809300089AE088E10FB68C
:1037D000F894A895809360000FBE90936000FFCF8F
:1037E0000E94441A811102C00E942A1A0E944F1A94
:1037F0008093F7010E94571A90E0909331028093D2
:1038000030020E94531A682F70E080E090E00C9420
:10381000BE168091FB0180FF0BC06091050185E021
:10382000689FB001112475956795759567952BC0B4
:1038300081FF09C06091050185E0689FB0011124F6
:103840007595679520C082FF07C06091050185E0EE
:10385000689FB001112417C09091FC019923D1F009
:1038600060910401961788F72091050185E0289F53
:1038700090011124929FA001939F500D112470E09C
:10388000CA010E94E22B6038710540F46115710590
:1038900039F002C065E070E0862F08958FE7089543
:1038A00081E008958091FB0180FF08C060910301D1
:1038B00070E0759567957595679521C081FF06C085
:1038C0006091030170E07595679519C082FF04C08F
:1038D0006091030170E010C09091FC019923C1F048
:1038E000609102019617A0F780910301899FC001A2
:1038F000112470E00E94E22B6038710528F46115F4
:10390000710521F0862F08958FE7089581E00895CD
:1039100061E070E0F4CF803F21F40E94091C8195A2
:1039200004C0813F29F40E94091C8093FF0108957F
:10393000823F21F40E94091C819504C0833F29F431
:103940000E94091C8093FE010895893F19F40E948A
:10395000521C05C08A3F31F40E94521C819580930D
:10396000000208958B3F21F40E94521C819504C0EF
:103970008C3F29F40E94521C809301020895843FD9
:1039800021F48091FD01816017C0853F21F4809171
:10399000FD01826011C0863F21F48091FD018460A9
:1039A0000BC0873F21F48091FD01886005C0883FEE
:1039B00031F48091FD0180618093FD0108958D3F78
:1039C00021F48091FB0181600BC08E3F21F4809136
:1039D000FB01826005C08F3F29F48091FB01846068
:1039E0008093FB010895803F39F48091FF0187FFA8
:1039F0006CC01092FF0169C0813F29F48091FF01E2
:103A00001816BCF362C09091FE01823F29F497FF23
:103A10005CC01092FE0159C0833F19F41916CCF313
:103A200054C0893F41F48091000218160CF04DC03B
:103A3000109200024AC08A3F29F48091000287FF59
:103A400044C0F6CF8B3F39F48091010287FF3DC01F
:103A5000109201023AC08C3F29F48091010218169D
:103A6000BCF333C0843F21F48091FD018E7F17C0E9
:103A7000853F21F48091FD018D7F11C0863F21F4A7
:103A80008091FD018B7F0BC0873F21F48091FD0168
:103A9000877F05C0883F31F48091FD018F7E809340
:103AA000FD0113C08D3F21F48091FB018E7F0BC07F
:103AB0008E3F21F48091FB018D7F05C08F3F29F45B
:103AC0008091FB018B7F8093FB018091FE0181112E
:103AD0000EC08091FF0181110AC080910002811106
:103AE00006C080910102811102C01092FC0108956C
:103AF0008091F70183FF7EC08AED93E00E94DD068E
:103B00008091FD011F928F9385ED93E09F938F939A
:103B10000E94760783ED93E00E94DD068091FE010E
:103B2000282F082E000C330B3F938F9380ED93E0EA
:103B30009F938F930E9476078EEC93E00E94DD06A0
:103B40008091FF01282F082E000C330B3F938F9399
:103B50008BEC93E09F938F930E94760789EC93E020
:103B60000E94DD0680910002282F082E000C330BE6
:103B70003F938F9386EC93E09F938F930E947607F9
:103B800084EC93E00E94DD0680910102282F082E2C
:103B9000000C330B3F938F9381EC93E09F938F93B3
:103BA0000E9476078EEB93E00E94DD068091FC0177
:103BB0001F928F938BEB93E09F938F930E947607D6
:103BC00089EB93E00E94DD068091FB011F928F93A9
:103BD00086EB93E09F938F930E94760783EB93E0AD
:103BE0000E94DD068DB79EB74C960FB6F8949EBF27
:103BF0000FBE8DBF8DEF91E00E94DB0D0E94771B01
:103C00009093FA018093F90108951F93CF93DF9366
:103C10008091F9019091FA010E948F1BAC01909163
:103C2000FC01992321F02091060130E006C020918B
:103C300007018AE0289F900111244217530708F4D6
:103C400085C08091FE01C091FF01D09100021091CA
:103C50000102811107C0C11175C0D11173C01111CA
:103C600071C074C09F3F19F09F5F9093FC011816BC
:103C700024F40E94091C8093FE018091FE0187FFBD
:103C800005C00E94091C81958093FE011C1624F436
:103C90000E94091C8093FF018091FF0187FF05C0EE
:103CA0000E94091C81958093FF016091FE016623AB
:103CB00031F1C091FF01CC2311F1062E000C770BDE
:103CC000880B990B0E94DD2A23E333E343E35FE390
:103CD0000E94412B0E94A52A6093FE016C2FCC0FFD
:103CE000770B880B990B0E94DD2A23E333E343E330
:103CF0005FE30E94412B0E94A52A6093FF011D16DD
:103D000024F40E94521C809300028091000287FFDD
:103D100005C00E94521C819580930002111624F464
:103D20000E94521C809301028091010287FF05C00E
:103D30000E94521C819580930102DF91CF911F91C7
:103D40000C94781D9F3F09F08FCF97CFDF91CF91D3
:103D50001F910895EDEFF1E085E0DF011D928A9556
:103D6000E9F71092FC011092FB0108958DEF95E0A8
:103D70000E94DD061F9281E08F931F9285E08F9352
:103D80008FEA95E09F938F930E9476070F900F9094
:103D90000F900F900F900F9008958330E9F128F461
:103DA000813061F0823009F10895853009F462C0F4
:103DB00008F449C0863009F474C008958091070161
:103DC000262F30E0280F311D2F3F310524F4680FD6
:103DD0006093070103C08FEF809307018091070173
:103DE0001F928F9388EE94E072C080910601262F77
:103DF00030E0280F311D2F3F310524F4680F609308
:103E0000060103C08FEF80930601809106011F9287
:103E10008F9386ED94E05BC080910501262F30E002
:103E2000280F311D2F3F310524F4680F60930501E1
:103E300003C08FEF80930501809105011F928F933E
:103E400083EC94E044C080910401262F30E0280FD9
:103E5000311D2F3F310524F4680F6093040103C026
:103E60008FEF80930401809104011F928F938EEA5B
:103E700094E02DC080910301262F30E0280F311DE2
:103E80002F3F310524F4680F6093030103C08FEFC7
:103E900080930301809103011F928F9385E994E041
:103EA00016C080910201262F30E0280F311D2F3FD0
:103EB000310524F4680F6093020103C08FEF8093F3
:103EC0000201809102011F928F938AE794E09F93F1
:103ED0008F930E9476070F900F900F900F90089588
:103EE000833081F128F4813059F08230D1F0089587
:103EF000853009F449C0B8F1863009F456C00895F8
:103F000080910701681720F4861B8093070102C087
:103F100010920701809107011F928F938BE694E026
:103F200054C080910601681720F4861B8093060117
:103F300002C010920601809106011F928F9389E5BD
:103F400094E043C080910501681720F4861B80939C
:103F5000050102C010920501809105011F928F9307
:103F600086E494E032C080910401681720F4861B37
:103F70008093040102C010920401809104011F92F9
:103F80008F9381E394E021C080910301681720F4AE
:103F9000861B8093030102C01092030180910301EC
:103FA0001F928F9388E194E010C0809102016817FE
:103FB00020F4861B8093020102C0109202018091BE
:103FC00002011F928F938DEF93E09F938F930E9436
:103FD00076070F900F900F900F900895CF93C82FF2
:103FE0001F928F9382E097E09F938F930E947607B2
:103FF00081E090E0A0E0B0E0BC01CD0104C0660F1C
:10400000771F881F991FCA95D2F70E94BE160F907E
:104010000F900F900F90CF910C94F712CF9387329F
:10402000A8F58E3108F032C1803109F49FC0F8F450
:10403000873009F465C0A8F4863009F02DC180915D
:10404000F701817F8E7F8093F7018CE998E00E94D1
:10405000DD068DEF9AE00E94DD0681E08093030289
:104060004DC08B30F1F18E3009F46CC015C1863132
:1040700009F4B0C020F4813109F4F0C00DC18931D8
:1040800009F491C08B3109F449C006C1883349F164
:1040900050F4893209F4FCC0853309F4F9C0873241
:1040A00009F4F6C0F9C0833409F4F2C028F48A3365
:1040B00008F4F2C08953EDC0883409F0EDC00E94C5
:1040C000F71281EE9AE00E94DD062FEF83ED90E378
:1040D000215080409040E1F700C000000E94DF1BAB
:1040E0000DC083EC98E05CC088EC9AE00E94DD068D
:1040F0008091F701897F877F8093F701C1E0D1C06C
:104100008091F701C82FC095C170C0FB80F98093E2
:10411000F701CC2349F385ED9AE0B2C09091F70105
:1041200091FBCC27C0F981E0C827892FC0FB81F91A
:104130008093F701CC2319F08BEB9AE027C08DEA2E
:104140009AE02EC09091F70192FBCC27C0F981E054
:10415000C827892FC0FB82F98093F701CC2319F07F
:104160008EE99AE013C08EE89AE01AC09091F701A8
:1041700093FBCC27C0F981E0C827892FC0FB83F9C6
:104180008093F701CC2351F082E89AE00E94DD068B
:104190008091F70181608093F70183C085E79AE001
:1041A0000E94DD06ABCF8DE898E00E94DD0681E637
:1041B00098E00E94DD068AE298E00E94DD0681EF29
:1041C00097E00E94DD0686EB97E00E94DD0688E816
:1041D00097E0E6CF8AE797E00E94DD060E94860D11
:1041E0001F928F9380E697E09F938F930E947607AC
:1041F000809112011F928F9389E497E09F938F9390
:104200000E947607809128021F928F9386E397E0A1
:104210009F938F930E9476078091300287FB8827B7
:1042200080F91F928F938EE197E09F938F930E9466
:1042300076070E94831B9F938F937F936F9387E0F2
:1042400097E09F938F930E9476078DB79EB746960F
:104250000FB6F8949EBF0FBE8DBF50CF0E94F712CD
:104260009091300297FBCC27C0F981E0C827892FB5
:10427000C0FB87F980933002CC2329F08BE69AE0CB
:104280000E94DD060EC080E69AE08ACF8D5101C003
:1042900080E00E94EE1F32CF8EE59AE00E94DD069C
:1042A000C0E08C2FCF91089580E0089580E00895BC
:1042B0008E518A3030F4E82FF0E0ED5EFE4F8081C1
:1042C000089580E00895CF93C82F80910302813034
:1042D00071F020F0823009F44BC03FC1E091000141
:1042E000F09101018081823209F039C107C0E0916B
:1042F0000001F09101018081823261F48C2F0E94D3
:104300005421811104C08C2F0E940E202FC081E007
:1043100090E02CC08C2F0E945621811126C0C43100
:10432000E1F070F4CB3081F0C031D1F40E94B61EC0
:104330008AEF96E00E94DD0682E08093030215C0BA
:10434000C93259F0C83361F48CE998E00E94DD0667
:104350008EEF96E00E94DD0608C01092030201C1B4
:1043600088EF96E00E94DD06FCC081E08170FBC012
:10437000C43228F5CE3108F0C1C0CB30A1F1D0F461
:10438000C73009F0D0C08EE18093070182E38093AB
:1043900006018AE08093050184E18093040188E0AE
:1043A0008093030188E2809302018EE995E00E94E8
:1043B000DD06BCC0C33149F1C431C1F0B4C0CB3457
:1043C00009F4A6C028F4C93289F0C83361F0ABC043
:1043D000C13509F49BC0C23509F496C0CE3409F04A
:1043E000A2C06AE09BC00E94B61EA0C080910202DB
:1043F000882319F01092020299C08BEA95E00E947E
:10440000DD0681E080930302AEC085E895E00E945E
:10441000DD0683E795E00E94DD06809107011F928B
:104420008F9380E795E09F938F930E9476078EE6A7
:1044300095E00E94DD068CE595E00E94DD06809106
:1044400006011F928F9389E595E09F938F930E94B9
:10445000760787E595E00E94DD0688E495E00E94F6
:10446000DD06809105011F928F9385E495E09F936F
:104470008F930E94760783E495E00E94DD0682E335
:1044800095E00E94DD06809104011F928F938FE2D8
:1044900095E09F938F930E9476078DE295E00E94AE
:1044A000DD0688E195E00E94DD06809103011F9200
:1044B0008F9385E195E09F938F930E94760783E128
:1044C00095E00E94DD068CEF94E00E94DD0680916D
:1044D00002011F928F9389EF94E09F938F930E9424
:1044E000760787EF94E00E94DD068DB79EB7489669
:1044F0000FB6F8949EBF0FBE8DBF18C08C2F0E94C0
:1045000058218093020212C061E003C061E006C03E
:104510006AE0809102020E94CD1E08C080910202D2
:104520000E94701F03C08CE995E013C080910202C5
:10453000882369F01F928F9386E995E09F938F936C
:104540000E9476070F900F900F900F9004C083E9A0
:1045500095E00E94DD0681E006C01092030280E033
:1045600002C080E003CFCF91089580912702089583
:104570009FB7F894109206029FBF90913602943034
:1045800009F057C09091E9009F703091EC00232F03
:10459000217030FD20E8922B24E02093E900209147
:1045A000EB0020FF43C02091EE0027FF3FC0209189
:1045B0000402222321F02091E80025FF37C0109249
:1045C000040226E03091E80035FD15C03091360236
:1045D000343061F53091EB0035FD28C0215021F4D5
:1045E00081E08093040222C0EFE9FFE03197F1F708
:1045F00000C00000E7CF8093F1008091E80085FDC6
:104600000AC08091E80080FFFCCF8091E8008E779F
:104610008093E80006C08FB7F89421E0209306024B
:104620008FBF9F709093E90080E008959F709093F2
:10463000E9008FEF08950F931F93CF93DF9300D07E
:104640001F92CDB7DEB78C010E94ED25823011F0AC
:10465000843019F593E099831B830A839093E900D2
:104660008FEF9091E800815095FD06C095ED9A95E9
:10467000F1F700008111F5CF8091E80085FF0DC0B2
:1046800040E050E063E070E0CE0101960E940A260F
:104690008091E8008E778093E8000F900F900F9044
:1046A000DF91CF911F910F910895CF93DF9300D0A9
:1046B0001F92CDB7DEB720913602243031F522E0CB
:1046C0002983805891099B838A8383E08093E90042
:1046D0008FEF9091E800815095FD06C095ED9A9579
:1046E000F1F700008111F5CF8091E80085FF0DC042
:1046F00040E050E063E070E0CE0101960E940A269F
:104700008091E8008E778093E8000F900F900F90D3
:10471000DF91CF910895CF93DF93EC010E94ED25B7
:10472000823011F08430F9F482E08093E9009FEF49
:104730008091E800915085FD06C085ED8A95F1F7DE
:1047400000009111F5CF8091E80085FF0CC040E09A
:1047500050E065E070E0CE010E940A268091E800FA
:104760008E778093E800DF91CF910895CF93DF9308
:10477000EC010E94ED25823019F0843009F047C029
:10478000809112018823E1F08091300287FF18C0E8
:1047900085E08093E9008FEF9091E800815095FDCE
:1047A00006C095E19A95F1F700008111F5CF80914F
:1047B000E80085FF2CC040E050E060E270E017C0E8
:1047C00081E08093E9008FEF9091E800815095FDA2
:1047D00006C095ED9A95F1F700008111F5CF809113
:1047E000E80085FF14C040E050E068E070E0CE01D2
:1047F0000E940A268091E8008E778093E80080E28C
:10480000FE01A7E0B2E001900D928A95E1F7DF91F9
:10481000CF91089586E29BE00E94DD0680913502EB
:10482000811109C00E949F270E94FC278091E2000D
:1048300084608093E200089582E29BE00E94DD069E
:104840001092350208958EE19BE00C94DD068AE11A
:104850009BE00C94DD0686E19BE00E94DD060C9453
:104860003F1B209105022F5F822F62E30E94D62B0F
:10487000992319F020930502089510920502809162
:104880000602882371F180913602843041F58091CF
:10489000E9008F702091EC00922F917020FD90E83C
:1048A000892B94E09093E9009091EB0090FF14C065
:1048B0009091EE0097FF10C09091E80095FF03C023
:1048C0001092F100F9CF9091E80090FF05C090910F
:1048D000E8009E779093E8008F708093E900109233
:1048E0000602089542E061EC81E00E94192742E04F
:1048F00061EC82E00E94192742E061EC83E00E94B3
:10490000192742E261EC84E00E94192742E261EC3F
:1049100085E00C94192780913802833009F455C042
:1049200030F4813071F0823009F48EC008958A30FD
:1049300009F47AC08B3009F460C0893009F09CC05A
:1049400020C080913702813A09F096C08091E8003A
:10495000877F8093E80080913B0290913C02892BF5
:1049600021F460E287E092E003C060E080E090E044
:1049700070E00E9455268091E8008B778093E800D4
:10498000089580913702813209F076C080913B0210
:1049900090913C02009719F0049709F06DC0809146
:1049A000E800877F8093E8008091E80082FD05C0E1
:1049B000809136028111F8CF5FC08091F100809321
:1049C00027028091E8008B7753C080913702813AAB
:1049D00009F052C080913B0290913C02892B09F072
:1049E0004BC08091E800877F8093E8008091E800C9
:1049F00080FFFCCF8091120136C080913702813256
:104A0000D9F580913B0290913C02892BA9F58091C8
:104A1000E800877F8093E8000E944E27809139024A
:104A2000809312010C94F71280913702813221F5A4
:104A30008091E800877F8093E8000E944E27809154
:104A40003A0280932802089580913702813AA1F4B6
:104A50008091E800877F8093E8008091E80080FFE4
:104A6000FCCF809128028093F1008091E8008E773E
:104A70008093E8000C944E27089584B7877F84BF05
:104A80000FB6F894A89580916000886180936000CB
:104A9000109260000FBE80E8809361001092610068
:104AA0000E94130E0E949F270E94FC278091E20023
:104AB00084608093E20088EB92E20E94A5197894CA
:104AC0000E948A2A0E94150E88E091E00E94810DC2
:104AD00085E09BE00E94DD0680913602853089F4F6
:104AE00081E09BE00E94DD060E94FC1A8091340266
:104AF000882391F30E942A1B882371F30E94F425D6
:104B0000EBCF0E94430EE8CF292F33272330310506
:104B1000C9F064F42130310581F02230310509F00B
:104B200043C08DE890E022E53BE042C021323105F0
:104B3000F1F02232310541F137C082E190E02FEDF2
:104B40003BE036C099278130910541F082309105D4
:104B500041F0892B49F5EEE4FBE005C0ECE3FBE016
:104B600002C0EAE2FBE0849190E09F0121C0653041
:104B70007105D0F4660F771FFB01E45DFE4F2081C5
:104B8000318189E090E014C06530710568F4FB0163
:104B9000EE0FFF1FEE5DFE4F20813181FB01E35ED2
:104BA000FE4F808190E004C080E090E020E030E0A3
:104BB000FA013183208308950895CF93C82F0E946E
:104BC000DC25C0932902CF9108958091360284306C
:104BD00011F081E0089582E0089580912902811109
:104BE00002C00C94E525089580E189BD82E189BD6C
:104BF00009B400FEFDCF8091D8008F7D8093D8004E
:104C00008091E00082608093E0008091E00081FD6F
:104C1000FCCF0895CF92DF92EF92FF920F931F93F4
:104C2000CF93DF93EC018B016A010E946D27811104
:104C300033C0C114D10439F0F60180819181081B81
:104C4000190BC80FD91FE12CF12C0115110519F111
:104C50008091E80085FD16C08091E8008E778093F2
:104C6000E800C114D10449F0F60180819181E80E79
:104C7000F91EF182E08285E00FC00E946D27882333
:104C800021F30AC089918093F10001501109FFEFCF
:104C9000EF1AFF0ADACF80E0DF91CF911F910F91D9
:104CA000FF90EF90DF90CF90089520913D023091DA
:104CB0003E022617370748F06115710539F4209137
:104CC000E8002E772093E80001C0B90140E06115AB
:104CD0007105A9F120913602222309F443C0253041
:104CE00009F442C02091E80023FD40C02091E80073
:104CF00022FD32C02091E80020FFE9CF4091F3006F
:104D00002091F20030E0342BFC01CF0161157105D8
:104D100059F02830310540F481918093F1006150C1
:104D200071092F5F3F4FF1CF41E02830310509F085
:104D300040E02091E8002E772093E800C8CF411191
:104D4000C9CF0AC080913602882361F0853061F0B6
:104D50008091E80083FD0AC08091E80082FFF2CFD5
:104D600080E0089582E0089583E0089581E0089549
:104D700020913D0230913E022617370748F0611519
:104D8000710539F42091E8002E772093E80001C0E6
:104D9000B901FC0120E06115710591F180913602A5
:104DA000882309F440C0853009F43FC08091E800B1
:104DB00083FD3DC08091E80082FD2FC08091E80016
:104DC00080FFE9CF2091F3008091F20090E0922BD8
:104DD0006115710559F08830910540F424912093B4
:104DE000F1003196615071090196F2CF21E00897E8
:104DF00009F020E08091E8008E778093E800CBCF27
:104E00002111CCCF0AC080913602882361F0853011
:104E100061F08091E80083FD0AC08091E80082FF84
:104E2000F2CF80E0089582E0089583E0089581E064
:104E30000895982F973058F59093E900981739F016
:104E40007091EC002091ED005091F00003C0242FF0
:104E5000762F50E021FF19C03091EB003E7F309358
:104E6000EB003091ED003D7F3093ED003091EB0091
:104E700031603093EB007093EC002093ED00509381
:104E8000F0002091EE0027FF07C09F5FD3CF8F7007
:104E90008093E90081E0089580E0089580913702D1
:104EA00087FF11C08091E80082FD05C08091360225
:104EB0008111F8CF11C08091E8008B770BC08091F1
:104EC0003602882349F08091E80080FFF8CF809176
:104ED000E8008E778093E80008952091E4003091F7
:104EE000E50095E64091EC00842F817040FF22C0E0
:104EF0008091E80080FD1CC080913602882391F0EB
:104F0000853091F08091EB0085FD10C04091E40068
:104F10005091E5004217530729F39A01915011F778
:104F200084E0089582E0089583E0089581E0089583
:104F300080E008954091E80042FFDECF08950E948E
:104F40000D280E941528E0EEF0E0808181608083CA
:104F5000E8EDF0E080818F77808319BCA7EDB0E0A9
:104F60008C918E7F8C9380818F7E8083109235020E
:104F700008950F931F93CF93DF930E940D280E94F3
:104F80001528C8EDD0E088818F7788838881806874
:104F9000888388818F7D888319BC10923602109295
:104FA0003202109234021092330200EE10E0F80147
:104FB00080818B7F808388818160888342E060E08C
:104FC00080E00E941927E1EEF0E080818E7F8083EF
:104FD000E2EEF0E080818160808380818860808360
:104FE000F80180818E7F8083888180618883DF9152
:104FF000CF911F910F910895E8EDF0E080818F7EB1
:105000008083E7EDF0E080818160808384E082BF6F
:1050100081E0809335020C94B927E8EDF0E08081BF
:105020008E7F80831092E20008951092DA00109231
:10503000E10008951F920F920FB60F9211242F9343
:105040003F934F935F936F937F938F939F93AF9310
:10505000BF93EF93FF938091E10082FF0BC080919B
:10506000E20082FF07C08091E1008B7F8093E10026
:105070000E9431248091DA0080FF1FC08091D80007
:1050800080FF1BC08091DA008E7F8093DA008091D0
:10509000D90080FF0DC080E189BD82E189BD09B4DE
:1050A00000FEFDCF81E0809336020E940A2405C0F5
:1050B00019BC109236020E941C248091E10080FFEE
:1050C00019C08091E20080FF15C08091E2008E7FC0
:1050D0008093E2008091E20080618093E200809101
:1050E000D80080628093D80019BC85E08093360296
:1050F0000E9427248091E10084FF30C08091E2006B
:1051000084FF2CC080E189BD82E189BD09B400FE25
:10511000FDCF8091D8008F7D8093D8008091E100F1
:105120008F7E8093E1008091E2008F7E8093E20089
:105130008091E20081608093E200809132028823B6
:1051400011F084E007C08091E30087FD02C081E098
:1051500001C083E0809336020E942B248091E100FD
:1051600083FF29C08091E20083FF25C08091E10088
:10517000877F8093E10082E08093360210923202B2
:105180008091E1008E7F8093E1008091E2008E7F2C
:105190008093E2008091E20080618093E20042E02F
:1051A00060E080E00E9419278091F0008860809381
:1051B000F0000E942324FF91EF91BF91AF919F9146
:1051C0008F917F916F915F914F913F912F910F90B0
:1051D0000FBE0F901F9018951F920F920FB60F924F
:1051E00011242F933F934F935F936F937F938F93EC
:1051F0009F93AF93BF93CF93DF93EF93FF93C091B0
:10520000E900CF708091EC00D82FD17080FDD0E8FC
:105210001092E9008091F000877F8093F0007894ED
:105220000E9430291092E9008091F00088608093FC
:10523000F000CD2BCF70C093E900FF91EF91DF918B
:10524000CF91BF91AF919F918F917F916F915F911E
:105250004F913F912F910F900FBE0F901F90189577
:105260001F93CF93DF93CDB7DEB7AA970FB6F8940D
:10527000DEBF0FBECDBFE7E3F2E088E08E0F909176
:10528000F10091938E13FBCF0E948B248091E80054
:1052900083FF28C18091370290913802492F50E056
:1052A0004A30510508F01EC1FA01E556FF4F0C9433
:1052B000F62B803821F0823809F014C108C08091A3
:1052C000330290913402992389F082600FC080915B
:1052D0003B028F70873008F005C18093E900809110
:1052E000EB0085FB882780F91092E9009091E80097
:1052F000977F9093E8008093F1001092F100D0C066
:10530000282F2D7F09F0EEC0882319F0823061F03C
:10531000E9C080913902813009F0E4C0933009F08E
:1053200080E0809334022EC08091390281112AC01E
:1053300080913B028F702FEF280F263008F0D2C0EB
:105340008093E9002091EB0020FF1CC0933021F4F2
:105350008091EB00806214C09091EB00906190937B
:10536000EB0021E030E0A90102C0440F551F8A95EF
:10537000E2F74093EA001092EA008091EB00886027
:105380008093EB001092E9008091E800877F809382
:10539000E8000E944E27A6C08111A4C010913902D6
:1053A0001F778091E3008078812B8093E3008091C8
:1053B000E800877F8093E8000E944E278091E800F4
:1053C00080FFFCCF8091E30080688093E30011119F
:1053D00002C082E001C083E08093360283C080581F
:1053E000823008F07FC08091390290913A028C3D62
:1053F00053E0950779F583E08A838AE289834FB782
:10540000F894DE01139620E03EE051E2E32FF0E055
:1054100050935700E49120FF03C0E295EF703F5F87
:10542000EF708E2F90E0EA3010F0C79601C0C09662
:105430008D939D932F5F243149F74FBF8091E800F2
:10544000877F8093E8006AE270E0CE0101960E94B7
:10545000552615C060913B0270913C02AE014F5F32
:105460005F4F0E948425BC01892BE1F19091E800F7
:10547000977F9093E80089819A810E94B826809155
:10548000E8008B778093E8002DC0803859F5809133
:10549000E800877F8093E800809132028093F100DA
:1054A0008091E8008E7773CF81111CC090913902F2
:1054B0009230C0F48091E800877F8093E800909359
:1054C00032020E944E2780913202811106C08091E3
:1054D000E30087FD02C081E001C084E080933602D2
:1054E0000E9472248091E80083FF0AC08091E80046
:1054F000877F8093E8008091EB0080628093EB00CF
:10550000AA960FB6F894DEBF0FBECDBFDF91CF9144
:105510001F910895CF93809136028823A1F0C09106
:10552000E900CF709091EC00892F817090FD80E8A8
:10553000C82B1092E9008091E80083FD0E94302979
:10554000CF70C093E900CF9108950E94AC2A68946F
:10555000B1110C943B2B08950E94202B88F09F578B
:1055600098F0B92F9927B751B0F0E1F0660F771F87
:10557000881F991F1AF0BA95C9F714C0B13091F07D
:105580000E943A2BB1E008950C943A2B672F782FA4
:105590008827B85F39F0B93FCCF386957795679542
:1055A000B395D9F73EF490958095709561957F4FAE
:1055B0008F4F9F4F0895E89409C097FB3EF4909554
:1055C0008095709561957F4F8F4F9F4F9923A9F0DC
:1055D000F92F96E9BB279395F6958795779567956B
:1055E000B795F111F8CFFAF4BB0F11F460FF1BC0AF
:1055F0006F5F7F4F8F4F9F4F16C0882311F096E942
:1056000011C0772321F09EE8872F762F05C06623EF
:1056100071F096E8862F70E060E02AF09A95660FA8
:10562000771F881FDAF7880F9695879597F9089561
:1056300057FD9058440F551F59F05F3F71F0479543
:10564000880F97FB991F61F09F3F79F08795089528
:10565000121613061406551FF2CF4695F1DF08C047
:10566000161617061806991FF1CF86957105610564
:1056700008940895E894BB2766277727CB0197F90C
:1056800008950E94542B0C94C52B0E94B72B38F020
:105690000E94BE2B20F0952311F00C94AE2B0C949D
:1056A000B42B11240C943B2B0E94182B70F3959F64
:1056B000C1F3950F50E0551F629FF001729FBB2709
:1056C000F00DB11D639FAA27F00DB11DAA1F649FA5
:1056D0006627B00DA11D661F829F2227B00DA11D58
:1056E000621F739FB00DA11D621F839FA00D611DDE
:1056F000221F749F3327A00D611D231F849F600DFF
:10570000211D822F762F6A2F11249F5750409AF027
:10571000F1F088234AF0EE0FFF1FBB1F661F771FB3
:10572000881F91505040A9F79E3F510580F00C947E
:10573000AE2B0C943B2B5F3FE4F3983ED4F386955D
:1057400077956795B795F795E7959F5FC1F7FE2B1E
:10575000880F911D9695879597F9089597F99F67FA
:1057600080E870E060E008959FEF80EC08950024E9
:105770000A941616170618060906089500240A94B6
:1057800012161306140605060895092E0394000C3C
:1057900011F4882352F0BB0F40F4BF2B11F460FFCB
:1057A00004C06F5F7F4F8F4F9F4F0895991B79E023
:1057B00004C0991F961708F0961B881F7A95C9F7A1
:1057C0008095089597FB072E16F4009407D077FD77
:1057D00009D00E94FC2B07FC05D03EF490958195E2
:1057E0009F4F0895709561957F4F0895EE0FFF1FAD
:1057F0000590F491E02D0994AA1BBB1B51E107C051
:10580000AA1FBB1FA617B70710F0A61BB70B881F50
:10581000991F5A95A9F780959095BC01CD010895DF
:10582000F999FECF92BD81BDF89A992780B5089568
:10583000A8E1B0E042E050E00C94382C262FF99912
:10584000FECF92BD81BDF89A019700B4021639F0DF
:105850001FBA20BD0FB6F894FA9AF99A0FBE0895B0
:105860000196272F0E941F2C0C941E2CDC01CB01CB
:10587000FC01F999FECF06C0F2BDE1BDF89A319660
:1058800000B40D9241505040B8F70895F894FFCFFE
:10589000D4012808140A321EB522B6238B235523BF
:1058A0001B230101020304050607080900404D36C9
:1058B0002239CF0C820C4C0C2A0CF10B640B7D0BA3
:0658C000960BAF0BCF0BAD
:00000001FF
