:100000000C9447060C948E060C948E060C948E0667
:100010000C948E060C948E060C948E060C948E0610
:100020000C948E060C948E060C94DD260C94AF274F
:100030000C94081A0C948E060C948E060C948E0662
:100040000C948E060C948E060C948E060C948E06E0
:100050000C948E060C947C1A0C948E060C948E06CE
:100060000C948E060C948E060C948E060C948E06C0
:100070000C948E060C948E060C948E060C948E06B0
:100080000C948E060C948E060C948E060C948E06A0
:100090000C948E060C948E060C948E060C948E0690
:1000A0000C948E060C948E060C948E06D008D20802
:1000B000DD08D408D608D808DA08DC08DF08E1082B
:1000C000E308EE08E508E708E908EB08ED08F008A2
:1000D0002D0F2D0F670F670FA60FC60F391139119E
:1000E00008103911B810B8102B113911391133110A
:1000F000C510C510C510C510C510C510C510C51058
:10010000C510C510C510C510C510C510C510C51047
:10011000D710E510EC10F310FD10CC11CC11DE114E
:10012000DE11D511DE11DE11DE11CC11CC11DA1188
:10013000DE11DE11DA111C28432835294328352920
:100140008F28B2283529082917290A002530313689
:1001500062003A200025303258000A722F632030A6
:100160003132333435363738394142434445460A13
:100170000014001A000800150017001C0018000CDD
:10018000001200130004001600070009000A000B0B
:10019000000D000E000F0033001D001B00060019AB
:1001A000000500110010003600370038000000354F
:1001B0000029002B002A004C00E20050004F0000F4
:1001C0000000003400E3002C42E000E1002841522E
:1001D00000510000001E021F022002210222022301
:1001E0000224022502260227020100010034023502
:1001F00002010031022D022E022F02300201000105
:100200000034003500010031002D002E002F003099
:100210000001000100010001000100010001004A8D
:10022000004B00000000000100010001000100017E
:100230000001004D004E0000001E001F00200021A4
:10024000002200230024002500260027003A003B5E
:10025000003C003D003E003F002100220023000141
:10026000004000410042004300440045001E001FC2
:100270000020000100000001000100010001000158
:100280000001000100010000000000010001000168
:10029000000100010001000100010000000A4445C6
:1002A0004255473A20656E61626C65642E0A000A09
:1002B000002530325820006B6579626F6172645F8F
:1002C0007265706F72743A20000A0025303258004F
:1002D0006B6579626F6172645F7365745F6C65648E
:1002E0003A20004F6E6573686F743A2074696D65CB
:1002F0006F75740A0064656C5F6B65795F62697421
:100300003A2063616E27742064656C3A2025303290
:10031000580A006164645F6B65795F6269743A20B2
:1003200063616E2774206164643A20253032580A74
:1003300000290A002575002F002575005D2800257D
:10034000640020002564002000256400200025644E
:10035000007C0025303258006D6F7573656B6579D0
:10036000205B62746E7C782079207620685D28722C
:1003700065702F61636C293A205B006D6B5F776855
:1003800065656C5F74696D655F746F5F6D61782022
:100390003D2025640A006D6B5F776865656C5F6D55
:1003A00061785F7370656564203D2025640A006D87
:1003B0006B5F74696D655F746F5F6D6178203D2060
:1003C00025640A006D6B5F6D61785F7370656564AD
:1003D000203D2025640A006D6B5F696E746572763E
:1003E000616C203D2025640A006D6B5F64656C6163
:1003F00079203D2025640A006D6B5F776865656C28
:100400005F74696D655F746F5F6D6178203D202555
:10041000640A006D6B5F776865656C5F6D61785F1E
:100420007370656564203D2025640A006D6B5F7400
:10043000696D655F746F5F6D6178203D2025640A8A
:10044000006D6B5F6D61785F7370656564203D2042
:1004500025640A006D6B5F696E74657276616C204D
:100460003D2025640A006D6B5F64656C6179203DF9
:100470002025640A000A00257500363A2077686551
:10048000656C5F74696D655F746F5F6D61783A204C
:10049000000A00257500353A20776865656C5F6D48
:1004A00061785F73706565643A20000A0025750005
:1004B000343A2074696D655F746F5F6D61783A20BE
:1004C000000A00257500333A206D61785F7370650E
:1004D00065643A20000A00257500323A20696E747E
:1004E000657276616C286D73293A20000A002575C3
:1004F00000313A2064656C6179282A31306D7329A6
:100500003A20000A092D2056616C756573202D0A6A
:10051000004D3E004D25643E20003F007365742071
:1005200064656661756C740A00433E2000776865F7
:1005300072652064656C74613A20637572736F72C2
:100540003D25642C20776865656C3D25640A5365FC
:100550006520687474703A2F2F656E2E77696B6909
:1005600070656469612E6F72672F77696B692F4DB3
:100570006F7573655F6B6579730A000A092D204DED
:100580006F7573656B6579202D0A4553432F713A5A
:1005900009717569740A313A0964656C6179282AB0
:1005A00031306D73290A323A09696E746572766169
:1005B0006C286D73290A333A096D61785F73706531
:1005C00065640A343A0974696D655F746F5F6D61C3
:1005D000780A353A09776865656C5F6D61785F7395
:1005E000706565640A363A09776865656C5F746999
:1005F0006D655F746F5F6D61780A0A703A09707299
:10060000696E742076616C7565730A643A09736566
:10061000742064656661756C74730A75703A092B91
:10062000310A646F776E3A092D310A706775703A36
:10063000092B31300A7067646F776E3A092D3130BB
:100640000A0A7370656564203D2064656C746120DE
:100650002A206D61785F7370656564202A20287296
:100660006570656174202F2074696D655F746F5FBC
:100670006D6178290A003F004D3E2000433E200076
:100680004C25640A0074696D65725F72656164333C
:100690003228293A202530346C580A006B65796D70
:1006A00061705F636F6E6669672E6E6B726F3A2062
:1006B00025580A006B6579626F6172645F69646CCA
:1006C000653A2025580A006B6579626F6172645F34
:1006D00070726F746F636F6C3A2025580A00686FF0
:1006E00073745F6B6579626F6172645F6C6564736C
:1006F00028293A2025580A000A092D2053746174CC
:100700007573202D0A004743433A20342E392E3288
:10071000204156522D4C4942433A20312E382E303A
:1007200073766E204156525F415243483A206176BB
:1007300072350A004F5054494F4E533A204C55469B
:1007400041204D4F5553454B455920455854524132
:100750004B455920434F4E534F4C4520434F4D4D31
:10076000414E44204E4B524F20343039360A00421D
:1007700055494C443A2022302E352E39302D39330C
:100780002D676265393965632D6469727479222039
:100790002831353A35313A333620417567202033D8
:1007A0002032303137290A005649443A2030784601
:1007B00045454428756E6B6E6F776E29205049440D
:1007C0003A20307836303630284D69746F7369734B
:1007D00029205645523A203078303030310A0044D2
:1007E0004553433A20712E6D2E6B2E206B65796236
:1007F0006F617264206669726D7761726520666FE1
:1008000072204D69746F7369730A000A092D2056AE
:10081000657273696F6E202D0A000A092D20436FDF
:100820006E736F6C65202D0A4553432F713A097121
:100830007569740A6D3A096D6F7573656B65790A30
:10084000000A092D204D61676963202D0A443A0989
:100850004465627567204D65737361676520546FE9
:1008600067676C650A583A094D617472697820446B
:1008700065627567204D6F646520546F67676C65AE
:10088000202D2053686F77206B65797072657373C4
:10089000657320696E206D61747269782067726972
:1008A000640A4B3A094B6579626F61726420446552
:1008B00062756720546F67676C65202D2053686FE1
:1008C00077206B65797072657373207265706F72D3
:1008D000740A4D3A094465627567204D6F757365FA
:1008E00020546F67676C650A563A095665727369DA
:1008F0006F6E0A533A095374617475730A433A0967
:10090000416374697661746520436F6E736F6C65C3
:10091000204D6F64650A46312D4631303A095377D0
:100920006974636820746F204C6179657220302D82
:10093000392028463130203D204C30290A302D39CD
:100940003A0953776974636820746F204C61796544
:100950007220302D390A4553433A0953776974633D
:100960006820746F204C6179657220302028616C9A
:100970007465726E617465206B65792031290A4750
:10098000524156453A0953776974636820746F2061
:100990004C6179657220302028616C7465726E61DB
:1009A0007465206B65792032290A50415553453AC8
:1009B000094A756D7020746F20426F6F746C6F619F
:1009C00064657220285265736574290A4E3A094E8F
:1009D0004B524F20546F67676C650A003F004E4BC7
:1009E000524F3A206F66660A004E4B524F3A206FC4
:1009F0006E0A000A6D6F7573653A206F66660A00AD
:100A00000A6D6F7573653A206F6E0A000A6B65791F
:100A1000626F6172643A206F66660A000A6B6579DC
:100A2000626F6172643A206F6E0A000A6D617472BF
:100A300069783A206F66660A000A6D617472697897
:100A40003A206F6E0A000A64656275673A206F6625
:100A5000660A000A64656275673A206F6E0A000ACA
:100A60000A4A756D70696E6720746F20626F6F74CB
:100A70006C6F616465722E2E2E2000433E20005B59
:100A8000735D004B6579626F61726420737461728B
:100A9000742E0A005B575D005B535D005B525D0086
:100AA0005B445D005B435D0010034D006900740012
:100AB0006F007300690073000000100375006E0082
:100AC0006B006E006F0077006E00000004030904E5
:100AD00009028D00050100A0FA09040000010301CC
:100AE00001000921110100012240000705810308CE
:100AF000000A09040100010301020009211101009B
:100B000001224D000705820308000A0904020001C2
:100B100003000000092111010001223600070583AE
:100B20000308000A09040300020300000009211160
:100B300001000122220007058403200001070504AB
:100B40000320000109040400010300000009211131
:100B50000100012239000705850320000112011060
:100B60000100000008EDFE606001000102000105C7
:100B7000010906A101050719E029E71500250195DE
:100B8000087501810205081901290595057501916E
:100B9000029501750391010507190029F715002534
:100BA0000195F875018102C00631FF0974A10109A0
:100BB00075150026FF00952075088102097615003D
:100BC00026FF00952075089102C005010980A1014A
:100BD00085021601002603001A81002A8300751081
:100BE00095018100C0050C0901A1018503160100D2
:100BF000269C021A01002A9C02751095018100C0F2
:100C000005010902A1010901A10005091901290530
:100C10001500250195057501810295017503810176
:100C20000501093009311581257F95027508810676
:100C300009381581257F950175088106050C0A384C
:100C4000021581257F950175088106C0C00501093F
:100C500006A101050719E029E7150025019508758A
:100C60000181029501750881010508190129059581
:100C70000575019102950175039101050719002978
:100C8000FF150026FF00950675088100C00011249D
:100C90001FBECFEFDAE0DEBFCDBF04B603FE27C034
:100CA00080913C0290913D02A0913E02B0913F02A2
:100CB0008730904BA740B04BD1F410923C02109279
:100CC0003D0210923E0210923F0214BE84B7877F0D
:100CD00084BF0FB6F894A8958091600088618093D6
:100CE0006000109260000FBEE0E0F8E3099511E0AB
:100CF000A0E0B1E0E6E1F6E502C005900D92A63372
:100D0000B107D9F722E0A6E3B1E001C01D92AC33F0
:100D1000B207E1F70E9400240C94092B0C94000008
:100D2000FF93EF93E0913601F0913701309709F08E
:100D30000995EF91FF910895FC018591803011F0A4
:100D4000EFDFFBCF0895FF27E0E230E247FF0CC062
:100D5000419597FF09C0EDE260957095809590955B
:100D6000611D711D811D911D27FF02C0219530E37A
:100D700050E2AA27660F771F881F991FAA1FA41782
:100D800010F0A41B63955A95A9F7AA3008F0A95F43
:100D9000A05DAF93F395611571058105910541F74C
:100DA000ED3211F4EF93F395F21718F43F93F395A6
:100DB000FBCF8F91B5DFFA95E1F70895E991F991AD
:100DC0008591803021F0853219F0AADFF9CF08959E
:100DD00020E0E89455915532C1F3503311F46894F2
:100DE00055915A3348F4505390F3220F022E220F9C
:100DF000220F200D250FF4CF0EF4219589919991A2
:100E0000533619F3533729F1533559F1BC0188276B
:100E10009927E8945C3621F48991999168945591C9
:100E2000543639F446EF7EF077FF0DC08FEF9FEF19
:100E30000AC055374AE039F0583540E121F05236C2
:100E400042E009F00895FF93EF937DDFEF91FF916A
:100E5000B7CFFF93EF93FC0181918030B9F360DF4E
:100E6000FBCFFF93EF9368DFF1CFDF93CF93CDB745
:100E7000DEB72596A3DFCF91DF91089508950C94F6
:100E80007E09CF93DF93CDB7DEB72B970FB6F894DB
:100E9000DEBF0FBECDBF1092CC001092CD0088E116
:100EA0008093C90086E08093CA0083E78093CE00D8
:100EB000FE0131968BE0DF011D928A95E9F7DF0193
:100EC00040E050E0BA018BE08E0F9091C80097FD92
:100ED0000AC04F5F5F4F6F4F7F4F413197E2590715
:100EE0006105710590F39091CE009D938A13EDCF2B
:100EF0008B85803E91F4A8E3B1E09E01255F3F4FD2
:100F0000818140E2849FC00111244081842B8D9314
:100F10009D933296E217F30799F70E94800981E0CA
:100F20002B960FB6F894DEBF0FBECDBFDF91CF91E9
:100F30000895E82FF0E0EE0FFF1FE85CFE4F808180
:100F400091810895CF92DF92EF92FF920F931F93BA
:100F5000CF93DF938AE591E00E949C0688E3E82E18
:100F600081E0F82EC0E0D0E095E5C92E91E0D92EC1
:100F70000CE411E0DF93CF93DF92CF920E9435070C
:100F800082E591E00E949C06F701819191917F0199
:100F90000E94D3189F938F931F930F930E9435073E
:100FA0008AE491E00E949C0621968DB79EB7089630
:100FB0000FB6F8949EBF0FBE8DBFC530D105D1F6D8
:100FC000DF91CF911F910F91FF90EF90DF90CF9025
:100FD00008951092CC001092CD0088E18093C90052
:100FE00086E08093CA000895519A599A80B380632D
:100FF00080BB81B3806381BB08950E943E070E943D
:10100000E9070C94F4070C94060808956091C30155
:101010007091C4018091C5019091C6010E946D1824
:10102000813051F018F0823019F008958D9A05C082
:101030008D9A599A8C9808958D98599A8C9A0895FA
:1010400081E0089581E008950C9422080E94BA116D
:101050002FEF84E39CE0215080409040E1F700C0F6
:10106000000087E797E790930108809300080C94AD
:10107000A21AFF920F931F93CF93DF938C01FC0171
:10108000C081D18180916701811113C08281882341
:1010900049F0CE010E94D916F82E682FCE010E9489
:1010A0007E1604C0CE010E94AD16F82EBE018F2D13
:1010B00004C0CE010E94D916BE010E948809EC012D
:1010C000B8010E942408882309F411C1B801CE0197
:1010D0000E94F50B882309F40AC1C531FCE5DF073E
:1010E00009F5F8018281811103C0CDE4D7E102C086
:1010F000C6E4D7E10E94DE178A7A11F489E201C0C2
:1011000085E3FE0109950E94211881E08093460144
:1011100080934701C801DF91CF911F910F91FF90FC
:101120000C942008C6318CE5D80708F075C0C13092
:10113000ECE5DE0779F4F8018281882309F4D7C051
:101140008DE992E00E949C068091F4018160809379
:10115000F401CDC0C230FCE5DF0708F451C0F8014E
:1011600082818823B9F20E940719811102C00E946E
:10117000ED180E941A1990E090932E0280932D0290
:10118000FE01E350FC45E231F10530F4EA5AFF4F2D
:1011900080912D020C94B92A80912D02816027C084
:1011A000826025C0846023C0806121C080621FC02E
:1011B00080641DC080681BC08460886018C08E7FFA
:1011C00016C08D7F14C08B7F12C08F7E10C08F7DA4
:1011D0000EC08F7B0CC08F770AC08B7F877F07C0C4
:1011E00087FB222720F991E0922790FB87F98093D3
:1011F0002D0280912D020E941E190E94BA1177C003
:10120000C115DC4509F081CFF8018281882309F4FA
:101210006EC00E9426086BC0C93CECE5DE0739F5BC
:10122000F8018281882361F0109247010E943A1AE6
:10123000909345018093440180E20E94E00E57C0E4
:101240008091470181110FC0809144019091450127
:101250000E94521A883C910530F487E20E94F90DF1
:1012600087E20E94B40E80E20E94E70E40C0CA3CB2
:10127000FCE5DF0738F5C83CDC4509F046CFF8014E
:101280008281882351F0109246010E943A1A90936D
:1012900043018093420182E0D0CF809146018111C9
:1012A0000FC080914201909143010E94521A883CE4
:1012B000910530F486E20E94F90D86E20E94B40E98
:1012C00082E0D2CFCC3CECE5DE0731F4F80182813C
:1012D000882369F080E009C0CD3CDC4509F015CFDA
:1012E000F8018281882319F082E00E94A02480E026
:1012F000DF91CF911F910F91FF9008950C94FD07FE
:101300000C9403080C94050880E090E0089508957B
:101310009AE0799FF001112492E3899FE00DF11D7D
:101320001124E60FF11DEE0FFF1FEF58FE4F8591C0
:1013300094910895880F991FFC01EF58FE4F8591F5
:1013400094910895CF93DF932AE0729FF0011124C6
:1013500042E3849FE00DF11D1124E60FF11DEE0F15
:10136000FF1FEF58FE4F859194910E944B0BEC01AB
:10137000811550E49507B8F5811560E3960708F0EC
:10138000E3C0803E9105D0F4803C910508F071C027
:10139000883A910570F4853A910508F06DC0813066
:1013A000910509F474C108F42BC1049708F06FC1CA
:1013B00027C18D3B910508F46AC022C18F3F91057A
:1013C00009F048F4803F910508F0B8C0883E9105C7
:1013D00008F45DC115C1C11580E2D80708F457C1F2
:1013E000CE019F70ADC0C11594E5D907D8F4C115E1
:1013F00023E5D20708F0E3C0C11541E5D40740F466
:10140000C11550E5D50708F0A8C0DF70D06A3FC10C
:10141000C11562E5D60708F0BCC0DC2FCC27C16F30
:10142000D06A35C1C11586E5D80750F4C11595E5D8
:10143000D90708F0DAC0DC2FCC27C46FD06A27C1E7
:10144000C11528E5D20708F4DBC0C11549E5D4076A
:1014500008F4D1C0CE0190568115904208F0D0C05A
:101460008D2F8F710E94C80BDD27D0628F71D82B12
:101470000EC1805C910964C0853A910509F4C3C02E
:10148000863A910509F0C2C0C2E8D0E400C1883AAA
:10149000910509F4BEC0893A910509F4BDC08A3AA4
:1014A000910509F4BCC08B3A910509F4BBC08C3A94
:1014B000910509F4BAC08B3B910509F4B9C08C3B86
:1014C000910509F4B8C08D3A910509F4B7C0803B85
:1014D000910509F4B6C08E3A910509F4B5C08F3A6A
:1014E000910509F4B4C0813B910509F4B3C0823B76
:1014F000910509F4B2C0833B910509F4B1C0843B66
:10150000910509F4B0C0853B910509F4AFC0863B55
:10151000910509F4AEC0873B910509F4ADC0883B45
:10152000910509F4ACC0893B910509F4ABC08A3B35
:10153000910509F4AAC0C0E0D4E4A9C0D065A7C051
:101540000E949A09EC01A3C09927D3FF03C0EC01C4
:10155000D86C9DC0EC01D06C9AC02C2F237081E018
:1015600090E002C0880F991F2A95E2F79C689E01BF
:1015700044E0369527954A95E1F72370922BCF707A
:10158000C695C69560E2C69FE0011124C82BD92BF1
:101590007EC02C2F2695269580E2289F900111244D
:1015A000C370DD2781E090E0AC0102C0440F551FFD
:1015B000CA95E2F7EA01C22BD32BDC6868C02C2F56
:1015C0002695269580E2289F90011124C370DD277F
:1015D00081E090E0AC0102C0440F551FCA95E2F7CC
:1015E000EA01C22BD32BDA6852C0CF71DD27DC2F82
:1015F000CC27D0624CC0DC2FCC27C06FD06A47C04C
:10160000C0E0D0E044C0C1E8D0E441C0C3E8D0E4C9
:101610003EC0C2EED4E43BC0C9EED4E438C0CAEE4A
:10162000D4E435C0C5EBD4E432C0C6EBD4E42FC05B
:10163000C3EBD4E42CC0C4EBD4E429C0C7EBD4E49E
:1016400026C0CCECD4E423C0CDECD4E420C0C3E865
:10165000D5E41DC0CAE8D5E41AC0C2E9D5E417C074
:10166000C4E9D5E414C0C1E2D6E411C0C3E2D6E4B3
:101670000EC0C4E2D6E40BC0C5E2D6E408C0C6E2A0
:10168000D6E405C0C7E2D6E402C0CAE2D6E4CE0181
:10169000DF91CF9108958238910549F1B0F48133FB
:1016A000910509F458C048F48932910509F44EC0F7
:1016B0008A32910509F454C008958533910509F4DF
:1016C00040C08933910599F00895833E910529F131
:1016D00038F4803E910591F0823E9105A1F0089585
:1016E000863E9105F9F0873E910531F108952091EC
:1016F0002D0220FD3AC021FD38C0089580912D02B1
:1017000080FD35C032C080912D0282FF32C08091B1
:101710002D0284FD30C083EE39C080912D0282FD00
:1017200028C0F5CF80912D0283FF27C080912D0224
:1017300084FD21C087EE2AC080912D0283FD1DC04B
:10174000F5CF80912D0285FD1AC01BC080912D021E
:1017500085FD17C014C080912D0286FD14C015C0F0
:1017600080912D0286FD11C00EC080EE0FC089E36E
:101770000DC082EE0BC080E009C086EE07C089E292
:1017800005C085E303C08AE201C081E390E00895CB
:10179000CF93C82F0E941A1990E090932E02809345
:1017A0002D0282FF0DC09C2F9871983019F4C77FCD
:1017B000C46006C09C2F9471943011F4CB7FC86034
:1017C00083FF0DC09C2F9871983119F4C77EC461B6
:1017D00006C09C2F9471943111F4CB7EC86184FDB6
:1017E000C77E8C2FCF91089508950F931F93CF93A9
:1017F000FB012281211102C0C1E041C08C01C091D6
:101800005501C11125C086319C45B1F70E94F40BEA
:1018100081E0809355010E943A1A9093540180937D
:1018200053011092480110924A01109249011092FE
:101830004C0110924B0110924E0110924D011092EA
:10184000500110924F01109252011092510117C095
:1018500080915301909154010E94521A883C910545
:1018600058F690914801E92FF0E0EE0FFF1FE75B7B
:10187000FE4F118300839F5F90934801C0E08C2F3F
:10188000CF911F910F91089590935B0180935A011E
:101890000895E0915A01F0915B01309721F0019099
:1018A000F081E02D099480E00895EF92FF920F936C
:1018B0001F93CF93DF93E0915A01F0915B01309732
:1018C000B1F18C010280F381E02D09958091F40142
:1018D00082FF2DC080FF04C087EB92E00E949C062F
:1018E000E80110E281EBE82E82E0F82E8091F4010D
:1018F00080FF0BC088811F928F93FF92EF920E940E
:1019000035070F900F900F900F90115021961111E5
:10191000EDCF8091F40180FF0AC08FEA92E0DF9161
:10192000CF911F910F91FF90EF900C949C06DF9147
:10193000CF911F910F91FF90EF900895E0915A0180
:10194000F0915B01309721F00480F581E02D09943E
:10195000089520915801309159018217930771F031
:101960009093590180935801E0915A01F0915B01E5
:10197000309721F00680F781E02D09940895209199
:101980005601309157018217930771F090935701D8
:1019900080935601E0915A01F0915B01309721F05C
:1019A0000084F185E02D0994089508950C94D50CD8
:1019B0000E94311A0E943F070C94B31ACF93C82F8C
:1019C0008091F40182FF1EC080FF04C080ED92E090
:1019D0000E949C068091F40180FF0CC01F92CF935F
:1019E0008BEC92E09F938F930E9435070F900F909E
:1019F0000F900F908091F40180FF04C089EC92E079
:101A00000E949C068C2FCF910C9482094F925F927A
:101A10007F928F929F92AF92BF92CF92DF92EF927E
:101A2000FF920F931F93CF93DF93CDB7DEB72A9723
:101A30000FB6F894DEBF0FBECDBF0E9441079DE5F3
:101A4000C92E91E0D92E00E010E0AA24A394B12C75
:101A5000702E802F0E9499074C01F6014190519001
:101A60006F014826592641145104B1F40F5F1F4FEE
:101A70000530110569F78FEF89838A831B820E94E5
:101A80003A1A8160782F9D838C8349815A816B81BA
:101A90008D810E94BF0D3AC08091F40181FD0E94AA
:101AA000A20720E030E07501022E02C0EE0CFF1C00
:101AB0000A94E2F7C70184219521892B09F12E832D
:101AC0007F828E209F2091E0892809F490E09887FA
:101AD0000E943A1A8160782F9A8789874E815F81A8
:101AE00068858A850E94BF0D000F111FF801E35A17
:101AF000FE4F80819181E826F926F182E08206C0BE
:101B00002F5F3F4F2A30310571F6B0CF0E94C81CBD
:101B100010915C010E94490C1817D9F00E94490CE1
:101B200080935C012A960FB6F894DEBF0FBECDBF3E
:101B3000DF91CF911F910F91FF90EF90DF90CF90A9
:101B4000BF90AF909F908F907F905F904F900C943C
:101B5000DE0C2A960FB6F894DEBF0FBECDBFDF9124
:101B6000CF911F910F91FF90EF90DF90CF90BF909A
:101B7000AF909F908F907F905F904F900895CF93FC
:101B8000DF93CDB7DEB72B970FB6F894DEBF0FBE4D
:101B9000CDBF4F83588769877A878B87DE0111967F
:101BA00086E0FD0111928A95E9F785E0FE013796FE
:101BB00001900D928A95E1F70E948117882319F010
:101BC00082E00E94BC170E94541781110E941A18CB
:101BD00049815A816B817C818D819E810E94521442
:101BE0002B960FB6F894DEBF0FBECDBFDF91CF911D
:101BF0000895CF93DF931F92CDB7DEB7882309F402
:101C0000AFC0682F8CEF860F813A70F4862F6983FE
:101C10000E94262069818111A3C0809100019091CA
:101C200001010E94A1190CC080E2860F883068F47F
:101C3000677081E001C0880F6A95EAF70E94E1179A
:101C40000F90DF91CF910C9421188BE5860F833094
:101C500088F4653A29F0663A31F083E890E005C0EF
:101C600081E890E002C082E890E00F90DF91CF9190
:101C70000C94A90C88E5860F853108F071C0683A8C
:101C800061F1693A69F16A3A71F16B3A79F16C3A4A
:101C900081F16B3B89F16C3B91F16D3A99F1603BBD
:101CA000A1F16E3AA9F16F3AB1F1613BB9F1623B32
:101CB000C1F1633BC9F1643BD1F1653BD9F1663BAE
:101CC000E1F1673BE9F1683BF1F1693BF9F16A3B0E
:101CD00009F43FC080E090E03EC082EE90E03BC05F
:101CE00089EE90E038C08AEE90E035C085EB90E058
:101CF00032C086EB90E02FC083EB90E02CC084EBE9
:101D000090E029C087EB90E026C08CEC90E023C0E7
:101D10008DEC90E020C083E891E01DC08AE891E05E
:101D20001AC082E991E017C084E991E014C081E211
:101D300092E011C083E292E00EC084E292E00BC018
:101D400085E292E008C086E292E005C087E292E078
:101D500002C08AE292E00F90DF91CF910C94BF0C09
:101D60000F90DF91CF910895882349F1682F8CEF70
:101D7000860F813A38F480910001909101010E9410
:101D8000AC190CC080E2860F883050F4677081E097
:101D900001C0880F6A95EAF70E94E7170C94211892
:101DA0008BE5860F833020F480E090E00C94A90C42
:101DB000685A653120F480E090E00C94BF0C0895DF
:101DC000882321F00E94E1170C942118089588239C
:101DD00021F00E94E7170C94211808954F925F920A
:101DE0006F927F92AF92BF92CF92DF92EF92FF926B
:101DF0000F931F93CF93DF931F92CDB7DEB77C0174
:101E0000A72EFC01058102950F701281112321F08C
:101E100069830E94FE17698169830E94D7176981CF
:101E2000882381F0112371F080E2860F883050F012
:101E300082E00E94BC170E94D71791E0B82EB92605
:101E4000698101C0B12CCA2CC2948FE0C822D12C68
:101E5000F601E859FF4F0C94B92A8A2D807F0A2D8C
:101E60000F70882311F00295007F1123C1F0002329
:101E700009F4DCC180E2860F883010F0611105C0E2
:101E8000802F69830E94E11704C0802F69830E941C
:101E9000F117698169830E9421186981C7C1862F62
:101EA00069830E94B40E6981002309F4E2C180E2D3
:101EB000860F883010F0611104C0802F0E94E71750
:101EC00003C0802F0E94F7170E942118D2C18A2DCB
:101ED000807F9A2D9F70803211F4892F03C0892F43
:101EE0008295807F662319F06130B1F01FC0112305
:101EF00049F0002309F452C1013009F04FC10E949A
:101F00001118B7C1002319F0013009F4B2C1898357
:101F10000E941A18898148C1112321F0063008F067
:101F2000A8C13CC1053008F0A4C13EC1112351F045
:101F3000002309F433C1F701958190FF77C19F70A9
:101F400095832CC1002309F42FC181C18A2D869568
:101F50008695837090E0009719F0019761F089C130
:101F6000112321F0862F9A2D937002C080E090E01B
:101F70000E94A90C8EC1112321F0862F9A2D9370F7
:101F800002C080E090E00E94BF0C83C11123F9F0F1
:101F9000653F51F0663F71F0643FA9F480912702DC
:101FA0009091280281600BC08091270290912802B5
:101FB000826005C0809127029091280284609093EE
:101FC000280280932702862F0E944E1B1EC0653F69
:101FD00051F0663F71F0643FA9F48091270290911F
:101FE00028028E7F0BC080912702909128028D7F5E
:101FF00005C080912702909128028B7F9093280240
:1020000080932702862F0E94B61B0E943B1C41C171
:102010008A2D837009F052C0111137C1862F829525
:1020200086958770880F880F962F9F70492E512CA8
:10203000612C712C082E04C0440C551C661C771CA6
:102040000A94D2F764FF14C00FE010E020E030E003
:10205000B901A80104C0440F551F661F771F8A9558
:10206000D2F7CB01BA01609570958095909503C029
:1020700060E070E0CB012A2D26952695237030E094
:102080002230310569F02330310589F06429752942
:10209000862997292130310571F00E949515F5C0E8
:1020A00064297529862997290E94A715EEC00E94E8
:1020B0009515C301B2010E948315E7C0112319F0E1
:1020C0008A2D817001C08695882309F4DEC0862F91
:1020D000829586958770880F880F962F9F70492E5E
:1020E000512C612C712C082E04C0440C551C661C0C
:1020F000771C0A94D2F764FF14C00FE010E020E0D0
:1021000030E0B901A80104C0440F551F661F771FB6
:102110008A95D2F7CB01BA0160957095809590951C
:1021200003C060E070E0CB012A2D26952695237030
:10213000422F50E04230510569F04330510589F09B
:1021400064297529862997294130510571F00E942B
:1021500059169BC064297529862997290E946B16F8
:1021600094C00E945916C301B2010E9447168DC047
:10217000862F90E0FC01E05EF109E531F10508F001
:1021800051C0E858FF4F0C94B92A062F0F708A2DC2
:102190008F71112331F00E94E015802F0E94E00E14
:1021A00068C00E940116802F0E94E70E62C01123B2
:1021B00041F0053008F05DC08A2D8F710E9426160F
:1021C00058C0063008F055C0F7CF112339F08A2DDA
:1021D0008F710E94E0154DC01123C9F38A2D8F71B4
:1021E0000E94011646C0112329F08A2D8F710E948A
:1021F000CB153FC00E94C6153CC0112351F01A2DCB
:102200001F71812F0E94E01563E0812F0E94AC179F
:1022100030C081E00E94BC17023058F182E00E9479
:10222000BC1727C0112331F0002389F2862F0E94AA
:10223000F90D1FC0002391F2693349F45FEF77EE87
:1022400083E0515070408040E1F700C00000862FCD
:102250000E94B40E0EC04A2D4F70C7010E9484091F
:102260000E94F61416C04A2D4F70C7010E948709BC
:1022700010C098E0C916D10441F05CF0FAE0CF1A22
:10228000D10822E0C216D10420F40E94490C0E9419
:102290008209BB2001F10E947D1780FD1CC0F7015F
:1022A00012820E9477170E94E015C7010E947B11DD
:1022B0000E9477170F90DF91CF911F910F91FF90A0
:1022C000EF90DF90CF90BF90AF907F906F905F9036
:1022D0004F900C9401160F90DF91CF911F910F91A9
:1022E000FF90EF90DF90CF90BF90AF907F906F9076
:1022F0005F904F9008950F931F93CF93DF93EC015E
:10230000888199812B813C81232BB9F09F3F11F467
:102310008F3F99F0CE010E943908882371F06881BF
:1023200079818A810E9423178C010E947D160E9468
:102330008015B801CE010E94EE0EDF91CF911F9162
:102340000F9108950E94FE170E940E1880910001BF
:10235000909101010E94B7190E9421180E946D1DE1
:102360000E943B1C80E090E00E94A90C80E090E07D
:102370000C94BF0C0E94EE170C94A2110E94181727
:10238000E92FE295EF70F0E03297EE30F105B0F40E
:10239000E357FF4F0C94B92A803F91F018F4803E28
:1023A00068F40EC0843F51F40BC0803E48F0813F7A
:1023B00029F406C093FB882780F9089580E00895EA
:1023C00081E00895CF93DF9300D000D01F92CDB766
:1023D000DEB70F900F900F900F900F90DF91CF917D
:1023E0000895CF93DF9300D000D000D0CDB7DEB7F3
:1023F00026960FB6F894DEBF0FBECDBFDF91CF910A
:1024000008951F93CF93DF93C091680116E08091E8
:102410006901C81799F0D0E01C9FF0011D9FF00DD5
:102420001124E659FE4F408151816281738184817C
:1024300095810E94F1112196C770E9CFDF91CF916C
:102440001F91089540919A0150919B0160919C01C8
:1024500070919D0180919E0190919F010C94F111CA
:1024600080919F0182958F7009F054C080919C01EA
:10247000882309F44FC080916801A091690160919F
:102480009A0170919B0140919D0150919E01B6E08F
:102490008A1709F43FC090E041155105C1F17F3F13
:1024A00011F46F3FA1F1B89FF001B99FF00D112415
:1024B000E659FE4F218172132AC02081621327C082
:1024C0002281211124C0238134812417350710F47F
:1024D00021503109241B350B283C3105C0F42091D3
:1024E0009F012F70206120939F0126E0289FF0011B
:1024F000299FF00D1124E159FE4F80818F7080617A
:1025000080838AE991E00E947B110C94011201966C
:102510008770BECF0895CF92DF92EF92FF920F9314
:102520001F93CF93DF93CDB7DEB762970FB6F894C2
:10253000DEBF0FBECDBF8C0185E0F801DE011D9628
:1025400001900D928A95E1F7D8014C9111965C911A
:10255000119712966C9112971396CD90DC90149768
:1025600030919A0170919B0180919D0190919E0103
:10257000009709F46BC17F3F19F43F3F09F466C12E
:10258000E0909C01EE2009F4C0C020919F01C81684
:10259000D90628F0F601E81BF90BCF0104C080959D
:1025A00090958C0D9D1DFF24F394883C910578F047
:1025B000F12C207F09F0C6C07C2DD98AC88A898970
:1025C0000E94E2118AE991E00E947B11B1C0822F42
:1025D000807F09F046C0751314C0341312C0611116
:1025E00010C02F70206120939F010E9422128AE95F
:1025F00091E00E947B1180919F01D80115968C93E8
:102600002EC0CD2819F15F3F11F44F3FF9F0F62E9F
:1026100061111CC0809168012091690136E0821728
:1026200009F45AC090E0389FF001399FF00D112451
:10263000E659FE4F7181571306C07081471303C0DE
:102640007281711103C001968770E9CFF62E66235F
:1026500009F418C180919F01816080939F01F12C42
:1026600011C1751308C0341306C0611104C08091F4
:102670009F01D801C3C04D875E878D859E856A8B7B
:102680000E94BE116A898823E1F16623D1F120916D
:102690009F01822F82958F7090E0029774F0809155
:1026A0009A0190919B0198878F831986DB86CA8651
:1026B0002C87CE0107960E947B1186E0F801AAE9DB
:1026C000B1E001900D928A95E1F70E9430120E94CC
:1026D0002212FF24F394D6C04D875E878D859E8598
:1026E0000E941817292F22952F7030E022303105D3
:1026F0000CF0BCC09F7009F0B6C0805E883008F452
:10270000C1C0C8010E947B11E4CFC816D90608F4E5
:1027100053C0F601E81BF90BCF01883C910508F482
:1027200050C0F12C7C2DD98AC88A89890E94E21177
:10273000EAE9F1E086E0DF011D928A95E9F70E945F
:102740002212A0C0751314C0341312C0611110C03E
:1027500080919F01F8018583C8010E947B1186E06A
:10276000EAE9F1E0DF011D928A95E9F7FE2C8AC0C3
:102770004D875E878D859E856A8B0E94BE116A8912
:10278000882309F4BECF662309F4BBCF20919F01B3
:10279000822F82958F7090E002970CF48ECF8091FB
:1027A0009A0190919B019A8389831B82DD82CC825E
:1027B0002E83CE0101967FCF809590958C0D9D1D27
:1027C000ACCFF62E662309F49CCF75132EC03413BC
:1027D0002CC020919F0120FD1FC0822F82958F70F9
:1027E000D9F0D80115962C9315978F3049F08F5F4B
:1027F000982F9295907F822F8F70892B15968C93AE
:10280000C8010E947B1186E0F801AAE9B1E00190BD
:102810000D928A95E1F793CF86E0F801AAE9B1E03D
:1028200001900D928A95E1F72DC04D875E878D85C9
:102830009E850E94BE11811140CF80919F018160D1
:1028400080939F01C8010E947B111CC0662309F47C
:1028500058CF4D875E878D859E850E94BE11882347
:1028600009F44FCF2ACF811148CF0CC02430310555
:102870000CF047CF9F7009F440CFF8019581907F0D
:1028800009F03BCF8F2D62960FB6F894DEBF0FBED6
:10289000CDBFDF91CF911F910F91FF90EF90DF900F
:1028A000CF9008951F93CF93DF93CDB7DEB72C97CA
:1028B0000FB6F894DEBF0FBECDBF4F835887698730
:1028C0007A878B879C87CE0107960E948B1288237C
:1028D00069F08F8198852A853B85232BF1F19F3FF5
:1028E00009F063C08F3F09F060C037C086E0FE0189
:1028F0003796DE01119601900D928A95E1F76F816E
:102900007885EA85FB85309741F17F3F11F46F3F71
:1029100021F12091690130E0C90101968770992762
:102920004091680150E08417950709F447C0698316
:102930007A83FD83EC8396E0929FD001939FB00D44
:102940001124A659BE4FFE01319601900D929A9521
:10295000E1F7809369010E94011216E080916801FD
:10296000909169018917C1F1189FC00111248659FE
:102970009E4F0E948B12882379F1E09168011E9F7F
:10298000F0011124E659FE4F40815181628173812B
:10299000848195810E94F1118091680190E00196F7
:1029A0008770992780936801D9CF4F8158856985B1
:1029B0007A858B859C850E94F111CFCF0E94BA1138
:1029C0001092690110926801EAE9F1E086E0DF0106
:1029D0001D928A95E9F7C1CF2C960FB6F894DEBF09
:1029E0000FBECDBFDF91CF911F910895EF92FF925F
:1029F0000F931F93CF93DF938C01892B09F46CC045
:102A0000F12CEE24E394E8012196F80184918437B7
:102A100040F4843008F051C0813081F0823019F1E7
:102A20005BC0853709F444C0A8F19CE7980F903744
:102A300008F052C08F770E94B40E41C00E5F1F4F46
:102A4000FE01C49180E28C0F883048F4C7708E2D4F
:102A500001C0880FCA95EAF70E94011814C08C2F94
:102A60000E94F90D2DC00E5F1F4FFE01C49180E240
:102A70008C0F883058F4C7708E2D01C0880FCA950E
:102A8000EAF70E9407180E9421181AC08C2F0E9492
:102A9000B40E16C00E5F1F4FFE01C491CC2381F00F
:102AA0008FE99FE00197F1F700C00000C150F6CF19
:102AB0000E5F1F4FFE01F49003C00E94F90D8E01BE
:102AC0008F2D882309F49FCFEFE9FFE03197F1F7CD
:102AD00000C000008150F5CFDF91CF911F910F9181
:102AE000FF90EF90089508950E9473156093C701B9
:102AF0007093C8018093C9019093CA010C94A211EC
:102B000008950C9474150F931F930091C7011091B1
:102B1000C8012091C9013091CA01602B712B822B11
:102B2000932B1F910F910C9474150F931F93009189
:102B3000C7011091C8012091C9013091CA016023D9
:102B40007123822393231F910F910C9474150F937B
:102B50001F930091C7011091C8012091C9013091C4
:102B6000CA0160277127822793271F910F910C9428
:102B7000741508950E94B9156093C3017093C40140
:102B80008093C5019093C6010C94A21160E070E09F
:102B9000CB010C94BA150F931F9341E050E060E015
:102BA00070E08A019B0104C0000F111F221F331F18
:102BB0008A95D2F7C901B8011F910F910C94BA15EB
:102BC0000F931F9341E050E060E070E004C0440FB9
:102BD000551F661F771F8A95D2F78091C301909188
:102BE000C401A091C501B091C6018A019B01082BC7
:102BF000192B2A2B3B2BC901B8011F910F910C9463
:102C0000BA150F931F9341E050E060E070E004C0FC
:102C1000440F551F661F771F8A95D2F74095509530
:102C2000609570958091C3019091C401A091C501F8
:102C3000B091C6018A019B01082319232A233B2353
:102C4000C901B8011F910F910C94BA150F931F93EE
:102C500041E050E060E070E004C0440F551F661F83
:102C6000771F8A95D2F78091C3019091C401A091FA
:102C7000C501B091C6018A019B01082719272A279F
:102C80003B27C901B8011F910F910C94BA150F93FE
:102C90001F930091C3011091C4012091C50130918F
:102CA000C601602B712B822B932B1F910F910C94DB
:102CB000BA150F931F930091C3011091C401209185
:102CC000C5013091C60160237123822393231F9194
:102CD0000F910C94BA150F931F930091C30110919B
:102CE000C4012091C5013091C60160277127822758
:102CF00093271F910F910C94BA1508952AE0929F83
:102D0000800D1124A82FA695A695A695877051E051
:102D100001C0550F8A95EAF785E0A89FD0011124DC
:102D200020E030E070E0F901EA0FFB1FE056FE4FB3
:102D30004081CB01022E02C0969587950A94E2F756
:102D400081709927819584278523842780832F5F2D
:102D50003F4F2530310539F708952AE0929F800DC5
:102D60001124682F669566956695982F977085E073
:102D7000689FB001112440E050E080E0FA01E60FC6
:102D8000F71FE056FE4F208130E0092E02C0369535
:102D900027950A94E2F721703327042E01C0220FF1
:102DA0000A94EAF7822B4F5F5F4F4530510531F7A8
:102DB0000895CF92DF92EF92FF920F931F93CF93DC
:102DC000DF938C01C090C701D090C801E090C90189
:102DD000F090CA018091C3019091C401A091C501F6
:102DE000B091C601C82AD92AEA2AFB2ACFE1D0E04D
:102DF000D701C6010C2E04C0B695A7959795879567
:102E00000A94D2F780FF06C0B8018C2F0E94A20955
:102E1000019721F4219760F780E001C08C2FDF91AA
:102E2000CF911F910F91FF90EF90DF90CF90089579
:102E3000CF93DF93EC010E94D916BE010E94A20934
:102E4000DF91CF9108951F93CF93DF93EB01909182
:102E50006701992321F0CB010E94181713C0882322
:102E600049F0CB010E94D916182F682FCE010E947D
:102E70007E1604C0CB010E94AD16182FBE01812F13
:102E80000E94A209DF91CF911F910895682F809130
:102E90000001909101010C94A119682F809100010B
:102EA000909101010C94AC190E943A1A2091CE0124
:102EB0003091CF018217930750F00E943A1A209167
:102EC000CE013091CF01821B930B9C010AC00E945E
:102ED0003A1A2091CE013091CF0120953095280FDC
:102EE000391F81E0243F314008F480E0089580914B
:102EF000CD0185958595859508958091CD01877043
:102F000008950E943A1A2091CB013091CC0182178A
:102F10009307A8F00E943A1A2091CB013091CC017E
:102F2000821B930B843F914010F480E013C080918A
:102F3000CD0182FB882780F991E089270BC00E9490
:102F40003A1A2091CB013091CC0120953095820F17
:102F5000931FE8CF8170089598E0899F9001112414
:102F6000262B2093CD010E94E0150E943A1A9093DF
:102F7000CC018093CB0108952091CD0180958223CF
:102F80008093CD01982F977089F430E0482F082E58
:102F9000000C550B2417350749F0859585958595C7
:102FA0000E9401161092CC011092CB0108959091CD
:102FB000CD01977081E009F480E008958091F301DC
:102FC00008959091F301892B8093F30108958095E2
:102FD0009091F30189238093F30108951092F301F6
:102FE00008959091F201892B8093F20108958095C4
:102FF0009091F20189238093F20108951092F201D9
:1030000008959091F101892B8093F10108958095A5
:103010009091F10189238093F10108951092F101BB
:1030200008958093D0010E943A1A9093CF01809323
:10303000CE0108951092D0011092CF011092CE01CE
:103040000895E0910001F09101018091F3018083E6
:10305000E0910001F091010190818091F201892BB2
:103060008083E0910001F091010190818091F10154
:10307000892B80838091D001882321F10E945417ED
:10308000882371F08091F40180FF08C083EE92E004
:103090009F938F930E9435070F900F900E941A18EC
:1030A000E0910001F091010190818091D001892B84
:1030B000808380910001909101010E942319811168
:1030C0000E941A1880910001909101010C94550CF6
:1030D00090933701809336010895CF92DF92EF925B
:1030E000FF926C01EE24FF24C114D104E104F10429
:1030F00021F0C701B60120E101C020E0C72ED82E83
:10310000E92EFF24C114D104E104F10419F0285F71
:10311000C701B6016B017C0154E0F694E794D794A3
:10312000C7945A95D1F7C114D104E104F10419F000
:103130002C5FC701B6016B017C0142E0F694E79475
:10314000D794C7944A95D1F7C114D104E104F1048E
:1031500019F02E5FC701B601DC01CB01B695A7952A
:1031600097958795892B8A2B8B2B09F02F5F822FC0
:10317000FF90EF90DF90CF9008958295982F9C7CE0
:10318000392F36953695282F237344E0249FC001AC
:103190001124932F982B292F2A7A2695892F85750C
:1031A000880F822B08951F93CF93DF931F92CDB783
:1031B000DEB799830E94BD18182F9981892F0E942C
:1031C000BD18212F30E0322F2227A901482BCA0138
:1031D0000F90DF91CF911F9108956DEE7EEF80E00B
:1031E00090E00E94F32A60E082E090E00E94E12AF1
:1031F00060E083E090E00E94E12A60E084E090E0FB
:103200000E94E12A60E085E090E00C94E12A80E0F1
:1032100090E00E94DB2A21E08D3E9E4F09F020E0E5
:10322000822F089582E090E00C94D32A83E090E00E
:103230000C94D32A84E090E00C94D32A682F84E085
:1032400090E00C94E12AFC0131969C01205E3F4FF6
:1032500080E0919191118F5FE217F307D1F7089504
:103260009C01FC0132969FEF80E04191461789F066
:103270009F3F19F4411101C0982F8F5F8E31A9F73C
:103280009F3F39F0F901E90FF11D97FDFA9562832F
:1032900008950895FC01329680962081261301C07E
:1032A00010823196E817F907C1F70895262F269561
:1032B000269526952F3170F4FC01E20FF11D677001
:1032C00021E030E001C0220F6A95EAF78181282BC6
:1032D000218308958091F40180FF0CC01F926F93A9
:1032E00083E193E09F938F930E9435070F900F9097
:1032F0000F900F900895262F2695269526952F310D
:1033000078F4FC01E20FF11D677021E030E001C0AC
:10331000220F6A95EAF72095818128232183089559
:103320008091F40180FF0CC01F926F9385EF92E0B3
:103330009F938F930E9435070F900F900F900F90DF
:10334000089520911201222329F020912D0227FDBA
:103350000C9456190C94301920911201222329F053
:1033600020912D0227FD0C947B190C944A19FC0125
:10337000319680961192E817F907E1F70895809148
:103380003302843039F11092F50120E488E190E0B5
:103390000FB6F894A895809360000FBE209360004C
:1033A00080E00E94820983B7817F846083BF83B7F6
:1033B000816083BF7894889583B78E7F83BF0FB673
:1033C000F894A895809160008861809360001092C5
:1033D00060000FBE089508950895CF930E94EB19E1
:1033E0000E9441070E94EC19C0E08C2F0E949907AF
:1033F000892B29F4CF5FC530C1F780E001C081E09F
:10340000CF9108950E94BA110E94490C0C94820930
:103410001F920F920FB60F9211248F939F93AF9329
:10342000BF938091F501811113C080912902909181
:103430002A02A0912B02B0912C024196A11DB11D30
:103440008093290290932A02A0932B02B0932C021E
:10345000BF91AF919F918F910F900FBE0F901F90D2
:10346000189582E084BD93E095BD9AEF97BD809357
:103470006E0008952FB7F8948091290290912A0246
:10348000A0912B02B0912C022FBF08952FB7F89472
:103490006091290270912A0280912B0290912C0256
:1034A0002FBF0895CF92DF92EF92FF920F931F9359
:1034B0002FB7F8944091290250912A0260912B0273
:1034C00070912C022FBF6A017B01EE24FF248C0136
:1034D00020E030E0C016D106E206F30610F44150B9
:1034E00051099A01281B390BC9011F910F91FF90B7
:1034F000EF90DF90CF90089578941F920F920FB6BF
:103500000F9211248F939F93AF93BF9380912902C1
:1035100090912A02A0912B02B0912C020196A11D3C
:10352000B11D8093290290932A02A0932B02B0939D
:103530002C02BF91AF919F918F910F900FBE0F9072
:103540001F90189587E797E79093010880930008EC
:103550009AE088E10FB6F894A895809360000FBEBA
:1035600090936000FFCF0E940719811102C00E9452
:10357000ED180E9412198093F4010E941A1990E02C
:1035800090932E0280932D020E941619682F70E0EE
:1035900080E090E00C9481158091F80180FF0BC0D1
:1035A0006091050185E0689FB001112475956795CC
:1035B000759567952BC081FF09C06091050185E075
:1035C000689FB00111247595679520C082FF07C0E0
:1035D0006091050185E0689FB001112417C09091AA
:1035E000F9019923D1F060910401961788F7209191
:1035F000050185E0289F90011124929FA001939FCF
:10360000500D112470E0CA010E94A52A603871058E
:1036100040F46115710539F002C065E070E0862F55
:1036200008958FE7089581E008958091F80180FF63
:1036300008C06091030170E0759567957595679571
:1036400021C081FF06C06091030170E07595679508
:1036500019C082FF04C06091030170E010C0909116
:10366000F9019923C1F0609102019617A0F78091AA
:103670000301899FC001112470E00E94A52A6038CF
:10368000710528F46115710521F0862F08958FE7E3
:10369000089581E0089561E070E0F4CF803F21F467
:1036A0000E94CC1A819504C0813F29F40E94CC1A53
:1036B0008093FC010895823F21F40E94CC1A8195E9
:1036C00004C0833F29F40E94CC1A8093FB01089523
:1036D000893F19F40E94151B05C08A3F31F40E94EE
:1036E000151B81958093FD0108958B3F21F40E9465
:1036F000151B819504C08C3F29F40E94151B8093F3
:10370000FE010895843F21F48091FA01816017C081
:10371000853F21F48091FA01826011C0863F21F437
:103720008091FA0184600BC0873F21F48091FA01F7
:10373000886005C0883F31F48091FA0180618093F0
:10374000FA0108958D3F21F48091F80181600BC04A
:103750008E3F21F48091F801826005C08F3F29F4EB
:103760008091F80184608093F8010895803F39F4D6
:103770008091FC0187FF6CC01092FC0169C0813F01
:1037800029F48091FC011816BCF362C09091FB01F2
:10379000823F29F497FF5CC01092FB0159C0833F20
:1037A00019F41916CCF354C0893F41F48091FD01FE
:1037B00018160CF04DC01092FD014AC08A3F29F442
:1037C0008091FD0187FF44C0F6CF8B3F39F4809193
:1037D000FE0187FF3DC01092FE013AC08C3F29F4E4
:1037E0008091FE011816BCF333C0843F21F4809110
:1037F000FA018E7F17C0853F21F48091FA018D7FF9
:1038000011C0863F21F48091FA018B7F0BC0873F66
:1038100021F48091FA01877F05C0883F31F48091BF
:10382000FA018F7E8093FA0113C08D3F21F48091BD
:10383000F8018E7F0BC08E3F21F48091F8018D7FBF
:1038400005C08F3F29F48091F8018B7F8093F801A8
:103850008091FB0181110EC08091FC0181110AC091
:103860008091FD01811106C08091FE01811102C08D
:103870001092F90108958091F40183FF7EC088E5DC
:1038800093E00E949C068091FA011F928F9383E53A
:1038900093E09F938F930E94350781E593E00E9408
:1038A0009C068091FB01282F082E000C330B3F93C0
:1038B0008F938EE493E09F938F930E9435078CE45F
:1038C00093E00E949C068091FC01282F082E000C9A
:1038D000330B3F938F9389E493E09F938F930E94E0
:1038E000350787E493E00E949C068091FD01282F14
:1038F000082E000C330B3F938F9384E493E09F9347
:103900008F930E94350782E493E00E949C06809189
:10391000FE01282F082E000C330B3F938F938FE36B
:1039200093E09F938F930E9435078CE393E00E946E
:103930009C068091F9011F928F9389E393E09F93F6
:103940008F930E94350787E393E00E949C06809145
:10395000F8011F928F9384E393E09F938F930E94CB
:10396000350781E393E00E949C068DB79EB74C9685
:103970000FB6F8949EBF0FBE8DBF8AEF91E00E94F4
:103980009E0C0E943A1A9093F7018093F6010895D5
:103990001F93CF93DF938091F6019091F7010E94DE
:1039A000521AAC019091F901992321F0209106015E
:1039B00030E006C0209107018AE0289F9001112481
:1039C0004217530708F485C08091FB01C091FC01A8
:1039D000D091FD011091FE01811107C0C11175C088
:1039E000D11173C0111171C074C09F3F19F09F5F56
:1039F0009093F901181624F40E94CC1A8093FB01CD
:103A00008091FB0187FF05C00E94CC1A81958093AD
:103A1000FB011C1624F40E94CC1A8093FC018091B7
:103A2000FC0187FF05C00E94CC1A81958093FC01A0
:103A30006091FB01662331F1C091FC01CC2311F1AF
:103A4000062E000C770B880B990B0E94A02923E30C
:103A500033E343E35FE30E94042A0E9468296093F2
:103A6000FB016C2FCC0F770B880B990B0E94A029C0
:103A700023E333E343E35FE30E94042A0E946829BF
:103A80006093FC011D1624F40E94151B8093FD0118
:103A90008091FD0187FF05C00E94151B81958093D1
:103AA000FD01111624F40E94151B8093FE018091E4
:103AB000FE0187FF05C00E94151B81958093FE01C2
:103AC000DF91CF911F910C943B1C9F3F09F08FCF4A
:103AD00097CFDF91CF911F910895EAEFF1E085E054
:103AE000DF011D928A95E9F71092F9011092F80111
:103AF00008958BE795E00E949C061F9281E08F93CA
:103B00001F9285E08F938DE295E09F938F930E94A3
:103B100035070F900F900F900F900F900F90089512
:103B20008330E9F128F4813061F0823009F10895A1
:103B3000853009F462C008F449C0863009F474C0C5
:103B4000089580910701262F30E0280F311D2F3F67
:103B5000310524F4680F6093070103C08FEF809351
:103B60000701809107011F928F9386E694E072C04F
:103B700080910601262F30E0280F311D2F3F31059F
:103B800024F4680F6093060103C08FEF8093060151
:103B9000809106011F928F9384E594E05BC0809131
:103BA0000501262F30E0280F311D2F3F310524F469
:103BB000680F6093050103C08FEF8093050180912A
:103BC00005011F928F9381E494E044C08091040129
:103BD000262F30E0280F311D2F3F310524F4680FC8
:103BE0006093040103C08FEF80930401809104016E
:103BF0001F928F938CE294E02DC080910301262FB9
:103C000030E0280F311D2F3F310524F4680F6093F9
:103C1000030103C08FEF80930301809103011F9282
:103C20008F9383E194E016C080910201262F30E04B
:103C3000280F311D2F3F310524F4680F60930201D6
:103C400003C08FEF80930201809102011F928F9336
:103C500088EF93E09F938F930E9435070F900F900A
:103C60000F900F900895833081F128F4813059F03E
:103C70008230D1F00895853009F449C0B8F186301A
:103C800009F456C0089580910701681720F4861B37
:103C90008093070102C010920701809107011F92D3
:103CA0008F9389EE93E054C080910601681720F449
:103CB000861B8093060102C01092060180910601C6
:103CC0001F928F9387ED93E043C0809105016817A1
:103CD00020F4861B8093050102C01092050180919B
:103CE00005011F928F9384EC93E032C08091040110
:103CF000681720F4861B8093040102C0109204010F
:103D0000809104011F928F938FEA93E021C08091EC
:103D10000301681720F4861B8093030102C01092F0
:103D20000301809103011F928F9386E993E010C0F5
:103D300080910201681720F4861B8093020102C063
:103D400010920201809102011F928F938BE793E002
:103D50009F938F930E9435070F900F900F900F90B5
:103D60000895CF93C82F1F928F9380E896E09F937A
:103D70008F930E94350781E090E0A0E0B0E0BC01A5
:103D8000CD0104C0660F771F881F991FCA95D2F70F
:103D90000E9481150F900F900F900F90CF910C946F
:103DA000BA11CF938732A8F58E3108F032C1803135
:103DB00009F49FC0F8F4873009F465C0A8F4863090
:103DC00009F02DC18091F401817F8E7F8093F401F1
:103DD0008AE198E00E949C068BE79AE00E949C068C
:103DE00081E0809300024DC08B30F1F18E3009F4F8
:103DF0006CC015C1863109F4B0C020F4813109F4DA
:103E0000F0C00DC1893109F491C08B3109F449C06A
:103E100006C1883349F150F4893209F4FCC0853376
:103E200009F4F9C0873209F4F6C0F9C0833409F403
:103E3000F2C028F48A3308F4F2C08953EDC0883404
:103E400009F0EDC00E94BA118FE59AE00E949C062D
:103E50002FEF83ED90E3215080409040E1F700C0C8
:103E600000000E94A21A0DC081E498E05CC086E4C4
:103E70009AE00E949C068091F401897F877F80935D
:103E8000F401C1E0D1C08091F401C82FC095C17088
:103E9000C0FB80F98093F401CC2349F383E59AE0D9
:103EA000B2C09091F40191FBCC27C0F981E0C82702
:103EB000892FC0FB81F98093F401CC2319F089E3A9
:103EC0009AE027C08BE29AE02EC09091F40192FB19
:103ED000CC27C0F981E0C827892FC0FB82F98093E5
:103EE000F401CC2319F08CE19AE013C08CE09AE045
:103EF0001AC09091F40193FBCC27C0F981E0C82748
:103F0000892FC0FB83F98093F401CC2351F080E02A
:103F10009AE00E949C068091F40181608093F401F4
:103F200083C083EF99E00E949C06ABCF8BE098E0C2
:103F30000E949C068FED97E00E949C0688EA97E01D
:103F40000E949C068FE697E00E949C0684E397E01F
:103F50000E949C0686E097E0E6CF88EF96E00E94FC
:103F60009C060E94490C1F928F938EED96E09F93C2
:103F70008F930E943507809112011F928F9387ECD7
:103F800096E09F938F930E943507809125021F92A0
:103F90008F9384EB96E09F938F930E9435078091D7
:103FA0002D0287FB882780F91F928F938CE996E07A
:103FB0009F938F930E9435070E94461A9F938F9379
:103FC0007F936F9385E896E09F938F930E943507C8
:103FD0008DB79EB746960FB6F8949EBF0FBE8DBFA5
:103FE00050CF0E94BA1190912D0297FBCC27C0F9B7
:103FF00081E0C827892FC0FB87F980932D02CC234D
:1040000029F089EE99E00E949C060EC08EED99E0A1
:104010008ACF8D5101C080E00E94B11E32CF8CED5D
:1040200099E00E949C06C0E08C2FCF91089580E01B
:10403000089580E008958E518A3030F4E82FF0E042
:10404000ED5EFE4F8081089580E00895CF93C82FE4
:1040500080910002813071F020F0823009F44BC071
:104060003FC1E0910001F09101018081823209F0AD
:1040700039C107C0E0910001F091010180818232D5
:1040800061F48C2F0E941720811104C08C2F0E9494
:10409000D11E2FC081E090E02CC08C2F0E941920EF
:1040A000811126C0C431E1F070F4CB3081F0C03111
:1040B000D1F40E94791D88E796E00E949C0682E078
:1040C0008093000215C0C93259F0C83361F48AE107
:1040D00098E00E949C068CE796E00E949C0608C02F
:1040E0001092000201C186E796E00E949C06FCC087
:1040F00081E08170FBC0C43228F5CE3108F0C1C028
:10410000CB30A1F1D0F4C73009F0D0C08EE180935C
:10411000070182E3809306018AE08093050184E130
:104120008093040188E08093030188E28093020178
:104130008CE195E00E949C06BCC0C33149F1C431BA
:10414000C1F0B4C0CB3409F4A6C028F4C93289F058
:10415000C83361F0ABC0C13509F49BC0C23509F466
:1041600096C0CE3409F0A2C06AE09BC00E94791DBF
:10417000A0C08091FF01882319F01092FF0199C01F
:1041800089E295E00E949C0681E080930002AEC027
:1041900083E095E00E949C0681EF94E00E949C06DB
:1041A000809107011F928F938EEE94E09F938F93DF
:1041B0000E9435078CEE94E00E949C068AED94E004
:1041C0000E949C06809106011F928F9387ED94E0D8
:1041D0009F938F930E94350785ED94E00E949C0683
:1041E00086EC94E00E949C06809105011F928F93BB
:1041F00083EC94E09F938F930E94350781EC94E0C9
:104200000E949C0680EB94E00E949C068091040131
:104210001F928F938DEA94E09F938F930E943507AE
:104220008BEA94E00E949C0686E994E00E949C063A
:10423000809103011F928F9383E994E09F938F9362
:104240000E94350781E994E00E949C068AE794E089
:104250000E949C06809102011F928F9387E794E051
:104260009F938F930E94350785E794E00E949C06F8
:104270008DB79EB748960FB6F8949EBF0FBE8DBF00
:1042800018C08C2F0E941B208093FF0112C061E098
:1042900003C061E006C06AE08091FF010E94901DAA
:1042A00008C08091FF010E94331E03C08AE195E09F
:1042B00013C08091FF01882369F01F928F9384E1DE
:1042C00095E09F938F930E9435070F900F900F906A
:1042D0000F9004C081E195E00E949C0681E006C039
:1042E0001092000280E002C080E003CFCF910895D9
:1042F0008091240208959FB7F894109203029FBF03
:1043000090913302943009F057C09091E9009F706A
:104310003091EC00232F217030FD20E8922B24E017
:104320002093E9002091EB0020FF43C02091EE0094
:1043300027FF3FC020910102222321F02091E800B5
:1043400025FF37C01092010226E03091E80035FDCC
:1043500015C030913302343061F53091EB0035FDFA
:1043600028C0215021F481E08093010222C0EFE9AE
:10437000FFE03197F1F700C00000E7CF8093F10034
:104380008091E80085FD0AC08091E80080FFFCCFA5
:104390008091E8008E778093E80006C08FB7F8948C
:1043A00021E0209303028FBF9F709093E90080E08B
:1043B00008959F709093E9008FEF08950F931F93D6
:1043C000CF93DF9300D01F92CDB7DEB78C010E9450
:1043D000B024823011F0843019F593E099831B8367
:1043E0000A839093E9008FEF9091E800815095FD4A
:1043F00006C095ED9A95F1F700008111F5CF8091F7
:10440000E80085FF0DC040E050E063E070E0CE01C1
:1044100001960E94CD248091E8008E778093E80079
:104420000F900F900F90DF91CF911F910F910895F2
:10443000CF93DF9300D01F92CDB7DEB72091330228
:10444000243031F522E02983805891099B838A83A7
:1044500083E08093E9008FEF9091E800815095FD13
:1044600006C095ED9A95F1F700008111F5CF809186
:10447000E80085FF0DC040E050E063E070E0CE0151
:1044800001960E94CD248091E8008E778093E80009
:104490000F900F900F90DF91CF910895CF93DF93FE
:1044A000EC010E94B024823011F08430F9F482E0F3
:1044B0008093E9009FEF8091E800915085FD06C050
:1044C00085ED8A95F1F700009111F5CF8091E80014
:1044D00085FF0CC040E050E065E070E0CE010E9436
:1044E000CD248091E8008E778093E800DF91CF9112
:1044F0000895CF93DF93EC010E94B024823019F02D
:10450000843009F047C0809112018823E1F0809146
:104510002D0287FF18C085E08093E9008FEF90910E
:10452000E800815095FD06C095E19A95F1F70000ED
:104530008111F5CF8091E80085FF2CC040E050E06C
:1045400060E270E017C081E08093E9008FEF909106
:10455000E800815095FD06C095ED9A95F1F70000B1
:104560008111F5CF8091E80085FF14C040E050E054
:1045700068E070E0CE010E94CD248091E8008E7743
:104580008093E80080E2FE01A4E0B2E001900D9289
:104590008A95E1F7DF91CF91089584EA9AE00E942D
:1045A0009C0680913202811109C00E9462260E94FD
:1045B000BF268091E20084608093E200089580EA43
:1045C0009AE00E949C061092320208958CE99AE0CB
:1045D0000C949C0688E99AE00C949C0684E99AE085
:1045E0000E949C060C94021A209102022F5F822FD7
:1045F00062E30E94992A992319F0209302020895F8
:104600001092020280910302882371F1809133029B
:10461000843041F58091E9008F702091EC00922F59
:10462000917020FD90E8892B94E09093E90090919F
:10463000EB0090FF14C09091EE0097FF10C0909196
:10464000E80095FF03C01092F100F9CF9091E800C7
:1046500090FF05C09091E8009E779093E8008F70DE
:104660008093E90010920302089542E061EC81E03A
:104670000E94DC2542E061EC82E00E94DC2542E001
:1046800061EC83E00E94DC2542E261EC84E00E9460
:10469000DC2542E261EC85E00C94DC25809135025A
:1046A000833009F455C030F4813071F0823009F460
:1046B0008EC008958A3009F47AC08B3009F460C046
:1046C000893009F09CC020C080913402813A09F001
:1046D00096C08091E800877F8093E800809138023F
:1046E00090913902892B21F460E284E092E003C0CA
:1046F00060E080E090E070E00E9418258091E80082
:104700008B778093E800089580913402813209F01C
:1047100076C08091380290913902009719F0049781
:1047200009F06DC08091E800877F8093E800809158
:10473000E80082FD05C0809133028111F8CF5FC08F
:104740008091F100809324028091E8008B7753C020
:1047500080913402813A09F052C0809138029091E0
:104760003902892B09F04BC08091E800877F809344
:10477000E8008091E80080FFFCCF8091120136C0F4
:10478000809134028132D9F58091380290913902BA
:10479000892BA9F58091E800877F8093E8000E942B
:1047A000112680913602809312010C94BA118091E7
:1047B0003402813221F58091E800877F8093E80000
:1047C0000E941126809137028093250208958091DE
:1047D0003402813AA1F48091E800877F8093E80059
:1047E0008091E80080FFFCCF809125028093F1004A
:1047F0008091E8008E778093E8000C94112608954C
:1048000084B7877F84BF0FB6F894A8958091600025
:10481000886180936000109260000FBE80E88093F2
:104820006100109261000E94D60C0E9462260E94D4
:10483000BF268091E20084608093E2008BE791E2E2
:104840000E94681878940E944D290E94D80C88E034
:1048500091E00E94440C83E89AE00E949C068091BB
:104860003302853089F48FE79AE00E949C060E940B
:10487000BF1980913102882391F30E94ED1988239A
:1048800071F30E94B724EBCF0E94060DE8CF292FC9
:10489000332723303105C9F064F42130310581F02C
:1048A0002230310509F043C08DE890E020ED3AE078
:1048B00042C021323105F1F02232310541F137C0D9
:1048C00082E190E02DE53BE036C0992781309105EB
:1048D00041F08230910541F0892B49F5ECECFAE08A
:1048E00005C0EAEBFAE002C0E8EAFAE0849190E061
:1048F0009F0121C065307105D0F4660F771FFB0161
:10490000E45DFE4F2081318189E090E014C0653084
:10491000710568F4FB01EE0FFF1FEE5DFE4F208175
:104920003181FB01E35EFE4F808190E004C080E0B6
:1049300090E020E030E0FA0131832083089508956B
:10494000CF93C82F0E949F24C0932602CF91089531
:1049500080913302843011F081E0089582E008955F
:1049600080912602811102C00C94A824089580E150
:1049700089BD82E189BD09B400FEFDCF8091D800D8
:104980008F7D8093D8008091E00082608093E0006A
:104990008091E00081FDFCCF0895CF92DF92EF92ED
:1049A000FF920F931F93CF93DF93EC018B016A016A
:1049B0000E943026811133C0C114D10439F0F601B0
:1049C00080819181081B190BC80FD91FE12CF12C94
:1049D0000115110519F18091E80085FD16C080913F
:1049E000E8008E778093E800C114D10449F0F60105
:1049F00080819181E80EF91EF182E08285E00FC08E
:104A00000E943026882321F30AC089918093F10007
:104A100001501109FFEFEF1AFF0ADACF80E0DF91B2
:104A2000CF911F910F91FF90EF90DF90CF9008955D
:104A300020913A0230913B022617370748F0611562
:104A4000710539F42091E8002E772093E80001C029
:104A5000B90140E061157105A9F1209133022223CB
:104A600009F443C0253009F442C02091E80023FD39
:104A700040C02091E80022FD32C02091E80020FFD4
:104A8000E9CF4091F3002091F20030E0342BFC019B
:104A9000CF016115710559F02830310540F481913D
:104AA0008093F100615071092F5F3F4FF1CF41E0DA
:104AB0002830310509F040E02091E8002E7720935E
:104AC000E800C8CF4111C9CF0AC0809133028823C2
:104AD00061F0853061F08091E80083FD0AC080912B
:104AE000E80082FFF2CF80E0089582E0089583E03D
:104AF000089581E0089520913A0230913B022617F3
:104B0000370748F06115710539F42091E8002E77D8
:104B10002093E80001C0B901FC0120E06115710596
:104B200091F180913302882309F440C0853009F463
:104B30003FC08091E80083FD3DC08091E80082FD88
:104B40002FC08091E80080FFE9CF2091F300809191
:104B5000F20090E0922B6115710559F088309105B3
:104B600040F424912093F10031966150710901962F
:104B7000F2CF21E0089709F020E08091E8008E77DD
:104B80008093E800CBCF2111CCCF0AC080913302B3
:104B9000882361F0853061F08091E80083FD0AC0D0
:104BA0008091E80082FFF2CF80E0089582E00895CE
:104BB00083E0089581E00895982F973058F59093F9
:104BC000E900981739F07091EC002091ED005091B8
:104BD000F00003C0242F762F50E021FF19C0309140
:104BE000EB003E7F3093EB003091ED003D7F309342
:104BF000ED003091EB0031603093EB007093EC00EE
:104C00002093ED005093F0002091EE0027FF07C0A5
:104C10009F5FD3CF8F708093E90081E0089580E09B
:104C200008958091340287FF11C08091E80082FDD1
:104C300005C0809133028111F8CF11C08091E80046
:104C40008B770BC080913302882349F08091E80074
:104C500080FFF8CF8091E8008E778093E800089578
:104C60002091E4003091E50095E64091EC00842F1E
:104C7000817040FF22C08091E80080FD1CC08091BF
:104C80003302882391F0853091F08091EB0085FD0F
:104C900010C04091E4005091E5004217530729F3FA
:104CA0009A01915011F784E0089582E0089583E01D
:104CB000089581E0089580E008954091E80042FF62
:104CC000DECF08950E94D0260E94D826E0EEF0E0C4
:104CD000808181608083E8EDF0E080818F77808340
:104CE00019BCA7EDB0E08C918E7F8C9380818F7E74
:104CF00080831092320208950F931F93CF93DF9316
:104D00000E94D0260E94D826C8EDD0E088818F77F7
:104D1000888388818068888388818F7D888319BC97
:104D20001092330210922F02109231021092300230
:104D300000EE10E0F80180818B7F808388818160A4
:104D4000888342E060E080E00E94DC25E1EEF0E054
:104D500080818E7F8083E2EEF0E0808181608083BD
:104D6000808188608083F80180818E7F8083888144
:104D700080618883DF91CF911F910F910895E8EDB5
:104D8000F0E080818F7E8083E7EDF0E080818160BC
:104D9000808384E082BF81E0809332020C947C2681
:104DA000E8EDF0E080818E7F80831092E20008952C
:104DB0001092DA001092E10008951F920F920FB640
:104DC0000F9211242F933F934F935F936F937F9391
:104DD0008F939F93AF93BF93EF93FF938091E100E5
:104DE00082FF0BC08091E20082FF07C08091E1004A
:104DF0008B7F8093E1000E94F4228091DA0080FF93
:104E00001FC08091D80080FF1BC08091DA008E7F88
:104E10008093DA008091D90080FF0DC080E189BDC8
:104E200082E189BD09B400FEFDCF81E080933302A9
:104E30000E94CD2205C019BC109233020E94DF22CD
:104E40008091E10080FF19C08091E20080FF15C0D1
:104E50008091E2008E7F8093E2008091E200806189
:104E60008093E2008091D80080628093D80019BCC2
:104E700085E0809333020E94EA228091E10084FF62
:104E800030C08091E20084FF2CC080E189BD82E1C6
:104E900089BD09B400FEFDCF8091D8008F7D80933D
:104EA000D8008091E1008F7E8093E1008091E20044
:104EB0008F7E8093E2008091E20081608093E20027
:104EC00080912F02882311F084E007C08091E300D5
:104ED00087FD02C081E001C083E0809333020E941D
:104EE000EE228091E10083FF29C08091E20083FFE0
:104EF00025C08091E100877F8093E10082E080936C
:104F0000330210922F028091E1008E7F8093E100A6
:104F10008091E2008E7F8093E2008091E2008061C8
:104F20008093E20042E060E080E00E94DC25809116
:104F3000F00088608093F0000E94E622FF91EF91DC
:104F4000BF91AF919F918F917F916F915F914F91A1
:104F50003F912F910F900FBE0F901F9018951F92A9
:104F60000F920FB60F9211242F933F934F935F939D
:104F70006F937F938F939F93AF93BF93CF93DF9361
:104F8000EF93FF93C091E900CF708091EC00D82F90
:104F9000D17080FDD0E81092E9008091F000877F09
:104FA0008093F00078940E94F3271092E90080919A
:104FB000F00088608093F000CD2BCF70C093E900A3
:104FC000FF91EF91DF91CF91BF91AF919F918F9121
:104FD0007F916F915F914F913F912F910F900FBEF5
:104FE0000F901F9018951F93CF93DF93CDB7DEB727
:104FF000AA970FB6F894DEBF0FBECDBFE4E3F2E090
:1050000088E08E0F9091F10091938E13FBCF0E9458
:105010004E238091E80083FF28C180913402909153
:105020003502492F50E04A30510508F01EC1FA01FF
:10503000E556FF4F0C94B92A803821F0823809F0E8
:1050400014C108C08091300290913102992389F0F7
:1050500082600FC0809138028F70873008F005C1E0
:105060008093E9008091EB0085FB882780F91092FE
:10507000E9009091E800977F9093E8008093F10019
:105080001092F100D0C0282F2D7F09F0EEC08823A8
:1050900019F0823061F0E9C080913602813009F068
:1050A000E4C0933009F080E0809331022EC08091FB
:1050B000360281112AC0809138028F702FEF280F9D
:1050C000263008F0D2C08093E9002091EB0020FF49
:1050D0001CC0933021F48091EB00806214C0909149
:1050E000EB0090619093EB0021E030E0A90102C059
:1050F000440F551F8A95E2F74093EA001092EA00A8
:105100008091EB0088608093EB001092E900809121
:10511000E800877F8093E8000E941126A6C08111D5
:10512000A4C0109136021F778091E3008078812B14
:105130008093E3008091E800877F8093E8000E94DD
:1051400011268091E80080FFFCCF8091E300806809
:105150008093E300111102C082E001C083E08093DC
:10516000330283C08058823008F07FC080913602BD
:10517000909137028C3D53E0950779F583E08A835F
:105180008AE289834FB7F894DE01139620E03EE06F
:1051900051E2E32FF0E050935700E49120FF03C069
:1051A000E295EF703F5FEF708E2F90E0EA3010F0E5
:1051B000C79601C0C0968D939D932F5F243149F708
:1051C0004FBF8091E800877F8093E8006AE270E03B
:1051D000CE0101960E94182515C060913802709189
:1051E0003902AE014F5F5F4F0E944724BC01892BFB
:1051F000E1F19091E800977F9093E80089819A818E
:105200000E947B258091E8008B778093E8002DC079
:10521000803859F58091E800877F8093E80080917D
:105220002F028093F1008091E8008E7773CF811177
:105230001CC0909136029230C0F48091E800877FC4
:105240008093E80090932F020E94112680912F02F4
:10525000811106C08091E30087FD02C081E001C09A
:1052600084E0809333020E9435238091E80083FF1D
:105270000AC08091E800877F8093E8008091EB006E
:1052800080628093EB00AA960FB6F894DEBF0FBE43
:10529000CDBFDF91CF911F910895CF9380913302BD
:1052A0008823A1F0C091E900CF709091EC00892F84
:1052B000817090FD80E8C82B1092E9008091E80091
:1052C00083FD0E94F327CF70C093E900CF9108952A
:1052D0000E946F296894B1110C94FE2908950E94D0
:1052E000E32988F09F5798F0B92F9927B751B0F06C
:1052F000E1F0660F771F881F991F1AF0BA95C9F75A
:1053000014C0B13091F00E94FD29B1E008950C94D1
:10531000FD29672F782F8827B85F39F0B93FCCF384
:10532000869577956795B395D9F73EF490958095D6
:10533000709561957F4F8F4F9F4F0895E89409C0F6
:1053400097FB3EF490958095709561957F4F8F4FB8
:105350009F4F9923A9F0F92F96E9BB279395F695CE
:10536000879577956795B795F111F8CFFAF4BB0F4C
:1053700011F460FF1BC06F5F7F4F8F4F9F4F16C0B0
:10538000882311F096E911C0772321F09EE8872F3A
:10539000762F05C0662371F096E8862F70E060E0F6
:1053A0002AF09A95660F771F881FDAF7880F96956F
:1053B000879597F9089557FD9058440F551F59F058
:1053C0005F3F71F04795880F97FB991F61F09F3FF2
:1053D00079F087950895121613061406551FF2CF1B
:1053E0004695F1DF08C0161617061806991FF1CF6B
:1053F00086957105610508940895E894BB27662792
:105400007727CB0197F908950E94172A0C94882AD0
:105410000E947A2A38F00E94812A20F0952311F008
:105420000C94712A0C94772A11240C94FE290E9462
:10543000DB2970F3959FC1F3950F50E0551F629FD4
:10544000F001729FBB27F00DB11D639FAA27F00DDD
:10545000B11DAA1F649F6627B00DA11D661F829F04
:105460002227B00DA11D621F739FB00DA11D621FE9
:10547000839FA00D611D221F749F3327A00D611D06
:10548000231F849F600D211D822F762F6A2F1124E8
:105490009F5750409AF0F1F088234AF0EE0FFF1F1B
:1054A000BB1F661F771F881F91505040A9F79E3F72
:1054B000510580F00C94712A0C94FE295F3FE4F3AF
:1054C000983ED4F3869577956795B795F795E795C8
:1054D0009F5FC1F7FE2B880F911D9695879597F9D1
:1054E000089597F99F6780E870E060E008959FEF66
:1054F00080EC089500240A9416161706180609066B
:10550000089500240A941216130614060506089539
:10551000092E0394000C11F4882352F0BB0F40F4C1
:10552000BF2B11F460FF04C06F5F7F4F8F4F9F4F01
:105530000895991B79E004C0991F961708F0961BEF
:10554000881F7A95C9F78095089597FB072E16F462
:10555000009407D077FD09D00E94BF2A07FC05D030
:105560003EF4909581959F4F0895709561957F4F7A
:105570000895EE0FFF1F0590F491E02D0994AA1BEA
:10558000BB1B51E107C0AA1FBB1FA617B70710F02E
:10559000A61BB70B881F991F5A95A9F78095909560
:1055A000BC01CD010895F999FECF92BD81BDF89A55
:1055B000992780B50895A8E1B0E042E050E00C944E
:1055C000FB2A262FF999FECF92BD81BDF89A01974B
:1055D00000B4021639F01FBA20BD0FB6F894FA9A3B
:1055E000F99A0FBE08950196272F0E94E22A0C9483
:1055F000E12ADC01CB01FC01F999FECF06C0F2BD26
:10560000E1BDF89A319600B40D9241505040B8F780
:065610000895F894FFCF9D
:10561600D1012808140A321E782179224E22182236
:10562600DE210101020304050607080900404D3684
:1056360022394D0C000CCA0BA80B6F0BE20AFB0AB1
:06564600140B2D0B4D0BAF
:00000001FF
