:100000000C947F070C94C6070C94C6070C94C60783
:100010000C94C6070C94C6070C94C6070C94C6072C
:100020000C94C6070C94C6070C94952B0C94672C63
:100030000C94C01E0C94C6070C94C6070C94C607FB
:100040000C94C6070C94C6070C94C6070C94C607FC
:100050000C94C6070C94341F0C94C6070C94C60766
:100060000C94C6070C94C6070C94C6070C94C607DC
:100070000C94C6070C94C6070C94C6070C94C607CC
:100080000C94C6070C94C6070C94C6070C94C607BC
:100090000C94C6070C94C6070C94C6070C94C607AC
:1000A0000C94C6070C94C6070C94C6074B0D4D0D57
:1000B000580D4F0D510D530D550D570D5A0D5C0D2B
:1000C0005E0D690D600D620D640D660D680D6B0DA2
:1000D000E513E5131F141F145E147E14F115F115BA
:1000E000C014F11570157015E315F115F115EB1528
:1000F0007D157D157D157D157D157D157D157D1570
:100100007D157D157D157D157D157D157D157D155F
:100110008F159D15A415AB15B51584168416961666
:1001200096168D16961696169616841684169216A0
:10013000961696169216D42CFB2CED2DFB2CED2D3D
:10014000472D6A2DED2DC02DCF2D0A0025303136DB
:1001500062003A200025303258000A722F632030A6
:100160003132333435363738394142434445460A13
:10017000000129022900016502650001AA02AA0006
:1001800001AB02AB0001A902A90001AE02AE0064FE
:10019000796E616D6963206D6163726F3A20696782
:1001A0006E6F72696E67206D6163726F20706C6133
:1001B00079206B6579207768696C65207265636F5B
:1001C0007264696E670D0A0064796E616D696320FF
:1001D0006D6163726F3A20736C6F742025642073B5
:1001E000617665642C206C656E6774683A202564BE
:1001F0000A0064796E616D6963206D6163726F3AA4
:10020000207472696D6D696E672061207472616916
:100210006C696E67206B65792D646F776E206576EB
:10022000656E740D0A0064796E616D6963206D619D
:1002300063726F3A20736C6F74202564206C656E56
:100240006774683A2025642F25640A0064796E611A
:100250006D6963206D6163726F3A2069676E6F72BA
:10026000696E672061206C656164696E67206B65EB
:10027000792D7570206576656E740D0A0064796E4F
:10028000616D6963206D6163726F3A20736C6F7486
:1002900020256420706C61796261636B0A00647967
:1002A0006E616D6963206D6163726F207265636F4B
:1002B0007264696E673A20737461727465640D0AC2
:1002C0000014001A000800150017001C0018000C8C
:1002D000001200130004001600070009000A000BBA
:1002E000000D000E000F0033001D621B00060019F8
:1002F000000500110010003600370038620000E0F1
:100300000002302B0034005000510052004F00001A
:10031000000000E200E3002C00CF5CCE5C2A002845
:100320000005510000010001000100010001000171
:1003300000010001000100010001000100010001B5
:1003400000010001000100010001000100010001A5
:100350000001000100010001000100010001000195
:1003600000000001004C000100010001000100013B
:100370000001000000000001000100010001000177
:100380000001000100000000001E001F00200021ED
:100390000022002300240025002600270004011667
:1003A0000101000901010001002D002E002F003085
:1003B000001D011B010601190101000100310001AE
:1003C0000001003400000001004C00010035004A2B
:1003D000004E004B004D0000000000010001000134
:1003E000000100010001004600000000001E001F87
:1003F00000200021002200230024002500260027E1
:10040000000408160801000908010001002D002E53
:10041000002F0030001D081B080608190801000104
:10042000003100010001003400000001004C000117
:100430000035004A004E004B004D00000000000156
:100440000001000100010001000100460000000061
:100450000001000100010001000100010001000194
:1004600000010001003A003B003C003D003E003F1F
:1004700000010001002F0230024000410042004311
:1004800000440045000100010001000100000001DE
:10049000004C0001003502010001000100010000D4
:1004A0000000000100010001000100010001000145
:1004B0000001000000005CD25C01000100010001AD
:1004C00000D35CD45C01000100D15C0100175C1812
:1004D0005C0100010001000100D05C01001F5C1EF6
:1004E0005C1A5C1B5C01000100A800AC00AB00AE14
:1004F00000000001000100010001000100D65CD7EE
:100500005C01000000000001000100010001000189
:100510000001000100010000000A44454255473A2D
:1005200020656E61626C65642E0A000A0025303217
:100530005820006B6579626F6172645F7265706FDD
:1005400072743A20000A0025303258006B657962D7
:100550006F6172645F7365745F6C65643A20004F0D
:100560006E6573686F743A2074696D656F75740A8F
:100570000064656C5F6B65795F6269743A206361E2
:100580006E27742064656C3A20253032580A006169
:1005900064645F6B65795F6269743A2063616E279A
:1005A00074206164643A20253032580A00290A0018
:1005B0002575002F002575005D28002564002000AA
:1005C000256400200025640020002564007C0025AF
:1005D000303258006D6F7573656B6579205B62749E
:1005E0006E7C782079207620685D287265702F6196
:1005F000636C293A205B006D6B5F776865656C5FA3
:1006000074696D655F746F5F6D6178203D2025644E
:100610000A006D6B5F776865656C5F6D61785F730D
:1006200070656564203D2025640A006D6B5F746908
:100630006D655F746F5F6D6178203D2025640A00F1
:100640006D6B5F6D61785F7370656564203D20251B
:10065000640A006D6B5F696E74657276616C203D33
:100660002025640A006D6B5F64656C6179203D2014
:1006700025640A006D6B5F776865656C5F74696DF2
:10068000655F746F5F6D6178203D2025640A006DA1
:100690006B5F776865656C5F6D61785F73706565CA
:1006A00064203D2025640A006D6B5F74696D655F91
:1006B000746F5F6D6178203D2025640A006D6B5F6B
:1006C0006D61785F7370656564203D2025640A0064
:1006D0006D6B5F696E74657276616C203D20256478
:1006E0000A006D6B5F64656C6179203D2025640AAA
:1006F000000A00257500363A20776865656C5F74DE
:10070000696D655F746F5F6D61783A20000A00253E
:100710007500353A20776865656C5F6D61785F7349
:10072000706565643A20000A00257500343A20742B
:10073000696D655F746F5F6D61783A20000A00250E
:100740007500333A206D61785F73706565643A2097
:10075000000A00257500323A20696E746572766170
:100760006C286D73293A20000A00257500313A2063
:1007700064656C6179282A31306D73293A20000A4A
:10078000092D2056616C756573202D0A004D3E00C1
:100790004D25643E20003F007365742064656661EA
:1007A000756C740A00433E200077686572652064AA
:1007B000656C74613A20637572736F723D25642CA9
:1007C00020776865656C3D25640A5365652068740B
:1007D00074703A2F2F656E2E77696B697065646946
:1007E000612E6F72672F77696B692F4D6F75736517
:1007F0005F6B6579730A000A092D204D6F7573656B
:100800006B6579202D0A4553432F713A097175693B
:10081000740A313A0964656C6179282A31306D7344
:10082000290A323A09696E74657276616C286D73B3
:10083000290A333A096D61785F73706565640A341B
:100840003A0974696D655F746F5F6D61780A353A56
:1008500009776865656C5F6D61785F737065656465
:100860000A363A09776865656C5F74696D655F740F
:100870006F5F6D61780A0A703A097072696E742050
:1008800076616C7565730A643A09736574206465F2
:100890006661756C74730A75703A092B310A646F5E
:1008A000776E3A092D310A706775703A092B31302D
:1008B0000A7067646F776E3A092D31300A0A7370D7
:1008C000656564203D2064656C7461202A206D613B
:1008D000785F7370656564202A2028726570656191
:1008E00074202F2074696D655F746F5F6D61782966
:1008F0000A003F004D3E2000433E20004C25640A84
:100900000074696D65725F72656164333228293ADB
:10091000202530346C580A006B65796D61705F6317
:100920006F6E6669672E6E6B726F3A2025580A00EB
:100930006B6579626F6172645F69646C653A2025EA
:10094000580A006B6579626F6172645F70726F74D0
:100950006F636F6C3A2025580A00686F73745F6B81
:100960006579626F6172645F6C65647328293A20EF
:1009700025580A000A092D20537461747573202DBF
:100980000A004743433A20342E392E322041565232
:100990002D4C4942433A20312E382E3073766E204A
:1009A0004156525F415243483A20617672350A00FF
:1009B0004F5054494F4E533A204C554641204D4FCD
:1009C0005553454B45592045585452414B455920A4
:1009D000434F4E534F4C4520434F4D4D414E4420C5
:1009E0004E4B524F20343039360A004255494C4460
:1009F0003A2022302E352E39302D39362D67376387
:100A0000393133632D646972747922202830333A86
:100A100033373A3537204175672020362032303160
:100A200037290A005649443A20307846454542283D
:100A30004D4A5429205049443A20307836303630D7
:100A4000284D69746F73697329205645523A2030D6
:100A500078303030310A00444553433A20712E6DCE
:100A60002E6B2E206B6579626F61726420666972ED
:100A70006D7761726520666F72204D69746F73695E
:100A8000730A000A092D2056657273696F6E202D56
:100A90000A000A092D20436F6E736F6C65202D0AC2
:100AA0004553432F713A09717569740A6D3A096D9E
:100AB0006F7573656B65790A000A092D204D6167B2
:100AC0006963202D0A443A094465627567204D65C3
:100AD000737361676520546F67676C650A583A09DC
:100AE0004D6174726978204465627567204D6F644A
:100AF0006520546F67676C65202D2053686F7720E1
:100B00006B65797072657373657320696E206D61B2
:100B10007472697820677269640A4B3A094B657987
:100B2000626F61726420446562756720546F676705
:100B30006C65202D2053686F77206B657970726526
:100B40007373207265706F72740A4D3A094465625E
:100B50007567204D6F75736520546F67676C650A04
:100B6000563A0956657273696F6E0A533A0953749F
:100B7000617475730A433A094163746976617465F7
:100B800020436F6E736F6C65204D6F64650A46314C
:100B90002D4631303A0953776974636820746F20A9
:100BA0004C6179657220302D392028463130203D46
:100BB000204C30290A302D393A095377697463681B
:100BC00020746F204C6179657220302D390A4553AD
:100BD000433A0953776974636820746F204C6179D4
:100BE000657220302028616C7465726E61746520B6
:100BF0006B65792031290A47524156453A095377A6
:100C00006974636820746F204C61796572203020AC
:100C100028616C7465726E617465206B6579203231
:100C2000290A50415553453A094A756D7020746F31
:100C300020426F6F746C6F61646572202852657317
:100C40006574290A4E3A094E4B524F20546F67671C
:100C50006C650A003F004E4B524F3A206F66660AA1
:100C6000004E4B524F3A206F6E0A000A6D6F75733B
:100C7000653A206F66660A000A6D6F7573653A20E3
:100C80006F6E0A000A6B6579626F6172643A206F59
:100C900066660A000A6B6579626F6172643A206F5A
:100CA0006E0A000A6D61747269783A206F66660A8E
:100CB000000A6D61747269783A206F6E0A000A64E6
:100CC000656275673A206F66660A000A6465627538
:100CD000673A206F6E0A000A0A4A756D70696E677E
:100CE00020746F20626F6F746C6F616465722E2E5A
:100CF0002E2000433E20005B735D004B6579626FE0
:100D00006172642073746172742E0A005B575D0017
:100D10005B535D005B525D005B445D005B435D00C7
:100D200010034D00690074006F00730069007300C8
:100D3000000008034D004A005400000004030904A9
:100D400009028D00050100A019090400000103013A
:100D5000010009211101000122400007058103085B
:100D6000000A090401000103010200092111010028
:100D700001224D000705820308000A090402000150
:100D8000030000000921110100012236000705833C
:100D90000308000A090403000203000000092111EE
:100DA0000100012222000705840320000107050439
:100DB00003200001090404000103000000092111BF
:100DC00001000122390007058503200001120110EE
:100DD0000100000008EBFE60600100010200010557
:100DE000010906A101050719E029E715002501956C
:100DF00008750181020508190129059505750191FC
:100E0000029501750391010507190029F7150025C1
:100E10000195F875018102C00631FF0974A101092D
:100E200075150026FF0095207508810209761500CA
:100E300026FF00952075089102C005010980A101D7
:100E400085021601002603001A81002A830075100E
:100E500095018100C0050C0901A10185031601005F
:100E6000269C021A01002A9C02751095018100C07F
:100E700005010902A1010901A100050919012905BE
:100E80001500250195057501810295017503810104
:100E90000501093009311581257F95027508810604
:100EA00009381581257F950175088106050C0A38DA
:100EB000021581257F950175088106C0C0050109CD
:100EC00006A101050719E029E71500250195087518
:100ED000018102950175088101050819012905950F
:100EE0000575019102950175039101050719002906
:100EF000FF150026FF00950675088100C00011242B
:100F00001FBECFEFDAE0DEBFCDBF04B603FE27C0C1
:100F10008091480590914905A0914A05B0914B05F3
:100F20008730904BA740B04BD1F4109248051092F7
:100F3000490510924A0510924B0514BE84B7877F6D
:100F400084BF0FB6F894A895809160008861809363
:100F50006000109260000FBEE0E0F8E3099511E038
:100F6000A0E0B1E0E6E8FFE502C005900D92AC33E9
:100F7000B107D9F725E0ACE3B1E001C01D92A83478
:100F8000B207E1F70E94B8280C94C12F0C9400001E
:100F9000FF93EF93E0913C01F0913D01309709F010
:100FA0000995EF91FF910895FC018591803011F032
:100FB000EFDFFBCF0895FF27E0E230E247FF0CC0F0
:100FC000419597FF09C0EDE26095709580959095E9
:100FD000611D711D811D911D27FF02C0219530E308
:100FE00050E2AA27660F771F881F991FAA1FA41710
:100FF00010F0A41B63955A95A9F7AA3008F0A95FD1
:10100000A05DAF93F395611571058105910541F7D9
:10101000ED3211F4EF93F395F21718F43F93F39533
:10102000FBCF8F91B5DFFA95E1F70895E991F9913A
:101030008591803021F0853219F0AADFF9CF08952B
:1010400020E0E89455915532C1F3503311F468947F
:1010500055915A3348F4505390F3220F022E220F29
:10106000220F200D250FF4CF0EF42195899199912F
:10107000533619F3533729F1533559F1BC018827F9
:101080009927E8945C3621F4899199916894559157
:10109000543639F446EF7EF077FF0DC08FEF9FEFA7
:1010A0000AC055374AE039F0583540E121F0523650
:1010B00042E009F00895FF93EF937DDFEF91FF91F8
:1010C000B7CFFF93EF93FC0181918030B9F360DFDC
:1010D000FBCFFF93EF9368DFF1CFDF93CF93CDB7D3
:1010E000DEB72596A3DFCF91DF91089508950C9484
:1010F000390ECF93DF93CDB7DEB72B970FB6F894A9
:10110000DEBF0FBECDBF1092CC001092CD0088E1A3
:101110008093C90086E08093CA0083E78093CE0065
:10112000FE0131968BE0DF011D928A95E9F7DF0120
:1011300040E050E0BA018BE08E0F9091C80097FD1F
:101140000AC04F5F5F4F6F4F7F4F413197E25907A2
:101150006105710590F39091CE009D938A13EDCFB8
:101160008B85803E91F4AEE3B1E09E01255F3F4F59
:10117000818140E2849FC00111244081842B8D93A2
:101180009D933296E217F30799F70E943B0E81E098
:101190002B960FB6F894DEBF0FBECDBFDF91CF9177
:1011A0000895E82FF0E0EE0FFF1FE25CFE4F808114
:1011B00091810895CF92DF92EF92FF920F931F9348
:1011C000CF93DF938AE591E00E94D4078EE3E82E67
:1011D00081E0F82EC0E0D0E095E5C92E91E0D92E4F
:1011E0000CE411E0DF93CF93DF92CF920E946D0861
:1011F00082E591E00E94D407F701819191917F01EE
:101200000E948B1D9F938F931F930F930E946D08D5
:101210008AE491E00E94D40721968DB79EB7089684
:101220000FB6F8949EBF0FBE8DBFC530D105D1F665
:10123000DF91CF911F910F91FF90EF90DF90CF90B2
:1012400008951092CC001092CD0088E18093C900DF
:1012500086E08093CA000895519A599A80B38063BA
:1012600080BB81B3806381BB08950E9476080E9491
:1012700021090E942C098D98599A8C9A2FEF84E3AA
:101280009CE0215080409040E1F700C000008D9A22
:10129000599A8C982FEF84E39CE021508040904035
:1012A000E1F700C000008D9A59988C9A2FEF84E3E3
:1012B0009CE0215080409040E1F700C000008D9AF2
:1012C000599A8C9A08950C94730C08950F931F9358
:1012D000CF93DF93EC018B018091000580FF04C068
:1012E0008EE992E00E94D4070E9472160E947E1A34
:1012F00019830883DF91CF911F910F9108958F92E9
:101300009F92AF92BF92EF92FF920F931F93CF9352
:10131000DF93EC017B01042F8091000580FF11C059
:10132000141614F082E001C081E01F928F938DE7C4
:1013300092E09F938F930E946D080F900F900F90F3
:101340000F908090CF049090D004A090D104B090E2
:10135000D2040E9472160E947E1A86E00802800162
:101360001124CE15DF0531F0CE010E943316C00FD7
:10137000D11FF7CF0E9472168092CF049092D004B2
:10138000A092D104B092D204DF91CF911F910F911E
:10139000FF90EF90BF90AF909F908F900895EF9245
:1013A000FF920F931F93CF93DF93EC017801D80145
:1013B00012968C91FB01A081B181811111C0AC17F3
:1013C000BD0771F48091000580FF6EC08CE492E04F
:1013D000DF91CF911F910F91FF90EF900C94D40764
:1013E000F6E02F02C00111248D01081B190B4017D4
:1013F000510771F036E0F70101900D923A95E1F74F
:10140000DB01ED91FC9111978E0F9F1F8D939C93A3
:101410008091000580FF48C0022F022E000C110BA6
:101420004C1B5D0B55954795ABEABAEA4A9FC00144
:101430004B9F900D5A9F900D1124089FA001099F6A
:10144000500D189F500D11244F5F5F4FFB0180819D
:1014500091818C1B9D0B959587958A9FE0018B9FB1
:10146000D00D9A9FD00D11240C9FB0010D9F700DCF
:101470001C9F700D1124121614F082E001C081E04F
:101480005F934F937F936F931F928F9386E292E0C7
:101490009F938F930E946D088DB79EB708960FB6E5
:1014A000F8949EBF0FBE8DBFDF91CF911F910F911A
:1014B000FF90EF9008958F929F92AF92BF92CF923C
:1014C000DF92EF92FF920F931F93CF93DF931F92C0
:1014D000CDB7DEB77C01890186E0480260011124A6
:1014E000AA24BB24AC18BD084B01809100058E14C2
:1014F0009F0489F0F401EA0DFB1D9281992359F0B4
:1015000080FF06C082EF91E049830E94D4074981A1
:101510008C189D08EACF80FF28C0C4018E199F094E
:10152000959587952BEA3AEA829FB001839F700DCB
:10153000929F700D112446039001479F300D112496
:10154000141614F082E001C081E03F932F931F92A4
:101550008F9388EC91E09F938F930E946D080F907A
:101560000F900F900F900F900F90F8019182808252
:101570000F90DF91CF911F910F91FF90EF90DF902F
:10158000CF90BF90AF909F908F9008950F931F932F
:10159000CF938B0120914A04211139C0FB01C281F4
:1015A000C11185C0843DFCE59F07E9F060F4833DEF
:1015B0009C4509F07BC068E471E088E494E00E94F7
:1015C000660981E017C0863DECE59E07B1F0873DD6
:1015D0009C4509F06BC060910001709101014FEFD3
:1015E00082E494E011C062E474E088E494E00E9434
:1015F000660982E080934A045AC0609102017091AA
:10160000030141E088E491E00E947F0950C0853DDC
:101610003CE5930729F088F1883D9C4510F12DC0E9
:10162000FB01C281CC2309F442C0213061F0223099
:10163000A9F4609148047091490420E031E04FEF33
:1016400082E494E009C0609148047091490422E06A
:1016500031E041E088E491E00E945B0A10924A0484
:101660000AC080910005C82FC17080FF20C08FE89C
:1016700091E00E94D407C0E01AC0213061F022300E
:10168000A9F440910201509103012FEF68E474E046
:1016900082E494E009C0409100015091010121E0F1
:1016A00068E474E088E491E00E94CF09C1E08C2FE7
:1016B000CF911F910F910895FC016130D1F018F086
:1016C000623031F134C08281882339F00E94F21EE9
:1016D00090934D0480934C042AC080914C049091C7
:1016E0004D040E940A1F8739910520F585E891E095
:1016F000089582818111EACF80914C0490914D042C
:101700000E940A1F87399105C0F48BE791E0089584
:1017100082818111DBCF80914C0490914D040E9415
:101720000A1F8739910560F481E791E0089580E010
:1017300090E008958AE891E0089580E891E00895A6
:1017400086E791E00895EF92FF921F93CF93DF9386
:10175000EC017B01853021E5920711F485ED9CE5D4
:10176000B7010E94C60A182F8823D1F16091CF04D7
:101770007091D0048091D1049091D2040E94251DD3
:10178000C03D9CE5D907B1F050F4CE3CFCE5DF0745
:1017900049F1CF3C2CE5D20709F448C088C0C13DCF
:1017A0009CE5D90709F477C0C23DECE5DE0709F4F2
:1017B0006AC07DC0F7018281882391F085EE0E9486
:1017C000B11284EE0E94B11286E60E94B11286E642
:1017D0000E946C1384EE0E946C1385EE0E946C13C1
:1017E00010E07AC0F7018281882371F00E94F21E16
:1017F00090934D0480934C0481E080934B0480913E
:1018000004010E94981A38C080914C0490914D04B4
:101810000E940A1F8438934020F080914B0481116C
:101820002BC0809104010E94B91A26C0F701828161
:10183000882379F00E94F21E90934D0480934C040B
:1018400081E080934B040E94981A81EE0E94B112AD
:1018500013C080914C0490914D040E940A1F84385B
:10186000934020F080914B04811106C081E00E94DA
:10187000B91A81EE0E946C1344E061E0809104018A
:101880000E94F90DADCFF7018281882309F4A8CF1A
:1018900082E090E007C0F7018281882309F4A0CF9D
:1018A00083E090E0909305018093040199CF10921A
:1018B0004B04843089F4CE01CA970C9710F0E0975E
:1018C00059F4F701C28182E0CC2321F00E949F13DA
:1018D0001C2F02C00E949813812FDF91CF911F917E
:1018E000FF90EF9008956091CF047091D0048091A3
:1018F000D1049091D2040E94251D823089F028F4F1
:10190000882349F0813071F00895843071F028F017
:10191000853079F008958D9A06C08D9A599A0BC03A
:101920008D9A08C08D98599A02C08D9A59988C9AB0
:1019300008958D9859988C98089581E008950C9495
:10194000A30B0E9472162FEF84E39CE0215080408D
:101950009040E1F700C0000087E797E79093010807
:10196000809300080C945A1FFF920F931F93CF93FC
:10197000DF938C01FC01C081D181809173048111BE
:1019800013C08281882349F0CE010E94911BF82E5A
:10199000682FCE010E94361B04C0CE010E94651B39
:1019A000F82EBE018F2D04C0CE010E94911BBE01F6
:1019B0000E94400EEC01B8010E949F0C882309F49C
:1019C00011C1B801CE010E94AD10882309F40AC1EB
:1019D000C531FCE5DF0709F5F8018281811103C0FB
:1019E000C5E0DCE102C0CEEFDBE10E94961C8A7A02
:1019F00011F489E201C085E3FE0109950E94D91C1A
:101A000081E08093520480935304C801DF91CF9109
:101A10001F910F91FF900C949D0CC6318CE5D80757
:101A200008F075C0C130ECE5DE0779F4F801828179
:101A3000882309F4D7C089E195E00E94D4078091FA
:101A40000005816080930005CDC0C230FCE5DF0752
:101A500008F451C0F80182818823B9F20E94BF1DA9
:101A6000811102C00E94A51D0E94D21D90E090939A
:101A70003A0580933905FE01E350FC45E231F1055A
:101A800030F4EA5AFF4F809139050C94712F809100
:101A90003905816027C0826025C0846023C08061D1
:101AA00021C080621FC080641DC080681BC084602C
:101AB000886018C08E7F16C08D7F14C08B7F12C0C7
:101AC0008F7E10C08F7D0EC08F7B0CC08F770AC0B9
:101AD0008B7F877F07C087FB222720F991E0922721
:101AE00090FB87F980933905809139050E94D61DB6
:101AF0000E94721677C0C115DC4509F081CFF8014C
:101B00008281882309F46EC00E94A10C6BC0C93C7D
:101B1000ECE5DE0739F5F8018281882361F0109247
:101B200053040E94F21E909351048093500480E26B
:101B30000E94981357C08091530481110FC0809167
:101B40005004909151040E940A1F883C910530F482
:101B500087E20E94B11287E20E946C1380E20E9429
:101B60009F1340C0CA3CFCE5DF0738F5C83CDC45A4
:101B700009F046CFF8018281882351F01092520477
:101B80000E94F21E90934F0480934E0482E0D0CFC7
:101B90008091520481110FC080914E0490914F04A6
:101BA0000E940A1F883C910530F486E20E94B1121F
:101BB00086E20E946C1382E0D2CFCC3CECE5DE07DB
:101BC00031F4F8018281882369F080E009C0CD3CBE
:101BD000DC4509F015CFF8018281882319F082E0F5
:101BE0000E94582980E0DF91CF911F910F91FF90C3
:101BF0000895CF92DF92EF92FF920F931F9301E02F
:101C000010E020E030E06801790104C0CC0CDD1C5C
:101C1000EE1CFF1C8A95D2F704C0000F111F221F73
:101C2000331F6A95D2F70C291D292E293F29C09010
:101C3000CF04D090D004E090D104F090D204C02220
:101C4000D122E222F322842FC016D106E206F30647
:101C500041F41F910F91FF90EF90DF90CF900C9483
:101C6000981A1F910F91FF90EF90DF90CF900C94F6
:101C7000B91A0C9435090C9463090C9465090895FC
:101C80009AE0799FF001112492E3899FE00DF11D04
:101C90001124E60FF11DEE0FFF1FEF53FD4F85914D
:101CA00094910895880F991FFC01EF53FD4F859182
:101CB00094910895CF93DF932AE0729FF00111244D
:101CC00042E3849FE00DF11D1124E60FF11DEE0F9C
:101CD000FF1FEF53FD4F859194910E940310EC017B
:101CE000811550E49507B8F5811560E3960708F073
:101CF000E3C0803E9105D0F4803C910508F071C0AE
:101D0000883A910570F4853A910508F06DC08130EC
:101D1000910509F474C108F42BC1049708F06FC150
:101D200027C18D3B910508F46AC022C18F3F910500
:101D300009F048F4803F910508F0B8C0883E91054D
:101D400008F45DC115C1C11580E2D80708F457C178
:101D5000CE019F70ADC0C11594E5D907D8F4C11567
:101D600023E5D20708F0E3C0C11541E5D40740F4EC
:101D7000C11550E5D50708F0A8C0DF70D06A3FC193
:101D8000C11562E5D60708F0BCC0DC2FCC27C16FB7
:101D9000D06A35C1C11586E5D80750F4C11595E55F
:101DA000D90708F0DAC0DC2FCC27C46FD06A27C16E
:101DB000C11528E5D20708F4DBC0C11549E5D407F1
:101DC00008F4D1C0CE0190568115904208F0D0C0E1
:101DD0008D2F8F710E948010DD27D0628F71D82BDC
:101DE0000EC1805C910964C0853A910509F4C3C0B5
:101DF000863A910509F0C2C0C2E8D0E400C1883A31
:101E0000910509F4BEC0893A910509F4BDC08A3A2A
:101E1000910509F4BCC08B3A910509F4BBC08C3A1A
:101E2000910509F4BAC08B3B910509F4B9C08C3B0C
:101E3000910509F4B8C08D3A910509F4B7C0803B0B
:101E4000910509F4B6C08E3A910509F4B5C08F3AF0
:101E5000910509F4B4C0813B910509F4B3C0823BFC
:101E6000910509F4B2C0833B910509F4B1C0843BEC
:101E7000910509F4B0C0853B910509F4AFC0863BDC
:101E8000910509F4AEC0873B910509F4ADC0883BCC
:101E9000910509F4ACC0893B910509F4ABC08A3BBC
:101EA000910509F4AAC0C0E0D4E4A9C0D065A7C0D8
:101EB0000E94520EEC01A3C09927D3FF03C0EC018E
:101EC000D86C9DC0EC01D06C9AC02C2F237081E09F
:101ED00090E002C0880F991F2A95E2F79C689E0146
:101EE00044E0369527954A95E1F72370922BCF7001
:101EF000C695C69560E2C69FE0011124C82BD92B78
:101F00007EC02C2F2695269580E2289F90011124D3
:101F1000C370DD2781E090E0AC0102C0440F551F83
:101F2000CA95E2F7EA01C22BD32BDC6868C02C2FDC
:101F30002695269580E2289F90011124C370DD2705
:101F400081E090E0AC0102C0440F551FCA95E2F752
:101F5000EA01C22BD32BDA6852C0CF71DD27DC2F08
:101F6000CC27D0624CC0DC2FCC27C06FD06A47C0D2
:101F7000C0E0D0E044C0C1E8D0E441C0C3E8D0E450
:101F80003EC0C2EED4E43BC0C9EED4E438C0CAEED1
:101F9000D4E435C0C5EBD4E432C0C6EBD4E42FC0E2
:101FA000C3EBD4E42CC0C4EBD4E429C0C7EBD4E425
:101FB00026C0CCECD4E423C0CDECD4E420C0C3E8EC
:101FC000D5E41DC0CAE8D5E41AC0C2E9D5E417C0FB
:101FD000C4E9D5E414C0C1E2D6E411C0C3E2D6E43A
:101FE0000EC0C4E2D6E40BC0C5E2D6E408C0C6E227
:101FF000D6E405C0C7E2D6E402C0CAE2D6E4CE0108
:10200000DF91CF9108958238910549F1B0F4813381
:10201000910509F458C048F48932910509F44EC07D
:102020008A32910509F454C008958533910509F465
:1020300040C08933910599F00895833E910529F1B7
:1020400038F4803E910591F0823E9105A1F008950B
:10205000863E9105F9F0873E910531F10895209172
:10206000390520FD3AC021FD38C008958091390519
:1020700080FD35C032C08091390582FF32C0809129
:10208000390584FD30C083EE39C08091390582FD69
:1020900028C0F5CF8091390583FF27C0809139058D
:1020A00084FD21C087EE2AC08091390583FD1DC0C3
:1020B000F5CF8091390585FD1AC01BC08091390587
:1020C00085FD17C014C08091390586FD14C015C068
:1020D0008091390586FD11C00EC080EE0FC089E3E6
:1020E0000DC082EE0BC080E009C086EE07C089E219
:1020F00005C085E303C08AE201C081E390E0089552
:10210000CF93C82F0E94D21D90E090933A05809300
:10211000390582FF0DC09C2F9871983019F4C77F44
:10212000C46006C09C2F9471943011F4CB7FC860BA
:1021300083FF0DC09C2F9871983119F4C77EC4613C
:1021400006C09C2F9471943111F4CB7EC86184FD3C
:10215000C77E8C2FCF91089508950F931F93CF932F
:10216000FB012281211102C0C1E041C08C01C0915C
:102170006104C11125C086319C45B1F70E94AC10A5
:1021800081E0809361040E94F21E9093600480932A
:102190005F04109254041092560410925504109249
:1021A00058041092570410925A0410925904109235
:1021B0005C0410925B0410925E0410925D0417C0E0
:1021C00080915F04909160040E940A1F883C9105F1
:1021D00058F690915404E92FF0E0EE0FFF1FEB5AF0
:1021E000FB4F118300839F5F90935404C0E08C2FBA
:1021F000CF911F910F910895909367048093660487
:102200000895E0916604F0916704309721F0019001
:10221000F081E02D099480E00895EF92FF920F93F2
:102220001F93CF93DF93E0916604F091670430979A
:10223000B1F18C010280F381E02D099580910005B8
:1022400082FF2DC080FF04C083E395E00E94D40785
:10225000E80110E28DE2E82E85E0F82E809100057D
:1022600080FF0BC088811F928F93FF92EF920E9494
:102270006D080F900F900F900F9011502196111133
:10228000EDCF8091000580FF0AC08BE295E0DF91E1
:10229000CF911F910F91FF90EF900C94D407DF9195
:1022A000CF911F910F91FF90EF900895E0916604F8
:1022B000F0916704309721F00480F581E02D0994B6
:1022C000089520916404309165048217930771F09A
:1022D0009093650480936404E0916604F091670430
:1022E000309721F00680F781E02D09940895209120
:1022F0006204309163048217930771F09093630432
:1023000080936204E0916604F0916704309721F0B5
:102310000084F185E02D0994089508950C948D11A1
:102320000E94E91E0E9477080C946B1FCF93C82F60
:102330008091000582FF1EC080FF04C08CE495E000
:102340000E94D4078091000580FF0CC01F92CF939C
:1023500087E495E09F938F930E946D080F900F90F4
:102360000F900F908091000580FF04C085E495E0F8
:102370000E94D4078C2FCF910C943D0E4F925F9208
:102380007F928F929F92AF92BF92CF92DF92EF9205
:10239000FF920F931F93CF93DF93CDB7DEB72A97AA
:1023A0000FB6F894DEBF0FBECDBF0E94790899E644
:1023B000C92E94E0D92E00E010E0AA24A394B12CF9
:1023C000702E802F0E94D1084C01F601419051904F
:1023D0006F014826592641145104B1F40F5F1F4F75
:1023E0000530110569F78FEF89838A831B820E946C
:1023F000F21E8160782F9D838C8349815A816B8185
:102400008D810E9477123AC08091000581FD0E9463
:10241000DA0820E030E07501022E02C0EE0CFF1C4D
:102420000A94E2F7C70184219521892B09F12E83B3
:102430007F828E209F2091E0892809F490E0988780
:102440000E94F21E8160782F9A8789874E815F8172
:1024500068858A850E947712000F111FF801E759DD
:10246000FB4F80819181E826F926F182E08206C047
:102470002F5F3F4F2A30310571F6B0CF0E94802187
:10248000109168040E9401111817D9F00E940111DF
:10249000809368042A960FB6F894DEBF0FBECDBFB6
:1024A000DF91CF911F910F91FF90EF90DF90CF9030
:1024B000BF90AF909F908F907F905F904F900C94C3
:1024C00096112A960FB6F894DEBF0FBECDBFDF91EE
:1024D000CF911F910F91FF90EF90DF90CF90BF9021
:1024E000AF909F908F907F905F904F900895CF9383
:1024F000DF93CDB7DEB72B970FB6F894DEBF0FBED4
:10250000CDBF4F83588769877A878B87DE01119605
:1025100086E0FD0111928A95E9F785E0FE01379684
:1025200001900D928A95E1F70E94391C882319F0D9
:1025300082E00E94741C0E940C1C81110E94D21C1B
:1025400049815A816B817C818D819E810E940A190B
:102550002B960FB6F894DEBF0FBECDBFDF91CF91A3
:102560000895CF93DF931F92CDB7DEB7882309F488
:10257000AFC0682F8CEF860F813A70F4862F698385
:102580000E94DE2469818111A3C08091060190918F
:1025900007010E94591E0CC080E2860F883068F443
:1025A000677081E001C0880F6A95EAF70E94991C64
:1025B0000F90DF91CF910C94D91C8BE5860F83305F
:1025C00088F4653A29F0663A31F083E890E005C076
:1025D00081E890E002C082E890E00F90DF91CF9117
:1025E0000C94611188E5860F853108F071C0683A56
:1025F00061F1693A69F16A3A71F16B3A79F16C3AD1
:1026000081F16B3B89F16C3B91F16D3A99F1603B43
:10261000A1F16E3AA9F16F3AB1F1613BB9F1623BB8
:10262000C1F1633BC9F1643BD1F1653BD9F1663B34
:10263000E1F1673BE9F1683BF1F1693BF9F16A3B94
:1026400009F43FC080E090E03EC082EE90E03BC0E5
:1026500089EE90E038C08AEE90E035C085EB90E0DE
:1026600032C086EB90E02FC083EB90E02CC084EB6F
:1026700090E029C087EB90E026C08CEC90E023C06E
:102680008DEC90E020C083E891E01DC08AE891E0E5
:102690001AC082E991E017C084E991E014C081E298
:1026A00092E011C083E292E00EC084E292E00BC09F
:1026B00085E292E008C086E292E005C087E292E0FF
:1026C00002C08AE292E00F90DF91CF910C947711D3
:1026D0000F90DF91CF910895882349F1682F8CEFF7
:1026E000860F813A38F480910601909107010E948B
:1026F000641E0CC080E2860F883050F4677081E061
:1027000001C0880F6A95EAF70E949F1C0C94D91C9F
:102710008BE5860F833020F480E090E00C9461110B
:10272000685A653120F480E090E00C9477110895A8
:10273000882321F00E94991C0C94D91C08958823A9
:1027400021F00E949F1C0C94D91C08954F925F9217
:102750006F927F92AF92BF92CF92DF92EF92FF92F1
:102760000F931F93CF93DF931F92CDB7DEB77C01FA
:10277000A72EFC01058102950F701281112321F013
:1027800069830E94B61C698169830E948F1C6981DC
:10279000882381F0112371F080E2860F883050F099
:1027A00082E00E94741C0E948F1C91E0B82EB92612
:1027B000698101C0B12CCA2CC2948FE0C822D12CEF
:1027C000F601E859FF4F0C94712F8A2D807F0A2D56
:1027D0000F70882311F00295007F1123C1F00023B0
:1027E00009F4DCC180E2860F883010F0611105C069
:1027F000802F69830E94991C04C0802F69830E94E6
:10280000A91C698169830E94D91C6981C7C1862F6F
:1028100069830E946C136981002309F4E2C180E29C
:10282000860F883010F0611104C0802F0E949F1C19
:1028300003C0802F0E94AF1C0E94D91CD2C18A2DD8
:10284000807F9A2D9F70803211F4892F03C0892FC9
:102850008295807F662319F06130B1F01FC011238B
:1028600049F0002309F452C1013009F04FC10E9420
:10287000C91CB7C1002319F0013009F4B2C1898322
:102880000E94D21C898148C1112321F0063008F032
:10289000A8C13CC1053008F0A4C13EC1112351F0CC
:1028A000002309F433C1F701958190FF77C19F7030
:1028B00095832CC1002309F42FC181C18A2D8695EF
:1028C0008695837090E0009719F0019761F089C1B7
:1028D000112321F0862F9A2D937002C080E090E0A2
:1028E0000E9461118EC1112321F0862F9A2D9370C1
:1028F00002C080E090E00E94771183C11123F9F0BB
:10290000653F51F0663F71F0643FA9F48091330553
:102910009091340581600BC080913305909134050E
:10292000826005C080913305909134058460909356
:10293000340580933305862F0E9406201EC0653F14
:1029400051F0663F71F0643FA9F480913305909196
:1029500034058E7F0BC080913305909134058D7FB7
:1029600005C080913305909134058B7F9093340599
:1029700080933305862F0E946E200E94F32041C170
:102980008A2D837009F052C0111137C1862F8295AC
:1029900086958770880F880F962F9F70492E512C2F
:1029A000612C712C082E04C0440C551C661C771C2D
:1029B0000A94D2F764FF14C00FE010E020E030E08A
:1029C000B901A80104C0440F551F661F771F8A95DF
:1029D000D2F7CB01BA01609570958095909503C0B0
:1029E00060E070E0CB012A2D26952695237030E01B
:1029F0002230310569F02330310589F064297529C9
:102A0000862997292130310571F00E944D1AF5C0B1
:102A100064297529862997290E945F1AEEC00E94B1
:102A20004D1AC301B2010E943B1AE7C0112319F0ED
:102A30008A2D817001C08695882309F4DEC0862F17
:102A4000829586958770880F880F962F9F70492EE4
:102A5000512C612C712C082E04C0440C551C661C92
:102A6000771C0A94D2F764FF14C00FE010E020E056
:102A700030E0B901A80104C0440F551F661F771F3D
:102A80008A95D2F7CB01BA016095709580959095A3
:102A900003C060E070E0CB012A2D269526952370B7
:102AA000422F50E04230510569F04330510589F022
:102AB00064297529862997294130510571F00E94B2
:102AC000111B9BC064297529862997290E94231B05
:102AD00094C00E94111BC301B2010E94FF1A8DC055
:102AE000862F90E0FC01E05EF109E531F10508F088
:102AF00051C0E858FF4F0C94712F062F0F708A2D8C
:102B00008F71112331F00E94981A802F0E94981320
:102B100068C00E94B91A802F0E949F1362C01123BF
:102B200041F0053008F05DC08A2D8F710E94DE1AD9
:102B300058C0063008F055C0F7CF112339F08A2D60
:102B40008F710E94981A4DC01123C9F38A2D8F717D
:102B50000E94B91A46C0112329F08A2D8F710E9454
:102B6000831A3FC00E947E1A3CC0112351F01A2DD7
:102B70001F71812F0E94981A63E0812F0E94641CAC
:102B800030C081E00E94741C023058F182E00E9443
:102B9000741C27C0112331F0002389F2862F0E9474
:102BA000B1121FC0002391F2693349F45FEF77EE51
:102BB00083E0515070408040E1F700C00000862F54
:102BC0000E946C130EC04A2D4F70C7010E945C0B0F
:102BD0000E94AE1916C04A2D4F70C7010E943F0EC9
:102BE00010C098E0C916D10441F05CF0FAE0CF1AA9
:102BF000D10822E0C216D10420F40E9401110E94E3
:102C00003D0EBB2001F10E94351C80FD1CC0F70168
:102C100012820E942F1C0E94981AC7010E9433162C
:102C20000E942F1C0F90DF91CF911F910F91FF9069
:102C3000EF90DF90CF90BF90AF907F906F905F90BC
:102C40004F900C94B91A0F90DF91CF911F910F9173
:102C5000FF90EF90DF90CF90BF90AF907F906F90FC
:102C60005F904F9008950F931F93CF93DF93EC01E4
:102C7000888199812B813C81232BB9F09F3F11F4EE
:102C80008F3F99F0CE010E94B40C882371F06881C7
:102C900079818A810E94DB1B8C010E94351B0E9476
:102CA000381AB801CE010E94A613DF91CF911F916F
:102CB0000F9108950E94B61C0E94C61C80910601C7
:102CC000909107010E946F1E0E94D91C0E9425222C
:102CD0000E94F32080E090E00E94611180E090E08B
:102CE0000C9477110E94A61C0C945A160E94D01BBB
:102CF000E92FE295EF70F0E03297EE30F105B0F495
:102D0000E357FF4F0C94712F803F91F018F4803EF1
:102D100068F40EC0843F51F40BC0803E48F0813F00
:102D200029F406C093FB882780F9089580E0089570
:102D300081E00895CF93DF9300D000D01F92CDB7EC
:102D4000DEB70F900F900F900F900F90DF91CF9103
:102D50000895CF93DF9300D000D000D0CDB7DEB779
:102D600026960FB6F894DEBF0FBECDBFDF91CF9190
:102D700008951F93CF93DF93C091740416E0809160
:102D80007504C81799F0D0E01C9FF0011D9FF00D4D
:102D90001124EA58FB4F4081518162817381848103
:102DA00095810E94A9162196C770E9CFDF91CF9136
:102DB0001F9108954091A6045091A7046091A80422
:102DC0007091A9048091AA049091AB040C94A91667
:102DD0008091AB0482958F7009F054C08091A80453
:102DE000882309F44FC080917404A0917504609108
:102DF000A6047091A7044091A9045091AA04B6E0DA
:102E00008A1709F43FC090E041155105C1F17F3F99
:102E100011F46F3FA1F1B89FF001B99FF00D11249B
:102E2000EA58FB4F218172132AC02081621327C008
:102E30002281211124C0238134812417350710F405
:102E400021503109241B350B283C3105C0F4209159
:102E5000AB042F7020612093AB0426E0289FF00183
:102E6000299FF00D1124E558FB4F80818F70806100
:102E7000808386EA94E00E9433160C94B91601967A
:102E80008770BECF0895CF92DF92EF92FF920F939B
:102E90001F93CF93DF93CDB7DEB762970FB6F89449
:102EA000DEBF0FBECDBF8C0185E0F801DE011D96AF
:102EB00001900D928A95E1F7D8014C9111965C91A1
:102EC000119712966C9112971396CD90DC901497EF
:102ED0003091A6047091A7048091A9049091AA044E
:102EE000009709F46BC17F3F19F43F3F09F466C1B5
:102EF000E090A804EE2009F4C0C02091AB04C816ED
:102F0000D90628F0F601E81BF90BCF0104C0809523
:102F100090958C0D9D1DFF24F394883C910578F0CD
:102F2000F12C207F09F0C6C07C2DD98AC88A8989F6
:102F30000E949A1686EA94E00E943316B1C0822F4E
:102F4000807F09F046C0751314C0341312C061119C
:102F500010C02F7020612093AB040E94DA1686EA1D
:102F600094E00E9433168091AB04D80115968C939F
:102F70002EC0CD2819F15F3F11F44F3FF9F0F62E26
:102F800061111CC0809174042091750436E0821791
:102F900009F45AC090E0389FF001399FF00D1124D8
:102FA000EA58FB4F7181571306C07081471303C065
:102FB0007281711103C001968770E9CFF62E6623E6
:102FC00009F418C18091AB0481608093AB04F12CAB
:102FD00011C1751308C0341306C0611104C080917B
:102FE000AB04D801C3C04D875E878D859E856A8BF3
:102FF0000E9476166A898823E1F16623D1F1209137
:10300000AB04822F82958F7090E0029774F08091CC
:10301000A6049091A70498878F831986DB86CA86B9
:103020002C87CE0107960E94331686E0F801A6EAA7
:10303000B4E001900D928A95E1F70E94E8160E9493
:10304000DA16FF24F394D6C04D875E878D859E8562
:103050000E94D01B292F22952F7030E0223031059D
:103060000CF0BCC09F7009F0B6C0805E883008F4D8
:10307000C1C0C8010E943316E4CFC816D90608F4AF
:1030800053C0F601E81BF90BCF01883C910508F409
:1030900050C0F12C7C2DD98AC88A89890E949A1641
:1030A000E6EAF4E086E0DF011D928A95E9F70E94E6
:1030B000DA16A0C0751314C0341312C0611110C009
:1030C0008091AB04F8018583C8010E94331686E025
:1030D000E6EAF4E0DF011D928A95E9F7FE2C8AC04A
:1030E0004D875E878D859E856A8B0E9476166A89DC
:1030F000882309F4BECF662309F4BBCF2091AB042B
:10310000822F82958F7090E002970CF48ECF809181
:10311000A6049091A7049A8389831B82DD82CC82C6
:103120002E83CE0101967FCF809590958C0D9D1DAD
:10313000ACCFF62E662309F49CCF75132EC0341342
:103140002CC02091AB0420FD1FC0822F82958F7070
:10315000D9F0D80115962C9315978F3049F08F5FD1
:10316000982F9295907F822F8F70892B15968C9334
:10317000C8010E94331686E0F801A6EAB4E0019087
:103180000D928A95E1F793CF86E0F801A6EAB4E0C4
:1031900001900D928A95E1F72DC04D875E878D8550
:1031A0009E850E947616811140CF8091AB0481608C
:1031B0008093AB04C8010E9433161CC0662309F437
:1031C00058CF4D875E878D859E850E947616882311
:1031D00009F44FCF2ACF811148CF0CC024303105DC
:1031E0000CF047CF9F7009F440CFF8019581907F94
:1031F00009F03BCF8F2D62960FB6F894DEBF0FBE5D
:10320000CDBFDF91CF911F910F91FF90EF90DF9095
:10321000CF9008951F93CF93DF93CDB7DEB72C9750
:103220000FB6F894DEBF0FBECDBF4F8358876987B6
:103230007A878B879C87CE0107960E944317882345
:1032400069F08F8198852A853B85232BF1F19F3F7B
:1032500009F063C08F3F09F060C037C086E0FE010F
:103260003796DE01119601900D928A95E1F76F81F4
:103270007885EA85FB85309741F17F3F11F46F3FF8
:1032800021F12091750430E0C901019687709927DA
:103290004091740450E08417950709F447C069838E
:1032A0007A83FD83EC8396E0929FD001939FB00DCB
:1032B0001124AA58BB4FFE01319601900D929A95A8
:1032C000E1F7809375040E94B91616E080917404AA
:1032D000909175048917C1F1189FC00111248A5873
:1032E0009B4F0E944317882379F1E09174041E9F3D
:1032F000F0011124EA58FB4F4081518162817381B2
:10330000848195810E94A9168091740490E00196B1
:103310008770992780937404D9CF4F815885698528
:103320007A858B859C850E94A916CFCF0E94721644
:103330001092750410927404E6EAF4E086E0DF016E
:103340001D928A95E9F7C1CF2C960FB6F894DEBF8F
:103350000FBECDBFDF91CF911F910895EF92FF92E5
:103360000F931F93CF93DF938C01892B09F46CC0CB
:10337000F12CEE24E394E8012196F801849184373E
:1033800040F4843008F051C0813081F0823019F16E
:103390005BC0853709F444C0A8F19CE7980F9037CB
:1033A00008F052C08F770E946C1341C00E5F1F4F10
:1033B000FE01C49180E28C0F883048F4C7708E2DD6
:1033C00001C0880FCA95EAF70E94B91C14C08C2F5F
:1033D0000E94B1122DC00E5F1F4FFE01C49180E20A
:1033E0008C0F883058F4C7708E2D01C0880FCA9595
:1033F000EAF70E94BF1C0E94D91C1AC08C2F0E94A1
:103400006C1316C00E5F1F4FFE01C491CC2381F0D8
:103410008FE99FE00197F1F700C00000C150F6CF9F
:103420000E5F1F4FFE01F49003C00E94B1128E0187
:103430008F2D882309F49FCFEFE9FFE03197F1F753
:1034400000C000008150F5CFDF91CF911F910F9107
:10345000FF90EF90089508950E942B1A6093D30473
:103460007093D4048093D5049093D6040C945A1688
:1034700008950C942C1A0F931F930091D30410916C
:10348000D4042091D5043091D604602B712B822B6B
:10349000932B1F910F910C942C1A0F931F93009153
:1034A000D3041091D4042091D5043091D604602324
:1034B0007123822393231F910F910C942C1A0F9345
:1034C0001F930091D3041091D4042091D50430911E
:1034D000D60460277127822793271F910F910C94A0
:1034E0002C1A08950E94711A6093CF047093D0042F
:1034F0008093D1049093D2040C945A1660E070E04B
:10350000CB010C94721A0F931F9341E050E060E0DE
:1035100070E08A019B0104C0000F111F221F331F9E
:103520008A95D2F7C901B8011F910F910C94721AB4
:103530000F931F9341E050E060E070E004C0440F3F
:10354000551F661F771F8A95D2F78091CF049091FF
:10355000D004A091D104B091D2048A019B01082B20
:10356000192B2A2B3B2BC901B8011F910F910C94E9
:10357000721A0F931F9341E050E060E070E004C0C6
:10358000440F551F661F771F8A95D2F740955095B7
:10359000609570958091CF049091D004A091D10452
:1035A000B091D2048A019B01082319232A233B23CB
:1035B000C901B8011F910F910C94721A0F931F93B8
:1035C00041E050E060E070E004C0440F551F661F0A
:1035D000771F8A95D2F78091CF049091D004A09163
:1035E000D104B091D2048A019B01082719272A2708
:1035F0003B27C901B8011F910F910C94721A0F93C8
:103600001F930091CF041091D0042091D1043091E8
:10361000D204602B712B822B932B1F910F910C9452
:10362000721A0F931F930091CF041091D004209130
:10363000D1043091D20460237123822393231F91FC
:103640000F910C94721A0F931F930091CF04109155
:10365000D0042091D1043091D204602771278227B1
:1036600093271F910F910C94721A08952AE0929F4C
:10367000800D1124A82FA695A695A695877051E0D8
:1036800001C0550F8A95EAF785E0A89FD001112463
:1036900020E030E070E0F901EA0FFB1FE455FB4F3A
:1036A0004081CB01022E02C0969587950A94E2F7DD
:1036B00081709927819584278523842780832F5FB4
:1036C0003F4F2530310539F708952AE0929F800D4C
:1036D0001124682F669566956695982F977085E0FA
:1036E000689FB001112440E050E080E0FA01E60F4D
:1036F000F71FE455FB4F208130E0092E02C03695BC
:1037000027950A94E2F721703327042E01C0220F77
:103710000A94EAF7822B4F5F5F4F4530510531F72E
:103720000895CF92DF92EF92FF920F931F93CF9362
:10373000DF938C01C090D304D090D404E090D504E2
:10374000F090D6048091CF049091D004A091D10440
:10375000B091D204C82AD92AEA2AFB2ACFE1D0E0C4
:10376000D701C6010C2E04C0B695A79597958795ED
:103770000A94D2F780FF06C0B8018C2F0E945A0E1F
:10378000019721F4219760F780E001C08C2FDF9131
:10379000CF911F910F91FF90EF90DF90CF90089500
:1037A000CF93DF93EC010E94911BBE010E945A0E41
:1037B000DF91CF9108951F93CF93DF93EB01909109
:1037C0007304992321F0CB010E94D01B13C08823DE
:1037D00049F0CB010E94911B182F682FCE010E9447
:1037E000361B04C0CB010E94651B182FBE01812F20
:1037F0000E945A0EDF91CF911F910895682F8091FA
:103800000601909107010C94591E682F80910601C2
:10381000909107010C94641E0E94F21E2091DA041C
:103820003091DB048217930750F00E94F21E209122
:10383000DA043091DB04821B930B9C010AC00E94C6
:10384000F21E2091DA043091DB0420953095280F88
:10385000391F81E0243F314008F480E008958091D1
:10386000D90485958595859508958091D9048770AB
:1038700008950E94F21E2091D7043091D804821737
:103880009307A8F00E94F21E2091D7043091D8042B
:10389000821B930B843F914010F480E013C0809111
:1038A000D90482FB882780F991E089270BC00E9408
:1038B000F21E2091D7043091D80420953095820FC4
:1038C000931FE8CF8170089598E0899F900111249B
:1038D000262B2093D9040E94981A0E94F21E9093DE
:1038E000D8048093D70408952091D9048095822329
:1038F0008093D904982F977089F430E0482F082ED0
:10390000000C550B2417350749F08595859585954D
:103910000E94B91A1092D8041092D7040895909179
:10392000D904977081E009F480E008958091FF0444
:1039300008959091FF04892B8093FF04089580954A
:103940009091FF0489238093FF0408951092FF044F
:1039500008959091FE04892B8093FE04089580952C
:103960009091FE0489238093FE0408951092FE0432
:1039700008959091FD04892B8093FD04089580950E
:103980009091FD0489238093FD0408951092FD0415
:1039900008958093DC040E94F21E9093DB048093D0
:1039A000DA0408951092DC041092DB041092DA0419
:1039B0000895E0910601F09107018091FF04808352
:1039C000E0910601F091070190818091FE04892B1E
:1039D0008083E0910601F091070190818091FD04C0
:1039E000892B80838091DC04882321F10E940C1CA8
:1039F000882371F08091000580FF08C08FE595E075
:103A00009F938F930E946D080F900F900E94D21C7D
:103A1000E0910601F091070190818091DC04892BEF
:103A2000808380910601909107010E94DB1D811126
:103A30000E94D21C80910601909107010C940D11F7
:103A400090933D0180933C010895CF92DF92EF92D5
:103A5000FF926C01EE24FF24C114D104E104F104AF
:103A600021F0C701B60120E101C020E0C72ED82E09
:103A7000E92EFF24C114D104E104F10419F0285FF8
:103A8000C701B6016B017C0154E0F694E794D7942A
:103A9000C7945A95D1F7C114D104E104F10419F087
:103AA0002C5FC701B6016B017C0142E0F694E794FC
:103AB000D794C7944A95D1F7C114D104E104F10415
:103AC00019F02E5FC701B601DC01CB01B695A795B1
:103AD00097958795892B8A2B8B2B09F02F5F822F47
:103AE000FF90EF90DF90CF9008958295982F9C7C67
:103AF000392F36953695282F237344E0249FC00133
:103B00001124932F982B292F2A7A2695892F857592
:103B1000880F822B08951F93CF93DF931F92CDB709
:103B2000DEB799830E94751D182F9981892F0E94F5
:103B3000751D212F30E0322F2227A901482BCA0101
:103B40000F90DF91CF911F9108956DEE7EEF80E091
:103B500090E00E94AB2F60E082E090E00E94992FFD
:103B600060E083E090E00E94992F60E084E090E0C4
:103B70000E94992F60E085E090E00C94992F80E0FE
:103B800090E00E94932F21E08D3E9E4F09F020E0AF
:103B9000822F089582E090E00C948B2F83E090E0D8
:103BA0000C948B2F84E090E00C948B2F682F84E092
:103BB00090E00C94992FFC0131969C01205E3F4FC0
:103BC00080E0919191118F5FE217F307D1F708958B
:103BD0009C01FC0132969FEF80E04191461789F0ED
:103BE0009F3F19F4411101C0982F8F5F8E31A9F7C3
:103BF0009F3F39F0F901E90FF11D97FDFA956283B6
:103C000008950895FC01329680962081261301C004
:103C100010823196E817F907C1F70895262F2695E7
:103C2000269526952F3170F4FC01E20FF11D677087
:103C300021E030E001C0220F6A95EAF78181282B4C
:103C4000218308958091000580FF0CC01F926F931F
:103C50008FE895E09F938F930E946D080F900F90CF
:103C60000F900F900895262F2695269526952F3193
:103C700078F4FC01E20FF11D677021E030E001C033
:103C8000220F6A95EAF720958181282321830895E0
:103C90008091000580FF0CC01F926F9381E795E033
:103CA0009F938F930E946D080F900F900F900F902D
:103CB000089520911801222329F02091390527FD2C
:103CC0000C940E1E0C94E81D20911801222329F05B
:103CD0002091390527FD0C94331E0C94021EFC0123
:103CE000319680961192E817F907E1F708958091CF
:103CF0003F05843039F11092010520E488E190E01D
:103D00000FB6F894A895809360000FBE20936000D2
:103D100080E00E943D0E83B7817F846083BF83B7BC
:103D2000816083BF7894889583B78E7F83BF0FB6F9
:103D3000F894A8958091600088618093600010924B
:103D400060000FBE089508950895CF930E94A31EAA
:103D50000E9479080E94A41EC0E08C2F0E94D10806
:103D6000892B29F4CF5FC530C1F780E001C081E025
:103D7000CF9108950E9472160E9401110C943D0E7D
:103D80001F920F920FB60F9211248F939F93AF93B0
:103D9000BF9380910105811113C0809135059091E9
:103DA0003605A0913705B09138054196A11DB11D8A
:103DB0008093350590933605A0933705B093380569
:103DC000BF91AF919F918F910F900FBE0F901F9059
:103DD000189582E084BD93E095BD9AEF97BD8093DE
:103DE0006E0008952FB7F8948091350590913605AF
:103DF000A0913705B09138052FBF08952FB7F894DB
:103E000060913505709136058091370590913805A0
:103E10002FBF0895CF92DF92EF92FF920F931F93DF
:103E20002FB7F894409135055091360560913705CC
:103E3000709138052FBF6A017B01EE24FF248C01AD
:103E400020E030E0C016D106E206F30610F441503F
:103E500051099A01281B390BC9011F910F91FF903D
:103E6000EF90DF90CF90089578941F920F920FB645
:103E70000F9211248F939F93AF93BF938091350539
:103E800090913605A0913705B09138050196A11D96
:103E9000B11D8093350590933605A0933705B093F7
:103EA0003805BF91AF919F918F910F900FBE0F90EA
:103EB0001F90189587E797E7909301088093000873
:103EC0009AE088E10FB6F894A895809360000FBE41
:103ED00090936000FFCF0E94BF1D811102C00E941D
:103EE000A51D0E94CA1D809300050E94D21D90E06E
:103EF00090933A05809339050E94CE1D682F70E09B
:103F000080E090E00C94391A8091040580FF0BC08A
:103F100060910B0185E0689FB0011124759567954C
:103F2000759567952BC081FF09C060910B0185E0F5
:103F3000689FB00111247595679520C082FF07C066
:103F400060910B0185E0689FB001112417C090912A
:103F500005059923D1F060910A01961788F7209101
:103F60000B0185E0289F90011124929FA001939F4F
:103F7000500D112470E0CA010E945D2F6038710558
:103F800040F46115710539F002C065E070E0862FDC
:103F900008958FE7089581E008958091040580FFDA
:103FA00008C06091090170E07595679575956795F2
:103FB00021C081FF06C06091090170E07595679589
:103FC00019C082FF04C06091090170E010C0909197
:103FD00005059923C1F0609108019617A0F780911B
:103FE0000901899FC001112470E00E945D2F603893
:103FF000710528F46115710521F0862F08958FE76A
:10400000089581E0089561E070E0F4CF803F21F4ED
:104010000E94841F819504C0813F29F40E94841F5F
:10402000809308050895823F21F40E94841F8195A2
:1040300004C0833F29F40E94841F809307050895DC
:10404000893F19F40E94CD1F05C08A3F31F40E94B8
:10405000CD1F81958093090508958B3F21F40E941F
:10406000CD1F819504C08C3F29F40E94CD1F809301
:104070000A050895843F21F480910605816017C0E8
:10408000853F21F480910605826011C0863F21F4AE
:104090008091060584600BC0873F21F4809106055E
:1040A000886005C0883F31F4809106058061809367
:1040B000060508958D3F21F48091040581600BC0B1
:1040C0008E3F21F480910405826005C08F3F29F462
:1040D000809104058460809304050895803F39F43D
:1040E0008091080587FF6CC01092080569C0813F68
:1040F00029F4809108051816BCF362C09091070559
:10410000823F29F497FF5CC01092070559C0833F96
:1041100019F41916CCF354C0893F41F48091090574
:1041200018160CF04DC0109209054AC08A3F29F4B8
:104130008091090587FF44C0F6CF8B3F39F4809109
:104140000A0587FF3DC010920A053AC08C3F29F44A
:1041500080910A051816BCF333C0843F21F4809186
:1041600006058E7F17C0853F21F4809106058D7F5F
:1041700011C0863F21F4809106058B7F0BC0873FDD
:1041800021F480910605877F05C0883F31F4809136
:1041900006058F7E8093060513C08D3F21F4809124
:1041A00004058E7F0BC08E3F21F4809104058D7F26
:1041B00005C08F3F29F4809104058B7F809304050F
:1041C0008091070581110EC08091080581110AC0F8
:1041D00080910905811106C080910A05811102C0F4
:1041E0001092050508958091000583FF7EC084ED3F
:1041F00095E00E94D407809106051F928F938FEC63
:1042000095E09F938F930E946D088DEC95E00E943E
:10421000D40780910705282F082E000C330B3F93FD
:104220008F938AEC95E09F938F930E946D0888ECA2
:1042300095E00E94D40780910805282F082E000CD5
:10424000330B3F938F9385EC95E09F938F930E9460
:104250006D0883EC95E00E94D40780910905282F12
:10426000082E000C330B3F938F9380EC95E09F93C7
:104270008F930E946D088EEB95E00E94D407809189
:104280000A05282F082E000C330B3F938F938BEBDE
:1042900095E09F938F930E946D0888EB95E00E94B4
:1042A000D407809105051F928F9385EB95E09F932E
:1042B0008F930E946D0883EB95E00E94D407809154
:1042C00004051F928F9380EB95E09F938F930E943C
:1042D0006D088DEA95E00E94D4078DB79EB74C9685
:1042E0000FB6F8949EBF0FBE8DBF86E095E00E948A
:1042F00056110E94F21E90930305809302050895C3
:104300001F93CF93DF9380910205909103050E9444
:104310000A1FAC0190910505992321F020910C0111
:1043200030E006C020910D018AE0289F9001112401
:104330004217530708F485C080910705C09108050E
:10434000D091090510910A05811107C0C11175C0EE
:10435000D11173C0111171C074C09F3F19F09F5FDC
:1043600090930505181624F40E94841F8093070576
:104370008091070587FF05C00E94841F8195809367
:1043800007051C1624F40E94841F80930805809161
:10439000080587FF05C00E94841F8195809308054A
:1043A00060910705662331F1C0910805CC2311F116
:1043B000062E000C770B880B990B0E94582E23E3D6
:1043C00033E343E35FE30E94BC2E0E94202E609300
:1043D00007056C2FCC0F770B880B990B0E94582E7A
:1043E00023E333E343E35FE30E94BC2E0E94202ECD
:1043F000609308051D1624F40E94CD1F80930905C3
:104400008091090587FF05C00E94CD1F819580938B
:104410000905111624F40E94CD1F80930A0580918E
:104420000A0587FF05C00E94CD1F819580930A056C
:10443000DF91CF911F910C94F3209F3F09F08FCF14
:1044400097CFDF91CF911F910895E6E0F5E085E0E9
:10445000DF011D928A95E9F7109205051092040577
:10446000089587EF97E00E94D4071F9281E08F9311
:104470001F9285E08F9389EA97E09F938F930E9424
:104480006D080F900F900F900F900F900F90089560
:104490008330E9F128F4813061F0823009F1089528
:1044A000853009F462C008F449C0863009F474C04C
:1044B000089580910D01262F30E0280F311D2F3FE8
:1044C000310524F4680F60930D0103C08FEF8093D2
:1044D0000D0180910D011F928F9382EE96E072C0C4
:1044E00080910C01262F30E0280F311D2F3F310520
:1044F00024F4680F60930C0103C08FEF80930C01CC
:1045000080910C011F928F9380ED96E05BC08091AB
:104510000B01262F30E0280F311D2F3F310524F4E9
:10452000680F60930B0103C08FEF80930B018091A4
:104530000B011F928F938DEB96E044C080910A018E
:10454000262F30E0280F311D2F3F310524F4680F4E
:1045500060930A0103C08FEF80930A0180910A01E2
:104560001F928F9388EA96E02DC080910901262F33
:1045700030E0280F311D2F3F310524F4680F609380
:10458000090103C08FEF80930901809109011F92F7
:104590008F938FE896E016C080910801262F30E0B7
:1045A000280F311D2F3F310524F4680F6093080157
:1045B00003C08FEF80930801809108011F928F93B1
:1045C00084E796E09F938F930E946D080F900F9061
:1045D0000F900F900895833081F128F4813059F0C5
:1045E0008230D1F00895853009F449C0B8F18630A1
:1045F00009F456C0089580910D01681720F4861BB8
:1046000080930D0102C010920D0180910D011F9247
:104610008F9385E696E054C080910C01681720F4D2
:10462000861B80930C0102C010920C0180910C013A
:104630001F928F9383E596E043C080910B0168172A
:1046400020F4861B80930B0102C010920B01809115
:104650000B011F928F9380E496E032C080910A0193
:10466000681720F4861B80930A0102C010920A0189
:1046700080910A011F928F938BE296E021C0809176
:104680000901681720F4861B8093090102C010926B
:104690000901809109011F928F9382E196E010C079
:1046A00080910801681720F4861B8093080102C0DE
:1046B00010920801809108011F928F9387EF95E077
:1046C0009F938F930E946D080F900F900F900F9003
:1046D0000895CF93C82F1F928F938CEF98E09F93EC
:1046E0008F930E946D0881E090E0A0E0B0E0BC01F3
:1046F000CD0104C0660F771F881F991FCA95D2F796
:104700000E94391A0F900F900F900F90CF910C9438
:104710007216CF938732A8F58E3108F032C18031FE
:1047200009F49FC0F8F4873009F465C0A8F4863016
:1047300009F02DC180910005817F8E7F8093000557
:1047400082E99AE00E94D40783EF9CE00E94D4079C
:1047500081E080930C054DC08B30F1F18E3009F46F
:104760006CC015C1863109F4B0C020F4813109F460
:10477000F0C00DC1893109F491C08B3109F449C0F1
:1047800006C1883349F150F4893209F4FCC08533FD
:1047900009F4F9C0873209F4F6C0F9C0833409F48A
:1047A000F2C028F48A3308F4F2C08953EDC088348B
:1047B00009F0EDC00E94721687ED9CE00E94D407BC
:1047C0002FEF83ED90E3215080409040E1F700C04F
:1047D00000000E945A1F0DC089EB9AE05CC08EEB6E
:1047E0009CE00E94D40780910005897F877F809399
:1047F0000005C1E0D1C080910005C82FC095C170EF
:10480000C0FB80F980930005CC2349F38BEC9CE03E
:10481000B2C09091000591FBCC27C0F981E0C82778
:10482000892FC0FB81F980930005CC2319F081EB1F
:104830009CE027C083EA9CE02EC09091000592FB8B
:10484000CC27C0F981E0C827892FC0FB82F980936B
:104850000005CC2319F084E99CE013C084E89CE0B7
:104860001AC09091000593FBCC27C0F981E0C827BE
:10487000892FC0FB83F980930005CC2351F088E792
:104880009CE00E94D4078091000581608093000520
:1048900083C08BE69CE00E94D407ABCF83E89AE00C
:1048A0000E94D40787E59AE00E94D40784E29AE048
:1048B0000E94D4078BEE99E00E94D40780EB99E028
:1048C0000E94D40782E899E0E6CF84E799E00E944D
:1048D000D4070E9401111F928F938AE599E09F935C
:1048E0008F930E946D08809118011F928F9383E42B
:1048F00099E09F938F930E946D08809131051F92DC
:104900008F9380E399E09F938F930E946D0880912D
:10491000390587FB882780F91F928F9388E199E0FA
:104920009F938F930E946D080E94FE1E9F938F930A
:104930007F936F9381E099E09F938F930E946D081E
:104940008DB79EB746960FB6F8949EBF0FBE8DBF2B
:1049500050CF0E9472169091390597FBCC27C0F971
:1049600081E0C827892FC0FB87F980933905CC23C4
:1049700029F081E69CE00E94D4070EC086E59CE009
:104980008ACF8D5101C080E00E94692332CF84E537
:104990009CE00E94D407C0E08C2FCF91089580E066
:1049A000089580E008958E518A3030F4E82FF0E0C9
:1049B000E75EFE4F8081089580E00895CF93C82F71
:1049C00080910C05813071F020F0823009F44BC0E9
:1049D0003FC1E0910601F09107018081823209F028
:1049E00039C107C0E0910601F09107018081823250
:1049F00061F48C2F0E94CF24811104C08C2F0E945F
:104A000089232FC081E090E02CC08C2F0E94D124FC
:104A1000811126C0C431E1F070F4CB3081F0C03197
:104A2000D1F40E94312284EF98E00E94D40782E002
:104A300080930C0515C0C93259F0C83361F482E97E
:104A40009AE00E94D40788EF98E00E94D40708C03B
:104A500010920C0501C182EF98E00E94D407FCC0BF
:104A600081E08170FBC0C43228F5CE3108F0C1C0AE
:104A7000CB30A1F1D0F4C73009F0D0C08EE18093E3
:104A80000D0182E380930C018AE080930B0184E1A5
:104A900080930A0188E08093090188E280930801ED
:104AA00088E997E00E94D407BCC0C33149F1C43102
:104AB000C1F0B4C0CB3409F4A6C028F4C93289F0DF
:104AC000C83361F0ABC0C13509F49BC0C23509F4ED
:104AD00096C0CE3409F0A2C06AE09BC00E94312289
:104AE000A0C080910B05882319F010920B0599C086
:104AF00085EA97E00E94D40781E080930C05AEC060
:104B00008FE797E00E94D4078DE697E00E94D407D4
:104B100080910D011F928F938AE697E09F938F9368
:104B20000E946D0888E697E00E94D40786E597E02A
:104B30000E94D40780910C011F928F9383E597E028
:104B40009F938F930E946D0881E597E00E94D407A0
:104B500082E497E00E94D40780910B011F928F930B
:104B60008FE397E09F938F930E946D088DE397E00A
:104B70000E94D4078CE297E00E94D40780910A013A
:104B80001F928F9389E297E09F938F930E946D0805
:104B900087E297E00E94D40782E197E00E94D40761
:104BA000809109011F928F938FE097E09F938F93DD
:104BB0000E946D088DE097E00E94D40786EF96E092
:104BC0000E94D407809108011F928F9383EF96E093
:104BD0009F938F930E946D0881EF96E00E94D40707
:104BE0008DB79EB748960FB6F8949EBF0FBE8DBF87
:104BF00018C08C2F0E94D32480930B0512C061E053
:104C000003C061E006C06AE080910B050E94482263
:104C100008C080910B050E94EB2203C086E997E053
:104C200013C080910B05882369F01F928F9380E950
:104C300097E09F938F930E946D080F900F900F90B5
:104C40000F9004C08DE897E00E94D40781E006C071
:104C500010920C0580E002C080E003CFCF91089550
:104C60008091300508959FB7F89410920F059FBF6B
:104C700090913F05943009F057C09091E9009F70E2
:104C80003091EC00232F217030FD20E8922B24E09E
:104C90002093E9002091EB0020FF43C02091EE001B
:104CA00027FF3FC020910D05222321F02091E8002D
:104CB00025FF37C010920D0526E03091E80035FD44
:104CC00015C030913F05343061F53091EB0035FD72
:104CD00028C0215021F481E080930D0522C0EFE926
:104CE000FFE03197F1F700C00000E7CF8093F100BB
:104CF0008091E80085FD0AC08091E80080FFFCCF2C
:104D00008091E8008E778093E80006C08FB7F89412
:104D100021E020930F058FBF9F709093E90080E002
:104D200008959F709093E9008FEF08950F931F935C
:104D3000CF93DF9300D01F92CDB7DEB78C010E94D6
:104D40006829823011F0843019F593E099831B8330
:104D50000A839093E9008FEF9091E800815095FDD0
:104D600006C095ED9A95F1F700008111F5CF80917D
:104D7000E80085FF0DC040E050E063E070E0CE0148
:104D800001960E9485298091E8008E778093E80043
:104D90000F900F900F90DF91CF911F910F91089579
:104DA000CF93DF9300D01F92CDB7DEB720913F05A0
:104DB000243031F522E02983805891099B838A832E
:104DC00083E08093E9008FEF9091E800815095FD9A
:104DD00006C095ED9A95F1F700008111F5CF80910D
:104DE000E80085FF0DC040E050E063E070E0CE01D8
:104DF00001960E9485298091E8008E778093E800D3
:104E00000F900F900F90DF91CF910895CF93DF9384
:104E1000EC010E946829823011F08430F9F482E0BC
:104E20008093E9009FEF8091E800915085FD06C0D6
:104E300085ED8A95F1F700009111F5CF8091E8009A
:104E400085FF0CC040E050E065E070E0CE010E94BC
:104E500085298091E8008E778093E800DF91CF91DB
:104E60000895CF93DF93EC010E946829823019F0F6
:104E7000843009F047C0809118018823E1F08091C7
:104E8000390587FF18C085E08093E9008FEF909186
:104E9000E800815095FD06C095E19A95F1F7000074
:104EA0008111F5CF8091E80085FF2CC040E050E0F3
:104EB00060E270E017C081E08093E9008FEF90918D
:104EC000E800815095FD06C095ED9A95F1F7000038
:104ED0008111F5CF8091E80085FF14C040E050E0DB
:104EE00068E070E0CE010E9485298091E8008E770D
:104EF0008093E80080E2FE01A0E1B5E001900D9210
:104F00008A95E1F7DF91CF9108958CE19DE00E94B1
:104F1000D40780913E05811109C00E941A2B0E947E
:104F2000772B8091E20084608093E200089588E10D
:104F30009DE00E94D40710923E05089584E19DE013
:104F40000C94D40780E19DE00C94D4078CE09DE0A4
:104F50000E94D4070C94BA1E20910E052F5F822F59
:104F600062E30E94512F992319F020930E050895B2
:104F700010920E0580910F05882371F180913F05F5
:104F8000843041F58091E9008F702091EC00922FE0
:104F9000917020FD90E8892B94E09093E900909126
:104FA000EB0090FF14C09091EE0097FF10C090911D
:104FB000E80095FF03C01092F100F9CF9091E8004E
:104FC00090FF05C09091E8009E779093E8008F7065
:104FD0008093E90010920F05089542E061EC81E0B2
:104FE0000E94942A42E061EC82E00E94942A42E00E
:104FF00061EC83E00E94942A42E261EC84E00E942A
:10500000942A42E261EC85E00C94942A8091410557
:10501000833009F455C030F4813071F0823009F4E6
:105020008EC008958A3009F47AC08B3009F460C0CC
:10503000893009F09CC020C080914005813A09F078
:1050400096C08091E800877F8093E80080914405B6
:1050500090914505892B21F460E280E195E003C041
:1050600060E080E090E070E00E94D0298091E8004C
:105070008B778093E800089580914005813209F094
:1050800076C08091440590914505009719F00497EA
:1050900009F06DC08091E800877F8093E8008091DF
:1050A000E80082FD05C080913F058111F8CF5FC007
:1050B0008091F100809330058091E8008B7753C098
:1050C00080914005813A09F052C080914405909149
:1050D0004505892B09F04BC08091E800877F8093BC
:1050E000E8008091E80080FFFCCF8091180136C075
:1050F000809140058132D9F5809144059091450514
:10510000892BA9F58091E800877F8093E8000E94B1
:10511000C92A80914205809318010C9472168091DF
:105120004005813221F58091E800877F8093E80077
:105130000E94C92A8091430580933105089580918A
:105140004005813AA1F48091E800877F8093E800D0
:105150008091E80080FFFCCF809131058093F100C1
:105160008091E8008E778093E8000C94C92A089516
:1051700084B7877F84BF0FB6F894A89580916000AC
:10518000886180936000109260000FBE80E8809379
:105190006100109261000E948E110E941A2B0E94E1
:1051A000772B8091E20084608093E20083E396E2B3
:1051B0000E94201D78940E94052E0E9490118EE07E
:1051C00091E00E94FC108BEF9CE00E94D40780913C
:1051D0003F05853089F487EF9CE00E94D4070E9448
:1051E000771E80913D05882391F30E94A51E882398
:1051F00071F30E946F29EBCF0E94BE11E8CF292FD7
:10520000332723303105C9F064F42130310581F0B2
:105210002230310509F043C08DE890E020E43DE004
:1052200042C021323105F1F02232310541F137C05F
:1052300082E190E02DEC3DE036C099278130910568
:1052400041F08230910541F0892B49F5ECE3FDE016
:1052500005C0E2E3FDE002C0E0E2FDE0849190E001
:105260009F0121C065307105D0F4660F771FFB01E7
:10527000EE5CFE4F2081318189E090E014C0653002
:10528000710568F4FB01EE0FFF1FE85DFE4F208102
:105290003181FB01ED5DFE4F808190E004C080E034
:1052A00090E020E030E0FA013183208308950895F2
:1052B000CF93C82F0E945729C0933205CF910895EC
:1052C00080913F05843011F081E0089582E00895D7
:1052D00080913205811102C00C946029089580E10B
:1052E00089BD82E189BD09B400FEFDCF8091D8005F
:1052F0008F7D8093D8008091E00082608093E000F1
:105300008091E00081FDFCCF0895CF92DF92EF9273
:10531000FF920F931F93CF93DF93EC018B016A01F0
:105320000E94E82A811133C0C114D10439F0F6017A
:1053300080819181081B190BC80FD91FE12CF12C1A
:105340000115110519F18091E80085FD16C08091C5
:10535000E8008E778093E800C114D10449F0F6018B
:1053600080819181E80EF91EF182E08285E00FC014
:105370000E94E82A882321F30AC089918093F100D2
:1053800001501109FFEFEF1AFF0ADACF80E0DF9139
:10539000CF911F910F91FF90EF90DF90CF900895E4
:1053A00020914605309147052617370748F06115CB
:1053B000710539F42091E8002E772093E80001C0B0
:1053C000B90140E061157105A9F120913F05222343
:1053D00009F443C0253009F442C02091E80023FDC0
:1053E00040C02091E80022FD32C02091E80020FF5B
:1053F000E9CF4091F3002091F20030E0342BFC0122
:10540000CF016115710559F02830310540F48191C3
:105410008093F100615071092F5F3F4FF1CF41E060
:105420002830310509F040E02091E8002E772093E4
:10543000E800C8CF4111C9CF0AC080913F05882339
:1054400061F0853061F08091E80083FD0AC08091B1
:10545000E80082FFF2CF80E0089582E0089583E0C3
:10546000089581E00895209146053091470526175B
:10547000370748F06115710539F42091E8002E775F
:105480002093E80001C0B901FC0120E0611571051D
:1054900091F180913F05882309F440C0853009F4DB
:1054A0003FC08091E80083FD3DC08091E80082FD0F
:1054B0002FC08091E80080FFE9CF2091F300809118
:1054C000F20090E0922B6115710559F0883091053A
:1054D00040F424912093F1003196615071090196B6
:1054E000F2CF21E0089709F020E08091E8008E7764
:1054F0008093E800CBCF2111CCCF0AC080913F052B
:10550000882361F0853061F08091E80083FD0AC056
:105510008091E80082FFF2CF80E0089582E0089554
:1055200083E0089581E00895982F973058F590937F
:10553000E900981739F07091EC002091ED0050913E
:10554000F00003C0242F762F50E021FF19C03091C6
:10555000EB003E7F3093EB003091ED003D7F3093C8
:10556000ED003091EB0031603093EB007093EC0074
:105570002093ED005093F0002091EE0027FF07C02C
:105580009F5FD3CF8F708093E90081E0089580E022
:1055900008958091400587FF11C08091E80082FD49
:1055A00005C080913F058111F8CF11C08091E800BE
:1055B0008B770BC080913F05882349F08091E800EC
:1055C00080FFF8CF8091E8008E778093E8000895FF
:1055D0002091E4003091E50095E64091EC00842FA5
:1055E000817040FF22C08091E80080FD1CC0809146
:1055F0003F05882391F0853091F08091EB0085FD87
:1056000010C04091E4005091E5004217530729F380
:105610009A01915011F784E0089582E0089583E0A3
:10562000089581E0089580E008954091E80042FFE8
:10563000DECF08950E94882B0E94902BE0EEF0E0D0
:10564000808181608083E8EDF0E080818F778083C6
:1056500019BCA7EDB0E08C918E7F8C9380818F7EFA
:10566000808310923E0508950F931F93CF93DF938D
:105670000E94882B0E94902BC8EDD0E088818F7704
:10568000888388818068888388818F7D888319BC1E
:1056900010923F0510923B0510923D0510923C057B
:1056A00000EE10E0F80180818B7F8083888181602B
:1056B000888342E060E080E00E94942AE1EEF0E01E
:1056C00080818E7F8083E2EEF0E080818160808344
:1056D000808188608083F80180818E7F80838881CB
:1056E00080618883DF91CF911F910F910895E8ED3C
:1056F000F0E080818F7E8083E7EDF0E08081816043
:10570000808384E082BF81E080933E050C94342B3B
:10571000E8EDF0E080818E7F80831092E2000895B2
:105720001092DA001092E10008951F920F920FB6C6
:105730000F9211242F933F934F935F936F937F9317
:105740008F939F93AF93BF93EF93FF938091E1006B
:1057500082FF0BC08091E20082FF07C08091E100D0
:105760008B7F8093E1000E94AC278091DA0080FF5C
:105770001FC08091D80080FF1BC08091DA008E7F0F
:105780008093DA008091D90080FF0DC080E189BD4F
:1057900082E189BD09B400FEFDCF81E080933F0521
:1057A0000E94852705C019BC10923F050E949727CB
:1057B0008091E10080FF19C08091E20080FF15C058
:1057C0008091E2008E7F8093E2008091E200806110
:1057D0008093E2008091D80080628093D80019BC49
:1057E00085E080933F050E94A2278091E10084FF1D
:1057F00030C08091E20084FF2CC080E189BD82E14D
:1058000089BD09B400FEFDCF8091D8008F7D8093C3
:10581000D8008091E1008F7E8093E1008091E200CA
:105820008F7E8093E2008091E20081608093E200AD
:1058300080913B05882311F084E007C08091E3004C
:1058400087FD02C081E001C083E080933F050E9494
:10585000A6278091E10083FF29C08091E20083FFA9
:1058600025C08091E100877F8093E10082E08093F2
:105870003F0510923B058091E1008E7F8093E1000F
:105880008091E2008E7F8093E2008091E20080614F
:105890008093E20042E060E080E00E94942A8091E0
:1058A000F00088608093F0000E949E27FF91EF91A6
:1058B000BF91AF919F918F917F916F915F914F9128
:1058C0003F912F910F900FBE0F901F9018951F9230
:1058D0000F920FB60F9211242F933F934F935F9324
:1058E0006F937F938F939F93AF93BF93CF93DF93E8
:1058F000EF93FF93C091E900CF708091EC00D82F17
:10590000D17080FDD0E81092E9008091F000877F8F
:105910008093F00078940E94AB2C1092E900809163
:10592000F00088608093F000CD2BCF70C093E90029
:10593000FF91EF91DF91CF91BF91AF919F918F91A7
:105940007F916F915F914F913F912F910F900FBE7B
:105950000F901F9018951F93CF93DF93CDB7DEB7AD
:10596000AA970FB6F894DEBF0FBECDBFE0E4F5E016
:1059700088E08E0F9091F10091938E13FBCF0E94DF
:1059800006288091E80083FF28C18091400590910E
:105990004105492F50E04A30510508F01EC1FA0177
:1059A000E556FF4F0C94712F803821F0823809F0B2
:1059B00014C108C080913C0590913D05992389F060
:1059C00082600FC0809144058F70873008F005C158
:1059D0008093E9008091EB0085FB882780F9109285
:1059E000E9009091E800977F9093E8008093F100A0
:1059F0001092F100D0C0282F2D7F09F0EEC088232F
:105A000019F0823061F0E9C080914205813009F0DF
:105A1000E4C0933009F080E080933D052EC0809172
:105A2000420581112AC0809144058F702FEF280F05
:105A3000263008F0D2C08093E9002091EB0020FFCF
:105A40001CC0933021F48091EB00806214C09091CF
:105A5000EB0090619093EB0021E030E0A90102C0DF
:105A6000440F551F8A95E2F74093EA001092EA002E
:105A70008091EB0088608093EB001092E9008091A8
:105A8000E800877F8093E8000E94C92AA6C08111A0
:105A9000A4C0109142051F778091E3008078812B8C
:105AA0008093E3008091E800877F8093E8000E9464
:105AB000C92A8091E80080FFFCCF8091E3008068D4
:105AC0008093E300111102C082E001C083E0809363
:105AD0003F0583C08058823008F07FC08091420526
