:100000000C9478060C94BF060C94BF060C94BF06A3
:100010000C94BF060C94BF060C94BF060C94BF064C
:100020000C94BF060C94BF060C94D4290C94A62AF9
:100030000C94781A0C94BF060C94BF060C94BF065F
:100040000C94BF060C94BF060C94BF060C94BF061C
:100050000C94BF060C94181B0C94BF060C94BF069E
:100060000C94BF060C94BF060C94BF060C94BF06FC
:100070000C94BF060C94BF060C94BF060C94BF06EC
:100080000C94BF060C94BF060C94BF060C94BF06DC
:100090000C94BF060C94BF060C94BF060C94BF06CC
:1000A0000C94BF060C94BF060C94BF066309650947
:1000B0007009670969096B096D096F09720974098B
:1000C0007609810978097A097C097E098009830902
:1000D0004310431075107510B310D110371237123A
:1000E00013113712B611B611271237123712301208
:1000F000C311C311C311C311C311C311C311C31160
:10010000C311C311C311C311C311C311C311C3114F
:10011000D411E211E911F011FA11C812C812DA1261
:10012000DA12D112DA12DA12DA12C812C812D612A0
:10013000DA12DA12D612132B3A2B322C3A2B322C3B
:10014000862BA92B322C002C0F2C253032583A202C
:10015000253038620A000A722F632030313233347E
:100160003536370A001F0014001A00160004001D5F
:10017000001B0006002000210015000800070009F0
:100180000019000500220023001C0017000A000BC4
:1001900000110000001E0029002B00E000E100E239
:1001A00000E3002C002400250018000C000E000DB8
:1001B0000010000000310035002A0028000151E540
:1001C00000E600E700260027001200130033000FAE
:1001D00000360000002D002E0030002F00340038C3
:1001E00000370000003B0001000100A900AA000147
:1001F00000010001003C003D0001000100A80001D9
:1002000000010001003E003F000100010001005517
:1002100000570000003A00A500390001000100016C
:10022000000100010040004100010046004A005466
:10023000005600000049004C002A0058000100014F
:100240000001000100420043004700480050004BFD
:10025000004D00000044004500010052004F0051D5
:10026000004E00000044454255473A20656E6162E9
:100270006C65642E0A000A002530325820006B6538
:1002800079626F6172645F7265706F72743A200098
:100290000A0025303258006B6579626F6172645FC5
:1002A0007365745F6C65643A2000646F6E652E0A36
:1002B00000626F6F746D61676963207363616E3A8A
:1002C000202E2E2E2000290A002575002F002575CE
:1002D000005D2800256400200025640020002564BE
:1002E0000020002564007C0025303258006D6F75B9
:1002F00073656B6579205B62746E7C7820792076FB
:1003000020685D287265702F61636C293A205B005C
:100310006D6B5F776865656C5F74696D655F746F41
:100320005F6D6178203D2025640A006D6B5F776802
:1003300065656C5F6D61785F7370656564203D20F5
:1003400025640A006D6B5F74696D655F746F5F6D26
:100350006178203D2025640A006D6B5F6D61785FD8
:100360007370656564203D2025640A006D6B5F69CC
:100370006E74657276616C203D2025640A006D6B99
:100380005F64656C6179203D2025640A006D6B5FB8
:10039000776865656C5F74696D655F746F5F6D61CB
:1003A00078203D2025640A006D6B5F776865656C79
:1003B0005F6D61785F7370656564203D2025640A18
:1003C000006D6B5F74696D655F746F5F6D61782040
:1003D0003D2025640A006D6B5F6D61785F73706509
:1003E0006564203D2025640A006D6B5F696E74654D
:1003F0007276616C203D2025640A006D6B5F646538
:100400006C6179203D2025640A000A0025750036BC
:100410003A20776865656C5F74696D655F746F5FBE
:100420006D61783A20000A00257500353A2077681A
:1004300065656C5F6D61785F73706565643A200017
:100440000A00257500343A2074696D655F746F5F2A
:100450006D61783A20000A00257500333A206D61FD
:10046000785F73706565643A20000A002575003274
:100470003A20696E74657276616C286D73293A2032
:10048000000A00257500313A2064656C6179282ADC
:1004900031306D73293A20000A092D2056616C75A0
:1004A0006573202D0A004D3E004D25643E20003F1F
:1004B000007365742064656661756C740A00433E60
:1004C000200077686572652064656C74613A20630A
:1004D0007572736F723D25642C20776865656C3D7D
:1004E00025640A53656520687474703A2F2F656E11
:1004F0002E77696B6970656469612E6F72672F77FB
:10050000696B692F4D6F7573655F6B6579730A0051
:100510000A092D204D6F7573656B6579202D0A458D
:1005200053432F713A09717569740A313A09646548
:100530006C6179282A31306D73290A323A09696E63
:1005400074657276616C286D73290A333A096D619E
:10055000785F73706565640A343A0974696D655F24
:10056000746F5F6D61780A353A09776865656C5F0D
:100570006D61785F73706565640A363A09776865FE
:10058000656C5F74696D655F746F5F6D61780A0A91
:10059000703A097072696E742076616C7565730AC1
:1005A000643A097365742064656661756C74730AD6
:1005B00075703A092B310A646F776E3A092D310A4A
:1005C000706775703A092B31300A7067646F776E07
:1005D0003A092D31300A0A7370656564203D206444
:1005E000656C7461202A206D61785F737065656445
:1005F000202A2028726570656174202F2074696D2F
:10060000655F746F5F6D6178290A003F004D3E2081
:1006100000433E20004C25640A0074696D65725FDA
:1006200072656164333228293A202530346C580AC7
:10063000006B6579626F6172645F69646C653A2012
:1006400025580A006B6579626F6172645F70726F22
:10065000746F636F6C3A2025580A00686F73745F7B
:100660006B6579626F6172645F6C65647328293AA7
:100670002025580A000A092D2053746174757320CF
:100680002D0A004743433A20352E342E3020415660
:10069000522D4C4942433A20322E302E30204156C2
:1006A000525F415243483A20617672350A004F50FA
:1006B00054494F4E533A204C55464120424F4F54D7
:1006C0004D41474943204D4F5553454B45592045D2
:1006D000585452414B455920434F4E534F4C45209F
:1006E000434F4D4D414E4420343039360A00425577
:1006F000494C443A2022302E362E3330392D3431B5
:10070000322D6739623361616422202831393A34ED
:10071000313A343220417567203235203230313958
:10072000290A005649443A20307846454544287104
:100730002E6D2E6B29205049443A20307843414693
:10074000452848484B42206D6F6429205645523A4F
:10075000203078303130340A00444553433A207118
:100760002E6D2E6B206B6579626F617264206669F5
:10077000726D7761726520666F722048484B420A3D
:10078000000A092D2056657273696F6E202D0A00CC
:100790000A092D20436F6E736F6C65202D0A455337
:1007A000432F713A09717569740A6D3A096D6F7555
:1007B00073656B65790A000A092D204D61676963CD
:1007C000202D0A443A094465627567204D657373AC
:1007D00061676520546F67676C650A583A094D6117
:1007E00074726978204465627567204D6F64652076
:1007F000546F67676C65202D2053686F77206B6599
:10080000797072657373657320696E206D6174729F
:10081000697820677269640A4B3A094B6579626F9F
:1008200061726420446562756720546F67676C6508
:10083000202D2053686F77206B6579707265737314
:10084000207265706F72740A4D3A0944656275676B
:10085000204D6F75736520546F67676C650A563A53
:100860000956657273696F6E0A533A09537461745D
:1008700075730A433A09416374697661746520436C
:100880006F6E736F6C65204D6F64650A46312D463F
:1008900031303A0953776974636820746F204C6172
:1008A00079657220302D392028463130203D204C8A
:1008B00030290A302D393A095377697463682074F6
:1008C0006F204C6179657220302D390A47524156AC
:1008D000453A0953776974636820746F204C6179D5
:1008E000657220302028616C7465726E61746529B0
:1008F0000A423A094A756D7020746F20426F6F7416
:100900006C6F616465720A4553433A094A756D70AC
:1009100020746F20426F6F746C6F61646572202861
:10092000616C7465726E617465290A453A0950728A
:10093000696E7420454550524F4D2053657474695B
:100940006E67730A4253504143453A09436C6561EF
:100950007220454550524F4D0A000A002575002E61
:100960006E6B726F3A20000A002575002E73776156
:10097000705F6261636B736C6173685F6261636B0C
:1009800073706163653A20000A002575002E737745
:1009900061705F67726176655F6573633A20000A14
:1009A000002575002E6E6F5F6775693A20000A009A
:1009B0002575002E737761705F72616C745F72676A
:1009C00075693A20000A002575002E737761705F03
:1009D0006C616C745F6C6775693A20000A0025755C
:1009E000002E636170736C6F636B5F746F5F636F16
:1009F0006E74726F6C3A20000A002575002E7377B2
:100A000061705F636F6E74726F6C5F636170736C43
:100A10006F636B3A20000A0025303258006B65790D
:100A20006D61705F636F6E6669672E7261773A20E1
:100A3000000A002575002E6D6F7573653A20000A57
:100A4000002575002E6B6579626F6172643A200033
:100A50000A002575002E6D61747269783A20000ACB
:100A6000002575002E656E61626C653A20000A00F3
:100A7000253032580064656275675F636F6E666922
:100A8000672E7261773A20000A002575006465665A
:100A900061756C745F6C617965723A20003F000A81
:100AA0006D6F7573653A206F66660A000A6D6F7523
:100AB00073653A206F6E0A000A6B6579626F617226
:100AC000643A206F66660A000A6B6579626F61722C
:100AD000643A206F6E0A000A6D61747269783A2078
:100AE0006F66660A000A6D61747269783A206F6EEB
:100AF0000A000A64656275673A206F66660A000A32
:100B000064656275673A206F6E0A000A0A4A756D5D
:100B100070696E6720746F20626F6F746C6F6164B0
:100B200065722E2E2E2000433E2000436C656172BC
:100B3000696E6720454550524F4D0A006565636FE9
:100B40006E6669673A0A005B735D004B6579626F98
:100B50006172642073746172742E0A005B575D00C9
:100B60005B535D005B525D005B445D005B435D0079
:100B70000403300000001203480048004B0042000C
:100B800020006D006F00640000000C0371002E0057
:100B90006D002E006B0000000403090409025B00D5
:100BA000030100A0FA09040000010301010009216A
:100BB000110100012240000705810308000A090411
:100BC000010001030000000921110100012285003C
:100BD0000705820320000A09040200020300000046
:100BE00009211101000122220007058303200001D1
:100BF000070503032000011201100100000008EDA9
:100C0000FEFECA0401010203010631FF0974A101BD
:100C10000975150026FF00952075088102097615D3
:100C20000026FF00952075089102C005010902A168
:100C30000185020901A100050919012905150025F1
:100C40000195057501810295017503810105010971
:100C50003009311581257F950275088106093815FF
:100C600081257F950175088106050C0A38021581DA
:100C7000257F950175088106C0C005010980A10185
:100C800085031601002603001A81002A83007510CF
:100C900095018100C0050C0901A101850416010020
:100CA000269C021A01002A9C02751095018100C041
:100CB00005010906A101050719E029E7150025012D
:100CC00095087501810295017508810105081901D2
:100CD0002905950575019102950175039101050797
:100CE000190029FF150026FF00950675088100C030
:100CF00011241FBECFEFDAE0DEBFCDBF04B603FE86
:100D000027C08091000290910102A0910202B0914F
:100D100003028730904BA740B04BD1F410920002F1
:100D200010920102109202021092030214BE84B7C4
:100D3000877F84BF0FB6F894A89580916000886182
:100D400080936000109260000FBEE0E0F8E3099528
:100D500011E0A0E0B1E0E6ECF9E502C005900D92EB
:100D6000AC32B107D9F722E0ACE2B1E001C01D928C
:100D7000A030B207E1F70E94F5260C94E12C0C9408
:100D80000000FF93EF93E0912C01F0912D0130973B
:100D900009F00995EF91FF910895FC01859180304C
:100DA00011F0EFDFFBCF0895FF27E0E230E247FFCD
:100DB0000CC0419597FF09C0EDE260957095809554
:100DC0009095611D711D811D911D27FF02C0219508
:100DD00030E350E2AA27660F771F881F991FAA1FCA
:100DE000A41710F0A41B63955A95A9F7AA3008F030
:100DF000A95FA05DAF93F39561157105810591051C
:100E000041F7ED3211F4EF93F395F21718F43F9395
:100E1000F395FBCF8F91B5DFFA95E1F70895E9914E
:100E2000F9918591803021F0853219F0AADFF9CF50
:100E3000089520E0E89455915532C1F3503311F4F0
:100E4000689455915A3348F4505390F3220F022E70
:100E5000220F220F200D250FF4CF0EF4219589913A
:100E60009991533619F3533729F1533559F1BC0190
:100E700088279927E8945C3621F4899199916894A0
:100E80005591543639F446EF7EF077FF0DC08FEF61
:100E90009FEF0AC055374AE039F0583540E121F05C
:100EA000523642E009F00895FF93EF937DDFEF9112
:100EB000FF91B7CFFF93EF93FC0181918030B9F39D
:100EC00060DFFBCFFF93EF9368DFF1CFDF93CF932A
:100ED000CDB7DEB72596A3DFCF91DF910895229895
:100EE0002A9A579A219A3E9A879A549A869A859A6C
:100EF000239A8D9A2B98E6E3F1E0119281E0EE338C
:100F0000F807D9F7EEE2F1E086E391E011928E174F
:100F10009F07E1F786E391E09093410180934001C0
:100F20008EE291E090933F0180933E0108950895F1
:100F30000C949707DF92EF92FF920F931F93CF933A
:100F4000DF9380913E0190913F01209140013091CB
:100F5000410130933F0120933E01909341018093E2
:100F60004001C0E0D0E0EE24E394F12C0FEF10E05C
:100F700040E050E0EC2FE1703C2F32702C2F2470B9
:100F8000842FEE2311F05F9A01C05F98332311F094
:100F9000299A01C02998222311F0469A01C0469847
:100FA00080FF02C08F9A01C08F9881FF02C05C9AB7
:100FB00001C05C9882FF02C08E9A01C08E988AE1BF
:100FC0008A95F1F700C0D42EA0913E01B0913F0167
:100FD000AC0FBD1F8C9190E0042E02C095958795B3
:100FE0000A94E2F780FD2B9A95E39A95F1F70000B9
:100FF000F6B58D988AE18A95F1F700C060914001BD
:1010000070914101DB01AC0FBD1FC70101C0880F0A
:10101000DA94EAF71A9B04C080959C91892302C058
:101020009C91892B8C9386B5AF2FB0E08F1728F059
:1010300086B590E08A1B9B0B06C0F6B5C8018A1BDB
:101040009B0B8F0F911D069758F0A0913E01B09118
:101050003F01AC0FBD1F8C91DB01AC0FBD1F8C930A
:101060009AE19A95F1F700C02B988D9A8BE291E066
:101070000197F1F700C000004F5F5F4F4830510506
:1010800009F07ECFA0914001B0914101AC0FBD1F8E
:10109000E0913E01F0913F01EC0FFD1F9C9180819A
:1010A000981751F00E94B61A609342017093430161
:1010B00080934401909345012196C830D10509F0F1
:1010C00057CF8091F701853021F08091F701811190
:1010D00011C060914201709143018091440190914F
:1010E00045010E94EC1A613177428105910510F0AB
:1010F0000E943E1A0E940B0981E0DF91CF911F915F
:101100000F91FF90EF90DF90089520914001309172
:101110004101F901E80FF11D808108950F931F939C
:10112000CF93DF9386E591E00E94CD06C0E0D0E04A
:101130000AE411E0E0914001F0914101EC0FFD1F44
:1011400080810E944F191F928F93DF93CF931F933B
:101150000F930E94660721960F900F900F900F90AB
:101160000F900F90C830D10529F7DF91CF911F91D3
:101170000F9108950895089561110BC0FC018281BB
:10118000882321F085EE0E94EE0E03C085EE0E94BA
:10119000C40F80E090E0089581E0089581E0089513
:1011A0000C94CE081F93CF93DF9300D000D01F92F2
:1011B000CDB7DEB749835A836B832091590189816A
:1011C0009A81211112C0662349F00E941818182F25
:1011D000682F89819A810E94C11703C00E94EC1771
:1011E000182F69817A81812F04C00E9418186981A3
:1011F0007A810F900F900F900F900F90DF91CF9109
:101200001F910C940D0AFC01408151816281738110
:1012100084810C94D2080C94980708950C940D09BD
:101220000C940E0908950E94B6120E9412092FEF25
:1012300084E39CE0215080409040E1F700C0000032
:101240000C943E1B0F931F93CF93DF938C010E944E
:101250000309EC01B8010E94D008882309F4D6C024
:10126000B801CE010E94F90C882309F4CFC0C53122
:10127000FCE5DF0708F07CC0C2308CE5D80708F435
:1012800052C0F8018281882309F454C00E94611978
:10129000811102C00E94E5190E947E1990E090938E
:1012A000F2018093F101FE01E350FC45E231F105CA
:1012B00030F4EA5AFF4F8091F1010C94852C809113
:1012C000F101816027C0826025C0846023C08061F5
:1012D00021C080621FC080641DC080681BC0846004
:1012E000886018C08E7F16C08D7F14C08B7F12C09F
:1012F0008F7E10C08F7D0EC08F7B0CC08F770AC091
:101300008B7F877F07C087FB222720F991E09227F8
:1013100090FB87F98093F1018091F1010E9482197D
:101320000E94B61273C0C115ECE5DE0751F0C13062
:10133000DC4579F0C801DF91CF911F910F910C949A
:10134000CC08F8018281882309F460C00E94130947
:101350005DC0F8018281882309F458C08091CF01D3
:1013600081608093CF0185E692E00E94CD064EC059
:10137000CC3D8CE5D80739F4F8018281882309F443
:1013800045C080E00DC0CD3DECE5DE0760F0CD3D11
:101390008CE5D80791F5F80182818823B9F182E0C4
:1013A0000E949B2733C0C631DC4521F60E94991864
:1013B000982FF8018281209100013091010188234A
:1013C00079F09A7A81E009F480E0809346019111E6
:1013D00002C069E201C065E3C9010E941A1A0AC08D
:1013E00080914601811102C069E201C065E3C90133
:1013F0000E941C1A0E94E71809C0CE3DDC4509F086
:1014000099CFF801828181110E94E51980E0DF9176
:10141000CF911F910F9108950895E72FF0E098E084
:10142000899FE00DF11D112483E0EE0FFF1F8A95C7
:10143000E1F7E60FF11DEE0FFF1FEB59FE4F85910F
:1014400094910895880F991FFC01EA58FD4F8591EA
:1014500094910895CF93DF930E940D0A0E94E60BAA
:10146000EC018115904508F041C0C11580E4D80712
:1014700008F028C1C83ED10510F5C03ED10508F0DE
:10148000A1C1C83AD10578F4C53AD10508F0A2C087
:10149000C130D10509F496C108F447C1C430D10563
:1014A00008F090C142C1CF3BD10508F49EC0C03CBA
:1014B000D10508F43AC1CE01805C9109F5C0C1158F
:1014C00090E2D90758F4C11521E0D20708F07AC19B
:1014D000C03FD10508F429C1D06574C1C11580E3AE
:1014E000D80708F0E5C0CE019F70DEC0C11595E5B4
:1014F000D90708F043C0C11524E5D20708F0F9C0A8
:10150000C11582E5D80708F5C11591E5D90708F09E
:10151000DCC0CE0174E0969587957A95E1F78370EB
:101520009C2F937021E030E002C0220F331F9A9568
:10153000E2F73C68382BCF70C695C69580E2C89F0D
:10154000E0011124C22BD32B3DC19E012370332710
:101550008C2F86958695C115D34508F0BBC0C1E098
:10156000D0E002C0CC0FDD1F2A95E2F720E2829F77
:10157000C0011124C82BD92BDC6824C1C11529E571
:10158000D207A0F4C11588E5D80708F0B7C0C11587
:1015900096E5D90708F0C9C08C2F0E94620C8F71A4
:1015A000C82FD0E0DC2FCC27D0620CC1C1152AE5B2
:1015B000D20708F4A8C0CE0190568115904208F0D9
:1015C000B4C08D2F8F710E94620CDD27D0628F71A5
:1015D000D82BF8C0C53AD10509F4AAC0C63AD1053E
:1015E00009F0A9C0C2E8D0E4EDC0C83AD10509F4B9
:1015F000A5C0C93AD10509F4A4C0CA3AD10509F475
:10160000A3C0CB3AD10509F4A2C0CC3AD10509F464
:10161000A1C0CB3BD10509F4A0C0CC3BD10509F456
:101620009FC0CD3AD10509F49EC0C03BD10509F455
:101630009DC0CE3AD10509F49CC0CF3AD10509F43A
:101640009BC0C13BD10509F49AC0C23BD10509F446
:1016500099C0C33BD10509F498C0C43BD10509F436
:1016600097C0C53BD10509F496C0C63BD10509F426
:1016700095C0C73BD10509F494C0C83BD10509F416
:1016800093C0C93BD10509F492C0CD3BD10509F403
:1016900091C0CE3BD10509F490C0CA3BD10509F4F5
:1016A0008FC0C0E0D4E48EC00E94220AEC018AC040
:1016B000CE019927D3FF03C0EC01D86C83C0EC01A5
:1016C000D06C80C0DF70D06A7DC0DC2FCC27C16FAA
:1016D000D06A78C0C1E0D0E002C0CC0FDD1F2A95EF
:1016E000E2F720E2829FC0011124C82BD92BDA68CF
:1016F00069C0DC2FCC27C46FD06A64C0DC2FCC2734
:10170000C06FD06A5FC08C2F8F700E94620C94E013
:10171000D695C7959A95E1F7CF70D0E0DC2FCC270E
:10172000D06A8F70806EC82B4DC0C0E0D0E04AC038
:10173000C1E8D0E447C0C3E8D0E444C0C2EED4E47A
:1017400041C0C9EED4E43EC0CAEED4E43BC0C5EB10
:10175000D4E438C0C6EBD4E435C0C3EBD4E432C023
:10176000C4EBD4E42FC0C7EBD4E42CC0CCECD4E45D
:1017700029C0CDECD4E426C0C3E8D5E423C0CAE830
:10178000D5E420C0C2E9D5E41DC0C4E9D5E41AC03F
:10179000C1E2D6E417C0C3E2D6E414C0C4E2D6E482
:1017A00011C0C5E2D6E40EC0C6E2D6E40BC0C7E263
:1017B000D6E408C0CFE6D4E405C0C0E7D4E402C054
:1017C000CAE2D6E4CE01DF91CF9108958238910527
:1017D00049F1B0F48133910509F459C048F48932D4
:1017E000910509F44FC08A32910509F455C0089556
:1017F0008533910509F441C08933910599F0089525
:10180000833E910531F138F4803E910591F0823E9E
:101810009105A9F00895863E910501F1873E910555
:1018200039F108952091F10120FD3BC021FD39C01F
:1018300008958091F10180FF34C089E341C0809117
:10184000F10182FF30C08091F10184FD2EC083EE52
:1018500037C08091F10182FD26C0F5CF8091F10162
:1018600083FF25C08091F10184FD1FC087EE28C051
:101870008091F10183FD1BC0F5CF8091F10185FDC1
:1018800018C019C08091F10185FD15C012C080916A
:10189000F10186FD12C013C08091F10186FD0FC0D9
:1018A0000CC080EE0DC082EE0BC080E009C086EE59
:1018B00007C089E205C085E303C08AE201C081E375
:1018C00090E008959091F10192FF0DC0282F2871AA
:1018D000283019F4877F846006C0282F24712430B3
:1018E00011F48B7F886093FF0DC0282F2871283159
:1018F00019F4877E846106C0282F2471243111F4E5
:101900008B7E886194FD877E08950F931F93CF93FC
:10191000DF93C62FD42F122FFC0182818823C9F0B8
:10192000609349010E94AA1A90934801809347014D
:1019300080E28C0F883008F057C0C77081E001C08A
:10194000880FCA95EAF7DF91CF911F910F910C9400
:10195000001080914901681330C080914701909137
:1019600048010E94C21A883C910538F500E20D0F2B
:10197000CD17B9F080E28C0F883040F4C77081E059
:1019800001C0880FCA95EAF70E940710083028F5B1
:1019900081E09D2F977001C0880F9A95EAF70E9409
:1019A0000010812F0E94F80F0830F0F4D77081E00A
:1019B00001C0880FDA95EAF70AC080E28C0F883000
:1019C00098F4C77081E001C0880FCA95EAF7DF91EB
:1019D000CF911F910F910C940710812FDF91CF9120
:1019E0001F910F910C94F80FDF91CF911F910F91E0
:1019F00008959C01CB01203F4CE5340719F178F4A0
:101A0000283D4CE53407B9F0293D4CE5340731F168
:101A1000273D3C4531F526E241EE61EE0FC0223F05
:101A20004CE53407B9F090F0233F3C45D1F427E270
:101A300046EE66EE03C027E245EE65EE0E94850C99
:101A400080E0089526E240EE60EEF8CF27E244EE13
:101A500064EEF4CF26E242EE62EEF0CF28E241E0FF
:101A6000ECCF1092490181E0089590934F0180934B
:101A70004E010895E0914E01F0914F01309721F011
:101A80000190F081E02D099480E00895EF92FF929B
:101A90000F931F93CF93DF93E0914E01F0914F018D
:101AA0003097B1F18C010280F381E02D099580918E
:101AB000CF0182FF2DC080FF04C08EE792E00E941C
:101AC000CD06E80118E088E7E82E82E0F82E809144
:101AD000CF0180FF0BC088811F928F93FF92EF92FE
:101AE0000E9466070F900F900F900F901150219653
:101AF0001111EDCF8091CF0180FF0AC086E792E0FF
:101B0000DF91CF911F910F91FF90EF900C94CD0634
:101B1000DF91CF911F910F91FF90EF900895E09189
:101B20004E01F0914F01309739F022E0DC012C9307
:101B30000480F581E02D0994089520914C013091A5
:101B40004D012817390771F090934D0180934C0196
:101B5000E0914E01F0914F01309721F00680F7811E
:101B6000E02D0994089520914A0130914B012817E6
:101B7000390771F090934B0180934A01E0914E0137
:101B8000F0914F01309721F00084F185E02D099408
:101B9000089585B7806885BF85B7806885BF08953B
:101BA00008950C94D00D0C94D10D0C94D00D0C9480
:101BB000D00D0E94C90D0E94D50D0C94D30D81E06B
:101BC00008950E94A11A0E946F070E94A61B0C9400
:101BD000D70DCF93C82F8091CF0182FF1EC080FF09
:101BE00004C087E992E00E94CD068091CF0180FF7A
:101BF0000CC01F92CF9382E992E09F938F930E9433
:101C000066070F900F900F900F908091CF0180FF8B
:101C100004C080E992E00E94CD068C2FCF910C94F5
:101C20001009BF92CF92DF92EF92FF920F931F9312
:101C3000CF93DF93CDB7DEB72A970FB6F894DEBF08
:101C40000FBECDBF0E949A070E94DF0D811111C007
:101C50008FEF89838A831B820E94AA1A8160782F62
:101C60009D838C8349815A816B818D810E94BA0E3C
:101C700054C081E5C82E81E0D82E00E010E0B02EDF
:101C8000802F0E948508E82EF60121916F01F82E21
:101C9000F22631F40F5F1F4F0830110581F7D8CFBE
:101CA0008091CF0181FD0E948E0880E090E02F2D71
:101CB00030E0482FB901082E02C0759567950A9447
:101CC000E2F760FF25C08E83BF8281E090E06C0167
:101CD00002C0CC0CDD1C4A95E2F72E2D30E02C2101
:101CE0003D21232B09F480E088870E94AA1A816095
:101CF000782F9A8789874E815F8168858A850E94BF
:101D0000BA0EF801EF5AFE4F80818C25808305C002
:101D100001968830910569F6BDCF0E94D31E0E94BE
:101D20003A0D909150018917A9F00E943A0D8093C5
:101D300050012A960FB6F894DEBF0FBECDBFDF91DB
:101D4000CF911F910F91FF90EF90DF90CF90BF90B8
:101D50000C94E90D2A960FB6F894DEBF0FBECDBFE6
:101D6000DF91CF911F910F91FF90EF90DF90CF9077
:101D7000BF900895CF93DF93CDB7DEB72B970FB603
:101D8000F894DEBF0FBECDBF4F83588769877A872F
:101D90008B87DE01119686E0FD0111928A95E9F7A5
:101DA00085E0FE01379601900D928A95E1F7498111
:101DB0005A816B817C818D819E810E9486152B9634
:101DC0000FB6F894DEBF0FBECDBFDF91CF9108955F
:101DD000FC01808191810E945A180895CF93882335
:101DE00009F4D0C0C82F8CEF8C0F813A68F48C2F87
:101DF0000E9440238111C6C06C2F809100019091F8
:101E000001010E941A1A0CC080E28C0F883058F42D
:101E1000C77081E001C0880FCA95EAF70E949C183C
:101E2000CF910C94E7188BE58C0F833078F4C53A8A
:101E300029F0C63A31F083E890E005C081E890E0EF
:101E400002C082E890E0CF910C949D0D88E58C0F44
:101E5000873108F08FC0C83A09F445C0C93A09F47F
:101E600045C0CA3A09F445C0CB3A09F445C0CC3A5A
:101E700009F445C0CB3B09F445C0CC3B09F445C04F
:101E8000CD3A09F445C0C03B09F445C0CE3A09F447
:101E900045C0CF3A09F445C0C13B09F445C0C23B37
:101EA00009F445C0C33B09F445C0C43B09F445C02F
:101EB000C53B09F445C0C63B09F445C0C73B09F41E
:101EC00045C0C83B09F445C0C93B09F445C0CD3BFA
:101ED00009F445C0CE3B09F445C0CA3B09F445C0EE
:101EE00080E090E044C082EE90E041C089EE90E056
:101EF0003EC08AEE90E03BC085EB90E038C086EBB8
:101F000090E035C083EB90E032C084EB90E02FC0CE
:101F100087EB90E02CC08CEC90E029C08DEC90E039
:101F200026C083E891E023C08AE891E020C082E9DE
:101F300091E01DC084E991E01AC081E292E017C0EF
:101F400083E292E014C084E292E011C085E292E064
:101F50000EC086E292E00BC087E292E008C08FE6F6
:101F600090E005C080E790E002C08AE292E0CF9165
:101F70000C94B30DC03F30F08C2F0E94591DCF91AF
:101F80000C94461ECF910895882389F19CEF980FF9
:101F9000913A40F4682F80910001909101010E94D4
:101FA0001C1A0DC090E2980F983058F4877091E099
:101FB00001C0990F8A95EAF7892F0E94A2180C9404
:101FC000E7189BE5980F933020F480E090E00C94A4
:101FD0009D0D98E5980F973120F480E090E00C94E7
:101FE000B30D803F20F00E94C11D0C94461E089541
:101FF000CF93C82F0E94EE0E8C2FCF910C94C40F5C
:10200000882321F00E949C180C94E71808958823D7
:1020100021F00E94A2180C94E71808958F929F92C5
:10202000AF92BF92DF92EF92FF920F931F93CF93E5
:10203000DF937C01D62FC72FFC01058102950F701D
:10204000128111110E94B9180E949218882379F008
:10205000112369F080E28D0F883048F082E00E9401
:1020600031190E94921891E0D82ED92601C0D12CA6
:10207000BC2EB2948FE0B8228B2D90E0FC01E85981
:10208000FF4F0C94852C8C2F807FCF70882311F00C
:10209000C295C07F112399F0CC2309F4C3C180E21B
:1020A0008D0F883010F0D11104C08C2F0E949C1825
:1020B00003C08C2F0E94AC180E94E718B3C18D2F6B
:1020C0000E94C40FCC2309F4D2C180E28D0F883066
:1020D00010F0D11104C08C2F0E94A21803C08C2FC5
:1020E0000E94B2180E94E718C2C18C2F807FCF7067
:1020F000803211F0C295C07FDD2319F0D130C9F0D4
:1021000022C0112371F0002341F0013031F40E940C
:10211000CC188C2B0E94D418AAC10E94CC188C2BEE
:102120003AC1002319F0013009F4A1C10E94DD1861
:1021300018C0112321F0063008F099C10EC00530F7
:1021400008F095C10EC0112351F0002331F0F701C2
:10215000858180FF67C18F7085838C2F1CC1011121
:1021600072C18C2F1EC18C2F86958695837019F0B5
:10217000813061F07CC1112321F08D2F9C2F937051
:1021800002C080E090E00E949D0D7EC1112321F0ED
:102190008D2F9C2F937002C080E090E00E94B30DC1
:1021A00073C11123F9F0D53F51F0D63F71F0D43F00
:1021B000A9F48091EB019091EC0181600BC08091BA
:1021C000EB019091EC01826005C08091EB01909150
:1021D000EC0184609093EC018093EB018D2F0E94C1
:1021E000591D1EC0D53F51F0D63F71F0D43FA9F420
:1021F0008091EB019091EC018E7F0BC08091EB01FF
:102200009091EC018D7F05C08091EB019091EC01E4
:102210008B7F9093EC018093EB018D2F0E94C11D69
:102220000E94461E31C18C2F837009F04CC01111E1
:1022300027C12D2F229526952770220F220F6D2F53
:102240006F70862F90E0A0E0B0E04C015D01022E9F
:1022500004C0880C991CAA1CBB1C0A94D2F7D4FF9A
:1022600012C08FE090E0A0E0B0E004C0880F991F9A
:10227000AA1FBB1F2A95D2F7BC01CD0160957095AE
:102280008095909503C060E070E0CB01C695C6953F
:10229000C370C23051F080F4682979298A299B29BA
:1022A000C13071F00E94D716EBC0682979298A29BC
:1022B0009B290E94E916E4C00E94D716C501B4010B
:1022C0000E94C516DDC0112319F08C2F817001C04A
:1022D0008695882309F4D4C02D2F22952695277042
:1022E000220F220F6D2F6F70862F90E0A0E0B0E0DC
:1022F0004C015D01022E04C0880C991CAA1CBB1C59
:102300000A94D2F7D4FF12C08FE090E0A0E0B0E0D2
:1023100004C0880F991FAA1FBB1F2A95D2F7BC01C2
:10232000CD01609570958095909503C060E070E058
:10233000CB01C695C695C370C23051F080F46829B0
:1023400079298A299B29C13071F00E949C1798C075
:10235000682979298A299B290E94AE1791C00E9479
:102360009C17C501B4010E948A178AC08D2F90E086
:10237000FC01E05EF109E531F10508F04FC0E858D5
:10238000FF4F0C94852CDF708C2F8F71112331F04F
:102390000E9423178D2F0E94001069C00E944417CD
:1023A0008D2F0E94071063C0112341F0053008F003
:1023B0005EC08C2F8F710E94691759C0063008F0DB
:1023C00056C0F7CF112339F08C2F8F710E9423173D
:1023D0004EC01123C9F38C2F8F710E94441747C040
:1023E000112329F08C2F8F710E940E1740C00E947C
:1023F00009173DC0112349F0CF718C2F0E9423177C
:1024000063E08C2F0E941C1932C081E00E943119B8
:10241000023068F182E00E94311929C0112331F0A5
:10242000002391F28D2F0E94EE0E21C0002399F21D
:10243000D93349F4FFEF27EE83E0F150204080408C
:10244000E1F700C000008D2F0E94C40F10C04C2F78
:102450004F706D2FC7010E94BC080E94341614C033
:102460004C2F4F706D2FC7010E940C0A0DC098E0D1
:10247000B91631F0B91640F086EF8B0D823020F49A
:102480000E943A0D0E941009DD20E1F00E948E1892
:1024900080FD18C0F70112820E9488180E9423173D
:1024A000C7010E946E120E948818DF91CF911F9180
:1024B0000F91FF90EF90DF90BF90AF909F908F9023
:1024C0000C944417DF91CF911F910F91FF90EF90E3
:1024D000DF90BF90AF909F908F9008950F931F93C0
:1024E000CF93DF93EC01988189812B813C81232B51
:1024F00031F08F3F31F481E09F3F19F403C081E058
:1025000001C080E080FD13C0CE010E942209882313
:1025100071F0688179818A810E9465188C010E941E
:10252000C0170E94B116B801CE010E940E10DF91B3
:10253000CF911F910F9108950E94B9180E94C91858
:102540000E94E7180E946E1F0E94461E80E090E0E5
:102550000E949D0D80E090E00C94B30D80910001ED
:10256000909101010E941E1A0C949C120E94A918BD
:102570000C94AE12E92FE295EF704E2F50E0FA0165
:102580003297EE30F105B0F4E357FF4F0C94852CF1
:10259000803F91F018F4803E68F40EC0843F51F4FF
:1025A0000BC0803E48F0813F29F406C093FB88278A
:1025B00080F9089580E0089581E008950E945A18F6
:1025C0000E94BA120895CF93DF9300D000D01F92DB
:1025D000CDB7DEB70F900F900F900F900F90DF9157
:1025E000CF910895CF93DF9300D000D000D0CDB726
:1025F000DEB726960FB6F894DEBF0FBECDBFDF91D3
:10260000CF9108951F93CF93DF93C0915A0116E0A5
:1026100080915B01C81799F0D0E01C9FF0011D9FCD
:10262000F00D1124E45AFE4F408151816281738183
:10263000848195810E94F2122196C770E9CFDF91C3
:10264000CF911F91089540918C0150918D0160911F
:102650008E0170918F0180919001909191010C9465
:10266000F212CF938091910182958F7009F05FC033
:1026700080918E01882309F45AC080915A01B0914B
:102680005B0170918C01A0918D0140918F0150915F
:10269000900191E07F3F09F090E0692FC6E08B1731
:1026A00009F445C04115510521F0AF3F21F020E06C
:1026B00003C021E001C0262F90E020FD35C0C89F57
:1026C000F001C99FF00D1124E45AFE4F21812A1315
:1026D0002BC02081271328C02281211125C02381EE
:1026E00034812417350710F421503109241B350B90
:1026F000283C3105C8F4209191012F70206120936E
:10270000910126E0289FF001299FF00D1124EF5937
:10271000FE4F80818F70806180838CE891E00E9401
:102720006E12CF910C94021301968770B8CFCF919F
:102730000895AF92BF92CF92DF92EF92FF920F93E4
:102740001F93CF93DF93CDB7DEB761970FB6F894A1
:10275000DEBF0FBECDBF8C0185E0F801DE011D9606
:1027600001900D928A95E1F7D8014C9111965C91F8
:1027700011971296EC9030918C0160918D018091AF
:102780008F0190919001009731F06F3F31F421E07B
:102790003F3F19F403C021E001C020E0B22FB17027
:1027A000BB2E20FD60C1F801C380D480A0908E01B3
:1027B000AA2009F4EEC020919101C816D90628F08C
:1027C000D601A81BB90BCD0104C0809590958C0D46
:1027D0009D1DFF24F394883C910580F0F12C207F0F
:1027E00009F09CC07C2DD98AC88A6E2D89890E94E7
:1027F000E3128CE891E00E946E122DC1822F807F3F
:1028000009F054C0561314C0431312C0FE2CE1103B
:102810000FC02F702061209391010E9423138CE838
:1028200091E00E946E1280919101F80185835CC154
:10283000CD2831F05F3F31F481E04F3F19F403C000
:1028400081E001C080E080FD03C081E08E2502C0F0
:1028500080E090E0F82FF170FF2E80FF1CC0809187
:102860005A0120915B0136E0821709F41AC190E009
:10287000389FF001399FF00D1124E45AFE4F618119
:10288000561306C06081461303C06281E61203C07E
:1028900001968770E9CFFE2CEE2009F425C18091C6
:1028A0009101816080939101F12C1EC1561309C0E2
:1028B000431307C0E11005C080919101F8018583A1
:1028C000A4C04D875E878D859E850E94DE12882379
:1028D00079F1EE2069F120919101822F82958F701C
:1028E00090E0029774F080918C0190918D0198870F
:1028F0008F831986DB86CA862C87CE0107960E94B5
:102900006E1286E0F801ACE8B1E001900D928A9574
:10291000E1F70E9431130E9423130DC0561771F086
:102920004D875E878D859E850E94DE1281111AC0BB
:10293000C8010E946E12FF24F394D6C04313F0CF57
:10294000E110EECF80919101F8018583C8010E94CA
:102950006E1286E0ECE8F1E0DF011D928A95E9F75E
:10296000FA2CC2C0EE2021F320919101822F829592
:102970008F7090E002972CF280918C0190918D01E4
:102980009A8389831B82DD82CC822E83CE010196BD
:10299000B6CFC816D90628F0F601E81BF90BCF010F
:1029A00004C0809590958C0D9D1D883C910548F044
:1029B000F12C7C2DD98AC88A6E2D89890E94E31258
:1029C0004AC0FE2CEE2009F4B3CF561333C0431394
:1029D00031C02091910120FD24C0822F82958F70FB
:1029E000482F50E041155105E1F0D80115962C9380
:1029F00015974F30510549F08F5F982F9295907F32
:102A0000822F8F70892B15968C93C8010E946E12AD
:102A100086E0F801ACE8B1E001900D928A95E1F70B
:102A20003DC086E0F801ACE8B1E001900D928A95D6
:102A3000E1F75AC04D875E878D859E850E94DE1224
:102A400081115FCF80919101816080939101C801D4
:102A50000E946E1249C0ECE8F1E086E0DF011D92B1
:102A60008A95E9F71BC0EE2009F462CF4D875E8797
:102A70008D859E850E94DE12F82E882309F458CF9A
:102A800086E0F801ACE8B1E001900D928A95E1F79B
:102A90008CE891E00E94E80E0E9431130E942313FB
:102AA00023C04D875E878D859E850E945A18292FE9
:102AB00022952F70223028F49F7039F0811105C0C3
:102AC0000BC0243028F49F7049F4805E883020F0D9
:102AD000C8010E946E12BF2CFB2C06C0D8011596AF
:102AE0009C91907F91F7F8CF8F2D61960FB6F89457
:102AF000DEBF0FBECDBFDF91CF911F910F91FF9031
:102B0000EF90DF90CF90BF90AF9008951F93CF9339
:102B1000DF93CDB7DEB72C970FB6F894DEBF0FBEAC
:102B2000CDBF4F83588769877A878B879C87CE0173
:102B300007960E9499138823D1F09F8188852A8562
:102B40003B85232B31F08F3F31F481E09F3F19F417
:102B500003C081E001C080E080FD47C04F815885FF
:102B600069857A858B859C850E94F2123EC086E03D
:102B7000FE013796DE01119601900D928A95E1F7DC
:102B8000FF81E8856A857B856115710531F0EF3F2E
:102B900031F481E0FF3F19F403C081E001C080E01F
:102BA00080FD23C020915B0130E0C9010196877050
:102BB000992740915A0150E084179507F1F1F98364
:102BC000EA837D836C8396E0929FD001939FB00D42
:102BD0001124A45ABE4FFE01319601900D929A9590
:102BE000E1F780935B010E94021316E080915A0185
:102BF00090915B01891771F1189FC0011124845ACB
:102C00009E4F0E949913882329F1E0915A011E9F3B
:102C1000F0011124E45AFE4F408151816281738199
:102C2000848195810E94F21280915A0190E0019670
:102C30008770992780935A01D9CF0E94B6121092BB
:102C40005B0110925A01ECE8F1E086E0DF011D9291
:102C50008A95E9F72C960FB6F894DEBF0FBECDBF6C
:102C6000DF91CF911F910895EF92FF920F931F93E1
:102C7000CF93DF938C01892B09F46CC0F12CEE24E7
:102C8000E394E8012196F8018491843740F484307C
:102C900008F051C0813081F0823019F15BC0853776
:102CA00009F444C0A8F19CE7980F903708F052C08F
:102CB0008F770E94C40F41C00E5F1F4FFE018491A9
:102CC00090E2980F983050F48770FE2D01C0FF0FEE
:102CD0008A95EAF78F2F0E94BC1814C00E94EE0E4E
:102CE0002DC00E5F1F4FFE01849190E2980F983027
:102CF00060F48770FE2D01C0FF0F8A95EAF78F2FD1
:102D00000E94C2180E94E71819C00E94C40F16C082
:102D10000E5F1F4FFE01C491CC2381F08FE99FE02D
:102D20000197F1F700C00000C150F6CF0E5F1F4FB2
:102D3000FE01F49003C00E94EE0E8E018F2D8823B9
:102D400009F49FCFEFE9FFE03197F1F700C00000F1
:102D50008150F5CFDF91CF911F910F91FF90EF90B0
:102D60000895089508950C94B2160C94B3160E9419
:102D7000B5166093BE017093BF018093C00190931C
:102D8000C1010C949C120C94B7160F931F930091E1
:102D9000BE011091BF012091C0013091C101602B93
:102DA000712B822B932B1F910F910C94B7160F93BD
:102DB0001F930091BE011091BF012091C00130917D
:102DC000C10160237123822393231F910F910C94DF
:102DD000B7160F931F930091BE011091BF01209170
:102DE000C0013091C10160277127822793271F916D
:102DF0000F910C94B7160C94B2160E94FB166093B8
:102E0000BA017093BB018093BC019093BD010C94F7
:102E10009C1260E070E0CB010C94FD160F931F93A1
:102E200041E050E060E070E08A019B0104C0000FC7
:102E3000111F221F331F8A95D2F7C901B8011F91B4
:102E40000F910C94FD160F931F9341E050E060E04A
:102E500070E004C0440F551F661F771F8A95D2F794
:102E60008091BA019091BB01A091BC01B091BD01CC
:102E70008A019B01082B192B2A2B3B2BC901B80176
:102E80001F910F910C94FD160F931F9341E050E09A
:102E900060E070E004C0440F551F661F771F8A95DD
:102EA000D2F740955095609570958091BA019091B8
:102EB000BB01A091BC01B091BD018A019B01082317
:102EC00019232A233B23C901B8011F910F910C94A8
:102ED000FD160F931F9341E050E060E070E004C0E6
:102EE000440F551F661F771F8A95D2F78091BA014C
:102EF0009091BB01A091BC01B091BD018A019B01E1
:102F0000082719272A273B27C901B8011F910F91CC
:102F10000C94FD160F931F930091BA011091BB0101
:102F20002091BC013091BD01602B712B822B932B22
:102F30001F910F910C94FD160F931F930091BA01EE
:102F40001091BB012091BC013091BD016023712320
:102F5000822393231F910F910C94FD160F931F93BF
:102F60000091BA011091BB012091BC013091BD01CB
:102F700060277127822793271F910F910C94FD16CC
:102F8000089528E0929F800D1124E82FE695E6959C
:102F9000E695877051E001C0550F8A95EAF785E004
:102FA000E89FF0011124EE56FE4F20E030E070E083
:102FB0004081CB01022E02C0969587950A94E2F7D4
:102FC0008170819584278523842781932F5F3F4FCC
:102FD0002530310569F7089528E0929F800D11246E
:102FE000682F669566956695982F977085E0689F1F
:102FF000B001112440E050E080E0FB01E40FF51F38
:10300000EE56FE4F208130E0092E02C036952795FE
:103010000A94E2F721703327042E01C0220F0A948C
:10302000EAF7822B4F5F5F4F4530510531F7089526
:10303000BF92CF92DF92EF92FF920F931F93CF93A5
:10304000DF938C01C090BA01D090BB01E090BC012D
:10305000F090BD018091BE019091BF01A091C0018F
:10306000B091C101C82AD92AEA2AFB2ACFE1D0E0CF
:10307000D701C6010C2E04C0B695A79597958795E4
:103080000A94D2F780FD04C0219790F7B12C07C0B5
:10309000BC2EB8018C2F0E942A0A0197A9F38B2D10
:1030A000DF91CF911F910F91FF90EF90DF90CF9024
:1030B000BF900895CF93DF93EC010E941818BE01D2
:1030C0000E942A0ADF91CF9108951F93CF93DF9337
:1030D000EB0190915901992321F0CB010E945A18DC
:1030E00013C0882349F0CB010E941818182F682FAD
:1030F000CE010E94C11704C0CB010E94EC17182F0B
:10310000BE01812F0E942A0ADF91CF911F9108955D
:103110008091C20185958595859508958091C2011C
:10312000877008959091C201977081E009F480E062
:1031300008958091CE0108959091CE01892B8093BE
:10314000CE01089580959091CE0189238093CE0180
:1031500008951092CE0108959091CD01892B80930E
:10316000CD01089580959091CD0189238093CD0163
:1031700008951092CD0108959091CC01892B8093F0
:10318000CC01089580959091CC0189238093CC0146
:1031900008951092CC0108958091C3010895089577
:1031A0000C94CF180C94D0189091C301981721F06B
:1031B0008093C3010C94D21808958091C301882391
:1031C00029F01092C30180E00C94D2180895E09188
:1031D0000001F09101018091CE018083E091000116
:1031E000F091010190818091CD01892B8083E09144
:1031F0000001F091010190818091CC01892B8083A5
:103200008091C301882381F0E0910001F0910101D8
:103210009081892B808380910001909101010E940F
:10322000E71981110E94DD18809100019091010140
:103230000C94460D0C94CF1898E0899F90011124AE
:10324000262B2093C2010E9423178091C2018595ED
:10325000859585950C941A191092C20180E00C9402
:103260001A192091C201809582238093C201982F60
:10327000977079F430E0482F082E000C550B241776
:10328000350739F08595859585950E9444170C94EE
:103290002C19089590932D0180932C010895829507
:1032A000982F937344E0949F900111248C7C869511
:1032B0008695282B822F8575880F2A7A2695822B52
:1032C000089580E090E00E94A72C21E08D3E9E4F63
:1032D00009F020E0822F089582E090E00C949F2C6A
:1032E000682F82E090E00C94AD2C83E090E00C9489
:1032F0009F2C682F83E090E00C94AD2C84E090E04C
:103300000C949F2C682F84E090E00C94AD2CAB01C2
:10331000BC018FE090E00C94BF2CAB01BC0183E1B9
:1033200090E00C94BF2C60E070E0CB010C948D1900
:1033300060E070E0CB010E9487190C9493196DEE48
:103340007EEF80E090E00E94CB2C60E082E090E095
:103350000E94AD2C60E083E090E00E94AD2C1092C2
:10336000BE011092BF011092C0011092C10160E035
:1033700084E090E00E94AD2C60E085E090E00E9447
:10338000AD2C60E086E090E00E94AD2C6FEF87E00E
:1033900090E00E94AD2C40E050E0BA0188E090E05F
:1033A0000E94BF2C60E08DE090E00E94AD2C40E0D8
:1033B00050E0BA0188E190E00E94BF2C60E087E114
:1033C00090E00E94AD2C0C9498190C949F19FC016C
:1033D000329697E080E0915029F021912223D9F391
:1033E0008F5FF9CF08959C01FC0132969FEF80E03A
:1033F0004191461789F09F3F19F4411101C0982F60
:103400008F5F8630A9F79F3F39F0F901E90FF11D71
:1034100097FDFA956283089508959C012A5F3F4FB6
:10342000FC014281461301C0128201968217930764
:10343000B9F708950C94F3190C940D1A029626E02E
:10344000FC0111922A95E9F708950895CF930E94FF
:10345000BA080E949A070E94BB08C0E08C2F0E9405
:103460008508811104C0CF5FC830C1F701C081E079
:10347000CF9108950C94251A0C943A1A0E943C1A84
:103480008091F701843049F11092D00120E488E165
:1034900090E00FB6F894A895809360000FBE20933B
:1034A000600080E00E9410090E943C1A83B7817F6F
:1034B000846083BF83B7816083BF7894889583B726
:1034C0008E7F83BF0FB6F894A895809160008861C5
:1034D00080936000109260000FBE08950C94251A2E
:1034E0000E94B6120E943A0D0E9410090C946E1AA6
:1034F0001F920F920FB60F9211248F939F93AF9349
:10350000BF938091D001811113C08091ED01909102
:10351000EE01A091EF01B091F0014196A11DB11D06
:103520008093ED019093EE01A093EF01B093F00131
:10353000BF91AF919F918F910F900FBE0F901F90F1
:10354000189582E084BD93E095BD9AEF97BD809376
:103550006E0008952FB7F8948091ED019091EE01DF
:10356000A091EF01B091F0012FBF08952FB7F8940B
:103570006091ED017091EE018091EF019091F00169
:103580002FBF0895CF92DF92EF92FF920F931F9378
:103590002FB7F8944091ED015091EE016091EF0149
:1035A0007091F0012FBF6A017B01EE24FF248C0192
:1035B00020E030E0C016D106E206F30610F44150D8
:1035C00051099A01281B390BC9011F910F91FF90D6
:1035D000EF90DF90CF900895CF92DF92EF92FF921D
:1035E0000F931F932FB7F894C090ED01D090EE0188
:1035F000E090EF01F090F0012FBF97018601061BCC
:10360000170B280B390BC616D706E806F90618F073
:10361000C901B80106C0C901B80161507109810929
:1036200091091F910F91FF90EF90DF90CF90089537
:1036300078941F920F920FB60F9211248F939F933D
:10364000AF93BF938091ED019091EE01A091EF01B6
:10365000B091F0010196A11DB11D8093ED019093F1
:10366000EE01A093EF01B093F001BF91AF919F9154
:103670008F910F900FBE0F901F90189581E080934F
:10368000E00080E28093D8001092C9008FE19EE4B0
:103690000197F1F700C0000087E090EBDC01809318
:1036A000000290930102A0930202B09303029CE0F7
:1036B00088E10FB6F894A895809360000FBE9093B0
:1036C0006000FFCFCF92DF92EF92FF920F931F9394
:1036D000CF93C0E0E82EF12C8C2F0E94850800E0EB
:1036E00010E0C82ED12CC601002E02C095958795FA
:1036F0000A94E2F780FD06C00F5F1F4F08301105E6
:1037000091F70AC0602F7C2F80E00E940D0AE81616
:10371000F90691F781E004C0CF5FC830E9F680E098
:10372000CF911F910F91FF90EF90DF90CF90089570
:10373000CF93C82F8CE20E94621B882321F08C2F2C
:10374000CF910C94621B80E0CF910895CF930E949B
:103750006119811102C00E94E51981EB92E00E947B
:10376000CD06C5E6C15049F00E949A078FE39CE957
:103770000197F1F700C00000F5CF8AEA92E00E94BD
:10378000CD0689E20E94981B81110FC18AE20E9436
:10379000981B81110E94E51985E00E94981B8111F8
:1037A0000E943E1B0E946C198093CF0187E00E940B
:1037B000981B8823A9F18BE10E94981B882351F064
:1037C0008091CF0181FB222720F991E0922790FB85
:1037D00081F90EC08EE00E94981B882361F08091D1
:1037E000CF0182FB222720F991E0922790FB82F9FA
:1037F0008093CF0115C080E10E94981B9091CF016A
:10380000882341F093FB222720F981E0822780FB67
:1038100093F904C0892F809580FB90F99093CF0194
:103820008091CF010E9470190E947E1990E09093C0
:10383000F2018093F10180EE0E94981B882341F0F1
:103840008091F101982F909590FB80F98093F10180
:1038500089E30E94981B882359F08091F10181FB34
:10386000222720F991E0922790FB81F98093F101C2
:1038700082EE0E94981B882359F08091F10182FB0F
:10388000222720F991E0922790FB82F98093F101A1
:1038900086EE0E94981B882359F08091F10183FBEA
:1038A000222720F991E0922790FB83F98093F10180
:1038B00083EE0E94981B882359F08091F10184FBCC
:1038C000222720F991E0922790FB84F98093F1015F
:1038D00085E30E94981B882359F08091F10185FBB4
:1038E000222720F991E0922790FB85F98093F1013E
:1038F00081E30E94981B882359F08091F10186FB97
:10390000222720F991E0922790FB86F98093F1011C
:1039100081E10E94981B882359F08091F10187FB77
:10392000222720F991E0922790FB87F98093F101FB
:103930008091F1010E94821987E20E94981BC82F92
:103940008EE10E94981B8111C2608FE10E94981B3A
:103950008111C46080E20E94981B8111C86081E2DD
:103960000E94981B8111C06182E20E94981B811104
:10397000C06283E20E94981B8111C06484E20E94AD
:10398000981B882311F0C06802C0CC2329F08C2F2B
:103990000E9479196C2F03C00E947519682F70E07E
:1039A00080E090E0CF910C94C316CF910895809160
:1039B000D40180FF0BC06091050185E0689FB001D4
:1039C000112475956795759567952BC081FF09C082
:1039D0006091050185E0689FB00111247595679598
:1039E00020C082FF07C06091050185E0689FB0019B
:1039F000112417C09091D3019923D1F06091040153
:103A0000961788F72091050185E0289F90011124E1
:103A1000929FA001939F500D112470E0CA010E9453
:103A2000712C6038710540F46115710519F406C0F8
:103A300065E070E0862F08958FE7089581E008958E
:103A40008091D40180FF08C06091030170E07595FA
:103A500067957595679521C081FF06C06091030148
:103A600070E07595679519C082FF04C060910301ED
:103A700070E010C09091D301992399F060910201F8
:103A80009617A0F780910301899FC001112470E06F
:103A90000E94712C6038710540F46115710519F4AC
:103AA00006C061E070E0862F08958FE7089581E0F9
:103AB0000895803F21F40E94D71C819504C0813F66
:103AC00029F40E94D71C8093D8010895823F21F4E5
:103AD0000E94D71C819504C0833F29F40E94D71C03
:103AE0008093D7010895893F19F40E94201D05C0D5
:103AF0008A3F31F40E94201D81958093D901089559
:103B00008B3F21F40E94201D819504C08C3F29F435
:103B10000E94201D8093DA010895843F21F4809152
:103B2000D601816017C0853F21F48091D601826063
:103B300011C0863F21F48091D60184600BC0873F7D
:103B400021F48091D601886005C0883F31F48091CE
:103B5000D60180618093D60108958D3F21F4809134
:103B6000D40181600BC08E3F21F48091D40182602A
:103B700005C08F3F29F48091D40184608093D401E3
:103B80000895803F39F48091D80187FF6CC010926E
:103B9000D80169C0813F29F48091D8011816BCF37F
:103BA00062C09091D701823F29F497FF5CC01092C8
:103BB000D70159C0833F19F41916CCF354C0893F7B
:103BC00041F48091D90118160CF04DC01092D90122
:103BD0004AC08A3F29F48091D90187FF44C0F6CFBB
:103BE0008B3F39F48091DA0187FF3DC01092DA01F2
:103BF0003AC08C3F29F48091DA011816BCF333C027
:103C0000843F21F48091D6018E7F17C0853F21F437
:103C10008091D6018D7F11C0863F21F48091D6011D
:103C20008B7F0BC0873F21F48091D601877F05C031
:103C3000883F31F48091D6018F7E8093D60113C0E6
:103C40008D3F21F48091D4018E7F0BC08E3F21F4F3
:103C50008091D4018D7F05C08F3F29F48091D401DC
:103C60008B7F8093D4018091D70181110EC0809108
:103C7000D80181110AC08091D901811106C08091BB
:103C8000DA01811102C01092D30108958091CF0111
:103C900083FF7EC08DEE92E00E94CD068091D6011A
:103CA0001F928F9388EE92E09F938F930E946607F6
:103CB00086EE92E00E94CD068091D701282F082E33
:103CC000000C330B3F938F9383EE92E09F938F937F
:103CD0000E94660781EE92E00E94CD068091D80195
:103CE000282F082E000C330B3F938F938EED92E01C
:103CF0009F938F930E9466078CED92E00E94CD0601
:103D00008091D901282F082E000C330B3F938F93FD
:103D100089ED92E09F938F930E94660787ED92E072
:103D20000E94CD068091DA01282F082E000C330B5B
:103D30003F938F9384ED92E09F938F930E94660749
:103D400081ED92E00E94CD068091D3011F928F9366
:103D50008EEC92E09F938F930E9466078CEC92E02A
:103D60000E94CD068091D4011F928F9389EC92E03E
:103D70009F938F930E94660786EC92E00E94CD0687
:103D80008DB79EB74C960FB6F8949EBF0FBE8DBFF1
:103D900085ED91E00E948F0D0E94AA1A9093D201A6
:103DA0008093D10108951F93CF93DF938091D10128
:103DB0009091D2010E94C21AAC019091D301992333
:103DC00021F02091060130E006C0209107018AE031
:103DD000289F900111244217530708F47BC080915B
:103DE000D701C091D801D091D9011091DA01811188
:103DF00007C0C1116BC0D11169C0111167C06AC081
:103E00009F3F19F09F5F9093D301181624F40E94EE
:103E1000D71C8093D7018091D70187FF05C00E94EE
:103E2000D71C81958093D7011C1624F40E94D71CBF
:103E30008093D8018091D80187FF05C00E94D71CCC
:103E400081958093D8013091D7013323E1F02091FF
:103E5000D8012223C1F045EB3403C001112499237A
:103E600019F09093D70103C081E08093D70135EB1F
:103E70002303C0011124992319F09093D80103C0A2
:103E800081E08093D8011D1624F40E94201D8093A8
:103E9000D9018091D90187FF05C00E94201D81951D
:103EA0008093D901111624F40E94201D8093DA0119
:103EB0008091DA0187FF05C00E94201D81958093C3
:103EC000DA01DF91CF911F910C94461E9F3F09F0BC
:103ED00099CFAACFDF91CF911F910895E5EDF1E041
:103EE00086E0DF011D928A95E9F71092D3011092C6
:103EF000D401089580E195E00E94CD061F9281E0F3
:103F00008F931F9285E08F9382EC94E09F938F9321
:103F10000E9466070F900F900F900F900F900F90D8
:103F200008958330E9F128F4813061F0823009F19D
:103F30000895853009F462C008F449C0863009F458
:103F400074C0089580910701262F30E0280F311D9D
:103F50002F3F310524F4680F6093070103C08FEFF2
:103F600080930701809107011F928F938BEF93E05D
:103F700072C080910601262F30E0280F311D2F3F9F
:103F8000310524F4680F6093060103C08FEF80931E
:103F90000601809106011F928F9389EE93E05BC02A
:103FA00080910501262F30E0280F311D2F3F31056C
:103FB00024F4680F6093050103C08FEF809305011F
:103FC000809105011F928F9386ED93E044C080910C
:103FD0000401262F30E0280F311D2F3F310524F436
:103FE000680F6093040103C08FEF809304018091F8
:103FF00004011F928F9381EC93E02DC08091030107
:10400000262F30E0280F311D2F3F310524F4680F93
:104010006093030103C08FEF80930301809103013C
:104020001F928F9388EA93E016C080910201262F99
:1040300030E0280F311D2F3F310524F4680F6093C5
:10404000020103C08FEF80930201809102011F9251
:104050008F938DE893E09F938F930E9466070F9054
:104060000F900F900F900895833081F128F48130E4
:1040700059F08230D1F00895853009F449C0B8F183
:10408000863009F456C0089580910701681720F41E
:10409000861B8093070102C01092070180910701DF
:1040A0001F928F938EE793E054C0809106016817AA
:1040B00020F4861B8093060102C0109206018091B5
:1040C00006011F928F938CE693E043C08091050117
:1040D000681720F4861B8093050102C01092050129
:1040E000809105011F928F9389E593E032C0809102
:1040F0000401681720F4861B8093040102C010920B
:104100000401809104011F928F9384E493E021C005
:1041100080910301681720F4861B8093030102C07D
:1041200010920301809103011F928F938BE293E021
:1041300010C080910201681720F4861B8093020151
:1041400002C010920201809102011F928F9380E1C0
:1041500093E09F938F930E9466070F900F900F90AC
:104160000F900895CF93C82F1F928F9385E196E00B
:104170009F938F930E94660781E090E0A0E0B0E0FB
:10418000BC01CD0104C0660F771F881F991FCA9517
:10419000D2F70E94C3160F900F900F900F90CF91FF
:1041A0000C94B612CF938B3109F4D1C108F067C1DA
:1041B0008B3009F48AC108F03DC1863009F488C10A
:1041C00020F4853009F496C144C2873009F4A4C1B3
:1041D000883009F03EC28CE39BE00E94CD068DE85A
:1041E0009AE00E94CD060E9475191F928F938AE86B
:1041F0009AE09F938F930E94660788E89AE00E9456
:10420000CD060E946C19C82F85E79AE00E94CD0662
:104210001F92CF9380E79AE09F938F930E94660747
:104220008EE69AE00E94CD0684E69AE00E94CD06D2
:104230008C2F81701F928F9381E69AE09F938F93CA
:104240000E9466078FE59AE00E94CD0685E59AE018
:104250000E94CD06C1FB882780F91F928F9382E5CB
:104260009AE09F938F930E94660780E59AE00E94F0
:10427000CD0684E49AE00E94CD06C2FB882780F92F
:104280001F928F9381E49AE09F938F930E94660719
:104290008FE39AE00E94CD0686E39AE00E94CD0665
:1042A000C3FBCC27C0F91F92CF9383E39AE09F937F
:1042B0008F930E94660781E39AE00E94CD060E94D8
:1042C0007E19C82F8DE19AE00E94CD061F92CF93F0
:1042D00088E19AE09F938F930E94660786E19AE0B7
:1042E0000E94CD068DEF99E00E94CD068C2F817043
:1042F0001F928F938AEF99E09F938F930E94660796
:104300008DB79EB780960FB6F8949EBF0FBE8DBF37
:1043100088EF99E00E94CD0681EE99E00E94CD06DB
:10432000C1FB882780F91F928F938EED99E09F93B0
:104330008F930E9466078CED99E00E94CD068AEC6F
:1043400099E00E94CD06C2FB882780F91F928F93C7
:1043500087EC99E09F938F930E94660785EC99E024
:104360000E94CD0683EB99E00E94CD06C3FB88270F
:1043700080F91F928F9380EB99E09F938F930E9417
:1043800066078EEA99E00E94CD0684EA99E00E94D1
:10439000CD06C4FB882780F91F928F9381EA99E0AC
:1043A0009F938F930E9466078FE999E00E94CD0644
:1043B0008DE899E00E94CD06C5FB882780F91F9201
:1043C0008F938AE899E09F938F930E94660788E80D
:1043D00099E00E94CD068CE699E00E94CD06C6FBCE
:1043E000882780F91F928F9389E699E09F938F9396
:1043F0000E94660787E699E00E94CD068FE599E066
:104400000E94CD06C7FBCC27C0F91F92CF938CE545
:1044100099E09F938F930E9466078AE599E00E9436
:10442000CD068DB79EB74C960FB6F8949EBF0FBEC3
:104430008DBF49C0803109F4B4C020F48E3009F436
:104440009AC007C1863109F4C7C0893109F001C19A
:1044500081E897E00E94CD0689E597E00E94CD06AD
:1044600083E297E00E94CD068EEE96E00E94CD0694
:104470008EEA96E00E94CD0683E896E08FC08A32ED
:10448000E1F060F4873209F4E0C028F48E3108F4DA
:10449000E0C08D51DBC0893269F1DBC0833448F460
:1044A0008A3308F0D0C0853309F4CFC0883369F06F
:1044B000D0C0833409F4C9C0CCC08BE29BE00E9419
:1044C000CD060E94E519C1E0C9C087EB97E066C040
:1044D0008091CF01817F8E7F8093CF0180E997E02B
:1044E0000E94CD0687E29BE00E94CD0681E080938A
:1044F000DC01E9CF0E94B6128BE09BE00E94CD0662
:104500009FEF23ED80E3915020408040E1F700C011
:1045100000000E943E1BD7CF8091CF01C82FC095CD
:10452000C170C0FB80F98093CF01CC2329F08FEFBD
:104530009AE00E94CD0692C082EF9AE00E94CD06DA
:104540008091CF01897F877F8093CF01BCCF9091ED
:10455000CF0191FBCC27C0F981E0C827892FC0FB90
:1045600081F98093CF01CC2319F085EE9AE029C020
:1045700087ED9AE013C09091CF0192FBCC27C0F950
:1045800081E0C827892FC0FB82F98093CF01CC231B
:1045900019F088EC9AE015C088EB9AE00E94CD06ED
:1045A00092CF9091CF0193FBCC27C0F981E0C8272F
:1045B000892FC0FB83F98093CF01CC2351F08CEA83
:1045C0009AE00E94CD068091CF0181608093CF0157
:1045D00045C08FE99AE0E2CF85E796E00E94CD06DC
:1045E0000E943A0D1F928F938BE596E09F938F93D5
:1045F0000E946607809112011F928F9384E496E0D7
:104600009F938F930E9466078091E9011F928F9379
:1046100081E396E09F938F930E9466070E94B61AEB
:104620009F938F937F936F938AE196E09F938F93ED
:104630000E9466078DB79EB742960FB6F8949EBF4C
:104640000FBE8DBF40CF895301C080E00E94B220D1
:104650003ACF8DE99AE00E94CD06C0E08C2FCF9131
:10466000089580E008950C9431238E518A3030F4FF
:10467000E82FF0E0ED5EFE4F8081089580E0089520
:10468000CF93C82F8091DC01813059F020F0823027
:1046900009F445C039C10E949918823209F036C127
:1046A00004C00E949918823261F48C2F0E94332337
:1046B000811104C08C2F0E94D2202FC081E090E095
:1046C0002CC08C2F0E943123811126C0C431E1F00F
:1046D00070F4CB3081F0C031D1F40E947A1F8DE0AC
:1046E00096E00E94CD0682E08093DC0115C0C932BD
:1046F00059F0C83361F480E997E00E94CD0681E16A
:1047000096E00E94CD0608C01092DC0101C18BE04A
:1047100096E00E94CD06FCC081E08170FBC0C432EF
:1047200028F5CE3108F0C1C0CB30A1F1D0F4C730AC
:1047300009F0D0C08EE18093070182E380930601E7
:104740008AE08093050184E18093040188E08093EE
:10475000030188E28093020181EB94E00E94CD0680
:10476000BCC0C33149F1C431C1F0B4C0CB3409F489
:10477000A6C028F4C93289F0C83361F0ABC0C13596
:1047800009F49BC0C23509F496C0CE3409F0A2C02A
:104790006AE09BC00E947A1FA0C08091DB01882341
:1047A00019F01092DB0199C08EEB94E00E94CD06C7
:1047B00081E08093DC01AEC088E994E00E94CD06E0
:1047C00086E894E00E94CD06809107011F928F93A6
:1047D00083E894E09F938F930E94660781E894E0BA
:1047E0000E94CD068FE694E00E94CD0680910601DE
:1047F0001F928F938CE694E09F938F930E9466079D
:104800008AE694E00E94CD068BE594E00E94CD06F6
:10481000809105011F928F9388E594E09F938F9379
:104820000E94660786E594E00E94CD0685E494E048
:104830000E94CD06809104011F928F9382E494E040
:104840009F938F930E94660780E494E00E94CD06B8
:104850008BE294E00E94CD06809103011F928F931A
:1048600088E294E09F938F930E94660786E294E02B
:104870000E94CD068FE094E00E94CD068091020157
:104880001F928F938CE094E09F938F930E94660712
:104890008AE094E00E94CD068DB79EB748960FB689
:1048A000F8949EBF0FBE8DBF18C08C2F0E94352379
:1048B0008093DB0112C061E003C061E006C06AE0E2
:1048C0008091DB010E94911F08C08091DB010E9452
:1048D000342003C08FEA94E013C08091DB01882369
:1048E00069F01F928F9389EA94E09F938F930E94BF
:1048F00066070F900F900F900F9004C086EA94E027
:104900000E94CD0681E006C01092DC0180E002C06A
:1049100080E003CFCF9108958091E80108959FB77B
:10492000F8941092DF019FBF9091F701943009F045
:1049300057C09091E9009F703091EC00232F2170B7
:1049400030FD20E8922B23E02093E9002091EB003A
:1049500020FF43C02091EE0027FF3FC02091DD01E2
:10496000222321F02091E80025FF37C01092DD01BD
:1049700026E03091E80035FD15C03091F701343064
:1049800061F53091EB0035FD28C0215021F481E024
:104990008093DD0122C0EFE9FFE03197F1F700C01D
:1049A0000000E7CF8093F1008091E80085FD0AC008
:1049B0008091E80080FFFCCF8091E8008E778093A3
:1049C000E80006C08FB7F89421E02093DF018FBF85
:1049D0009F709093E90080E008959F709093E900A4
:1049E0008FEF08950F931F93CF93DF9300D01F9203
:1049F000CDB7DEB78C010E94AB27823011F0843036
:104A000021F584E089831B830A8382E08093E90097
:104A10008FEF9091E800815095FD06C095ED9A9535
:104A2000F1F700008111F5CF8091E80085FF0DC0FE
:104A300040E050E063E070E0CE0101960E94C8279C
:104A40008091E8008E778093E8000F900F900F9090
:104A5000DF91CF911F910F910895CF93DF9300D0F5
:104A60001F92CDB7DEB72091F701243031F523E056
:104A70002983805891099B838A8382E08093E9008F
:104A80008FEF9091E800815095FD06C095ED9A95C5
:104A9000F1F700008111F5CF8091E80085FF0DC08E
:104AA00040E050E063E070E0CE0101960E94C8272C
:104AB0008091E8008E778093E8000F900F900F9020
:104AC000DF91CF910895CF93DF93EC010E94AB2744
:104AD000823011F08430F9F482E08093E9008FEFA6
:104AE0009091E800815095FD06C095ED9A95F1F7FB
:104AF00000008111F5CF8091E80085FF0CC040E0F7
:104B000050E066E070E0CE010E94C8278091E80086
:104B10008E778093E800DF91CF910895CF93DF9354
:104B2000EC010E94AB27823011F0843039F581E02E
:104B30008093E9008FEF9091E800815095FD06C0C9
:104B400095ED9A95F1F700008111F5CF8091E8007D
:104B500085FF14C040E050E068E070E0CE010E94A4
:104B6000C8278091E8008E778093E80088E0FE01F6
:104B7000A0EEB1E001900D928A95E1F7DF91CF911F
:104B800008958CE69BE00E94CD068091F60181118C
:104B900009C00E9459290E94B6298091E2008460D0
:104BA0008093E200089588E69BE00E94CD06109273
:104BB000F601089584E69BE00C94CD0680E69BE028
:104BC0000C94CD068CE59BE00E94CD060C94701AE7
:104BD0002091DE012F5F822F62E30E94652C9923D2
:104BE00019F02093DE0108951092DE018091DF011B
:104BF000882371F18091F701843041F58091E900BB
:104C00008F702091EC00922F917020FD90E8892BFD
:104C100093E09093E9009091EB0090FF14C0909185
:104C2000EE0097FF10C09091E80095FF03C010922E
:104C3000F100F9CF9091E80090FF05C09091E80055
:104C40009E779093E8008F708093E9001092DF01C7
:104C5000089542E061EC81E00E94D22842E261ECDA
:104C600082E00E94D22842E261EC83E00C94D228D8
:104C70008091F901833009F460C030F4813071F023
:104C8000823009F499C008958A3009F485C08B30C8
:104C900009F46BC0893009F0A7C020C08091F801E9
:104CA000813A09F0A1C08091E800877F8093E800F5
:104CB0008091FC019091FD01892B21F468E080EE48
:104CC00091E003C060E080E090E070E00E94132873
:104CD0008091E8008B778093E80008958091F80137
:104CE000813209F081C08091FC019091FD01029711
:104CF00008F07AC08091E800877F8093E800809177
:104D0000E80082FD05C08091F7018111F8CF6CC0E9
:104D10002091F3008091F20090E0922B029729F409
:104D20008091F1008B7F813021F48091F10080939C
:104D3000E8018091E8008B7753C08091F801813AB7
:104D400009F052C08091FC019091FD01892B09F07E
:104D50004BC08091E800877F8093E8008091E80055
:104D600080FFFCCF8091120136C08091F801813222
:104D7000D9F58091FC019091FD01892BA9F58091D5
:104D8000E800877F8093E8000E9407298091FA015C
:104D9000809312010C94B6128091F801813221F5B2
:104DA0008091E800877F8093E8000E940729809126
:104DB000FB018093E90108958091F801813AA1F403
:104DC0008091E800877F8093E8008091E80080FF71
:104DD000FCCF8091E9018093F1008091E8008E770B
:104DE0008093E8000C940729089584B7877F84BFD7
:104DF0000FB6F894A8958091600088618093600058
:104E0000109260000FBE80E88093610010926100F4
:104E10000E94D90D0E9459290E94B6298091E20072
:104E200084608093E2008FE894E20E944A197894AB
:104E30000E944A2C0E94E10D88E091E00E94350D0D
:104E40008BE49BE00E94CD068091F701853089F4C8
:104E500087E49BE00E94CD060E943E1A8091F501F6
:104E6000882391F30E94261A882371F30E94B227A7
:104E7000EBCF0E94110EE8CF0C943E27292F332749
:104E800023303105C9F060F42130310581F0223042
:104E9000310509F047C08BE590E02CE93BE046C0C6
:104EA0002132310511F12232310561F13BC082E13D
:104EB00090E027EF3BE03AC099278130910561F0FF
:104EC00040F08230910559F0039761F5E0E7FBE08F
:104ED00008C0E8E9FBE005C0EAE8FBE002C0E6E75D
:104EE000FBE0849190E09F0121C063307105D0F414
:104EF000660F771FFB01EA5DFE4F2081318189E05B
:104F000090E014C06330710568F4FB01EE0FFF1FE1
:104F1000E05EFE4F20813181FB01E35EFE4F808128
:104F200090E004C080E090E020E030E0FA013183BE
:104F3000208308950895CF93C82F0E949A27C09385
:104F4000EA01CF9108958091F701843011F081E05A
:104F5000089582E008958091EA01811102C00C94C5
:104F6000A327089580E189BD82E189BD09B400FECF
:104F7000FDCF8091D8008F7D8093D8008091E00094
:104F800082608093E0008091E00081FDFCCF089575
:104F9000CF92DF92EF92FF920F931F93CF93DF9305
:104FA000EC018B017A010E942629811133C0E114A2
:104FB000F10439F0F70180819181081B190BC80FAA
:104FC000D91FC12CD12C0115110519F18091E800D0
:104FD00085FD16C08091E8008E778093E800E1148B
:104FE000F10449F0F70180819181C80ED91ED18268
:104FF000C08285E00FC00E942629882321F30AC0C1
:1050000089918093F10001501109FFEFCF1ADF0A57
:10501000DACF80E0DF91CF911F910F91FF90EF9059
:10502000DF90CF9008952091FE013091FF01261767
:10503000370748F06115710539F42091E8002E77A3
:105040002093E80001C0B901FC0120E06115710561
:1050500079F18091F7018823F1F18530F1F18091A8
:10506000E80083FD3CC08091E80082FD2EC0809165
:10507000E80080FFEBCF2091F3008091F20090E0F8
:10508000922B6115710551F08830910538F421910A
:105090002093F100615071090196F3CF21E0089748
:1050A00009F020E08091E8008E778093E800CECF71
:1050B0002111CFCF0AC08091F701882361F085309C
:1050C00061F08091E80083FD0AC08091E80082FFD2
:1050D000F2CF80E0089582E0089583E0089581E0B2
:1050E00008952091FE013091FF012617370748F0FF
:1050F0006115710539F42091E8002E772093E800BE
:1051000001C0B901FC0120E06115710591F18091A8
:10511000F701882309F440C0853009F43FC080912D
:10512000E80083FD3DC08091E80082FD2FC08091A2
:10513000E80080FFE9CF2091F3008091F20090E039
:10514000922B6115710559F08830910540F4249136
:105150002093F1003196615071090196F2CF21E060
:10516000089709F020E08091E8008E778093E800AE
:10517000CBCF2111CCCF0AC08091F701882361F0F9
:10518000853061F08091E80083FD0AC08091E800DD
:1051900082FFF2CF80E0089582E0089583E00895D1
:1051A00081E00895982F973068F59093E90098175B
:1051B00039F07091EC002091ED005091F00003C0A7
:1051C000242F762F50E021FD02C09F5FECCF30915D
:1051D000EB003E7F3093EB003091ED003D7F30934C
:1051E000ED003091EB0031603093EB007093EC00F8
:1051F0002093ED005093F0002091EE0027FDE5CFC5
:1052000080E008958F708093E90081E00895809197
:10521000F80187FF11C08091E80082FD05C08091F0
:10522000F7018111F8CF11C08091E8008B770BC096
:105230008091F701882349F08091E80080FFF8CF42
:105240008091E8008E778093E80008952091E40033
:105250003091E50095E64091EC00842F817040FF8D
:1052600023C08091E80080FD1DC08091F701882354
:1052700099F0853099F08091EB0085FD11C0409147
:10528000E4005091E5002417350729F3915011F0FF
:105290009A01E1CF84E0089582E0089583E00895C3
:1052A00081E0089580E008954091E80042FFDDCF5D
:1052B00008950E94C7290E94CF29E0EEF0E0808186
:1052C00081608083E8EDF0E080818F77808319BC76
:1052D000A7EDB0E08C918E7F8C9380818F7E808350
:1052E0001092F60108950F931F93CF93DF930E94BE
:1052F000C7290E94CF29C8EDD0E088818F778883A5
:1053000088818068888388818F7D888319BC10920A
:10531000F7011092F3011092F5011092F40100EEE2
:1053200010E0F80180818B7F808388818160888391
:1053300042E060E080E00E94D228E1EEF0E080816F
:105340008E7F8083E2EEF0E08081816080838081C7
:1053500088608083F80180818E7F8083888180616E
:105360008883DF91CF911F910F910895E8EDF0E0D0
:1053700080818F7E8083E7EDF0E080818160808393
:1053800084E082BF81E08093F6010C947329E8EDFC
:10539000F0E080818E7F80831092E2000895109269
:1053A000DA001092E10008951F920F920FB60F924B
:1053B00011242F933F934F935F936F937F938F931A
:1053C0009F93AF93BF93EF93FF938091E10082FF90
:1053D0000BC08091E20082FF07C08091E1008B7FCB
:1053E0008093E1000E94E8258091DA0080FF1FC0D1
:1053F0008091D80080FF1BC08091DA008E7F80935F
:10540000DA008091D90080FF0DC080E189BD82E182
:1054100089BD09B400FEFDCF81E08093F7010E94B1
:10542000C12505C019BC1092F7010E94D3258091B7
:10543000E10080FF19C08091E20080FF15C08091DB
:10544000E2008E7F8093E2008091E2008061809391
:10545000E2008091D80080628093D80019BC85E07A
:105460008093F7010E94DE258091E10084FF30C027
:105470008091E20084FF2CC080E189BD82E189BD7A
:1054800009B400FEFDCF8091D8008F7D8093D800B5
:105490008091E1008F7E8093E1008091E2008F7E19
:1054A0008093E2008091E20081608093E20080912D
:1054B000F301882311F084E007C08091E30087FDA9
:1054C00002C081E001C083E08093F7010E94E225E1
:1054D0008091E10083FF29C08091E20083FF25C015
:1054E0008091E100877F8093E10082E08093F70163
:1054F0001092F3018091E1008E7F8093E100809112
:10550000E2008E7F8093E2008091E20080618093D0
:10551000E20042E060E080E00E94D2288091F0004A
:1055200088608093F0000E94DA25FF91EF91BF918F
:10553000AF919F918F917F916F915F914F913F912B
:105540002F910F900FBE0F901F9018951F920F92E2
:105550000FB60F9211242F933F934F935F936F9346
:105560007F938F939F93AF93BF93CF93DF93EF93EB
:10557000FF93C091E900CF708091EC00D82FD170DB
:1055800080FDD0E81092E9008091F000877F809341
:10559000F00078940E94EA2A1092E9008091F000CD
:1055A00088608093F000CD2BCF70C093E900FF910D
:1055B000EF91DF91CF91BF91AF919F918F917F91AB
:1055C0006F915F914F913F912F910F900FBE0F9070
:1055D0001F9018951F93CF93DF93CDB7DEB7AA978F
:1055E0000FB6F894DEBF0FBECDBFE8EFF1E08091BB
:1055F000F100819322E0E030F207C9F70E943826DB
:105600008091E80083FF2EC18091F8019091F9010B
:10561000492F50E04A30510508F024C1FA01E556FF
:10562000FF4F0C94852C803821F0823809F01AC184
:1056300008C08091F4019091F501992389F082606E
:105640000FC08091FC018F70873008F00BC18093F0
:10565000E9008091EB0085FB882780F91092E90032
:105660009091E800977F9093E8008093F10010926A
:10567000F100D1C0282F2D7F09F0F4C0882319F044
:10568000823061F0EFC08091FA01813009F0EAC008
:10569000933009F080E08093F5012EC08091FA01EB
:1056A00081112AC08091FC018F702FEF280F2630C6
:1056B00008F0D8C08093E9002091EB0020FF1CC0C7
:1056C000933021F48091EB00806214C09091EB0044
:1056D00090619093EB0021E030E0A90102C0440FFB
:1056E000551F8A95E2F74093EA001092EA008091F4
:1056F000EB0088608093EB001092E9008091E80055
:10570000877F8093E8000E940729ACC08111AAC05E
:105710001091FA011F778091E3008078812B8093AC
:10572000E3008091E800877F8093E8000E940729CA
:105730008091E80080FFFCCF8091E3008068809337
:10574000E300111102C082E001C083E08093F70101
:1057500089C08058823008F085C08091FA0190910C
:10576000FB018C3D53E0950779F583E08A838AE25B
:1057700089834FB7F894DE01139620E03EE051E2B2
:10578000E32FF0E050935700E49120FF03C0E2952F
:10579000EF703F5FEF708E2F90E0EA3010F0C79609
:1057A00001C0C0968D939D932F5F243149F74FBF61
:1057B0008091E800877F8093E8006AE270E0CE0184
:1057C00001960E94132816C06091FC017091FD01A2
:1057D000AE014F5F5F4F0E943C27BC01892B09F44B
:1057E00041C09091E800977F9093E80089819A8169
:1057F0000E9471288091E8008B778093E80032C086
:10580000803881F58091E800877F8093E80080915F
:10581000F3018093F1008091E8008E7772CF8111BF
:1058200021C08091FA019091FB0199270297D4F44D
:105830008091E800877F8093E8008091FA0180934F
:10584000F3010E9407298091F301811106C0809124
:10585000E30087FD02C081E001C084E08093F7018E
:105860000E9429268091E80083FF0AC08091E80009
:10587000877F8093E8008091EB0080628093EB004B
:10588000AA960FB6F894DEBF0FBECDBFDF91CF91C1
:105890001F910895CF938091F7018823A1F0C091C3
:1058A000E900CF709091EC00892F817090FD80E825
:1058B000C82B1092E9008091E80083FD0E94EA2A3B
:1058C000CF70C093E900CF910895991B79E004C08F
:1058D000991F961708F0961B881F7A95C9F780952F
:1058E000089597FB072E16F4009407D077FD09D092
:1058F0000E948B2C07FC05D03EF4909581959F4F1C
:105900000895709561957F4F0895EE0FFF1F0590E4
:10591000F491E02D0994AA1BBB1B51E107C0AA1FFB
:10592000BB1FA617B70710F0A61BB70B881F991F40
:105930005A95A9F780959095BC01CD010895F999E4
:10594000FECF92BD81BDF89A992780B50895A8E150
:10595000B0E042E050E00C94D32C262FF999FECF12
:1059600092BD81BDF89A019700B4021639F01FBAB2
:1059700020BD0FB6F894FA9AF99A0FBE08950396CF
:10598000272F0E94AE2C0E94AD2C252F0E94AE2CFA
:10599000242F0C94AE2C0196272F0E94AE2C0C9431
:1059A000AD2CDC01CB01FC01F999FECF06C0F2BDA4
:1059B000E1BDF89A319600B40D9241505040B8F7CD
:0659C0000895F894FFCFEA
:1059C600C4012808140A321E8C248E2563252D2531
:1059D600F224010102030405060708090040852296
:0C59E600B00C2B0C090CAE0BC70BE00B37
:00000001FF
